:1000000000800020BD010000C92A00008D2A0000E8
:100010008D2A00008D2A00008D2A00008D2A000004
:100020008D2A00008D2A00008D2A0000C92A0000B8
:10003000C92A00008D2A0000B1350000A136000059
:10004000C92A0000C92A0000C92A0000C92A0000E4
:10005000C92A0000C92A0000C92A0000C92A0000D4
:10006000C92A0000C92A0000C92A0000C92A0000C4
:10007000C92A0000C92A0000C92A0000C92A0000B4
:10008000C92A0000C92A0000C92A0000C92A0000A4
:10009000C92A0000C92A0000C92A0000C92A000094
:1000A000C92A0000C92A0000C92A0000C92A000084
:1000B000C92A0000C92A0000C92A0000C92A000074
:1000C000C92A0000C92A0000C92A0000C92A000064
:1000D000C92A0000C92A0000C92A0000C92A000054
:1000E000C92A0000C92A0000C92A0000C92A000044
:1000F000C92A000075310000C92A0000B932000089
:10010000C92A0000FD330000C92A0000C92A0000E6
:10011000C92A0000C92A0000C92A0000C92A000013
:10012000C92A0000C92A0000C92A0000C92A000003
:10013000C92A0000C92A0000C92A0000C92A0000F3
:10014000C92A0000C92A0000C92A0000C92A0000E3
:10015000C92A0000C92A0000C92A0000C92A0000D3
:10016000C92A0000F9190000C92A0000C92A0000A4
:10017000C92A0000C92A0000C92A0000C92A0000B3
:10018000C92A0000C92A0000C92A0000C92A0000A3
:10019000C92A0000C92A0000C92A0000C92A000093
:1001A000C92A0000C92A0000C92A0000C92A000083
:1001B000C92A0000C92A0000C92A0000564B4CF287
:1001C000205210B51A804DF628121A8000BF00BFC9
:1001D00002F07EFC514B4FF010621A60504A9A6058
:1001E000504ADA60504A136813F4807304D14F49BF
:1001F0000B604FF4A85313604D4B1A78110703D5C9
:100200001A7842F008021A704A4B4B492A221A7097
:100210004A4A4B4B8B4204D252F8040F43F8040B6A
:10022000F8E7484B484900228B4202D243F8042B9E
:10023000FAE74649464A002352F8230041F82300D2
:1002400001336F2BF8D1434B434A802103F8011B44
:100250009342FBD1414B3D4A1A60414B8A221A70AE
:10026000A3F5805324225A70A0221A709A7992071B
:10027000FCD59A79D406FCD43A4A937903F00C035E
:10028000082B384BF9D103221A7140225A719A79FE
:100290009006FCD5334A9179324B4906FBD5324A58
:1002A000324911600221516020221A709A7902F0BD
:1002B0000C020C2AFAD12E4B2E4A1A602E4B2F4AD2
:1002C0001A6000225A60072243F8042C2C4AC3F813
:1002D0000C2D62B601F064FA144B1B68DA0705D5E1
:1002E000284801F003F8284B284A1A60284B1B784D
:1002F0005B0609D5244C254B22689A4204D121483B
:1003000000F0F4FF0023236005F04AFA02F0E6FB58
:1003100002F0BCFAFEE700BF0E200540308004402A
:10032000823F04000100002B10D0034014D0034092
:1003300002D0074000E007409C91FF1F8C5C00004A
:10034000308CFF1F9C91FF1F1497FF1F0082FF1F1F
:100350000000000000E400E05FE400E008ED00E0E1
:100360000050064000400640448004400000030165
:1003700004800440C010050014E000E0FF76010096
:100380000000202068D1F65A1CE00340A5C3945A0F
:1003900000F00740FFFFFFFFFFFFFFFFFFFFFFFF32
:1003A000FFFFFFFFFFFFFFFFFFFFFFFFFFFFFFFF5D
:1003B000FFFFFFFFFFFFFFFFFFFFFFFFFFFFFFFF4D
:1003C000FFFFFFFFFFFFFFFFFFFFFFFFFFFFFFFF3D
:1003D000FFFFFFFFFFFFFFFFFFFFFFFFFFFFFFFF2D
:1003E000FFFFFFFFFFFFFFFFFFFFFFFFFFFFFFFF1D
:1003F000FFFFFFFFFFFFFFFFFFFFFFFFFFFFFFFF0D
:10040000FFFFFFFFFFFFFFFFFFFFFFFFDEF9FFFF23
:1004100010B5054C237833B9044B13B10448AFF33E
:1004200000800123237010BD9C91FF1F000000007D
:10043000905C0000084B10B51BB108490848AFF3A9
:1004400000800848036803B910BD074B002BFBD0A0
:10045000BDE81040184700BF00000000A091FF1F3A
:10046000905C00009C91FF1F000000000023044AE4
:100470001370044A13700122034B1A70704700BFB7
:10048000B992FF1FB492FF1FA492FF1F704700BFD5
:10049000704700BF08B5114B1B78EBB1104A1378B9
:1004A0000133DBB21370052B07D900220C4B1A70F5
:1004B0000C4A13780133137001E0022B07D80A4B62
:1004C00019880139094BD87801F02EF808BD0021B0
:1004D000064BD87801F028F808BD00BFA492FF1F92
:1004E000B992FF1FB492FF1FBA92FF1F508CFF1FDB
:1004F00002281CD12DE9F04790460E460C4C0D4DBC
:10050000671DDFF834A0DFF8349014F8013BB342E4
:1005100008D12B78DAF8001001FB08F119F8030074
:1005200001F002F80135BC42EFD1BDE8F087704719
:10053000348CFF1F488CFF1FB092FF1F508CFF1F91
:100540000022054B1A70054BDA78054B53F8323010
:10055000012283F800217047A492FF1F508CFF1FD7
:10056000885A000010B50446094B1B78834201D11C
:10057000FFF790FF074B1B78A34201D1FFF7E0FF85
:10058000054B1B78A34201D1FFF770FF10BD00BFE0
:100590003A8CFF1F4D8CFF1F398CFF1F2DE9F8434C
:1005A000464C04F10C0625464FF00108444F15F85F
:1005B000010B38B1414600F077FF394615F8010CC0
:1005C00000F0B2FEB542F2D13E4D0C20287000F092
:1005D0009DFE287804F098FA4FF000084FF080490B
:1005E00002460B464046494603F094F804F0B2FD3B
:1005F000354B18802878073804F096FA02460B46E7
:100600004046494603F086F804F0A4FD2F4B1860DD
:10061000DFF8B4904FF0640800272546B9F80010C1
:10062000207800F081FF404601F0A4F82378202BC9
:1006300003D13946282000F077FF01343946287865
:1006400000F072FFB442E8D1214CA06C0368DB6972
:1006500047F612219847002384F84C3084F84E3036
:1006600084F84D30A36563654FF6FF72E26522663C
:1006700084F8E93084F8663084F8653084F86730AF
:1006800084F86830032384F86430124B6360124AA4
:100690001360124BE360124A1360124B2360124A3C
:1006A0001360124B2363124B6363124BE363124BD1
:1006B000A363124A124B1A60BDE8F883508CFF1FE7
:1006C00000504348B892FF1FBA92FF1FB092FF1F1D
:1006D000B891FF1F650700001094FF1FF104000090
:1006E0000C94FF1F5D0700000894FF1F9504000095
:1006F0006D040000410500008D0400006505000048
:10070000C493FF1F10B5022811D1114BA3FB012385
:10071000DB0803EB4303A1EB8301C9B20D4B5B5C28
:10072000A3B100210C4AD05C00F0FEFE10BD0428ED
:100730000CD1094C0021A07800F0F6FE0021607871
:1007400000F0F2FE0021282000F0EEFE10BD00BFF8
:10075000ABAAAAAA3C8CFF1F508CFF1F08B5FFF75D
:10076000D1FF08BD38B52D4B1C6804FB01F52C4B9F
:100770001D602C4B1B881B1B7E2B07DC03FB01130E
:10078000002BB8BF7F3304EBE31309E003FB01F355
:10079000254D85FB03E51D44DB17C3EBA51323445F
:1007A000224D2B8012FB04F39BB2214D2B8002289B
:1007B00018D192B11F4BA3FB0103DB0803EB4303EA
:1007C000A1EB8301C9B21C4B5B5C33B304FB02F1A8
:1007D0001A4AD05C00F0A8FE38BD00220220FFF7C4
:1007E00091FF38BD042818D19AB1144C19462078CD
:1007F00000F09AFE0A4D2968282000F095FE29682D
:10080000607800F091FE074B1988A07800F08CFE0C
:1008100038BD00220420FFF775FF38BDB092FF1FDE
:10082000A892FF1FBA92FF1F09040281AC92FF1F1A
:10083000B692FF1FABAAAAAA3C8CFF1F508CFF1FC9
:1008400038B50446806C03681B699847002800F09F
:100850008681A06C03685B699847C3B203F0FB0212
:10086000F92A00F07E81A26D002A40F0C58084F84C
:100870004F3094F84D2012F0800F22D002F10C017D
:10088000C9B201291DD902F0FB01F92919D0EF2ABB
:1008900094BF02F0F001114601F0EF05802D07D062
:1008A000A02D05D0D02903D0E02901D0C02908D13E
:1008B00010F0800F05D184F84F2084F850300123C8
:1008C000A36594F84F3013F0800F72D003F10C023F
:1008D000D2B2012A6DD903F0FB02F92A69D0EF2BBD
:1008E00000F2418103F0F002A2F180017F2960D87B
:1008F000DFE801F0535F5F5F5F5F5F5F5F5F5F5FD8
:100900005F5F5F5F535F5F5F5F5F5F5F5F5F5F5F03
:100910005F5F5F5F535F5F5F5F5F5F5F5F5F5F5FF3
:100920005F5F5F5F535F5F5F5F5F5F5F5F5F5F5FE3
:100930005F5F5F5F505F5F5F5F5F5F5F5F5F5F5FD6
:100940005F5F5F5F505F5F5F5F5F5F5F5F5F5F5FC6
:100950005F5F5F5F535F5F5F5F5F5F5F5F5F5F5FB3
:100960005F5F5F5F565053505F5F415F415F414142
:10097000415F41411A4684F86620002384F86530BF
:1009800084F8673084F86830012084F8E900A365B2
:10099000636538BD02226265F2E103226265EFE120
:1009A00080226265002284F84D20F02284F86920BC
:1009B000E6E10020A065606584F84D0038BDEF2BAE
:1009C00094BF03F0F0021A4684F8662003F00F0388
:1009D000013384F8653094F8503084F86730002390
:1009E00084F86830A3656365012084F8E90038BDA8
:1009F0000131A165002038BD10F0800F39D0C0B2A0
:100A0000F738082835D8DFE800F012053405050569
:100A10003405050084F86630002384F8673084F8D4
:100A2000683084F86530012084F8E90038BD94F816
:100A30006930F02B17D1531C2244F72182F869103A
:100A4000F02284F8662084F867301B0A84F8683046
:100A5000002384F86530012084F8E900A36563650C
:100A600084F84D3038BD0020A065606584F84D00E5
:100A700038BD94F84F10F02907D1A11881F86930DA
:100A8000636D013B9A4266D30AE0A11881F84F30AA
:100A9000616D4B1E9A425ED394F84F20F02A05D127
:100AA0000020A065606584F84D0038BD12F0800F0D
:100AB00000F0628102F10C03DBB2012B40F25C8199
:100AC00002F0FB03F92B00F05781EF2A94BF02F0EC
:100AD000F003134684F8663003F0EF00802807D057
:100AE000A02805D0D02B03D0E02B01D0C02B05D1FE
:100AF00002F00F00013084F8650002E0002084F865
:100B0000650094F8500084F8670003290CBF94F83E
:100B10005110002184F868100021A1656165012150
:100B200084F8E910B02B0DD006D8902B0AD0A02B5A
:100B300008D0802B0AD105E0D02B03D0E02B01D0C8
:100B4000C02B03D184F84D20012038BD002384F848
:100B50004D30012038BD0132A265002038BD002093
:100B600038BD002038BDA3F180027F2A3FF621AFB7
:100B700001A151F822F000BF9B090000B309000059
:100B8000B3090000B3090000B3090000B309000075
:100B9000B3090000B3090000B3090000B309000065
:100BA000B3090000B3090000B3090000B309000055
:100BB000B3090000B30900009B090000B30900005D
:100BC000B3090000B3090000B3090000B309000035
:100BD000B3090000B3090000B3090000B309000025
:100BE000B3090000B3090000B3090000B309000015
:100BF000B3090000B30900009B090000B30900001D
:100C0000B3090000B3090000B3090000B3090000F4
:100C1000B3090000B3090000B3090000B3090000E4
:100C2000B3090000B3090000B3090000B3090000D4
:100C3000B3090000B30900009B090000B3090000DC
:100C4000B3090000B3090000B3090000B3090000B4
:100C5000B3090000B3090000B3090000B3090000A4
:100C6000B3090000B3090000B3090000B309000094
:100C7000B3090000B309000095090000B3090000A2
:100C8000B3090000B3090000B3090000B309000074
:100C9000B3090000B3090000B3090000B309000064
:100CA000B3090000B3090000B3090000B309000054
:100CB000B3090000B309000095090000B309000062
:100CC000B3090000B3090000B3090000B309000034
:100CD000B3090000B3090000B3090000B309000024
:100CE000B3090000B3090000B3090000B309000014
:100CF000B3090000B30900009B090000B30900001C
:100D0000B3090000B3090000B3090000B3090000F3
:100D1000B3090000B3090000B3090000B3090000E3
:100D2000B3090000B3090000B3090000B3090000D3
:100D3000B3090000B3090000A109000095090000F3
:100D40009B09000095090000B3090000B3090000E9
:100D500075090000B309000075090000B30900001F
:100D6000750900007509000075090000B30900004D
:100D70007509000075090000002384F86630BDE69F
:100D8000A16D626D013A8A423FF632AE17E600BFAE
:100D900008B590F86630803B7F2B00F21D81DFE8BC
:100DA00013F080001B011B011B011B011B011B0118
:100DB0001B011B011B011B011B011B011B011B0153
:100DC0001B018C001B011B011B011B011B011B01D3
:100DD0001B011B011B011B011B011B011B011B0133
:100DE0001B01CF001B011B011B011B011B011B0170
:100DF0001B011B011B011B011B011B011B011B0113
:100E00001B01B1001B011B011B011B011B011B016D
:100E10001B011B011B011B011B011B011B011B01F2
:100E20001B01E3001B011B011B011B011B011B011B
:100E30001B011B011B011B011B011B011B011B01D2
:100E40001B01DA001B011B011B011B011B011B0104
:100E50001B011B011B011B011B011B011B011B01B2
:100E60001B01BC001B011B011B011B011B011B0102
:100E70001B011B011B011B011B011B011B011B0192
:100E80001B01EC00FA0000010E011B011B01140103
:100E90001B0198001B019D00A200A7001B01AC00D4
:100EA00018010368002B00F0978090F8682090F8F4
:100EB000671090F86500984708BD4368002B00F064
:100EC0008B8090F8682090F8671090F8650098473C
:100ED00008BD036B002B7FD0984708BD436B002BE8
:100EE0007AD0984708BD836B002B75D0984708BD12
:100EF000C36B002B70D0984708BD036C002B6BD0E0
:100F0000984708BDC368002B66D090F8682090F819
:100F1000671090F86500984708BD8269002A5BD089
:100F200090F86810C90101F47E5190F8673003F021
:100F30007F031943A1F5005190F86500904708BD63
:100F40008368002B48D090F8682090F8671090F8DC
:100F50006500984708BD4369002B3DD090F86710A5
:100F600090F86500984708BD0369002B34D090F8CD
:100F7000671090F86500984708BDC26962B390F8A1
:100F8000681090F8673043EA0121802928BF80214A
:100F90006930904708BD036AF3B190F8670098473D
:100FA00008BD426AC2B190F86830DB0103F47E5399
:100FB00090F8670000F07F001843904708BD836AEF
:100FC00053B190F86700984708BDC36A23B19847AA
:100FD00008BD436C03B1984708BD00BF2DE9F0413F
:100FE0009DF81840013CE4B20F2C37D84FFA81FE2F
:100FF000BEF1000F32DA1F4616460D468046E02944
:101000001CD8806C04F00F044EEA040103681B68CE
:10101000C9B29847D8F8480003681B6806F07F01FA
:10102000984705F0EF01C02918D0D8F848000368A8
:101030001B6807F07F019847BDE8F081F7290DD9BB
:10104000A1F1F803072B09D8DFE803F00408040432
:1010500004080404806C03681B689847BDE8F081AD
:1010600090F8643013F0010300F0C48090F864201D
:1010700012F0FE0F00F0BE8070B582B0044690F80A
:10108000665085F08002602A35D890F86500884265
:1010900000F0A28094F864305B08022B0ED0032B82
:1010A00019D0012B40F0A48094F8683094F86720A0
:1010B000009029462046FFF791FF99E0002940F073
:1010C000978094F8683094F867200090294620466D
:1010D000FFF784FF8CE0B1FA81F35B09002B40F04D
:1010E000878094F8683094F867200090294620465D
:1010F000FFF774FF7CE0A5F1F0030F2B78D8DFE851
:1011000003F018563E307777087708770808087795
:101110000808A5F1F803072B6AD8DFE803F0046993
:10112000040404690404806C03681B68294698471A
:101130005EE090F8686090F8673043EA0623802B01
:1011400028BF802300F16906002B51D035461E448C
:10115000A06C03681B6815F8011B9847AE42F7D1D5
:1011600046E090F86750806C03681B68F32198474D
:10117000A06C0368DB6C05F07F01984738E090F8BD
:10118000685090F8673043EAC515806C03681B68A7
:10119000F2219847A06C03689B6C05F07F0198478B
:1011A000A06C03689B6CC5F3C611984720E090F8CB
:1011B00067502D0105F0700590F8683003F00F03BB
:1011C0001D43806C03681B68F1219847A06C03687D
:1011D0001B68294698470BE094F864205208022ABD
:1011E0003FF46FAF032A3FF479AF012A3FF45CAFBD
:1011F00002B070BD704700BF10B5164B93F84C405D
:10120000102C22D81846FFF71BFBF0B1114B93F8B6
:101210006630902B08D10F4B93F8683043B9802289
:101220000C4B83F8662003E083F08003602B05D825
:10123000084B93F86530A34200D014B90548FFF776
:10124000A7FD21460348FFF70BFF002001F02CF813
:1012500010BD00BFB891FF1F38B5204C204BA364D0
:10126000002584F84C5084F84D5084F84E50656544
:10127000A5654FF6FF73E365236694F8643043F089
:101280000103012262F3470384F8643084F8655057
:1012900084F8665084F8675084F8685084F8E95000
:1012A0008022294604F1690004F0A2FA25606560F5
:1012B000A560E56025616561A561E56125626562FE
:1012C000A562E56225636563A563E56325646564DE
:1012D000044A0549204604F051FA38BDB891FF1F71
:1012E000648CFF1F308CFF1F91040000044B002210
:1012F0001A6004490A60044A106010221A6070479C
:1013000014D0034004D0034000D00340034618B17A
:10131000102828BF102300E00123024A1078137020
:10132000704700BF5C8CFF1F2DE9F84381460E46D5
:101330003F49304604F0DAF9002814BF4FF00208A4
:101340004FF001083B4D47F61223002818BF1D46F9
:10135000284603F0D5FF4FF05E5104F029F801460E
:10136000304604F0D7F990B901244FF05E5725FAC2
:1013700004F003F0C5FF394604F01AF80146304680
:1013800004F0C8F920B90134072CF0D100E00024A2
:1013900025FA04F003F0B4FF314604F0BDF84FF035
:1013A0007C5103F0FBFE04F0C9F94FF6FF7398423D
:1013B00028BF1846A9F10303DBB2012B0DD81E4A42
:1013C000002313601D490B601D4B186004F00703D8
:1013D00043EAC8031360BDE8F883B9F1170F13D8C7
:1013E000184B23FA09F313F0010F0DD0164A00230E
:1013F000136016490B60164B186004F0070343EAAC
:10140000C8031360BDE8F883B9F1200F02D0B9F129
:10141000190F0BD10F4A002313600F490B600F4BBC
:10142000186004F0070343EAC8031360BDE8F883BB
:10143000001BB740006CDC020090034004900340A6
:10144000089003406006F0000080034004800340E1
:101450000880034000800B4004800B4008800B4054
:1014600021281ED80F4B53F8303093F8802212F009
:10147000FF0F08D019B1012283F8802070470122A4
:1014800083F800217047074B03EBC000436821B18C
:101490001A6842F003021A6070471A6822F00202CA
:1014A0001A607047885A000021283AD81D4B03EB78
:1014B000C0035B68012919D0042925D0194A52F8C4
:1014C0003020002082F8800219B94FF480721A602F
:1014D0007047022903D140F203121A6070470329B2
:1014E0000CBF4FF4817200221A6070470D4A52F807
:1014F0003020012182F880124FF4A2721A601A681B
:1015000022F020021A607047064A52F8302001216A
:1015100082F880124FF4A2721A601A6842F0200218
:101520001A607047885A000010B528280FD16F4BF9
:101530001B780B2B03D8C3F10C03994003E00C2B51
:1015400084BF0C3B1941084601F082FA10BD0446E5
:10155000664B187801238340002908DC00212046CF
:10156000FFF77EFF01212046FFF79EFF10BD0A46D0
:101570008B4208D801212046FFF772FF0121204647
:10158000FFF792FF10BDE31EDBB2012B06D8584BCC
:101590001B6803FB011323FA00F210E0202C01D09A
:1015A000192C06D1534B1B6803FB022323FA00F2CC
:1015B00005E0514B1B6803FB011323FA00F2E31E05
:1015C0001D2B00F28780DFE803F05F6855378585C3
:1015D000232D858585858585858585414B0F1985D5
:1015E0007B85858585858571444B1A6040F2444230
:1015F00003F5973303F5FA731A6010BD404B1A6078
:1016000040F2444203F5973303F5F8731A6010BDB6
:101610003C4B1A6040F2444203F5973303F5F673EE
:101620001A6010BD384B1A6040F2444203F59733FC
:1016300003F5F4731A6010BD344B1A6040F2444253
:1016400003F59F3303F5F0731A6010BD304B1A6039
:1016500040F2444203F59F3303F5EE731A6010BD68
:101660002C4B1A6040F2444203F59F3303F5EC73B0
:101670001A6010BD284B1A6040F2444203F59F33B4
:1016800003F5EA731A6010BD244B1A604FF45172CF
:1016900003F5803320331A6010BD214B1A604FF4DC
:1016A000517203F580331C331A6010BD1D4B1A6054
:1016B0004FF45172A3F5DB23A3F5F9631A6010BD53
:1016C000194B1A604FF45172A3F5DB23A3F2CC73CC
:1016D0001A6010BD7F29D4BF002101212046FFF7E9
:1016E000BFFE01212046FFF7DFFE10BD5C8CFF1F0F
:1016F0000890034008800B4008800340108003409E
:10170000188003402080034028800340308003403D
:1017100038800340408003404880034010900340DD
:101720001890034010800B4018800B4072B60D4B90
:101730001B680D4A10680D4A126862B612F0806F7D
:1017400002D0322B88BF0130C3F5BB33FF33084AC8
:10175000A2FB03234FF47A7202FB00F000EB93101C
:10176000704700BF18E000E0BC92FF1F04ED00E0EE
:10177000ABAAAAAA38B50546FFF7D8FF044625B993
:1017800038BD013D0AD004F57A74FFF7CFFF001B86
:10179000B0F57A7FF5D201F081F8F6E738BD00BFE9
:1017A00010B5274B4FF400021A604FF080721A6098
:1017B0004FF000721A604FF080621A604FF00062C2
:1017C0001A6000201F4B18604BF6FF71043319603C
:1017D00028231D4A13600832136008321360083250
:1017E0001360083213600832136008321360083245
:1017F00013600922154C226004F5805404342060E3
:10180000043421600434236008342360143C2260D3
:1018100004F5FE24043420600D4801600D490B607E
:1018200008310B600C4B1A6001F088F83220FFF78A
:10183000A1FF00F06BFC4FF4AF70FFF79BFF10BDF2
:1018400008E100E0048003400C8003400080034076
:1018500008800B400C800B4000800B4010B40E4BF6
:101860001B7843F002040D4A02EBC40250600C4A9C
:101870001278002A14BFC820882040EA0141074896
:1018800040F8341082F0010205490A7083F0010328
:10189000014A137010BC70473493FF1F0080FF1F74
:1018A000B593FF1F431E042B11D872B60B4A52F892
:1018B000230080B110B4416842F82310084931F880
:1018C00013200488121B21F8132062B601E00020C7
:1018D000704710BC704762B6704700BF2093FF1F6F
:1018E000D095FF1F38B572B61B4901231B4C11F868
:1018F000012B12F0080F24D09A0054F832506DB921
:10190000164B03EBC20108304860154943F832100A
:10191000144A1378013B137062B638BD42F00102DD
:1019200054F832506DB90D4B03EBC20108304860DA
:101930000D4943F832100B4A1378013B137062B61D
:1019400038BD0133062BD2D162B60022054B1A7086
:1019500000F042FC38BD00BFF85B00000080FF1FB4
:1019600088004000AA93FF1FC8004000431E042BBC
:1019700039D810B4400140F010001B4A104472B630
:101980001A4AD25C032A0BD8DFE802F01B040207D4
:10199000052217E00830022214E00830042211E08A
:1019A000134A52F823201AB9114A42F8231003E0CF
:1019B000104A52F8232051600E4A42F8231062B6B2
:1019C00010E00322094CE25401F10803436000F0E7
:1019D0000803002B14BFC82388230A8843EA024364
:1019E000036062B610BC70470080FF1FD892FF1FD3
:1019F0007893FF1F8C93FF1F2DE9F04F85B0AC4CFF
:101A0000DFF8FCA2DFF8FCB22578EDB215F0040F88
:101A10001FD0A84B1B7813F0FF0F18D0A64B1A78D5
:101A200002F0FF032AB1013BDBB2A34A137003B9F2
:101A300000BEA24B1A7802F0FF0332B1013BDBB2C9
:101A40009E4A13700BB900F069FE00F015FC0423E8
:101A5000237015F0080F00F0EF829AF80030DBB227
:101A60001D0940F02A82964E9D0806EBC5035A6870
:101A700056F83530C3F38303013B0C2B00F2198277
:101A8000DFE813F0D401D40117021702170217027E
:101A900017021702F1011702170217020D008949F8
:101AA00013680B6052684A60874A46F83520002266
:101AB00086490A6082490A618A610121844A11705B
:101AC0009BB240F28162934218D8B3F5D06F2ED208
:101AD000B3F5817F00F02D8106D8802B00F0D780F0
:101AE000822B00F0DA806FE140F20232934200F084
:101AF0003581B3F5A06F00F06B8165E142F2210200
:101B0000934200F08F8107D8B3F5086F00F0B980D9
:101B1000B3F5106F11D057E142F22122934200F049
:101B20004A8142F22132934200F052814CE1694BEA
:101B30005D68002D40F0278139E1624B9A785D4B5A
:101B40001A705F4D05F1A0062B6A13F0800F03D0C9
:101B5000686A083800F040FB0835B542F4D15E4BA6
:101B60000093DFF8A4815D4B0193DFF8A09100277B
:101B70003E46009B0293186828B1456800F02CFB94
:101B80002846002DF9D1029B1E600297544B43F862
:101B90002760CDF80C80D8F8000028B1456800F027
:101BA0001BFB2846002DF9D1039B1E60019B43F8C7
:101BB000046B01934B4B029A23F8126099F80030A2
:101BC000023B032B09D8DFE803F00205020589F880
:101BD000006002E0012389F800300137009B0433E4
:101BE000009308F1040809F10109052FC1D1002271
:101BF0003D4B1A7001253D4FDFF81491304E904651
:101C000019F8013B07F8043B13F0080F2BD000F044
:101C1000C3FA034640B1AA0006EB451108334B60F6
:101C2000334946F8321006E0AB0046F833802E4ABE
:101C300013780133137000F0AFFA024650B1AB00D5
:101C400043F0010306EBC30108324A601E4A46F81E
:101C5000332008E0AB0043F0010346F83380224A0A
:101C6000137801331370AB0043F0020246F8328060
:101C700043F0030346F8338001351E4B9F42BFD12A
:101C800019E20C4B1B781C4D2B700123A5E01A4D5B
:101C900000232B706B7002239FE00A4B9B8803F09C
:101CA0007F03052B36DD0F22144B1A70BAE000BFFC
:101CB00080200740B493FF1F3593FF1F1494FF1F2C
:101CC0000080FF1FA093FF1FC8004000C092FF1FAD
:101CD000B593FF1F005C00002093FF1F8C93FF1F34
:101CE000C492FF1FD095FF1FAA93FF1FC420074077
:101CF00088004000D8200740AC93FF1FC020074059
:101D000090200740942007407893FF1FD892FF1F30
:101D1000F85B00009D4A0021117051709C4A12F836
:101D2000233013F0020F56D0984D01232B7002235D
:101D300053E0984B9B8803F07F03052B02DC954A08
:101D400052881AB10F22924B1A706BE0904911F829
:101D5000232022F0020201F82320ACE18D4B9B8866
:101D600003F07F03052B02DC8A4A52881AB10F2246
:101D7000874B1A7056E0864911F8232042F0020280
:101D800001F8232097E1834B59889888824B1A8861
:101D90008A4208D15A88824205D1090A03290CBF18
:101DA0002B781B8919E00C335D68002DEFD10F22D1
:101DB000774B1A7036E0794B1A68794B1A60754B7D
:101DC0009A78784B1A7076E10F22714B1A7029E0DD
:101DD00000231D4601E002236C4D6E4AD6889E42C8
:101DE00028BF1E463746402E28BF40273946284682
:101DF000FFF734FD3D44F61B03D13F2F00F2608115
:101E000010E03746402E28BF402739462846FFF7C6
:101E100025FD3D44F61B01D13F2F03D9624B1D60C8
:101E2000624B1E8001238BF8003042E0594B198829
:101E300042F22103994212D15D4BD01D12F8011BD1
:101E400003F8011F8242F9D15A4B1B68862B02D13D
:101E50000F22594B1A7000210846FFF7FFFC574B21
:101E600046F8353025E0504B1F68BFB1DFF83C81A4
:101E7000B8F800502E46402D28BF4026314638463F
:101E8000FFF7ECFCAD1BADB2A8F800500DB9402E29
:101E900001D13E4400E00026434B1E603D4B1B88B1
:101EA000B3F5A06F05D13B4B00225A709B78444A92
:101EB000137001238BF80030BBE0424E9F0806EB05
:101EC000C708D8F80420A2F10800013DEDB213F0D4
:101ED000080F47D000F080F93B4B53F825304BB347
:101EE0005968394A42F8251003F10802C8F804205D
:101EF000364A525D032A12D8DFE802F002060A0EC3
:101F00000321324A51550AE00221304A515506E078
:101F100005212E4A515502E004212C4A515518F052
:101F2000080F14BFC82288221B8842EA034346F8E0
:101F300037307EE0254B5B5D032B0BD8DFE803F0E9
:101F4000797902060022214B5A5572E001221F4B7B
:101F50005A556EE018F0080F14BF032202221B4BE3
:101F60005A5566E056F837301B0C22F8083C002B17
:101F700057D0002322F8063C42F8043C144B53F897
:101F800025303BBB124B43F8250027E0AC93FF1FE5
:101F9000C0200740A093FF1F005C0000BC92FF1F01
:101FA0001097FF1F2094FF1FC092FF1FA893FF1FD1
:101FB0000797FF1F0897FF1F3593FF1FC8004000BA
:101FC000982007400080FF1F7893FF1FD892FF1FC3
:101FD0002093FF1F3E4B53F8253058603C4B43F88D
:101FE00025003C4931F8150032F8083C034421F83B
:101FF000153000F0D1F8034658B10833C8F8043062
:1020000018F0080F344A354B08BF134646F83730EE
:102010000FE0002346F83730314A1378013313704C
:1020200007E018F0080F2C4A2C4B08BF134646F85F
:10203000373008232370E7E415F0010F21D0294938
:1020400002230B700022284B1A70284B224818607C
:10205000274C5C6098602748D8601A619A610D200F
:10206000254B1870FF23254803700838037018307B
:102070000270234A13709F22224B1A7001230B70A7
:1020800023E015F0800F05D00D221B4B1A70802223
:10209000403B1A7015F0020F06D0184A1378DBB2D5
:1020A00013700222184B1A7015F0100F0DD0102269
:1020B000154B1A7009E000210846FFF7CFFBB1E687
:1020C00000212846FFF7CAFBACE605B0BDE8F08F5B
:1020D000C492FF1FD095FF1F88004000C800400039
:1020E000AA93FF1F942007403493FF1F0080FF1F17
:1020F000E092FF1F3893FF1FC02007408820074051
:102100008C200740842007408020074008B501F05C
:10211000E7F91C4800F1A801034600221A605A6042
:1021200008338B42FAD1184A136843F480231360B2
:10213000C0F30722154B1A70C0F3074214331A700C
:10214000000E04331870FF23114A13700832137005
:10215000783A137001238432137000216C321170AD
:102160007C3A137070220B4B1A704FF40072A3F27A
:1021700041331A60102203F1C04303F5C8231A70DB
:1021800008BD00BF0080FF1F348004409C20074032
:102190008020074049E400E072B60D4B1A68B2FA9D
:1021A00082F31D2B02D962B6002070474FF0004128
:1021B000D94022EA010206490A6062B6054903EBEA
:1021C000C303DB00C8180022CA504260704700BF3A
:1021D000608CFF1FBC83FF1F08B50F4BC31A0F4A4B
:1021E000A2FB03231B091D2B14D80D4A12783AB108
:1021F0000C4A127812F0FF0F02D0FFF773FB08BDF4
:1022000072B609494FF0004222FA03F30A681A43F2
:102210000A6062B608BD00BFBC83FF1F398EE33879
:10222000AA93FF1FB493FF1F608CFF1F10B50446D5
:102230000E4B1B685BB10E4A1188B1F5917F11D32B
:1022400000220C4898470022094B1A800AE0084BEC
:102250001B88B3F5917F08D2591C054A1180054AA5
:10226000D45410BD024B1B88F6E710BDDC93FF1F52
:10227000DE95FF1FE495FF1F08B5094B1B786BB96E
:10228000084B196851B14B8843B19B000B80042067
:10229000FFF76CFBFFF780FF024B186008BD00BF23
:1022A000CC93FF1FF893FF1F2DE9F04106469F4B8B
:1022B0001B68B3B99E4B1B7813F0FF0F00F0DC8155
:1022C0000520FFF7EFFA994B1860002800F0D7813E
:1022D000038833B9FFF780FF0020944B1860BDE8F6
:1022E000F081924B186843889A0800EB8202946848
:1022F00004330288934201D2438006E0FFF76CFF6B
:102300000520FFF7CFFA894B186004F00F054FEA5C
:10231000142808F00F070137C4F30313854A13701C
:10232000A5F10803062B00F29D8016B1B74240F0DC
:10233000A981C4F30333082D0FD1082B40F0A581E8
:1023400080227D4B1A707D4B1B68002B7FD0220EA4
:10235000C4F30741F8B2984779E0092D1DD1092B44
:1023600040F09681220E0BD09021734B1970744B64
:102370001B68002B6BD0C4F30741F8B2984766E0A6
:1023800080226D4B1A706D4B1B68002B5FD00022B2
:10239000C4F30741F8B2984759E00A2D0FD10A2B30
:1023A00040F07981A022644B1A70664B1B68002BA9
:1023B0004DD0220EC4F30741F8B2984747E00B2DE9
:1023C0000FD10B2B40F06A81B0225B4B1A705E4B31
:1023D0001B68002B3BD0220EC4F30741F8B298478C
:1023E00035E00C2D0DD10C2B40F05B81C022524BFF
:1023F0001A70564B1B6853B3C4F30741F8B29847A1
:1024000025E00D2D0DD10D2B40F04E81D0224A4BF1
:102410001A704F4B1B68D3B1C4F30741F8B2984709
:1024200015E00E2D40F043810E2B40F04381E02259
:10243000414B1A70474B1A684AB1C4F30641630C0A
:1024400003F47E531943A1F50051F8B29047424B73
:102450001F70220C414B1A70240E414B1C7001203E
:10246000BDE8F0815FFA88F3AA1E012A08D9052D7C
:1024700040F0B280F02B40F2C280F72B00F0BF801A
:10248000F13B0E2B00F21981DFE813F00F0018006A
:102490002500170117012D001701330017013F0018
:1024A0004B00820017018D0098002E4B1B68002BFB
:1024B00000F08E80C4F30740984789E02A4B1A68E1
:1024C000002A00F08580C4F30640630C03F47E53B9
:1024D000184390477CE0254B1B68002B78D0C4F351
:1024E0000740984774E0224B1B68002B70D0984738
:1024F0006EE0204B1B680BB1984769E01E4B1B68D0
:10250000002B65D0F820984762E01C4B1B680BB18C
:1025100098475DE0184B1B68002B59D0FA2098476C
:1025200056E0174B1B686BB3984751E00094FF1FB0
:10253000B493FF1FE295FF1FDC95FF1F0894FF1F58
:102540001094FF1FE093FF1F0C94FF1FD093FF1FF9
:10255000E493FF1FD493FF1FE395FF1FE095FF1F38
:10256000E195FF1FEC93FF1FD893FF1F0494FF1FFB
:10257000F093FF1FB893FF1FC493FF1FE893FF1F43
:10258000C893FF1F534B1B6813B3FB2098471FE0F2
:10259000514B1B680BB198471AE04E4B1B68BBB1FF
:1025A000FC20984714E04D4B1B680BB198470FE097
:1025B000484B1B6863B1FE20984709E0484B1B68F5
:1025C0000BB1984704E0434B1B680BB1FF209847C1
:1025D000444B83F800803AE7042D0DD15FFA88F070
:1025E000FFF724FEC4F30740FFF720FE200EFFF79D
:1025F0001DFE0020BDE8F0816A1F022A2BD85FFA79
:1026000088F0FFF713FE052D03D9C4F30740FFF749
:102610000DFE072D02D1200EFFF708FE324B198860
:10262000324A1170080A324A107000221A80F022D1
:102630002C4B1A702F4B1B682BB101222E48984748
:102640000120BDE8F0812D4B1B68CBB32A48984789
:102650000120BDE8F0810F2D35D1F72B3FF610AFEB
:10266000F02B02D0204B1B8883B35FFA88F0FFF772
:10267000DDFD0020BDE8F0810020BDE8F0810020F4
:10268000BDE8F0810020BDE8F0810020BDE8F081C8
:102690000020BDE8F0810020BDE8F0810020BDE809
:1026A000F0810020BDE8F0810020BDE8F08100202D
:1026B000BDE8F0810020BDE8F0810020BDE8F08198
:1026C0000120BDE8F0810020BDE8F0810020BDE8D8
:1026D000F08100BFC493FF1FFC93FF1FC093FF1F37
:1026E000BC93FF1FDC95FF1FDE95FF1FE095FF1FCA
:1026F000E195FF1FDC93FF1FE495FF1FF493FF1F7D
:10270000044B5888044B1B681BB11A885B88D31A8A
:1027100018447047D095FF1F1C94FF1F08B50E4B3F
:102720001B7813F0FF0F16D10C4B196841B14B8881
:102730000B800320FFF71AF90022084B1A6008BD2E
:10274000FFF72AFD014618B10320FFF70FF908BD76
:102750000122034B1A7008BD1594FF1F1894FF1F28
:102760001494FF1F08B503681B68C9B2984708BDD9
:1027700008B503681B68C9B2984708BD08B5036867
:102780001B68C9B2984708BD08B503681B68C9B281
:10279000984708BD08B5084600F08CFB012008BD2D
:1027A00008B5084600F086FB012008BD38B50D4687
:1027B000084603F085F804460146284600F0CCFBA5
:1027C000204638BD10B508461446114600F0C4FB3B
:1027D000204610BD08B500F0A7FC08BD08B50846A6
:1027E00000F03CFB003018BF012008BD08B50846CA
:1027F00000F012FB003018BF012008BD08B50846E4
:10280000114600F0A1FA08BD08B5084600F0D8FA54
:1028100008BD00BF08B5084600F07AFA08BD00BF41
:1028200008B500F015FA08BD08B54B0803F137608C
:1028300000F5D830B0FBF1F000F072F908BD00BF30
:1028400010B514464B0803F1376000F5D830B0FBE3
:10285000F1F000F065F9204600F0CCF910BD00BFA2
:1028600008B500F047FC08BD08B500F009FC08BD3C
:1028700008B500F0F5FB08BD08B500F0CDFB08BDBC
:1028800008B500F0DBFB08BD704700BF08B5FDF7D9
:1028900085FEFEF7B1FC00F001F8FAE7234B1B7848
:1028A000002B42D110B50122204B1A70FFF728FFF0
:1028B00008B100F003FF00F0D3FB08B1FFF7E4FF1D
:1028C00000F0EAFC08B100F0F5FE00F087FD08B169
:1028D00000F0F2FE0022154B1A70EFF305831BBBCC
:1028E000EFF3108372B6124A106810B9E3B962B6FA
:1028F00010BD104A127812B1B3B962B610BD0121F1
:102900000C4A117042690A490A6012B100219161B2
:1029100002E00021084A116003B962B6002444773E
:1029200083689847034B1C7010BD70472194FF1FAC
:10293000C495FF1FC895FF1FC095FF1F60223A4B2B
:102940001A70E12201331A70384B1B78082B10D112
:10295000012203F1804303F56C331A6013233449D9
:102960000B6001F5FF2101F2FC710A60314A13602E
:102970001FE00A2B0DD139222F4B1A6013232C494B
:102980000B6001F5FF2101F2FC710A60294A136016
:102990000FE00C2B0CBF35223D22274B1A6012236F
:1029A00023490B6001F5FF2101F2FC710A60214A05
:1029B0001360224B1B7833B10123214A136002F5C7
:1029C0000022136005E000231D4A136002F5002277
:1029D00013601C4B1B78012B06D880231A4A136006
:1029E00002F5002213601AE0042B06D88423164A4D
:1029F000136002F50022136011E0082B06D885232E
:102A0000114A136002F50022136008E0102B94BFF6
:102A1000862387230C4A136002F5002213600122EB
:102A20000A4B1A70704700BF00400740748CFF1FAC
:102A30000CB003400CB00B4008B003402394FF1FC0
:102A400020B00340758CFF1F24B003402294FF1F69
:102A50000A4A136843F480531360094B1B781BB177
:102A60008022084B1A7002E0C022064B1A7080F3D5
:102A70000C0000B2044B1880704700BF2C8004404B
:102A80002394FF1F21C00C4000C00C4008B50D4C22
:102A9000236813F4802F01D0FEF7AEFF236813F4F0
:102AA000806F01D000F066FB236813F4006F01D043
:102AB00000F002FC236813F4805FE9D000F09EFC74
:102AC000E6E700BF3480044008B5FFF7DFFF00BF32
:102AD0001022014B1A80704700200540704700BF4C
:102AE000EFF31383ABB9EFF31083ABB9EFF30583C7
:102AF00023B10F2B05D9094A985C03E04FF480708D
:102B000000E00020EFF311833BB1984228BF184644
:102B100070474FF0FF30704700207047F0E300E04F
:102B2000264A136843F4806313600023244A137019
:102B3000244A1370244A1370244A1370244A1370D1
:102B4000244B1B7813B1152B05D008E040F213324B
:102B5000214B1A6003E040F21332204B1A60204BE5
:102B60001B78012B02D0052B05D008E04FF45172E1
:102B70001C4B1A6003E04FF451721B4B1A601F2864
:102B800098BF2020C0F34432184B1A70C0F347128C
:102B90005A7000F01F00987204229A700221D974B2
:102BA0005A7588221A743C22DA704022104B1A702F
:102BB0004FF40052A3F229331A6070473480044066
:102BC000B094FF1F2994FF1FB894FF1FB194FF1FFB
:102BD0002894FF1F6C94FF1F40A0044018C00440BD
:102BE000768CFF1F44A004401CC0044000A0064097
:102BF0002DE400E0154B9B7803F0EC0200F003039A
:102C0000134310F0040F18BF43F010030F4A9370E2
:102C100000F00F03042B03D1937943F04003937129
:102C20000A4B5B7903F0EF0310F0100F18BF43F06D
:102C30001003064A5371937903F0EF0310F0200F4D
:102C400018BF43F01003014A9371704700A006407B
:102C5000224B1B6813F4806F3FD010B5204B1B78BC
:102C600013F0FF0F06D01E4CFFF718FE237813F069
:102C7000FF0FF9D14FF400521A4B1A6000221A4B81
:102C8000DA701A4B1B7813B1152B05D008E040F20F
:102C90000312174B1A6003E040F20312154B1A603F
:102CA000154B1B7803F07F03012B02D0052B05D0B9
:102CB00008E040F20312114B1A6003E040F20312E5
:102CC0000F4B1A6000230F4A13700F4A13700F4BFB
:102CD0001B680BB101221A7010BD7047348004408C
:102CE0002894FF1F84E100E000A006406C94FF1FC1
:102CF00040A0044018C00440768CFF1F44A004404C
:102D00001CC00440B094FF1F2994FF1F2494FF1F90
:102D100010B50446094A137813F0FF0FFBD10121C7
:102D20002046FEF7C1FB00212046FEF799FB044B2D
:102D300053F83420034B1A6010BD00BF2894FF1FC6
:102D4000885A0000B494FF1F10B40C4609B140F03B
:102D50008000174B1B78984228D0164A126812F44C
:102D6000806F21D003F07F03012B02D0052B04D00C
:102D700006E00022104B1A6002E000220F4B1A609E
:102D8000002C14BF6023442300F07F02012A02D0EC
:102D9000052A05D008E043F44073074A136003E0B6
:102DA00043F44073054A1360014B187010BC704720
:102DB000768CFF1F3480044044A004401CC00440B3
:102DC000114B1B7883421ED0104A126812F4806F98
:102DD00017D013B1152B04D006E000220C4B1A605B
:102DE00002E000220B4B1A6010B1152805D008E054
:102DF00040F21332064B1A6003E040F21332054BE7
:102E00001A60014B187070476C94FF1F34800440A7
:102E100040A0044018C004400D4B1B6813F4806FA1
:102E200013D021280DD810B50A4C0B4B53F8303075
:102E300023600121FEF738FB236800221A7001206D
:102E400010BD0020034B186070470020704700BF82
:102E5000348004402494FF1F885A0000114B1B68E3
:102E600013F4806F1BD0122804D140F202320E4BB3
:102E70001A600DE0142804D140F202320B4B1A60A4
:102E800006E00B4A537B03F0FE03537300207047A8
:102E9000074A537B43F0010353730120704700201E
:102EA000704700BF348004400CA0044014C00440AC
:102EB00000A00640214B1B6813F4806F3CD02DE925
:102EC000F0411F4B1B680BB101221A7007461D4BC6
:102ED0001C780134402C28BF00241B4D1B4EDFF80A
:102EE000708017E0FFF7FCFD40280FDC337913F00A
:102EF000800F0FD02B780133402B28BF002318F808
:102F00000320D2B2F271DBB22B7003E0FF2801DDA7
:102F1000FFF7C4FC2B78DBB29C42E3D0FFB20C4B32
:102F20001F5501220B4B1A70E4B2064B1C70BC22D9
:102F3000064BDA70BDE8F081704700BF3480044072
:102F4000B494FF1FB894FF1FB194FF1F00A0064068
:102F50002C94FF1F2894FF1F284B1B6813F4806FCD
:102F60004AD02DE9F0470646254B1B680BB10122DC
:102F70001A7006EB010A564539D2DFF89480214DCC
:102F8000214FDFF8909098F800400134402C28BF82
:102F900000242B78DBB29C421DD1BC23FB70FFF7D1
:102FA0009FFD40280FDC3B7913F0800F0FD02B786A
:102FB0000133402B28BF002319F80320D2B2FA7145
:102FC000DBB22B7003E0FF2801DDFFF767FC2B78F5
:102FD000DBB29C42E3D016F8013B09F80430012231
:102FE0000A4B1A70E4B288F80040B245CBD1BC223B
:102FF000054BDA70BDE8F087704700BF34800440AD
:10300000B494FF1FB194FF1F00A006402894FF1F37
:10301000B894FF1F2C94FF1F074B1B7813F0FF0F72
:1030200008D010B5044CFFF739FC237813F0FF0FDC
:10303000F9D110BD704700BF2894FF1F064B1B78C5
:10304000DBB2064A1078C0B283422CBF3F3000F199
:10305000FF30C01A704700BFB894FF1FB194FF1F24
:10306000054B1878C0B2054B1B78DBB2984238BFCD
:103070004030C01A704700BFB094FF1F2994FF1F53
:1030800010B4184B1B78DAB2174B1B78DBB29A429C
:1030900017D001333F2B17D81449C85CC0B2D9B23E
:1030A000114C217012490968C9B19A4202D3FFE755
:1030B000D31A01E04032D31A1A2B10DC00230B7014
:1030C0000DE04FF0FF300AE0084B1878C0B2002145
:1030D000054B1970064B196800230029E8D110BC74
:1030E000704700BFB094FF1F2994FF1F7094FF1F0B
:1030F0002494FF1F094B1A78D2B2094B1B78DBB21C
:103100009A4207D00133402B28BF0023054AD05CE8
:10311000C0B270474FF0FF30704700BFB094FF1F40
:103120002994FF1F7094FF1F0D4B1B6813F4806FD1
:1031300014D00C4BDA7802F0CB02DA7040225A74C9
:10314000DA7842F03402DA70074B1B78DBB2074AB8
:103150001370074B1B680BB100221A70704700BF39
:103160003480044000A006402994FF1FB094FF1F44
:103170002494FF1F70B43E4B1B7913F0300F32D0F4
:1031800072B63B4B9B7D03F0FF022BB9384BDA79CB
:1031900040225A7462B626E062B6364B1878C0B246
:1031A000354B1C78E4B2324D344EEB79D9B2431C26
:1031B000402B28BF0023A3421CBFF1541846531EC6
:1031C00013F0FF02F1D1C3B22A4A13702C4B1B68D3
:1031D0004BB1A0422EBF001BC4F1400400192728A8
:1031E000C4BF01221A70224BDA78D2B212F0800FDB
:1031F00029D01B7913F0800F25D0224B1C78E4B224
:10320000214B1B78DBB29C4212D019481F4D01E0C4
:10321000A3420CD00133402B28BF00230179E95C85
:10322000C9B2C171017DC9B20729F1D900E02346B5
:10323000DBB215490B700E4B1B7913F0800F02D0D7
:103240007C210B4BD97012F0400F0ED0084B1B792C
:1032500013F0400F09D000220D4B1A700D4B1B6864
:1032600003B11A703C22024BDA7070BC704700BF89
:1032700000A00640B094FF1F2994FF1F7094FF1F09
:103280002494FF1FB894FF1FB194FF1F2C94FF1FBD
:103290002894FF1FB494FF1F054B1878C0B2054B4C
:1032A0001B78DBB2984238BF4030C01A704700BF6D
:1032B0002C95FF1FC194FF1F70B43E4B1B7913F078
:1032C000300F32D072B63B4B9B7D03F0FF022BB91F
:1032D000384BDA7940225A7462B626E062B6364B31
:1032E0001878C0B2354B1C78E4B2324D344EEB79CD
:1032F000D9B2431C402B28BF0023A3421CBFF1546A
:103300001846531E13F0FF02F1D1C3B22A4A1370BC
:103310002C4B1B684BB1A0422EBF001BC4F14004D4
:1033200000192728C4BF01221A70224BDA78D2B2C2
:1033300012F0800F29D01B7913F0800F25D0224B7B
:103340001C78E4B2214B1B78DBB29C4212D01948A6
:103350001F4D01E0A3420CD00133282B28BF0023CE
:103360000179E95CC9B2C171017DC9B20729F1D9FE
:1033700000E02346DBB215490B700E4B1B7913F0AE
:10338000800F02D07C210B4BD97012F0400F0ED071
:10339000084B1B7913F0400F09D000220D4B1A7017
:1033A0000D4B1B6803B11A703C22024BDA7070BCE3
:1033B000704700BF00B006402C95FF1FC194FF1F4F
:1033C000EC94FF1FBC94FF1F3495FF1F2D95FF1F2A
:1033D000C494FF1FC094FF1F3095FF1F054B187842
:1033E000C0B2054B1B78DBB2984238BF4030C01AE0
:1033F000704700BFA895FF1F3D95FF1F2E4B1B79FF
:1034000013F0200F22D02C4BDB79D9B22B4B1B7839
:103410000133402B28BF0023294A1278D2B29342AD
:1034200004D0284AD154DAB224490A70264A1168D5
:1034300061B1264A1278D2B293422EBF9B1AC2F1D2
:1034400040029B18272BC4BF01230B701A4BDB785B
:10345000DBB213F0800F1CD0174A127912F0800FE4
:1034600017D01B4A1178C9B2184A1278D2B29142C9
:1034700003D16C21104AD1700BE00132282A28BFF9
:1034800000221449895CC9B20B48C171D2B20F49FC
:103490000A7013F0400F0ED0074B1B7913F0400F4A
:1034A00009D000220C4B1A700C4B1B6803B11A7028
:1034B0002C22014BDA70704700C00640A895FF1F10
:1034C0003D95FF1F6895FF1F3895FF1FA995FF1FAA
:1034D000B095FF1F4095FF1F3C95FF1FAC95FF1F48
:1034E00072B61D4B70221A7041211C4A11700F21B7
:1034F000013A117080221A701A46137813F0800F67
:10350000FBD000B585B0164B186862B6154B9842D3
:103510009CBF00EB800040000A2201A900F0D0F817
:103520009DF804307BB908E010F8012F32B121F882
:10353000022F01330A2BF7D100E0002301335B0097
:10354000094A137005E0084921F8023F01A8012348
:10355000EAE705B05DF804FB000002400700024006
:10356000080002407F969800588DFF1F70B5EFF35A
:10357000108272B60C4B186898B11C4600250B4E91
:10358000436923600BB19D6100E0356002B962B60A
:10359000457783689847EFF3108272B62068002859
:1035A000EED102B962B670BDB495FF1FB895FF1F8A
:1035B00008B5FFF7DBFF08BD1C4B1B6823B9836010
:1035C000C3601A4B18602DE001681A6891420AD254
:1035D00083600022C260D8601A680168521A1A60BB
:1035E000124B18601EE09A68A2B102681968521A5C
:1035F00002609B6819688A42F5D28360DA68C2600B
:10360000D860C26890601A680168521A1A60022372
:103610000375704702681968521A026000228260BE
:10362000C360986002230375704700BFBC95FF1FFD
:1036300070B5194B1C68ECB1236823B90025164EF0
:1036400004E0236813B1013B236013E0A36803B1D6
:10365000DD6033602575206903681B6822462946B2
:10366000984763681BB123602046FFF7A5FF3468C5
:10367000002CE6D1EFF3108372B6084A10680021DF
:10368000116003B962B628B18468FFF795FF204640
:10369000002CF9D170BD00BFBC95FF1FCC95FF1F5A
:1036A00008B5034A136801331360FFF7C1FF08BD73
:1036B000BC92FF1F704700BF704700BF704700BF3C
:1036C000F0B44D1E2E460024B0FBF2F302FB1303B0
:1036D0002746092B94BF30333733DBB206F8013F5E
:1036E000B0FBF2F008B10134EEE70B1900225A707A
:1036F00094420BDD1A46002315F8010F14782C7044
:1037000002F801090133F81A8342F5DB0846F0BCE0
:10371000704700BF2DE9F04FDFF8E4928DB0064608
:103720000F4614461D4600F06FF999F90080B8F174
:10373000FF3FCDE9000146D022462B4620462946D0
:1037400001F0F2FC834600283DD132463B4630462C
:10375000394601F0E9FC002282460023002840F0AF
:1037600084803046394601F0ADFC002830D000227C
:1037700000232046294601F0A5FC8346A8B101227A
:10378000984B029200210022CDF828A0CDE90467D1
:10379000CDE90645CDE908120393B8F1000F53D0E7
:1037A000914900200DB0BDE8F08F2046294600F079
:1037B00049FF40B1002200232046294601F08CFC3D
:1037C000002840F0B780DDE900010DB0BDE8F08FC2
:1037D000DDE9000100F036FF804600285DD04FF0A3
:1037E000000A4FF0000B52465B46DDE9000101F094
:1037F00069FC0028E7D03046394600F023FF002856
:10380000E1D02046294600F01DFF0028DBD099F9C1
:103810000030744A039204210022022BCDE9046790
:10382000CDE90645CDE908AB02910A9203D002A882
:1038300000F00EFF70B901F0ADFF2223036009E034
:1038400000230024CDE9083402A800F001FF00287D
:1038500000F086800A9B1BB101F09CFF0A9B03606D
:10386000DDE908010DB0BDE8F08F2046294601F0E2
:1038700029FC0028A7D05C495A4BCDF828B001227A
:103880000020B8F1020FCDE90467CDE906450292A8
:103890000393CDE90801D7D197E73046394600F0C8
:1038A000D1FE00289BD02046294600F0CBFE002800
:1038B00095D0DDE900231046194601F035FC0028BB
:1038C00073D1032399F900800293464B0A90039326
:1038D000CDE90467CDE9064500220023304639468C
:1038E000B8F1000F41D1414F4FF06046CDE9086774
:1038F00001F0F2FB00289AD000223D4B20462946D9
:1039000001F078F904460D4600F0AAFE02460B4687
:103910002046294601F0D6FB002843D1354B99F9C2
:1039200000804FF06042CDE90823B8F1020F7FF428
:103930007EAF80E799F900302A4ACDF828B00121FE
:10394000CDE90467CDE9064502910392002B3FF4CF
:1039500077AF29490020022BCDE908017FF474AF2D
:1039600001F018FF2123036074E7244F0026CDE9FE
:10397000086701F0B1FB0028D7D000221C4B20467D
:10398000294601F037F904460D4600F069FE02466B
:103990000B462046294601F095FB18B9164B00222C
:1039A000CDE9082399F90080BFE799F900900D4B04
:1039B000CDF828800122CDE90467CDE906450292C1
:1039C0000393B9F1000F3FF43BAF002200231046F0
:1039D000194601F039FAB9F1020FCDE90801BFD05B
:1039E00032E700BF545C00000000F03FFFFFEF47EC
:1039F0000000E03FFFFFEFC70000F0FF0000F07F96
:103A00006E8DFF1FFFFFFFFF2DE9F04F23F00048F1
:103A100058EA020993B03CD0714C21F00046A6420E
:103A200083460D460CDD06F1404606F5801656EA43
:103A30000B0038D16B498346584613B0BDE8F08F70
:103A40009A4696462BD0A045EDDC654CA04578D033
:103A5000002D0F468146CDE9002376DB0024BEF120
:103A6000000F27D15E4B984500F08B805D4B984549
:103A700052D0BAF1804F00F0C2835B4B9A4519D106
:103A8000002D17DB4846394613B0BDE8F04F00F073
:103A900015BDCB465349584613B0BDE8F08F0028FA
:103AA000C1D1B045D1DD514813B0BDE8F04F00F0B1
:103AB000D1BD00244846394600F0C0FDBBF1000FDF
:103AC0001CD0ED0F013D54EA050370D0484B9845DA
:103AD00040F3948003F10473984540F30584454B0B
:103AE0009E4270DDBAF1000F70DD3BA3D3E90023E5
:103AF0001046194601F07EF883469DE726B1394B02
:103B000025F040429A42DCD1BAF1000FC0F2B083F6
:103B1000002D08DB83468FE7BAF1000FC0F2568410
:103B2000CB46394688E706F1404606F5801656EA48
:103B3000040300F07B84012CECD1834601F10041A9
:103B40007AE7BEF1000F83D06DE72B4B98452CDC54
:103B5000A3F15473984581DD4FEA2853A3F2FF3354
:103B6000142B40F34B84C3F134032EFA03F202FA10
:103B700003F39E457FF472AF02F00102C2F102042A
:103B80006DE706F1404303F5801353EA0B0300F0A1
:103B90003383184B9E4240F36083BAF1000F15DB6C
:103BA000DDE900349B46214646E7022457E74A46B2
:103BB00048463B46394600F069FE02460B4601F096
:103BC00043F9834638E7BAF1000F8EDB4FF0000B64
:103BD000594631E7AFF300809C7500883CE4377E9E
:103BE0000000F07F0000F03F0000E03F585C000064
:103BF0000000E041FFFFEF3FFFFF3F43B6F5801FAE
:103C00004FF0000205DAD44B00F0F4FF6FF03402FD
:103C10000E463315D14FC6F31306A3F2FF331344F8
:103C200046F07F5ABE421A460D934AF4401A40F3BA
:103C3000C183CB4B9E4240F3FD83134601330D936A
:103C4000C84B0022CDE9062300270026CDE90867EE
:103C5000CDE90E67AAF5801A002702465346514661
:103C6000CDE90A23DDE9062300F010FEDDE9062395
:103C700080468946DDE90A0100F00AFE02460B464D
:103C80000020B84901F0E0F80A460146CDE91012DB
:103C9000134649460246404600F0ACFF4FEA6A032D
:103CA00043F000538C46834603F50023CDE904BC62
:103CB000DA468B46D9190023CDE902AB0293DDE940
:103CC00002AB002006460F4602460B4650465946B8
:103CD00000F090FF02460B464046494600F0D6FDF4
:103CE000DDE90623804689463046394600F0CEFDA0
:103CF00002460B46DDE90A0100F0C8FD52465B466C
:103D000000F078FF02460B464046494600F0BEFDF3
:103D1000DDE9102300F06EFFDDE90467CDE906015F
:103D200032463B463046394600F064FF78A3D3E97B
:103D3000002306460F4600F05DFF77A3D3E900237A
:103D400000F0A6FD32463B4600F054FF74A3D3E9D1
:103D5000002300F09DFD32463B4600F04BFF72A36E
:103D6000D3E9002300F094FD32463B4600F042FFC9
:103D70006FA3D3E9002300F08BFD32463B4600F0F1
:103D800039FF6DA3D3E9002300F082FD324680465F
:103D900089463B463046394600F02CFF02460B462A
:103DA0004046494600F026FF524606460F465B460F
:103DB000DDE9040100F06CFDDDE9062300F01AFFE7
:103DC00032463B4600F064FD5246804689465B46DB
:103DD0005046594600F00EFF0022634BCDE90A0120
:103DE00000F056FD42464B4600F052FD02980F4649
:103DF000064632463B465046594600F0FBFE00223E
:103E000082468B46584B3046394600F03FFDDDE98F
:103E10000A2300F03BFD02460B464046494600F0AF
:103E200035FDDDE9042300F0E5FE32468046894693
:103E30003B46DDE9060100F0DDFE02460B4640464A
:103E4000494600F025FD8046894602460B4650460D
:103E50005946CDE904AB00F01BFDDDE902AB38A308
:103E6000D3E9002350460F4600F0C4FEDDE90423E9
:103E7000CDE902013946504600F008FD02460B46E6
:103E80004046494600F002FD2FA3D3E9002300F08D
:103E9000B1FE2FA3D3E90023804689465046394618
:103EA00000F0A8FE02460B464046494600F0F0FCF2
:103EB000DDE90E2300F0ECFC80460D98894600F009
:103EC00033FE424606460F464B46DDE9020100F04E
:103ED000DFFCDDE9082300F0DBFC32463B4600F066
:103EE000D7FC32463B4650468B4600F0CFFCDDE91E
:103EF000082300F0CBFCDDE9022300F0C7FC0246FA
:103F00000B464046494600F0C1FC80462EE000BF0B
:103F1000EF4E454A287ECA3F65DBC9934A86CD3FAE
:103F200001411DA96074D13F4D268F515555D53F94
:103F3000FFAB6FDBB66DDB3F033333333333E33F2C
:103F4000000000E009C7EE3FFD033ADC09C7EE3F81
:103F5000F5015B14E02F3EBE000040438E98030045
:103F600079B60B000000F03F000008408946013C94
:103F700054EA0503DDE9000114BFD54CD54C0023FC
:103F8000CDE9043403460C46CDE902340023029304
:103F9000DDE9024522462B4600F078FC52465B469E
:103FA00000F028FEDDE9002306460F46404649465C
:103FB00000F020FE02460B463046394600F068FC11
:103FC000224606460F462B4650465946CDE9006725
:103FD00000F010FE0B4602468046894630463946C0
:103FE00000F056FCBC4B994206460D460C4640F389
:103FF0000E8101F13F4303F5E003034340F0EF81FD
:104000009FA3D3E90023DDE9000100F041FC424613
:1040100082468B464B463046294600F037FC024626
:104020000B465046594601F075F8002840F0D781FC
:104030002F463B154FF48012A3F2FE3342FA03F3EE
:104040002344C3F30A52A54EA2F2FF321641C3F332
:10405000130B0020C2F1140523EA06014BF4801B68
:1040600002460B46002C4BFA05FB40464946B8BFBA
:10407000CBF1000B00F00AFC02460B468046894655
:10408000DDE9000100F004FC4FEA0B5A00247EA396
:10409000D3E9002320460D4600F0ACFD424606461B
:1040A0000F464B462046294600F0F0FB02460B46E1
:1040B000DDE9000100F0EAFB75A3D3E9002300F07D
:1040C00099FD75A3D3E900238046894620462946F9
:1040D00000F090FD02460B464046494600F0D8FBF2
:1040E0008046894602460B463046394600F0D0FBF2
:1040F00032463B4604460D4600F0C8FB02460B46DE
:104100004046494600F0C2FB2246804689462B467F
:104110002046294600F06EFD61A3D3E90023064640
:104120000F4600F067FD60A3D3E9002300F0AEFB6B
:1041300032463B4600F05EFD5DA3D3E9002300F06C
:10414000A7FB32463B4600F055FD5BA3D3E90023B5
:1041500000F09CFB32463B4600F04CFD58A3D3E9EF
:10416000002300F095FB32463B4600F043FD02463B
:104170000B462046294600F089FB06460F460246BC
:104180000B462046294600F035FD0022CDE900010E
:104190004FF080433046394600F078FB02460B462C
:1041A000DDE9000100F050FE424606460F464B4650
:1041B0002046294600F01EFD42464B4600F068FBB3
:1041C00002460B463046394600F060FB22462B463D
:1041D00000F05CFB02460B4600203D4900F056FB18
:1041E0008A44BAF5801FC0F236815146DDE90423C6
:1041F00000F000FD83461FE4F34635491CE44A46BF
:1042000048463B46394600F0F5FC834614E4344BFF
:1042100021F000479F4240F30081324B0B4403439F
:104220000CD142464B4600F031FB02460B46DDE91D
:10423000000100F05BFF00283FF4FBAE22A3D3E9AE
:104240000023DDE9040100F0D5FC1FA3D3E900231E
:1042500000F0D0FC8346FFF7EFBBBAF1000FBFF6CA
:10426000B5ACDDE900349B4604F10041FFF7E4BB47
:1042700002460B460020164900F0E6FD48E400BF68
:10428000FE822B654715973C00000000432EE63F59
:10429000EF39FAFE422EE63F396CA80C615C20BE75
:1042A000D0A4BE726937663EF16BD2C541BDBB3E3C
:1042B0002CDE25AF6A56113F93BDBE166CC1663F1A
:1042C0003E5555555555C53F59F3F8C21F6EA501CA
:1042D0000000F03F0000F0BFFFFF8F40FFFF0F0026
:1042E000FFCB904000346F3F6F4B9E427FF76BAC2B
:1042F0006E4B9E423FF7F6AB00226C4B00F0C6FAC5
:104300005BA3D3E9002306460F4600F073FC5AA3D3
:10431000D3E90023804689463046394600F06AFCDE
:10432000002282468B46624B3046394600F062FCE2
:1043300002460B4652A1D1E9000100F0A7FA32462D
:104340003B4600F057FC02460B460020594900F05E
:104350009DFA3246CDE902013B463046394600F02F
:1043600049FC02460B46DDE9020100F043FC46A38E
:10437000D3E9002300F03EFC02460B465046594666
:1043800000F084FA02460B4606460F464046494670
:1043900000F07EFA42464B46002082468B4600F0F3
:1043A00075FA02460B463046394600F06FFA8046F1
:1043B0008946DCE500220023CDE90823CDE90E2360
:1043C0003A4B00220027CDE9062346E44A463B4605
:1043D0000020364900F038FD8346FFF72DBB2CA3A3
:1043E000D3E90023DDE9040100F004FC28A3D3E9AC
:1043F000002300F0FFFB8346FFF71EBBBEF1000F5A
:104400007FF457ABC3F1140348FA03F202FA03F343
:10441000984524D07446FFF729BB264B9F423FF7AF
:1044200008AEDDE902349A469B462FE602460B466B
:10443000FFF7C1BB18A3D3E90023CDE9082318A3D4
:10444000D3E90023CDE90E231B4B00224FF4802734
:10445000CDE9062301E45A4600F08EF9C6E602F0E3
:104460000102C2F10204FFF701BB00BFAFF30080FD
:10447000000000604715F73F44DF5DF80BAE543E87
:10448000555555555555D53FFE822B654715F73F78
:104490009C7500883CE4377E0000004003B8E23F92
:1044A00006D0CF43EBFD4C3EFEFFEF3F0000F03F58
:1044B0000000D03F0000E03F0000F83F2DE9F84346
:1044C0005D4EB6460E4076450C46054600F095809A
:1044D00000290B46024673DD0F157ED0A7F2FF3789
:1044E000C3F31303F80743F4801364D403EBD271CE
:1044F00000260B447F105200B64616204FF40011E0
:104500000EEB01049C424FEAD2754FEA420203DCF3
:104510001B1B04EB010E0E44013805EB43034FEA6D
:104520005101EDD1844620244FF0004109E020D014
:1045300003EBD275013C4FEA51012B444FEA420292
:1045400020D09E4501EB0C05F1DA002D05EB010CA6
:1045500009DBF0469542CEEB030300D9013B521B29
:104560000844C646E4E7BCF1000FF2DB0EF1010897
:10457000F0E7954217D8002D05EB010C47DB984674
:104580000023ECE7134310D14008731003F17F536D
:1045900003F50013F20703EB075948BF40F0004052
:1045A0004946BDE8F8837346C2E7411C33D000F0AA
:1045B00001031844E8E75B0003EBD273520095E770
:1045C00021F000460643ECD069BB0F46D30A153FE5
:1045D0005205002BFAD0DD0220D4002100E0014674
:1045E0005B00DC0201F10100F9D5C0F1200422FAE0
:1045F00004F423437F1A824070E702460B4600F022
:10460000F9FA2A46234600F043F9BDE8F883BCF1E5
:10461000000FABDAB3E701362046B6E720244FF0AF
:10462000FF310020E3E702460B4600F02FF9024677
:104630000B4600F009FCB4E70000F07F21F00041D8
:10464000704700BF41F0004101F58010C00F704776
:104650000020704700200149704700BF0000F87F2C
:10466000F0B5C1F30A5EAEF2FF36132E83B00246F8
:104670000B460C464FEAD17507462EDC002E49DB6F
:104680003B49314103EA010010432BD049080B405C
:1046900053EA02070CD04FF48023132E24EA0101C1
:1046A00043FA06F444EA01040CBF4FF00047002728
:1046B000304B03EBC5052146D5E900453846224677
:1046C0002B4600F0E5F8CDE9000122462B46DDE956
:1046D000000100F0DBF803B0F0BD332E06DDB6F5C7
:1046E000806F42D01046194603B0F0BDAEF2134EB3
:1046F0004FF0FF3121FA0EF10842F3D04908084289
:10470000D6D04FF0804320EA010143FA0EFE4EEA74
:104710000107CDE721F000410143E3D0C3F31301CA
:10472000144E41EA000CCCF1000106EBC506D6E9B7
:10473000006741EA0C0C5C0C4FEA1C3C0CF4002CAA
:1047400064044CEA040132463B4600F0A1F8CDE98E
:1047500000013B463246DDE9000100F097F821F008
:10476000004444EAC5731946BEE700F091F8BBE780
:10477000FFFF0F00605C0000F8B5C1F30A56044665
:104780000D460B46174606BB21F00043034325D0D8
:104790000022354B00F02EFA344A974204460D466B
:1047A0000B462ADBC1F30A56363E3E4440F2FE7207
:1047B000964228DC002E12DD23F0FF4323F4E003B1
:1047C00043EA065520462946F8BD40F2FF7296425C
:1047D000EBD102460B4600F05BF8F8BDF8BD16F1D0
:1047E000350F1DDA4CF250339F4222462B4625DC12
:1047F00019A1D1E9000100F03DF817A3D3E9002386
:1048000000F0F8F9F8BD22462B4615A1D1E90001C8
:1048100000F030F812A3D3E9002300F0EBF9F8BD63
:1048200023F0FF4323F4E003363643EA06552046DF
:10483000294600220E4B00F0DDF9F8BD08A1D1E9B0
:10484000000100F017F806A3D3E9002300F0D2F925
:10485000F8BD00BFAFF3008059F3F8C21F6EA50189
:104860009C7500883CE4377E00005043B03CFFFF5D
:104870000000903C03F0004321F0004242EA0301B3
:10488000704700BF81F0004102E000BF83F00043A9
:1048900030B54FEA41044FEA430594EA050F08BFDB
:1048A00090EA020F1FBF54EA000C55EA020C7FEA9F
:1048B000645C7FEA655C00F0E2804FEA5454D4EB1C
:1048C0005555B8BF6D420CDD2C4480EA020281EAE6
:1048D000030382EA000083EA010180EA020281EA1E
:1048E0000303362D88BF30BD11F0004F4FEA013170
:1048F0004FF4801C4CEA113102D0404261EB41017F
:1049000013F0004F4FEA03334CEA133302D0524204
:1049100063EB430394EA050F00F0A780A4F10104C0
:10492000D5F1200E0DDB02FA0EFC22FA05F28018FA
:1049300041F1000103FA0EF2801843FA05F35941E0
:104940000EE0A5F120050EF1200E012A03FA0EFC5F
:1049500028BF4CF0020C43FA05F3C01851EBE37189
:1049600001F0004507D54FF0000EDCF1000C7EEBA6
:1049700000006EEB0101B1F5801F1BD3B1F5001FE4
:104980000CD349085FEA30004FEA3C0C04F1010403
:104990004FEA445212F5800F80F09A80BCF1004F2C
:1049A00008BF5FEA500C50F1000041EB045141EAAE
:1049B000050130BD5FEA4C0C404141EB010111F4AF
:1049C000801FA4F10104E9D191F0000F04BF01465A
:1049D0000020B1FA81F308BF2033A3F10B03B3F138
:1049E00020020CDA0C3208DD02F1140CC2F10C02C8
:1049F00001FA0CF021FA02F10CE002F11402D8BF26
:104A0000C2F1200C01FA02F120FA0CFCDCBF41EAF1
:104A10000C019040E41AA2BF01EB0451294330BDC0
:104A20006FEA04041F3C1CDA0C340EDC04F114049D
:104A3000C4F1200220FA04F001FA02F340EA030074
:104A400021FA04F345EA030130BDC4F10C04C4F1BA
:104A5000200220FA02F001FA04F340EA030029469A
:104A600030BD21FA04F0294630BD94F0000F83F4E4
:104A7000801306BF81F480110134013D4EE77FEAC7
:104A8000645C18BF7FEA655C29D094EA050F08BF13
:104A900090EA020F05D054EA000C04BF19461046F4
:104AA00030BD91EA030F1EBF0021002030BD5FEA38
:104AB000545C05D14000494128BF41F0004130BD60
:104AC00014F580043CBF01F5801130BD01F00045B4
:104AD00045F0FE4141F470014FF0000030BD7FEA27
:104AE000645C1ABF194610467FEA655C1CBF0B4622
:104AF000024650EA013406BF52EA033591EA030F39
:104B000041F4002130BD00BF90F0000F04BF002130
:104B1000704730B54FF4806404F132044FF0000563
:104B20004FF0000150E700BF90F0000F04BF0021DC
:104B3000704730B54FF4806404F1320410F0004542
:104B400048BF40424FF000013EE700BF42004FEA3D
:104B5000E2014FEA31014FEA02701FBF12F07F43BA
:104B600093F07F4F81F06051704792F0000F14BFB7
:104B700093F07F4F704730B54FF4607401F00045FB
:104B800021F0004120E700BF50EA010208BF704752
:104B900030B54FF000050AE050EA010208BF704747
:104BA00030B511F0004502D5404261EB41014FF4B0
:104BB000806404F132045FEA915C3FF4DCAE4FF0B4
:104BC00003025FEADC0C18BF03325FEADC0C18BF9B
:104BD000033202EBDC02C2F1200300FA03FC20FAEC
:104BE00002F001FA03FE40EA0E0021FA02F1144439
:104BF000C1E600BF70B54FF0FF0C4CF4E06C1CEA4E
:104C000011541DBF1CEA135594EA0C0F95EA0C0FC2
:104C100000F0DEF82C4481EA030621EA4C5123EA35
:104C20004C5350EA013518BF52EA033541F4801164
:104C300043F4801338D0A0FB02CE4FF00005E1FB17
:104C400002E506F00042E0FB03E54FF00006E1FB61
:104C500003569CF0000F18BF4EF0010EA4F1FF04A4
:104C6000B6F5007F64F5407404D25FEA4E0E6D41E4
:104C700046EB060642EAC62141EA55514FEAC520F5
:104C800040EA5E504FEACE2EB4F1FD0C88BFBCF571
:104C9000E06F1ED8BEF1004F08BF5FEA500E50F122
:104CA000000041EB045170BD06F0004646EA0101E8
:104CB00040EA020081EA0301B4EB5C04C2BFD4EB1A
:104CC0000C0541EA045170BD41F480114FF0000E13
:104CD000013C00F3AB8014F1360FDEBF002001F081
:104CE000004170BDC4F10004203C35DA0C341BDCFB
:104CF00004F11404C4F1200500FA05F320FA04F0CD
:104D000001FA05F240EA020001F0004221F0004100
:104D100010EBD37021FA04F642EB06015EEA430E73
:104D200008BF20EAD37070BDC4F10C04C4F12005A3
:104D300000FA04F320FA05F001FA04F240EA020056
:104D400001F0004110EBD37041F100015EEA430E27
:104D500008BF20EAD37070BDC4F1200500FA05F247
:104D60004EEA020E20FA04F301FA05F243EA0203C6
:104D700021FA04F001F0004121FA04F220EA0200D5
:104D800000EBD3705EEA430E08BF20EAD37070BD1B
:104D900094F0000F0FD101F00046400041EB0101FB
:104DA00011F4801F08BF013CF7D041EA060195F0DD
:104DB000000F18BF704703F00046520043EB030397
:104DC00013F4801F08BF013DF7D043EA0603704784
:104DD00094EA0C0F0CEA135518BF95EA0C0F0CD08F
:104DE00050EA410618BF52EA4306D1D181EA0301D5
:104DF00001F000414FF0000070BD50EA410606BFCF
:104E00001046194652EA430619D094EA0C0F02D113
:104E100050EA013613D195EA0C0F05D152EA033658
:104E20001CBF104619460AD181EA030101F0004176
:104E300041F0FE4141F470014FF0000070BD41F0BF
:104E4000FE4141F4780170BD70B54FF0FF0C4CF499
:104E5000E06C1CEA11541DBF1CEA135594EA0C0FB8
:104E600095EA0C0F00F0A7F8A4EB050481EA030E05
:104E700052EA03354FEA013100F088804FEA0333EC
:104E80004FF0805545EA131343EA12634FEA0222BA
:104E900045EA111545EA10654FEA00260EF000417B
:104EA0009D4208BF964244F1FD0404F5407402D2CD
:104EB0005B084FEA3202B61A65EB03055B084FEA5E
:104EC00032024FF480104FF4002CB6EB020E75EB5B
:104ED000030E22BFB61A754640EA0C005B084FEA83
:104EE0003202B6EB020E75EB030E22BFB61A754600
:104EF00040EA5C005B084FEA3202B6EB020E75EB4B
:104F0000030E22BFB61A754640EA9C005B084FEAC2
:104F10003202B6EB020E75EB030E22BFB61A7546CF
:104F200040EADC0055EA060E18D04FEA051545EABE
:104F300016754FEA06164FEAC30343EA52734FEA67
:104F4000C2025FEA1C1CC0D111F4801F0BD141EAE0
:104F500000014FF000004FF0004CB6E711F4801F45
:104F600004BF01430020B4F1FD0C88BFBCF5E06F25
:104F70003FF6AFAEB5EB030C04BFB6EB020C5FEA35
:104F8000500C50F1000041EB045170BD0EF0004E8A
:104F90004EEA113114EB5C04C2BFD4EB0C0541EABC
:104FA000045170BD41F480114FF0000E013C90E6B9
:104FB00045EA060E8DE60CEA135594EA0C0F08BF7D
:104FC00095EA0C0F3FF43BAF94EA0C0F0AD150EA7C
:104FD00001347FF434AF95EA0C0F7FF425AF10460F
:104FE00019462CE795EA0C0F06D152EA03353FF437
:104FF000FDAE1046194622E750EA410618BF52EAB4
:1050000043067FF4C5AE50EA41047FF40DAF52EA87
:1050100043057FF4EBAE12E74FF0FF3C06E000BF24
:105020004FF0010C02E000BF4FF0010C4DF804CD31
:105030004FEA410C7FEA6C5C4FEA430C18BF7FEAF1
:105040006C5C1BD001B050EA410C0CBF52EA430C1F
:1050500091EA030F02BF90EA020F0020704710F19F
:10506000000F91EA030F58BF994208BF90422CBF2E
:10507000D8176FEAE37040F0010070474FEA410C27
:105080007FEA6C5C02D150EA013C07D14FEA430C45
:105090007FEA6C5CD6D152EA033CD3D05DF8040BB6
:1050A000704700BF8446104662468C4619466346E8
:1050B00000E000BF01B5FFF7B7FF002848BF10F1BF
:1050C000000F01BD4DF808EDFFF7F4FF0CBF012004
:1050D00000205DF808FB00BF4DF808EDFFF7EAFF80
:1050E00034BF012000205DF808FB00BF4DF808ED3B
:1050F000FFF7E0FF94BF012000205DF808FB00BF30
:105100004DF808EDFFF7CEFF94BF012000205DF8B9
:1051100008FB00BF4DF808EDFFF7C4FF34BF0120C6
:1051200000205DF808FB00BF4FEA410C7FEA6C5C91
:1051300002D150EA013C0AD14FEA430C7FEA6C5C91
:1051400002D152EA033C02D14FF0000070474FF009
:10515000010070474A0011D212F5001211D20DD58C
:105160006FF47873B3EB62520ED44FEAC12343F06D
:10517000004343EA505323FA02F070474FF0000017
:10518000704750EA013002D14FF0FF3070474FF0C6
:105190000000704780F0004002E000BF81F0004155
:1051A00042001FBF5FEA410392EA030F7FEA226CCD
:1051B0007FEA236C6AD04FEA1262D2EB1363C1BF5D
:1051C000D218414048404140B8BF5B42192B88BFCC
:1051D000704710F0004F40F4000020F07F4018BFEF
:1051E000404211F0004F41F4000121F07F4118BF0F
:1051F000494292EA030F3FD0A2F1010241FA03FCB7
:1052000010EB0C00C3F1200301FA03F100F000439E
:1052100002D5494260EB4000B0F5000F13D3B0F166
:10522000807F06D340084FEA310102F10102FE2AD5
:1052300051D2B1F1004F40EBC25008BF20F0010045
:1052400040EA03007047490040EB000010F4000FF3
:10525000A2F10102EDD1B0FA80FCACF1080CB2EB86
:105260000C0200FA0CF0AABF00EBC25052421843E5
:10527000BCBFD0401843704792F0000F81F400018A
:1052800006BF80F400000132013BB5E74FEA41035D
:105290007FEA226C18BF7FEA236C21D092EA030FC9
:1052A00004D092F0000F08BF0846704790EA010F43
:1052B0001CBF0020704712F07F4F04D1400028BF70
:1052C00040F00040704712F100723CBF00F5000052
:1052D000704700F0004343F0FE4040F40000704788
:1052E0007FEA226216BF08467FEA23630146420234
:1052F00006BF5FEA412390EA010F40F48000704747
:105300004FF0000304E000BF10F0004348BF4042EC
:105310005FEA000C08BF704743F0964301464FF028
:1053200000001CE050EA010208BF70474FF0000384
:105330000AE000BF50EA010208BF704711F00043C5
:1053400002D5404261EB41015FEA010C02BF844695
:105350000146002043F0B64308BFA3F18053A3F5F4
:105360000003BCFA8CF2083AA3EBC25310DB01FA3B
:1053700002FC634400FA02FCC2F12002BCF1004FBF
:1053800020FA02F243EB020008BF20F00100704750
:1053900002F1200201FA02FCC2F1200250EA4C00A4
:1053A00021FA02F243EB020008BF20EADC707047EA
:1053B0004FF0FF0C1CEAD0521EBF1CEAD15392EAF8
:1053C0000C0F93EA0C0F6FD01A4480EA010C4002D4
:1053D00018BF5FEA41211ED04FF0006343EA50102E
:1053E00043EA5111A0FB01310CF00040B1F5000F70
:1053F0003EBF490041EAD3715B0040EA010062F11F
:105400007F02FD2A1DD8B3F1004F40EBC25008BF08
:1054100020F00100704790F0000F0CF0004C08BF26
:1054200049024CEA502040EA51207F3AC2BFD2F1F3
:10543000FF0340EAC250704740F400004FF0000301
:10544000013A5DDC12F1190FDCBF00F0004070473B
:10545000C2F10002410021FA02F1C2F1200200FA79
:1054600002FC5FEA310040F1000053EA4C0308BF40
:1054700020EADC70704792F0000F00F0004C02BF91
:10548000400010F4000F013AF9D040EA0C0093F00C
:10549000000F01F0004C02BF490011F4000F013B66
:1054A000F9D041EA0C018FE70CEAD15392EA0C0FD4
:1054B00018BF93EA0C0F0AD030F0004C18BF31F03F
:1054C000004CD8D180EA010000F00040704790F015
:1054D000000F17BF90F0004F084691F0000F91F0B9
:1054E000004F14D092EA0C0F01D142020FD193EA7F
:1054F0000C0F03D14B0218BF084608D180EA010007
:1055000000F0004040F0FE4040F40000704740F0E2
:10551000FE4040F4400070474FF0FF0C1CEAD052B0
:105520001EBF1CEAD15392EA0C0F93EA0C0F69D00C
:10553000A2EB030280EA010C49024FEA402037D077
:105540004FF0805343EA111143EA10130CF000406E
:105550008B4238BF5B0042F17D024FF4000C8B425E
:1055600024BF5B1A40EA0C00B3EB510F24BFA3EB3E
:10557000510340EA5C00B3EB910F24BFA3EB91030E
:1055800040EA9C00B3EBD10F24BFA3EBD10340EA68
:10559000DC001B0118BF5FEA1C1CE0D1FD2A3FF6AE
:1055A00050AF8B4240EBC25008BF20F00100704763
:1055B0000CF0004C4CEA50207F32C2BFD2F1FF0306
:1055C00040EAC250704740F400004FF00003013A37
:1055D00037E792F0000F00F0004C02BF400010F4DB
:1055E000000F013AF9D040EA0C0093F0000F01F0EF
:1055F000004C02BF490011F4000F013BF9D041EA11
:105600000C0195E70CEAD15392EA0C0F08D1420243
:105610007FF47DAF93EA0C0F7FF470AF084676E716
:1056200093EA0C0F04D14B023FF44CAF08466EE7EF
:1056300030F0004C18BF31F0004CCAD130F00042BD
:105640007FF45CAF31F000437FF43CAF5FE700BF15
:105650004FF0FF3C06E000BF4FF0010C02E000BF3E
:105660004FF0010C4DF804CD4FEA40024FEA4103E0
:105670007FEA226C18BF7FEA236C11D001B052EA96
:10568000530C18BF90EA010F58BFB2EB030088BF5C
:10569000C81738BF6FEAE17018BF40F001007047CB
:1056A0007FEA226C02D15FEA402C05D17FEA236CAD
:1056B000E4D15FEA412CE1D05DF8040B704700BFF4
:1056C000844608466146FFE70FB5FFF7C9FF00288B
:1056D00048BF10F1000F0FBD4DF808EDFFF7F4FFC4
:1056E0000CBF012000205DF808FB00BF4DF808ED5D
:1056F000FFF7EAFF34BF012000205DF808FB00BF80
:105700004DF808EDFFF7E0FF94BF012000205DF8A1
:1057100008FB00BF4DF808EDFFF7D2FF94BF012052
:1057200000205DF808FB00BF4DF808EDFFF7C8FF4B
:1057300034BF012000205DF808FB00BF42000ED2FC
:10574000B2F1FE4F0BD34FF09E03B3EB126209D4BC
:105750004FEA002343F0004323FA02F070474FF072
:105760000000704712F1610F01D1420202D14FF0E7
:10577000FF3070474FF00000704700BF0B460146F6
:10578000184600F001B800BF13460A460146022041
:1057900000F004B9014B1868704700BF9891FF1FD3
:1057A00070B50F4E0F4D761BB61018BF002405D0F4
:1057B000013455F8043B9847A642F9D10A4E0B4DE7
:1057C000761B00F057FAB61018BF002406D001343B
:1057D00055F8043B9847A642F9D170BD70BD00BF93
:1057E000805C0000805C00008C5C0000805C00003D
:1057F00070B4840746D0541E002A41D0CDB203466F
:1058000002E0621EE4B3144603F8015B9A07F8D184
:10581000032C2ED9CDB245EA05250F2C45EA0545C6
:1058200019D903F110022646103E0F2E42F8105CE3
:1058300042F80C5C42F8085C42F8045C02F1100289
:10584000F2D8A4F1100222F00F0204F00F0410327B
:10585000032C13440DD91E462246043A032A46F867
:10586000045BFAD8221F22F003020432134404F02E
:1058700003042CB1C9B21C4403F8011BA342FBD1A1
:1058800070BC704714460346C2E700BFFFFFFFFF2E
:10589000FFFFFFFFFFFFFFFFFFFFFFFFFFFFFFFF18
:1058A000FFFFFFFFFFFFFFFFFFFFFFFFFFFFFFFF08
:1058B000FFFFFFFFFFFFFFFFFFFFFFFFFFFFFFFFF8
:1058C00090F800F06DE9024520F007016FF0000C40
:1058D00010F0070491F820F040F049804FF00004E8
:1058E0006FF00700D1E9002391F840F000F10800C3
:1058F00082FA4CF2A4FA8CF283FA4CF3A2FA8CF3FB
:105900004BBBD1E9022382FA4CF200F10800A4FA61
:105910008CF283FA4CF3A2FA8CF3E3B9D1E90423B5
:1059200082FA4CF200F10800A4FA8CF283FA4CF3EC
:10593000A2FA8CF37BB9D1E9062301F1200182FAA6
:105940004CF200F10800A4FA8CF283FA4CF3A2FAAC
:105950008CF3002BC6D0002A04BF04301A4612BABA
:10596000B2FA82F2FDE8024500EBD2007047D1E9BD
:10597000002304F00305C4F100004FEAC50514F04C
:10598000040F91F840F00CFA05F562EA05021CBF1D
:1059900063EA050362464FF00004A9E72DE9F047EA
:1059A000254C2568D5F848410646884692469946D2
:1059B000C4B360681F2817DC431C76B104EB800574
:1059C0000122C5F888A0D4F8881182401143022E24
:1059D000C4F88811C5F808911ED00230636044F8FD
:1059E00020800020BDE8F087144B03B34FF4C8704B
:1059F000AFF300800446D0B1D5F84831002780E8E5
:105A00008800C5F8484138460123C4F88871C4F8B5
:105A10008C71002EE1D0D1E7D4F88C110A43C4F880
:105A20008C21DAE705F5A674C5F84841C1E74FF0C7
:105A3000FF30BDE8F08700BF705C00000000000090
:105A4000024B13B1024800F005B870470000000097
:105A5000615A0000002301461A461846FFF79EBF10
:105A600038B5074D074C2C1BA41005D0013C55F848
:105A7000043D9847002CF9D1BDE8384000F006B944
:105A800000000000000000004008FE4340A0044069
:105A90004408FE4344A004400018FE4300C00440F4
:105AA0003000FE43309004403400FE433490044004
:105AB0001C18FE431CC004401018FE4310C00440D4
:105AC0000818FE4308C004400C18FE430CC00440F4
:105AD0000C10FE430CB004401010FE4310B0044004
