:1000000000800020BD010000452A0000FD290000FD
:10001000FD290000FD290000FD290000FD29000048
:10002000FD290000FD290000FD290000452A0000EF
:10003000452A0000FD2900008535000089360000B2
:10004000452A0000452A0000452A0000452A0000F4
:10005000452A0000452A0000452A0000452A0000E4
:10006000452A0000452A0000452A0000452A0000D4
:10007000452A0000452A0000452A0000452A0000C4
:10008000452A0000452A0000452A0000452A0000B4
:10009000452A0000452A0000452A0000452A0000A4
:1000A000452A0000452A0000452A0000452A000094
:1000B000452A0000452A0000452A0000452A000084
:1000C000452A0000452A0000452A0000452A000074
:1000D000452A0000452A0000452A0000452A000064
:1000E000452A0000452A0000452A0000452A000054
:1000F000452A0000F5300000452A000021320000AA
:10010000452A00004D330000452A0000452A000022
:10011000452A0000452A0000452A0000452A000023
:10012000452A0000452A0000452A0000452A000013
:10013000452A0000452A0000452A0000452A000003
:10014000452A0000452A0000452A0000452A0000F3
:10015000452A0000452A0000452A0000452A0000E3
:10016000452A000041170000452A0000452A0000EA
:10017000452A0000452A0000452A0000452A0000C3
:10018000452A0000452A0000452A0000452A0000B3
:10019000452A0000452A0000452A0000452A0000A3
:1001A000452A0000452A0000452A0000452A000093
:1001B000452A0000452A0000452A0000564B4CF213
:1001C000205210B51A804DF628121A8000BF00BFC9
:1001D00002F03CFC514B4FF010621A60504A9A609A
:1001E000504ADA60504A136813F4807304D14F49BF
:1001F0000B604FF4A85313604D4B1A78110703D5C9
:100200001A7842F008021A704A4B4B492A221A7097
:100210004A4A4B4B8B4204D252F8040F43F8040B6A
:10022000F8E7484B484900228B4202D243F8042B9E
:10023000FAE74649464A002352F8230041F82300D2
:1002400001336F2BF8D1434B434A802103F8011B44
:100250009342FBD1414B3D4A1A60414B8A221A70AE
:10026000A3F5805324225A70A0221A709A7992071B
:10027000FCD59A79D406FCD43A4A937903F00C035E
:10028000082B384BF9D103221A7146225A719A79F8
:100290009006FCD5334A9179324B4906FBD5324A58
:1002A0004FF0827111600921516020221A709A79F1
:1002B00002F00C020C2AFAD12C4B2D4A1A602D4B5D
:1002C0002D4A1A6000225A60072243F8042C2B4A58
:1002D000C3F80C2D62B601F0EFF8144B1B68DA0777
:1002E00005D5274800F0ECFE264B274A1A60274B1D
:1002F0001B785B0609D5234C234B22689A4204D114
:100300001F4800F0DDFE0023236003F0F1FC02F043
:10031000A3FB02F08FFAFEE70E2005403080044078
:10032000823F04000100002B10D0034014D0034092
:1003300002D0074000E007409891FF1FB041000045
:10034000308CFF1F9891FF1F0897FF1F0082FF1F2F
:100350000000000000E400E05FE400E008ED00E0E1
:1003600000500640004006404480044004800440A1
:10037000C010050014E000E0BFD401000000202000
:10038000DB38D55D1CE00340A5C3945A00F007405C
:10039000FFFFFFFFFFFFFFFFFFFFFFFFFFFFFFFF6D
:1003A000FFFFFFFFFFFFFFFFFFFFFFFFFFFFFFFF5D
:1003B000FFFFFFFFFFFFFFFFFFFFFFFFFFFFFFFF4D
:1003C000FFFFFFFFFFFFFFFFFFFFFFFFFFFFFFFF3D
:1003D000FFFFFFFFFFFFFFFFFFFFFFFFFFFFFFFF2D
:1003E000FFFFFFFFFFFFFFFFFFFFFFFFFFFFFFFF1D
:1003F000FFFFFFFFFFFFFFFFFFFFFFFFFFFFFFFF0D
:10040000FFFFFFFFFFFFFFFFFFFFFFFFDEF9FFFF23
:1004100010B5054C237833B9044B13B10448AFF33E
:1004200000800123237010BD9891FF1F0000000081
:10043000B4410000084B10B51BB108490848AFF3A0
:1004400000800848036803B910BD074B002BFBD0A0
:10045000BDE81040184700BF000000009C91FF1F3E
:10046000B44100009891FF1F0000000070B40648DE
:10047000064D074C074A0023FF26012103702E700A
:100480002370117070BC7047B691FF1FA892FF1FB8
:10049000B791FF1FB591FF1F10B4074B074C1B7896
:1004A000074908482478084A0C70013B0121037071
:1004B000117010BC704700BFB691FF1FB491FF1FB1
:1004C000B791FF1FA892FF1FB591FF1F70B40B4A91
:1004D0000B4B127819780B4E0B480C4C02F00303AF
:1004E00003EB43035B00C2F3810533708B0092FB87
:1004F000F3F20270257070BC704700BF388CFF1F8C
:10050000358CFF1FB691FF1FB891FF1FB491FF1FDD
:10051000704700BF054B064AD978064B52F8311098
:100520000120002281F800011A707047508CFF1FD3
:10053000C83F0000B591FF1F0A2800D07047054B47
:100540001B788B42FAD1044B04481B781146C05CDF
:1005500000F0C8BD348CFF1F3C8CFF1F508CFF1F68
:100560000E4B1B78C3B10E4A13780133DBB2052B57
:1005700013700AD90B490B78002001330B701070EF
:10058000094B0121D87800F03DBF012BF8D9064B6B
:100590000021D87800F036BF704700BFB591FF1F2B
:1005A000A892FF1FB791FF1F508CFF1FF8B5234B78
:1005B0001B78834204463ED0214B1B78A34237D0A0
:1005C000204B1B78A34227D01F4B1B78A34216D089
:1005D0001E4B1B78A34211D11D4B1E4A18781E4E8C
:1005E0001E4904F0030303EB4303C4F381055B00DE
:1005F0008000337094FBF0F40D701470F8BD164B4E
:10060000164D17491B781748174A2D780D70013B76
:10061000012103701170DBE7124E114D0E48124A92
:100620000023FF27012137702B7003701170CBE777
:10063000FFF770FFC4E7FFF793FFBDE75C8CFF1F78
:100640004C8CFF1F368CFF1F378CFF1F388CFF1F11
:10065000358CFF1FB891FF1FB691FF1FB491FF1F8C
:10066000B791FF1FA892FF1FB591FF1FF8B53A4D34
:1006700005F10C062C4601E0B4420DD014F8010B34
:100680000028F9D0012100F0C3FE344914F8010C10
:1006900000F036FEB442F1D1072000F021FE002424
:1006A0002B782146282003B1184600F01BFD0134A9
:1006B000012000F0B3FE802CF2D115F8010B0028C8
:1006C00042D0002100F00EFDB542E8D1244C254E69
:1006D000A06C254F0368254DDB6947F6122198472A
:1006E000234B244A2363032384F864306263224B40
:1006F000224ADFF8A4E02248E3634FF6FF710023AB
:10070000A263204A326084F84C3084F84E3084F87A
:100710004D30A365636584F8E93084F8663084F869
:10072000653084F8673084F86830E165164B2166DF
:100730006260164E164A1749E3602260CEF8002028
:100740003B602E600160F8BD0146282000F0CAFC25
:1007500015F8010CB5E700BF508CFF1F005043484F
:10076000BC91FF1F0494FF1F0094FF1FCC93FF1F39
:10077000610500006D0400001505000099040000EB
:10078000B893FF1FF907000039050000CD040000F1
:1007900089080000AD050000FC93FF1F0A2802D065
:1007A0000B281BD07047104B104AA3FB0103DB083A
:1007B00003EB4303A1EB8301C9B2535C002BF1D0DF
:1007C0000B490C4ACB5C497952F83300012380F87D
:1007D000003152F8312082F800317047044B00217B
:1007E000987800F07FBC00BFABAAAAAA408CFF1F7C
:1007F000508CFF1FC83F00000A2838B50C4615462C
:1008000006D00B281ED1F2B9BDE83840FFF7C6BFAD
:10081000002AF9D0174B184AA3FB0413DB0803EB9B
:100820004303A4EB8304E4B2135D5BB11349144AA0
:10083000C85C144B52F8304018780123A84284F861
:10084000803010D338BD0D4D1146287800F04AFC99
:10085000A4F11801282000F045FCA8787F21BDE80C
:10086000384000F03FBC497952F8312082F880309E
:1008700038BD00BFABAAAAAA408CFF1F508CFF1F37
:10088000C83F00003D8CFF1FFFF788BFF8B5044646
:10089000806C03681B69984708B90020F8BDA06CFC
:1008A00003685B699847C3B203F0FB02F92AF4D0EE
:1008B000A26D82B994F84D2084F84F30150600F1EE
:1008C0009E8040B20028C0F26481002084F84D0070
:1008D000A0656065F8BD010669D494F84F10F02951
:1008E00004EB020140D081F84F30616D4B1E9A42FB
:1008F00040D394F84F20F02AE7D013063DD40023CC
:1009000084F86630B02B4CD0A02B4AD0D02B48D0E6
:10091000E02B46D0C02B44D0002084F8650003298A
:1009200094F8500008BF94F8515084F8670018BF3D
:10093000002500210120B02B84F86850A165616575
:1009400084F8E90000F0B78000F2AE80902B00F050
:10095000B280A02B00F0AF80802B00F0AC80002391
:1009600084F84D300120F8BD81F86930636D013B9A
:100970009A42AAD20132A2658FE702F10C03DBB2E0
:10098000012BBCD902F0FB03F92BB8D0EF2A00F2FF
:10099000FE8002F0F003802B84F8663001D0902BAB
:1009A000B0D102F00F00013084F86500B7E7A3F181
:1009B000F701082991D8012505FA01F010F4DD7F2F
:1009C00040F09680002988D194F86930F02B7FF4AC
:1009D0007CAF561C2244F720370A82F8690084F85D
:1009E000676084F8687084F8651084F84D102846B4
:1009F00084F8663084F8E950A1656165F8BD02F1BC
:100A00000C01CDB2012D7FF65CAF02F0FB05F92D94
:100A10003FF457AFEF2A2ED802F0F006802E2BD1EC
:100A200040B20028FFF64EAF012084F84F2084F832
:100A30005030A065C9B201297FF647AF02F0FB0331
:100A4000F92B3FF442AFEF2A5FD802F0F003B02B4E
:100A500026D01ED9D02B04D0E02B21D0C02B7FF480
:100A600034AF022363650121A36D994227D9013375
:100A7000A3650020F8BD164606F0DF05902DCFD007
:100A800006F0BF05A02DCBD006F0EF06C02EC7D0D4
:100A900017E7902B04D0A02B02D0802B7FF415AF4A
:100AA000032363650221DFE7D02B04D0E02B02D0C3
:100AB000C02B7FF454AF84F84D200120F8BDEF2AFD
:100AC00094BF02F0F005154602F00F020023013238
:100AD00094F8501084F86520012084F8671084F899
:100AE000683084F86650A365636584F8E900F8BD52
:100AF000002284F8672084F8682084F8652084F850
:100B0000663084F8E9502846F8BDA2F1F0030F2BB7
:100B10003FF6DBAE01A151F823F000BF5D0B0000F2
:100B2000630A0000A10A0000630A0000CB0800006D
:100B3000CB080000710B0000CB080000710B000017
:100B4000CB080000710B0000710B0000710B00005E
:100B5000CB080000710B0000710B00000021802009
:100B6000F02384F84D10606584F869307F217BE7BD
:100B70000023012084F8653084F8673084F86830F9
:100B800084F86620A365636584F8E900F8BD134620
:100B9000B6E61A4603F10C014CE700BF90F8663048
:100BA000803B7F2B43D8DFE803F04742424242427A
:100BB0004242424242424242424251424242424206
:100BC00042424242424242424242AE424242424299
:100BD00042424242424242424242A6424242424291
:100BE00042424242424242424242AA42424242427D
:100BF0004242424242424242424281424242424296
:100C0000424242424242424242428942424242427D
:100C1000424242424242424242429B405563424229
:100C200069426D42717579427D43036A1BBB70470F
:100C3000436C002BFBD018470368002BF7D090F8CB
:100C4000682090F8671090F8650018474368002BFB
:100C5000F5D1ECE7426A002AE9D090F8683090F8C4
:100C60006700DB0103F47E5300F07F001843104758
:100C7000836A002BDBD090F867001847C36A002B0B
:100C8000D9D1D4E7036B002BD5D1D0E7436B002B30
:100C9000D1D1CCE7836B002BCDD1C8E7C36B002B40
:100CA000C9D1C4E7036C002BC5D1C0E74369002B51
:100CB000BDD090F8671090F8650018478269002A47
:100CC000B5D090F8681090F8673090F86500C901C9
:100CD00001F47E5103F07F031943A1F50051104741
:100CE000C369002BA3D0B0F86710802900F1690018
:100CF00028BF80211847C368002BA0D197E703695C
:100D0000002BD6D193E78368002B98D18FE700BFE3
:100D10002DE9F0479DF82040013CE4B20F2C03D8A8
:100D20004EB2002E0D4601DBBDE8F087E0290FD959
:100D3000F729F9D90835EDB2012303FA05F515F0C5
:100D4000DD0FF1D0806C0368BDE8F0471B681847E1
:100D50008146806C1F46036846EA0401C9B21B68DD
:100D600090469847D9F84800036808F07F011B684F
:100D700005F0EF059847C02DD6D0D9F84800036894
:100D800007F07F011B68BDE8F047184790F8643012
:100D9000DA0718D513F0FE0F15D070B590F866502D
:100DA00085F08002602A82B004460DD890F8656014
:100DB0008E4231D081B35B08012B32D0032B00F07F
:100DC000988002B070BD7047A5F1F0030F2BF8D8E2
:100DD00001A252F823F000BFCB0E0000AB0E0000C2
:100DE0007D0E00005D0E0000C30D0000C30D00006D
:100DF000370E0000C30D0000370E0000C30D0000C9
:100E0000370E0000370E0000370E0000C30D000043
:100E1000370E0000370E00005B08012B01D0022BBB
:100E2000CFD194F8683094F8672000962946204680
:100E3000FFF76EFFC5E705F10803DBB2072BC0D84B
:100E4000012202FA03F313F0DD0FBAD0A06C03689D
:100E50001B68294602B0BDE870401847806C94F8C2
:100E600067500368F3211B689847A06C0368DB6C2C
:100E700005F07F0102B0BDE870401847806C94F81F
:100E80006730026894F868501268F22143EAC51589
:100E90009047A06C036805F07F019B6C9847A06C9D
:100EA0000368C5F3C6119B6CE4E7806C94F8675047
:100EB00094F8683002682D0103F00F0305F0700507
:100EC0001268F1211D439047C0E7B0F86760802E9B
:100ED00028BF802600F16905002E3FF472AF2E4432
:100EE000A06C15F8011B03681B689847B542F7D141
:100EF00067E794F8683094F8672000962946FFF772
:100F000007FF5EE738B5184C94F84C50102D04D903
:100F10000020BDE8384001F0C7B92046FFF7B6FC15
:100F20000028F5D094F86630902B0FD083F0800322
:100F3000602B0ED90C48FFF731FE29460A48FFF70F
:100F400025FF0020BDE8384001F0AEB994F86830C4
:100F500033B194F865309D42ECD0002DEAD0ECE737
:100F6000802384F86630F4E7BC91FF1F70B5214CF4
:100F7000214A94F86430A2640025012243F0010361
:100F800062F3470329464FF6FF7604F16900802299
:100F900084F8643084F84C5084F84D5084F84E50F6
:100FA0006565A56584F8655084F8665084F86750D7
:100FB00084F8685084F8E950E665266602F0C0FEC1
:100FC000204625606560A560E56025616561A561D5
:100FD000E56125626562A562E56225636563A563D7
:100FE000E56325646564054A0549BDE8704002F083
:100FF00073BE00BFBC91FF1F648CFF1F308CFF1FAE
:101000001105000010B40F4B53F8302092F88042C5
:101010002CB1012369B182F8803010BC704703EB1A
:10102000C0035B681A6841B922F002021A6010BC62
:10103000704782F8003110BC704742F003021A601A
:1010400010BC7047C83F00001C4A02EBC0030129D6
:101050005B6811D004291BD052F83000002280F8C0
:10106000802229B1022920D0032922D01A6070479A
:101070004FF480721A60704752F830004FF4A27239
:1010800080F880121A601A6822F020021A607047F5
:1010900052F830104FF4A272012081F880021A60D9
:1010A0001A6842F020021A60704740F203121A6078
:1010B00070474FF481721A60704700BFC83F00004C
:1010C00030B4054B054D064C002210211A602A60F1
:1010D0002060196030BC704714D0034004D0034036
:1010E00000D00340282838B52ED0002904464FDD13
:1010F0005F4B1B78012505FA03F28A4202D82128AA
:1011000037D938BD0338C2B2012A3AD9202C4AD087
:10111000192C48D0574A126802FB011222FA03F335
:101120001D2800F29B80DFE800F0928B847D999966
:10113000766F99999999999999999968615A53995A
:101140004C99999999999945494B1B780B2B08D93A
:101150000C2B1CBF0C3B19410846BDE8384001F080
:101160002FBCC3F10C0399400846BDE8384001F09C
:1011700027BC2946FFF746FF2946BDE83840FFF760
:1011800063BF3D4A126802FB011222FA03F3C7E76C
:101190002128B6D80021FFF735FF20460121BDE800
:1011A0003840FFF751BF354A126802FB011222FA9C
:1011B00003F3B5E73249334A0B604FF451731360C0
:1011C00038BD3149314A0B604FF45173136038BD5B
:1011D0002F49304A0B6040F24443136038BD2E491A
:1011E0002E4A0B6040F24443136038BD2C492D4A0F
:1011F0000B6040F24443136038BD2B492B4A0B600F
:1012000040F24443136038BD29492A4A0B6040F23A
:101210004443136038BD2849284A0B6040F24443D8
:10122000136038BD2649274A0B6040F244431360DF
:1012300038BD2549254A0B6040F24443136038BD50
:101240002349244A0B604FF45173136038BD22497F
:10125000224A0B604FF45173136038BD212C3FF6C6
:1012600050AF7F29D4BF00210121204693E700BF62
:101270005D8CFF1F088003400890034008800B40EE
:1012800010800B4048A0044018800B404CA0044044
:101290001880034008B004401080034004B00440AC
:1012A0004080034018C004403880034014C004400C
:1012B0002880034010B00440208003400CB004405C
:1012C0003080034010C00440488003401CC00440EC
:1012D0001890034034900440109003403090044034
:1012E00038B1102828BF1020044AC3B210781370F8
:1012F0007047024A01231078137070475D8CFF1FFE
:101300002DE9F8430E4680463249334D304602F00F
:101310009BFC47F6122300281ABF1D464FF0020916
:101320004FF00109002425FA04F002F097FA4FF07B
:101330005E51074602F0EAFA0146304602F098FC98
:1013400030B90134072CEED1E80902F087FA0746DC
:101350003146384602F08EFB4FF07C5102F0CCF95A
:1013600002F09AFC4FF6FF729042A8F1030328BFE7
:101370001046012B29D9B8F1170F17D8174B23FAAC
:1013800008F303F0010383F0010223B9B8F1190F48
:101390000FD0BDE8F883124B124D13491A6044EA8E
:1013A000C9042A6008601C60BDE8F883B8F1200F0A
:1013B000ECD10E4B0E4D0F49002244EAC9041A60CD
:1013C0002A6008601C60BDE8F8830B4B0B4D0C498C
:1013D000F2E700BFC0E1E440008793036006F0003D
:1013E00000800340048003400880034000800B40DD
:1013F00004800B4008800B400090034004900340A1
:1014000008900340212801D8FFF7FCBD704700BFBA
:10141000212801D8FFF718BE704700BF2DE9F84317
:10142000054672B6204F214B214A1B683C68126862
:1014300062B6520102D5322B88BF013495B3C3F591
:10144000EA331C4EDFF86490DFF86480BF334FF45A
:101450007A72A6FB031302FB04F404EB931472B636
:10146000D9F800103A68D8F800E062B6C1F5EA335E
:10147000BF33A6FB03031EF0806FC4EB93134FF43E
:101480007A7002D0322988BF013200FB0233B3F5F3
:101490007A7F04D3013D05D004F57A74DFE701F0CB
:1014A000D1F9DCE7BDE8F883AC92FF1F18E000E05B
:1014B00004ED00E089888888F8B52D4B2D49DFF8C8
:1014C000D0E0DFF8D0C02C4E2C4D2D4C2D4A2E4FA5
:1014D0004FF4000018604FF0807018604FF00070FB
:1014E00018604FF0806018604FF0006018600020B6
:1014F000086028234EF6FF71CCF80010CEF80030BB
:10150000336013602B6023603B60B36293620922F7
:1015100045F8242CC4F8D80F05F57F65C7F8D41F0B
:1015200007F5FF2707F5FA67C6F8F83F2B6006F5C1
:10153000FF26C4F8D42F05F5FD2504F5FF243860F7
:1015400006F2F4761148316005F5FF6504F5FD6497
:101550002B602360026001F0C3F91920FFF75EFFE2
:1015600000F0C6FD40F21310BDE8F840FFF756BF8B
:1015700008E100E00480034014800340248003401D
:101580002C8003401C8003403480034000800B40CB
:101590000C80034008800340431E042B14D872B60D
:1015A0000A4951F8230068B170B4094C058834F831
:1015B0001320466841F82360521B24F8132062B6BA
:1015C00070BC704762B67047002070470C93FF1FD5
:1015D000C495FF1F30B472B6334A13781B0706D583
:1015E000324B196A002943D0996A00294ED05378AA
:1015F0001D0706D52D4B196C00294DD0996C00297B
:1016000046D093781C0706D5284B196E002945D083
:10161000996E00293ED0D378190707D5234BD3F80C
:10162000801000293ED0D3F8881091B113791B07A0
:1016300008D51E4BD3F8A020002A31D0D3F8A8201B
:1016400015243AB162B61A4B00221A7030BC00F071
:10165000CBBD11241649174D0A7843F8345003EBDB
:10166000C4030830013A58600A7062B630BC704753
:1016700004220F4C104D217843F8325003EBC20383
:1016800008304A1E5860227062B6EFE70524E1E791
:101690000924DFE70D24DDE70822EAE70C22E8E76A
:1016A0001422E6E71022E4E7384100000080FF1F23
:1016B0009593FF1FC800400088004000431E042B84
:1016C0001DD81B4A400140F0100030B4104472B6DF
:1016D000184CE25C032A1BD8DFE802F0021215174F
:1016E00003220D88E25410F0080F14BFC82388238A
:1016F00043EA054308310360416062B630BC70477D
:1017000008300222EDE70522EBE708300422E8E783
:10171000094A52F8230038B1084A52F823004160C0
:1017200042F8231062B6E9E742F82310034AF7E7CC
:101730000080FF1FA493FF1F6493FF1F7893FF1F78
:101740002DE9F04FDFF808B3DFF808A387B044E0D5
:10175000AA4F4FEA930807EBC809013ED9F80420C5
:1017600003F00803F6B2A2F1080003F0FF04002B17
:1017700040F0008157F838301B0C99B222F8081C51
:10178000002B00F0EE809E4B22F8064C42F8044CF1
:1017900053F82620002A00F035829A4D55F826305D
:1017A0005860994C45F8260034F81630194424F84E
:1017B000161000F0F9FC002800F01D82934A944BAB
:1017C00019F0080F00F1080018BF1346C9F804000B
:1017D00047F8383008238BF800309BF80040E4B21B
:1017E00060071CD58B4B1B78B3B18B490A7802F08C
:1017F000FF0322B1013BDBB20B7003B900BE874986
:101800000A7802F0FF032AB1013BDBB20B70002B18
:1018100000F0C78100F032FD04238BF8003004F0A3
:10182000080303F0FF02002B00F0C8809AF8003094
:10183000DBB21E098CD19C08DFF8C09159F8342026
:1018400009EBC401C2F38302013A49680C2A00F291
:101850008480DFE802F0787882828282828243820A
:101860008282070008686E4D684B4A686D4F49F8E0
:10187000343081B26C4E6A6040F28164002228608C
:10188000A1424FF001003A60C9F81020C9F81820B1
:10189000307000F2E180B1F5D06F80F01383B1F5C4
:1018A000817F00F0E68100F2C981802900F0248365
:1018B000822940F0E481A98801F07F01052900F226
:1018C000DE815A4B5A4C89000B44227062701A78A0
:1018D000930740F199832070022014E2514F3A6837
:1018E00032B3544B504E5449188834780D78402800
:1018F000864645F0020828BF4FF0400E002C84F0C9
:1019000001043470CEEB00000CBF8824C82409EB1E
:10191000C80680B285F0010544EA0E447260188062
:1019200049F8384072440D70002800F0B6803A60E3
:101930003B4B1A88B2F5A06F0FD100219A785970ED
:101940003E4B1A7009E0364A108842F2210290425A
:1019500000F0A8802D4A49F83420394A0123137039
:1019600038E72A4A2A4B19F0080F18BF134647F8E0
:1019700038302FE700F038FC324A334952F826302D
:10198000002B00F0438158688C5D42F8260003F17B
:101990000802C9F80420032C05D8DFE804F02C0263
:1019A000292602228A551A8819F0080F0CBF8823AD
:1019B000C82343EA024347F838300BE7E00700F159
:1019C000F380210600F13081A20706D51F4A204985
:1019D00013780220DBB213700870E30602D51C4BAB
:1019E00010221A7007B0BDE8F08F04228A55DAE79A
:1019F00005228A55D7E703228A55D4E70080FF1FC6
:101A00000C93FF1FB492FF1FC495FF1FC800400036
:101A100088004000A093FF1F2193FF1F0894FF1F21
:101A20008C93FF1FB092FF1F2093FF1FC020074021
:101A30009893FF1FC892FF1F9493FF1F98200740A1
:101A4000942007406493FF1FA493FF1F8820074042
:101A5000802007409020074042F22104A14200F07C
:101A60009C8049D8B1F5086F00F04981B1F5106F3D
:101A700040F00581B24AB34CA978117004F1A00579
:101A800003E00834A54200F08981236A1906F8D5DD
:101A9000606A083800F0A8FBF3E7BEF1400F18BFFA
:101AA000002244E7A84A0D784878157050708D7868
:101AB000C8789570D07010680D79157186284D79A9
:101AC00089795571917100F01681A049A04E0A786C
:101AD000307882F00105002842F002020D700CBF40
:101AE0008821C82149F8321009EBC20280F00100B8
:101AF0000021307051602DE742F22124A14240F0D4
:101B00000882DFF890C2934B9349AC78DCF8005020
:101B10001D6001900C7000200290804684460446AF
:101B20008A490D7845F0020E09EBCE030393019B21
:101B3000002B039B5C600CBF8824C82448EA040384
:101B400085F0010449F83E3032700C70DFF8F4E1A2
:101B50007F4BDFF8F881002840F09880BCF1400FFF
:101B60001BD144F0020C09EBCC03029CDFF8D4E15A
:101B70005C60002A40F0A080020442F088029DF8D8
:101B800004304EF83C20044433700D702346402846
:101B900003D10020714A3B601080714A0123137009
:101BA000DBE600F0ADFD35E6664B6D4867491A612E
:101BB0004FF0020E80F800E06A4F0A706A4919601F
:101BC00099606A4E6A4D6B4C9A610D213970FF2104
:101BD0003170DFF8C4E129702270674D674A8EF8D2
:101BE00000109F27012406F8047C5D600470DA6011
:101BF00007B0BDE8F08F624A47F838001378013328
:101C00001370E7E543F826005E4DCAE58B5D032BB4
:101C10006AD801A252F823F0D5170000D5170000AA
:101C20006D1C0000671C00004E49514B80220D20A6
:101C300008701A70A2077FF5D0AEC7E640F20232F4
:101C4000914240F05E81A98801F07F01052916D8F4
:101C50006A88A2B9434C019089000C44217841F074
:101C60000201217057E701238B55B3E500238B5503
:101C7000B0E5A98801F07F01052940F24F81394A7A
:101C80000F231370364A0123137066E640287FF64F
:101C900068AF44F002040EEBC401029E4E60BAB17C
:101CA0009DF80410384A19703346403888F80050BF
:101CB00040334EF834206DE79DF804303370020451
:101CC000029B0D7042F0C80203444EF83C205EE7D0
:101CD0009DF804101970029B234A88F80050403880
:101CE00040334EF8342055E719F0080F0CBF02239B
:101CF00003238B556EE5254A0F211170E5E6104A46
:101D0000234C12782270EA88824280F0E1810F49E8
:101D10000D78402A944645F0020E28BF4FF0400C43
:101D200004EB0C0309EBCE000293012344604FEA5D
:101D30000C48CCEB020001930022C824FEE600BF51
:101D4000A093FF1F0080FF1FFC96FF1F9493FF1FAF
:101D50002093FF1F0497FF1F1494FF1FC892FF1FBB
:101D600094200740C020074088004000882007409A
:101D70008020074098200740CC92FF1F2493FF1F2C
:101D80009593FF1FB492FF1FC80040002193FF1FCF
:101D90009893FF1FAC92FF1F8C200740B04CB14AB4
:101DA000B149B248B24D01940023B24C0294059659
:101DB000039580461C46049716460D46306828B1A8
:101DC000476800F011FA3846002FF9D1002333603C
:101DD000039B28681A46002342F8243028B147683C
:101DE00000F002FA3846002FF9D1019B00221B783F
:101DF0002A6048F8042B029A4FF00001023B22F8B7
:101E00001410032B07D8DFE803F058025802019B97
:101E10004FF001021A70019B01340133052C06F1C9
:101E2000040605F104050193C8D1934C934D227823
:101E3000934B049F059E002129701A7012077AD4D3
:101E400062789049DFF84C820A7013074FF0000166
:101E5000C9F83010C9F8381000F1C380A2788A4957
:101E6000DFF830820A7010074FF00001C9F85010F7
:101E7000C9F8581000F1A1808449E2780A70002165
:101E8000C9F87010C9F878101107DFF808827DD4FE
:101E900022797F497F4C0A7000211207C9F89010FF
:101EA000C9F898105DD433780193002183F00102C2
:101EB000C9F8B010C9F8B8102DE6019B4FF0000228
:101EC0001A70A8E7744A5468002C3FF4D8AE6888AA
:101ED000B5F804E004E00C325468002C3FF4CFAEB7
:101EE00013888342F7D153887345F4D1000A03283D
:101EF0000CBF2078108906E7684C022022706270BF
:101F000001E7B1F5A06F7FF4BAAE0123002201937F
:101F100001E642F221329142F7D0B0E66A88002A07
:101F20007FF4ADAE5E4C019089000C44217821F025
:101F300002012170EFE500F037F9002800F0B680CB
:101F40000830584AC9F82400C9F8202000F02CF9BC
:101F500000287FD00830544AC9F82C00C9F828203E
:101F60006EE700F021F9002856D008304D4AC4F839
:101F7000A400C4F8A02000F017F9002846D00830CB
:101F8000494AC9F8AC00C9F8A8208CE700F00CF960
:101F9000002800F097800830424AC8F88400C8F84A
:101FA000802000F001F9002800F0868008303E4AC9
:101FB000C9F88C00C9F888206AE700F0F5F8002815
:101FC00042D00830374AC8F86400C8F8602000F0F2
:101FD000EBF898B30830344AC9F86C00C9F86820A7
:101FE0004AE700F0E1F818B308302E4AC8F8440078
:101FF000C8F8402000F0D8F8A0B108302A4AC9F843
:102000004C00C9F8482029E702207CE62A78C9F864
:10201000A80001322A7046E72A78C4F8A0000132ED
:102020002A70A8E72A78C9F8480001322A7015E713
:102030002A78C8F8400001322A70DBE72A78C9F80C
:10204000680001322A7017E72A78C8F86000013268
:102050002A70BCE72A78C9F8280001322A70EFE616
:10206000A493FF1F0C93FF1F6493FF1F7893FF1F20
:10207000B492FF1FC495FF1F384100009593FF1FC6
:10208000C4200740C8200740CC200740D02007408C
:10209000D42007400080FF1F404100009893FF1F9D
:1020A000C020074088004000C80040002A78C9F8D6
:1020B000200001322A7049E72A78C9F888000132E5
:1020C0002A70E5E62A78C8F8800001322A7068E7AD
:1020D0004028844628BF4FF0400C04EB0C030293C9
:1020E0000123CCEB00004FEA0C480022019317E5D6
:1020F0002DE9F843204C01F095F9002204F1A800E5
:1021000023461A605A60083383424FF00001F8D129
:102110001A4A1B4F13681B4D1B481C4EDFF8788072
:10212000DFF878C0DFF87890DFF878E043F48023B8
:102130001360C4F307233B70C4F307432B70240ED2
:10214000FF2302F528320470114D88F80030114841
:102150008CF80030D4323370012389F800307026B7
:102160008EF800104FF40074102107F8183C2E7000
:1021700004601170BDE8F8830080FF1F34800440C4
:102180009C200740B0200740B420074010200740A3
:1021900049E400E008E100E0802007408820074093
:1021A000942007400021074072B60D480268B2FA39
:1021B00082F31D2B10DC4FF00041D94022EA0102CE
:1021C000026062B6074803EBC303DB00C2180021BC
:1021D000C15010465160704762B60020704700BF82
:1021E000608CFF1FBC83FF1F0D4B0E4AC31AA2FB5E
:1021F00003231B091D2B0CD80B4A127852B972B657
:102200000A484FF00041026821FA03F31A430260C2
:1022100062B67047064A1278002AF0D0FFF7DAB9A2
:10222000BC83FF1F398EE3389593FF1F608CFF1F1F
:10223000A093FF1F38B50E4B0E4C1B682188054636
:102240008BB1B1F5917F05D20B4A4B1C55549BB213
:10225000238038BD0022084898470021064A55547B
:102260000123238038BDB1F5917FEDD338BD00BF88
:10227000D093FF1FD295FF1FD895FF1F38B5084B8D
:102280001C7824B9074D296809B14B8803B938BDBA
:102290009B000B800420FFF711FA2C6038BD00BFB3
:1022A000C093FF1FEC93FF1F2DE9F041AD4E336843
:1022B0000746002B00F092801D885A88910803EB96
:1022C00081010432AA428C6842D25A8004F00F067F
:1022D0004FEA1428A449A6F1080208F00F00C4F33D
:1022E0000313062A00F101050B701AD9B31E012B46
:1022F0005FFA88F04ED9052E48D0042E00F0A48154
:10230000731F022B7FD90F2E0ED1F72842D8F02849
:1023100002D0964B1B883BB1FFF78CFF0020BDE835
:10232000F08127B1BD4202D00020BDE8F081082E27
:10233000C4F3033300F08780092E11D00A2E40F039
:1023400094800A2BF0D18A4B8A4A1B68A02181E035
:102350001846FFF749FF0520FFF71EF93060B5E783
:10236000092BE1D1270E00F07B81834B814A1B684A
:102370009021C4F307461170EDB2FCB2002B00F0BF
:102380009D80224631462846984797E0F02843D959
:10239000F72841D0F1380E28C6D801A353F820F011
:1023A000572500003B2500002925000029230000B7
:1023B000292300001B25000029230000FB25000025
:1023C00029230000C5250000DF25000003250000AB
:1023D00029230000EB240000CF240000674B1B786A
:1023E000002BA1D00520FFF7D7F803463060002866
:1023F0009AD00588002D7FF460AFFFF7F5FE3560B9
:102400002846BDE8F081FFF715FFC4F30740FFF74A
:1024100011FF072E02D1200EFFF70CFF534B584A35
:10242000198858481468584D524A017000270E0AFE
:10243000F0201F802E7010700CB301225348A0476B
:102440000120BDE8F081082B7FF46EAF504B494A64
:102450001B688021C4F307461170EDB2240E6BB3E4
:10246000284622463146984728E00B2E11D10B2BE7
:102470007FF45AAF474B3F4A1B68B021EAE7464B0F
:102480001B68002B00F0FB80404898470120BDE806
:10249000F0810C2E40F000810C2B7FF445AF3F4BB8
:1024A000344A1B68C0211170EDB2C4F30746002BFB
:1024B00000F0C88028463146240E98473849314AF2
:1024C000314B0D7016701C700120BDE8F081354B4A
:1024D0001B68002B00F0D6809847C4F30746254BB5
:1024E000EDB2240E83F80080E8E72F4B1B68002B29
:1024F000F2D12E4B1B68A3B1FE209847C4F30746C8
:10250000EDE72B4B1B68002BE6D1284B1B6843B132
:10251000FC209847C4F30746E1E7264B1B68002BD5
:10252000DAD1C4F30746DAE7234B1B68C4F3074646
:10253000002BD4D030469847D1E7204B1A68002AA8
:10254000EFD0260C630C06F07F0003F47E53184393
:10255000F6B29047C3E71A4B1B68C4F30746002B3B
:10256000E8D1BCE7F493FF1FD695FF1FD295FF1F5C
:10257000D493FF1FD095FF1F0494FF1FA093FF1F4C
:10258000D093FF1FD495FF1FD595FF1FD895FF1F30
:10259000FC93FF1F0094FF1FE893FF1FC493FF1FCE
:1025A000D795FF1FB093FF1FB493FF1FB893FF1F72
:1025B000F093FF1FE493FF1FF893FF1FCC93FF1FBF
:1025C000E093FF1F3F4B1B68002B85D13E4B1B68E0
:1025D000002BA6D0FA209847C4F307467FE73B4B71
:1025E0001B68002B7FF478AF374B1B68002B98D00B
:1025F000FB209847C4F3074671E7354B1B68002B57
:102600007FF46AAF304B1B68002B8AD0F8209847C4
:10261000C4F3074663E70E2B7FF486AE2D4A2E4B9C
:102620001268E0211970002A47D0260C610C06F0D0
:102630007F0301F47E511943EDB2A1F50051284604
:102640009047F6B2240E39E7FFF7F4FDC4F30740D4
:10265000FFF7F0FD200EFFF7EDFD0020BDE8F08153
:102660001E4B1D4A1B6880211170EDB2C4F3074652
:1026700083B1314628463A4698473C461EE701203A
:10268000BDE8F081104B1B68002B3FF44AAFFF20E0
:10269000984746E71C4611E70D2EBCD10D2B7FF461
:1026A00043AE0F4B0C4A1B68D0211170EDB2C4F33E
:1026B0000746002B7FF4FEAEC4E7C4F30746EDB235
:1026C000240EFBE6DC93FF1FB893FF1FBC93FF1F94
:1026D000AC93FF1FC893FF1FD095FF1FFC93FF1FF4
:1026E000D893FF1F044B054A1B6850881BB11A88FA
:1026F0005B88D31A184470471094FF1FC495FF1FBE
:1027000038B50E4B1B7873B90D4C216861B103F0DD
:10271000FF054B880B800320FEF7D0FF256038BDF6
:10272000084B01221A7038BDFFF73EFD0028F7D094
:102730000146BDE838400320FEF7C0BF0994FF1FE3
:102740000C94FF1F0894FF1F0368C9B21B68184749
:102750000368C9B21B6818470368C9B21B681847E9
:102760000368C9B21B68184708B5084600F0B4FBF7
:10277000012008BD08B5084600F0AEFB012008BDE9
:1027800038B508460D4601F03BFB04460146284695
:1027900000F0ACFB204638BD10B508461446114683
:1027A00000F0A4FB204610BD00F07EBC08B5084632
:1027B00000F06AFB003018BF012008BD08B50846CC
:1027C00000F040FB003018BF012008BD084611464C
:1027D00000F0D4BA084600F00BBB00BF084600F07A
:1027E000B1BA00BF00F04CBA034B03EB5100B0FB91
:1027F000F1F000F0A3B900BF001C4E0E10B5064B5F
:10280000144603EB5100B0FBF1F000F097F92046BD
:10281000BDE8104000F008BA001C4E0E00F02CBCC1
:1028200000F0F6BB00F0E4BB00F0C4BB00F0CEBB90
:10283000704700BF08B5FDF719FFFEF763FB00F016
:1028400001F8FAE738B5224C237803B138BD0123EB
:102850002370FFF747FF70BB00F0CAFB40BB00F0DE
:10286000CFFC10BB00F062FDE0B900232370EFF352
:102870000583002BEAD1EFF3108172B6154B18686F
:10288000E0B1154C2278CAB945691D600123237057
:10289000C5B1AA6101B962B600254577836898473A
:1028A0002570D3E700F0FAFEDFE700F0F5FED9E788
:1028B000FFF7BEFFD3E700F0F3FECDE70029C5D157
:1028C00062B638BD054B1D600029E5D1E3E700BFC6
:1028D0001594FF1FB895FF1FBC95FF1FB495FF1FF0
:1028E00030B42948294A2A4B2A4D6024E12104703A
:1028F00011701B78284C082B30D00A2B2748284908
:1029000037D00C2B0CBF35225D2212232A602360A6
:1029100002600B60234B24491B78244ABBB101237E
:102920000B601360224B23491B78234A012B26D9C5
:10293000042B0FD9082B1ED9102B94BF8623872375
:102940000B6013601D4B01221A7030BC70470B6086
:102950001360E7E784230B601360F3E700F58E2034
:102960000F490830212213232A60236002600B6084
:10297000D0E73922F7E785230B601360E2E7802375
:102980000B601360DEE700BF0040074001400740D6
:10299000748CFF1F08B003400CB0034008B00B401C
:1029A0000CB00B401794FF1F20B0034020B00B4029
:1029B000758CFF1F24B0034024B00B401694FF1FFA
:1029C0000A4A0B49136843F4805313600B7843B9E8
:1029D000084BC0221A70084B80F30C0000B218801C
:1029E0007047044B80221A70F5E700BF2C8004402A
:1029F0001794FF1F21C00C4000C00C4008B5104CBC
:102A000008E0236859050DD423681A050FD42368FC
:102A1000DB0411D423685803F3D5FEF791FE236835
:102A20005905F1D500F066FB23681A05EFD500F0D3
:102A3000F7FB2368DB04EDD500F088FCEAE700BF74
:102A40003480044008B5FFF7D9FF00BF014B1022C6
:102A50001A80704700200540704700BFEFF31380D5
:102A600070B9EFF310836BB9EFF305825AB94FF4E5
:102A70008070EFF311832BB1984228BF184670473E
:102A80004FF0FF3070470F2A01D81846F1E7014B8D
:102A9000D05CEEE7F0E300E02DE9F84F214B1B6836
:102AA00007460BB101221A70DFF888901E4D99F885
:102AB0000040DFF884801D4E01343F2C8ABF4FF068
:102AC000000A5FFA84FA5446AB462B78A34216D12B
:102AD000FFF7C4FF40281FDC33791B06F5D59BF8B0
:102AE000003001333F2B86BF00221346DAB218F8BC
:102AF0000330DBB2F3712A702B78A342E8D00C4983
:102B00000A4BFFB208F804700120BC22087089F853
:102B100000A0DA70BDE8F88FFF28D6DDFFF792FE3F
:102B2000D3E700BFA894FF1FA594FF1F00A0064095
:102B3000A494FF1FAC94FF1F2094FF1F2B4A2C4925
:102B40001368F0B543F4806313600A78294F2A4E66
:102B50002A4D2B4C2B4900233B7033702B70237074
:102B60000B70002A3DD0152A21D0274B1B78012B52
:102B700025D0052B30D01F2827D80020024601255C
:102B8000224B234C1A7023495D7004224FF0020E31
:102B900088273C26402598729A704FF4005083F89D
:102BA00013E05A751F74DE7025700860F0BD1A4B73
:102BB00040F213321A60144B1B78012BD9D1174BFA
:102BC0004FF451721F281A60D7D9C0F34432C0F3B2
:102BD000471500F01F00D3E7114B4FF451721A60F4
:102BE000C9E7104B40F213321A60BEE7348004404C
:102BF0006094FF1F1C94FF1F1D94FF1FAC94FF1FC8
:102C0000A594FF1FA494FF1F768CFF1F00A0064011
:102C10002DE400E004E100E018C0044044A00440BA
:102C20001CC0044040A00440144B14499B7803F09E
:102C3000EC0200F003031343420700F00F0248BF09
:102C400043F01003042A8B7013D00C4B0B4A5B79B2
:102C5000C10603F0EF0348BF43F0100353719379AB
:102C6000820603F0EF03054A48BF43F01003937157
:102C700070478B7943F040038B71E6E700A0064074
:102C8000234B1B685B0541D510B5224C237823B13B
:102C9000FFF7D8FD2378002BFAD11F481F4A204B9D
:102CA0004FF4005400210460D1701B78FBB1152B48
:102CB00003D11C4B40F203121A601B4B1B7803F02C
:102CC0007F03012B1DD0052B03D1184B40F20312BB
:102CD0001A60174A114B1748174912681C79DB799B
:102CE000002303700B700AB10123137010BD134B46
:102CF00040F203121A600C4B1B7803F07F03012B88
:102D0000E1D10F4B40F203121A60E2E7704700BFB7
:102D100034800440A494FF1F84E100E000A006403A
:102D20006094FF1F18C00440768CFF1F1CC0044035
:102D30001894FF1F1C94FF1F1D94FF1F40A0044008
:102D400044A004400A4A38B50546137803F0FF044E
:102D5000002BFAD101212846FEF75AFB21462846CE
:102D6000FEF750FB034A044B52F835201A6038BD79
:102D7000A494FF1FC83F0000A894FF1F09B140F0B2
:102D80008000174A1378984216D010B4154C246866
:102D900064050FD503F07F03012B1CD0052B11D048
:102DA000002900F07F0114BF6023442301290DD0C6
:102DB000052902D0107010BC70470B4943F44073D2
:102DC0000B60F7E7084B00241C60E9E7074943F470
:102DD00040730B60EEE7054B00241C60E0E700BF8A
:102DE000768CFF1F348004401CC0044044A0044083
:102DF000104B1A7882420AD00F490968490505D557
:102E0000AAB1152A09D068B1152801D018707047E9
:102E10000A4A40F213311160F8E7084A00211160B4
:102E20000028F1D1064A40F213311160EEE704495F
:102E30000A60E8E76094FF1F3480044018C0044033
:102E400040A004400D4B1B6813F4806305D021287B
:102E500005D90B4B00201860704718467047094B86
:102E600010B5074C53F8303023600121FEF7D0FA3B
:102E7000236800221A70012010BD00BF3480044076
:102E80001894FF1FC83F00000F4B1B6813F48063AA
:102E900008D0122808D0142811D00C4A537B03F014
:102EA000FE03537300207047094B40F202321A6050
:102EB000064A537B43F00103537301207047054BCF
:102EC00040F202321A60F3E73480044000A006406A
:102ED0000CA0044014C00440034B1B685B0501D5E3
:102EE000FFF7DABD704700BF348004402DE9F84F8A
:102EF000294B1B685A0548D5284B1B6805460BB162
:102F000001221A7005EB010A554540D2DFF89C807A
:102F1000234CDFF89C90234F0AE015F8012B09F8A9
:102F20000B20214A0123AA45137088F800602ED097
:102F300098F80030227803F1010BBBF13F0F86BFF8
:102F40000026B3465FFA8BF69345E6D1BC22FA70B1
:102F500005E03A7913060BD422789345DDD1FFF7CB
:102F60007DFD4028F5DDFF28F6DDFFF76BFCF3E77C
:102F7000227801323F2A86BF00210A46D1B219F8D1
:102F80000220D2B2FA712170E6E7BDE8F88F054B56
:102F9000BC22DA70BDE8F88F34800440A894FF1F8B
:102FA000A594FF1F00A00640A494FF1FAC94FF1F30
:102FB0002094FF1F10B5044C237823B1FFF742FC87
:102FC0002378002BFAD110BDA494FF1F064A074BAB
:102FD0001B781078DBB2C0B283422CBF3F3000F1C7
:102FE000FF30C01A704700BFA594FF1FAC94FF1FAD
:102FF000054A064B10781B78C0B2DBB2984238BF46
:103000004030C01A704700BF1C94FF1F1D94FF1F63
:1030100030B4154B154C1A782378D2B2DBB29A42F1
:103020001ED001333F2B0ED91149124B0878196875
:103030000023C0B2237021B1D31A1A2B01DC002364
:103040000B7030BC70470A480A49C05C0968DDB2A1
:10305000C0B225700029F4D09A4238BF4032EBE765
:103060004FF0FF30EDE700BF1C94FF1F1D94FF1FC2
:103070006494FF1F1894FF1F084A094B12781B78AD
:10308000DBB29A4207D00133402B28BF0023054A08
:10309000D05CC0B270474FF0FF3070471C94FF1FE8
:1030A0001D94FF1F6494FF1F0D4B1B685B0516D515
:1030B00030B40C4B0C4CDA780C480D4902F0CB02C2
:1030C0004025DA705D74DA7842F03402DA702378E1
:1030D0000268DBB20B700AB10023137030BC70477A
:1030E0003480044000A006401D94FF1F1894FF1F69
:1030F0001C94FF1FF0B4384B1A7912F0300F2CD00B
:1031000072B6997D01F0FF0200293DD062B6334FBF
:10311000334938780D78334E1C46C0B2EDB2431CAB
:10312000402BE17928BF0023AB4202F1FF32C9B244
:103130001CBFF154184612F0FF02F0D12A4B1B6855
:10314000C2B23A704BB1A84236BFC5F14005401B30
:1031500040192728C4BF01221A701F49CA78D2B269
:10316000150616D452060DD51B4B1B795B0609D5E7
:103170001E4B1F491B6800220A7003B11A70164BC0
:103180003C22DA70F0BC70474022D9795A7462B69A
:10319000E3E70B791C06E5D5164B174E1C78337800
:1031A000E4B2DBB29C420ED0144D01E0A3420AD03F
:1031B0000133402B28BF00230879E85CC0B2C871F6
:1031C000087D0728F2D9DBB2034933700B79180662
:1031D00044BF7C23CB70C5E700A006401C94FF1FB2
:1031E0001D94FF1F6494FF1F1894FF1FA894FF1FD6
:1031F000A494FF1FAC94FF1FA594FF1F2094FF1FF2
:10320000054A064B10781B78C0B2DBB2984238BF33
:103210004030C01A704700BF2095FF1FB594FF1FB4
:10322000F0B4384B1A7912F0300F2CD072B6997D69
:1032300001F0FF0200293DD062B6334F33493878A0
:103240000D78334E1C46C0B2EDB2431C402BE179E1
:1032500028BF0023AB4202F1FF32C9B21CBFF154B8
:10326000184612F0FF02F0D12A4B1B68C2B23A7026
:103270004BB1A84236BFC5F14005401B4019272875
:10328000C4BF01221A701F49CA78D2B2150616D4DB
:1032900052060DD51B4B1B795B0609D51E4B1F49EA
:1032A0001B6800220A7003B11A70164B3C22DA70B8
:1032B000F0BC70474022D9795A7462B6E3E70B79C3
:1032C0001C06E5D5164B174E1C783378E4B2DBB2FA
:1032D0009C420ED0144D01E0A3420AD00133282BAA
:1032E00028BF00230879E85CC0B2C871087D0728B0
:1032F000F2D9DBB2034933700B79180644BF7C2343
:10330000CB70C5E700B006402095FF1FB594FF1FA6
:10331000E094FF1FB094FF1F2495FF1FB494FF1F7C
:103320002895FF1F2195FF1FB894FF1F054A064BE4
:1033300010781B78C0B2DBB2984238BF4030C01A58
:10334000704700BF3095FF1F3195FF1F30B42B4BE6
:103350001A7994061FD52A48DA7903782949013366
:103360003F2B0978C8BF00238B42D2B203D0264C32
:10337000D9B2E2540170254A116861B1244A127829
:10338000D2B2934236BFC2F140029B1A9B18272B40
:10339000C4BF01230B70194AD378DBB2180611D4CD
:1033A0005A060DD5154B1B795B0609D5194B1A49E1
:1033B0001B6800220A7003B11A70104B2C22DA70BD
:1033C00030BC704711790906EAD5144910480C78C9
:1033D0000178C9B28C420DD04A1C272A84BF002133
:1033E0000A460F4D054C98BFD1B2AA5CD2B2E27129
:1033F0000170D5E76C21D170D2E700BF00C0064054
:103400003095FF1F3195FF1F5C95FF1F2C95FF1F07
:103410009D95FF1FA095FF1F9C95FF1FA495FF1F63
:103420003495FF1F70B584B072B6194B194D1A4808
:10343000702241260F2480211A702E701A460470C3
:10344000197013781B06FCD5144B186862B6144B20
:10345000144C984298BF00EB800001A998BF40002F
:103460000A2200F01FF901A92046002311F8012BC0
:1034700001333AB10A2B20F8022FF7D1162323701B
:1034800004B070BD5B00DBB2237004B070BD00BF40
:10349000000002400700024006000240080002400F
:1034A0007F969800588DFF1F10B4EFF3108272B60C
:1034B000437F33B9017F012907D003290FD00123AE
:1034C000437702B962B610BC7047124C2168A1B1B3
:1034D000114943610B68836108605861EFE70F4C45
:1034E000216881B10E4943610B68836108605861AE
:1034F0000C4B4FF080511960E1E7074B416181614E
:1035000020601860DBE7064B416181612060186034
:10351000EEE700BFB895FF1FB495FF1FA895FF1FEA
:10352000AC95FF1F04ED00E010B4047F4160022C55
:10353000C26002D010BCFFF7B7BF836810BC184749
:1035400070B5EFF3108272B60C4C206880B10C4E4F
:1035500000254369236073B19D6102B962B6457766
:1035600083689847EFF3108272B620680028F0D184
:1035700002B962B670BD3360EFE700BFA895FF1FC8
:10358000AC95FF1FFFF7DCBF184A30B41468002C5D
:1035900027D0036821688B420ED2CB1A00218460A9
:1035A000C1602360E06010600223037530BC704787
:1035B00011688B42144608D3A2685B1A0360002A84
:1035C000F6D18260C460A060EEE7D268C260846019
:1035D000E060C568CB1A0222A8602360027530BC87
:1035E00070478460C4601060DEE700BFB095FF1FC5
:1035F000F8B5224E34682CB32368002B3AD1204F03
:103600001D4604E03468ECB12368002B32D1A36876
:1036100003B1DD6020693360036825751B68BB4218
:1036200021D1037F4560022BC46020D0FFF73CFF0F
:103630006368002BE6D023602046FFF7A5FF3468BF
:10364000002CE1D1EFF3108372B60E4A002110680E
:10365000116003B962B628B18468FFF795FF204670
:103660000028F9D1F8BD224600219847E0E7836899
:103670009847DDE7013B2360E4E700BFB095FF1FFB
:1036800029350000C095FF1F024A136801331360FB
:10369000FFF7AEBFAC92FF1F704700BF704700BF7F
:1036A000704700BFF0B44D1E2E46002400E00134E8
:1036B000B0FBF2F302FB1300092800F130078ABFC8
:1036C0003730F8B2C0B206F8010F1846002BEED121
:1036D0000A1953704CB1107815F8016F2870013336
:1036E000E01A834202F80169F5DB0846F0BC704736
:1036F00080F0004002E000BF81F0004142001FBFA7
:103700005FEA410392EA030F7FEA226C7FEA236CAF
:103710006AD04FEA1262D2EB1363C1BFD2184140A4
:1037200048404140B8BF5B42192B88BF704710F03A
:10373000004F40F4000020F07F4018BF404211F0DD
:10374000004F41F4000121F07F4118BF494292EA45
:10375000030F3FD0A2F1010241FA03FC10EB0C0071
:10376000C3F1200301FA03F100F0004302D54942FE
:1037700060EB4000B0F5000F13D3B0F1807F06D3AB
:1037800040084FEA310102F10102FE2A51D2B1F1A3
:10379000004F40EBC25008BF20F0010040EA030098
:1037A0007047490040EB000010F4000FA2F1010245
:1037B000EDD1B0FA80FCACF1080CB2EB0C0200FACF
:1037C0000CF0AABF00EBC25052421843BCBFD0401D
:1037D0001843704792F0000F81F4000106BF80F497
:1037E00000000132013BB5E74FEA41037FEA226C5A
:1037F00018BF7FEA236C21D092EA030F04D092F025
:10380000000F08BF0846704790EA010F1CBF002058
:10381000704712F07F4F04D1400028BF40F00040B5
:10382000704712F100723CBF00F50000704700F0D5
:10383000004343F0FE4040F4000070477FEA2262FC
:1038400016BF08467FEA23630146420206BF5FEACD
:10385000412390EA010F40F4800070474FF00003CD
:1038600004E000BF10F0004348BF40425FEA000C94
:1038700008BF704743F0964301464FF000001CE03C
:1038800050EA010208BF70474FF000030AE000BF92
:1038900050EA010208BF704711F0004302D54042D0
:1038A00061EB41015FEA010C02BF84460146002042
:1038B00043F0B64308BFA3F18053A3F50003BCFA5D
:1038C0008CF2083AA3EBC25310DB01FA02FC63440A
:1038D00000FA02FCC2F12002BCF1004F20FA02F211
:1038E00043EB020008BF20F00100704702F1200204
:1038F00001FA02FCC2F1200250EA4C0021FA02F265
:1039000043EB020008BF20EADC7070474FF0FF0C69
:103910001CEAD0521EBF1CEAD15392EA0C0F93EA64
:103920000C0F6FD01A4480EA010C400218BF5FEA06
:1039300041211ED04FF0006343EA501043EA511179
:10394000A0FB01310CF00040B1F5000F3EBF490073
:1039500041EAD3715B0040EA010062F17F02FD2A77
:103960001DD8B3F1004F40EBC25008BF20F001005A
:10397000704790F0000F0CF0004C08BF49024CEA71
:10398000502040EA51207F3AC2BFD2F1FF0340EA03
:10399000C250704740F400004FF00003013A5DDC74
:1039A00012F1190FDCBF00F000407047C2F10002B5
:1039B000410021FA02F1C2F1200200FA02FC5FEAA2
:1039C000310040F1000053EA4C0308BF20EADC70EC
:1039D000704792F0000F00F0004C02BF400010F45E
:1039E000000F013AF9D040EA0C0093F0000F01F00B
:1039F000004C02BF490011F4000F013BF9D041EA2D
:103A00000C018FE70CEAD15392EA0C0F18BF93EA2E
:103A10000C0F0AD030F0004C18BF31F0004CD8D158
:103A200080EA010000F00040704790F0000F17BFDF
:103A300090F0004F084691F0000F91F0004F14D025
:103A400092EA0C0F01D142020FD193EA0C0F03D17D
:103A50004B0218BF084608D180EA010000F0004080
:103A600040F0FE4040F40000704740F0FE4040F45B
:103A7000400070474FF0FF0C1CEAD0521EBF1CEAFA
:103A8000D15392EA0C0F93EA0C0F69D0A2EB030218
:103A900080EA010C49024FEA402037D04FF08053B2
:103AA00043EA111143EA10130CF000408B4238BF77
:103AB0005B0042F17D024FF4000C8B4224BF5B1A85
:103AC00040EA0C00B3EB510F24BFA3EB510340EAD3
:103AD0005C00B3EB910F24BFA3EB910340EA9C0081
:103AE000B3EBD10F24BFA3EBD10340EADC001B01F1
:103AF00018BF5FEA1C1CE0D1FD2A3FF650AF8B4295
:103B000040EBC25008BF20F0010070470CF0004CA1
:103B10004CEA50207F32C2BFD2F1FF0340EAC250CC
:103B2000704740F400004FF00003013A37E792F08D
:103B3000000F00F0004C02BF400010F4000F013AEB
:103B4000F9D040EA0C0093F0000F01F0004C02BFE6
:103B5000490011F4000F013BF9D041EA0C0195E74F
:103B60000CEAD15392EA0C0F08D142027FF47DAFE8
:103B700093EA0C0F7FF470AF084676E793EA0C0FD8
:103B800004D14B023FF44CAF08466EE730F0004CD6
:103B900018BF31F0004CCAD130F000427FF45CAF66
:103BA00031F000437FF43CAF5FE700BF4FF0FF3CD4
:103BB00006E000BF4FF0010C02E000BF4FF0010C27
:103BC0004DF804CD4FEA40024FEA41037FEA226CF0
:103BD00018BF7FEA236C11D001B052EA530C18BF12
:103BE00090EA010F58BFB2EB030088BFC81738BF77
:103BF0006FEAE17018BF40F0010070477FEA226C65
:103C000002D15FEA402C05D17FEA236CE4D15FEA60
:103C1000412CE1D05DF8040B704700BF8446084694
:103C20006146FFE70FB5FFF7C9FF002848BF10F155
:103C3000000F0FBD4DF808EDFFF7F4FF0CBF01209A
:103C400000205DF808FB00BF4DF808EDFFF7EAFF24
:103C500034BF012000205DF808FB00BF4DF808EDDF
:103C6000FFF7E0FF94BF012000205DF808FB00BFD4
:103C70004DF808EDFFF7D2FF94BF012000205DF85A
:103C800008FB00BF4DF808EDFFF7C8FF34BF012067
:103C900000205DF808FB00BF42000ED2B2F1FE4FDB
:103CA0000BD34FF09E03B3EB126209D44FEA00230B
:103CB00043F0004323FA02F070474FF000007047D2
:103CC00012F1610F01D1420202D14FF0FF30704773
:103CD0004FF00000704700BF0B460146184600F049
:103CE00001B800BF13460A460146022000F0F6B8AC
:103CF00070B50F4E0F4D761BB61018BF002405D0BF
:103D0000013455F8043B9847A642F9D10A4E0B4DB1
:103D1000761B00F041FAB61018BF002406D001341B
:103D200055F8043B9847A642F9D170BD70BD00BF5D
:103D3000A4410000A4410000B0410000A4410000E3
:103D400070B4840746D0541E002A41D0CDB2034639
:103D500002E0621EE4B3144603F8015B9A07F8D14F
:103D6000032C2ED9CDB245EA05250F2C45EA054591
:103D700019D903F110022646103E0F2E42F8105CAE
:103D800042F80C5C42F8085C42F8045C02F1100254
:103D9000F2D8A4F1100222F00F0204F00F04103246
:103DA000032C13440DD91E462246043A032A46F832
:103DB000045BFAD8221F22F003020432134404F0F9
:103DC00003042CB1C9B21C4403F8011BA342FBD16C
:103DD00070BC704714460346C2E700BFFFFFFFFFF9
:103DE000FFFFFFFFFFFFFFFFFFFFFFFFFFFFFFFFE3
:103DF000FFFFFFFFFFFFFFFFFFFFFFFFFFFFFFFFD3
:103E000090F800F06DE9024520F007016FF0000C1A
:103E100010F0070491F820F040F049804FF00004C2
:103E20006FF00700D1E9002391F840F000F108009D
:103E300082FA4CF2A4FA8CF283FA4CF3A2FA8CF3D5
:103E40004BBBD1E9022382FA4CF200F10800A4FA3C
:103E50008CF283FA4CF3A2FA8CF3E3B9D1E9042390
:103E600082FA4CF200F10800A4FA8CF283FA4CF3C7
:103E7000A2FA8CF37BB9D1E9062301F1200182FA81
:103E80004CF200F10800A4FA8CF283FA4CF3A2FA87
:103E90008CF3002BC6D0002A04BF04301A4612BA95
:103EA000B2FA82F2FDE8024500EBD2007047D1E998
:103EB000002304F00305C4F100004FEAC50514F027
:103EC000040F91F840F00CFA05F562EA05021CBFF8
:103ED00063EA050362464FF00004A9E72DE9F047C5
:103EE000254C2568D5F848410646884692469946AD
:103EF000C4B360681F2817DC431C76B104EB80054F
:103F00000122C5F888A0D4F8881182401143022EFE
:103F1000C4F88811C5F808911ED00230636044F8D7
:103F200020800020BDE8F087144B03B34FF4C87025
:103F3000AFF300800446D0B1D5F84831002780E8BF
:103F40008800C5F8484138460123C4F88871C4F890
:103F50008C71002EE1D0D1E7D4F88C110A43C4F85B
:103F60008C21DAE705F5A674C5F84841C1E74FF0A2
:103F7000FF30BDE8F08700BF944100000000000062
:103F8000024B13B1024800F005B870470000000072
:103F9000A13F0000002301461A461846FFF79EBFC6
:103FA00038B5074D074C2C1BA41005D0013C55F823
:103FB000043D9847002CF9D1BDE8384000F0F8B82E
:103FC00000000000000000004008FE4340A0044044
:103FD0004408FE4344A004400018FE4300C00440CF
:103FE0003000FE43309004403400FE4334900440DF
:103FF0001C18FE431CC004401018FE4310C00440AF
:104000000818FE4308C004400C18FE430CC00440CE
:104010000C10FE430CB004401010FE4310B00440DE
:104020001810FE4318B004401C10FE431CB004409E
:104030001410FE4314B004400418FE4304C00440AE
:104040000010FE4300B004400008FE4300A00440FE
:104050000408FE4304A004400C08FE430CA00440E6
:104060000808FE4308A004401418FE4314C004408E
:104070001818FE4318C004400410FE4304B0044066
:104080000810FE4308B004401400FE43149004409E
:104090004C08FE434CA004400420FE4304D00440DE
:1040A0002410FE4324B004402010FE4320B00440FE
:1040B0002810FE4328B004402C10FE432CB00440CE
:1040C0000020FE4300D004404808FE4348A00440BE
:1040D0001000FE43109004400000000000000000AB
:1040E00075270000992700002D28000029280000CE
:1040F00025280000212800001D280000E9270000D5
:10410000FD270000E5270000DD270000D52700007F
:10411000CD270000BD270000AD270000A927000023
:10412000492700005127000059270000612700009F
:1041300081270000692700001519151519FFFFFFD9
:1041400000010000788CFF1F120000000002000038
:10415000A48CFF1F9500000000030000548DFF1F7A
:1041600000000000010309048C8CFF1F0000000008
:10417000020309043C8DFF1F000000000303090433
:10418000588DFF1F0000000000000000000000002C
:1041900000000000708DFF1FF8B500BFF8BC08BC20
:1041A0009E467047813F0000350400006D0F0000FF
:0441B000F8B500BF9F
:1041B400000000004C04FAFBF2000000077300004A
:1041C4000004080600000A00090B0000FC000000BF
:1041D400170016191406150509040A03F808000047
:1041E400FFFFFFFFE040000000000000E8030000C4
:1041F400000000000A040100120110010000004048
:10420400C01689047502010203010000180354005A
:10421400650065006E007300790064007500690034
:104224006E006F0009029500030100C032080B0004
:104234000202020104090400000102020100052433
:1042440000100105240101010424020605240600CE
:10425400010705810310004009040100020A00005F
:104264000007050202400000070583024000000920
:1042740004020002010300000724010001250006D6
:10428400240201010006240202020009240301039E
:1042940001020100092403020401010100090505CA
:1042A40002400000000005250101010905840240C7
:1042B400000000000525010103000000180354005C
:1042C400650065006E007300790020004D00490010
:1042D40044004900040309040C030000000000002A
:1042E40000000000000000000000000000000000CA
:1042F400000000005C90FF1FC490FF1F2C91FF1F63
:1043040000000000000000000000000000000000A9
:104314000000000000000000000000000000000099
:104324000000000000000000000000000000000089
:104334000000000000000000000000000000000079
:104344000000000000000000000000000000000069
:104354000000000000000000000000000000000059
:104364000000000000000000000000000000000049
:104374000000000000000000000000000000000039
:104384000000000000000000000000000000000029
:104394000000000000000000010000000000000018
:1043A4000E33CDAB34126DE6ECDE05000B000000DD
:1043B40000000000000000000000000000000000F9
:1043C40000000000000000000000000000000000E9
:1043D40000000000000000000000000000000000D9
:1043E40000000000000000000000000000000000C9
:00000001FF
