:1000000000800020BD010000892C00004D2C000064
:100010004D2C00004D2C00004D2C00004D2C0000FC
:100020004D2C00004D2C00004D2C0000892C0000B0
:10003000892C00004D2C0000892C00003D2C000074
:10004000892C0000892C0000892C0000892C0000DC
:10005000892C0000892C0000892C0000892C0000CC
:10006000892C0000892C0000892C0000892C0000BC
:10007000892C0000892C0000892C0000892C0000AC
:10008000892C0000892C0000892C0000892C00009C
:10009000892C0000892C0000892C0000892C00008C
:1000A000892C0000892C0000892C0000892C00007C
:1000B000892C0000892C0000892C0000892C00006C
:1000C000892C0000892C0000892C0000892C00005C
:1000D000892C0000892C0000892C0000892C00004C
:1000E000892C0000892C0000892C0000892C00003C
:1000F000892C0000711B0000892C000025330000B2
:10010000892C0000A1380000892C0000892C0000F7
:10011000892C0000892C0000892C0000892C00000B
:10012000892C0000892C0000892C0000892C0000FB
:10013000892C0000892C0000892C0000892C0000EB
:10014000892C0000892C0000892C0000892C0000DB
:10015000892C0000892C0000892C0000892C0000CB
:10016000892C0000591E0000892C0000892C0000F9
:10017000892C0000892C0000892C0000892C0000AB
:10018000892C0000892C0000892C0000892C00009B
:10019000892C0000892C0000892C0000892C00008B
:1001A000892C0000892C0000892C0000892C00007B
:1001B000892C0000892C0000892C0000574B4CF240
:1001C000205210B51A804DF628121A8000BF00BFC9
:1001D00002F05EFD524B4FF010621A60514A9A6075
:1001E000514ADA60A3F53043203B1A6812F480725A
:1001F00004D14E490A604FF4A8521A604C4B1A7849
:10020000110703D51A7842F008021A70494B4A4C7C
:100210004A482A221A704A4A00239918A14203D256
:10022000195899500433F8E7464B474900228B424E
:1002300002D243F8042BFAE74448454900235A58B0
:100240001A500433B3F5DE7FF9D1424B424A802184
:1002500003F8011B9342FBD1404B3C4A1A60404BD0
:100260008A221A70A3F5805324225A70A0221A7091
:100270009A799207FCD59A79D406FCD4394A9379B5
:1002800003F00C03082B374BF9D103221A714022DB
:100290005A719A799006FCD5324A9179314B4906C8
:1002A000FBD5314A314911600221516020221A7078
:1002B0009A7902F00C020C2AFAD12D4B2D4A1A60C1
:1002C0002D4B2E4A1A6000225A60072243F8042C54
:1002D0002B4AC3F80C2D62B601F0EAF8134B1B68E9
:1002E000DA0705D5274800F093FE274B274A1A6006
:1002F000274B1B785B0609D5234C244A236893427D
:1003000004D1204800F084FE0023236004F01AF892
:1003100002F0C4FC02F0C2FBFEE700BF0E20054065
:1003200030800440823F04000100002B14D00340C1
:1003300002D0074000E00740D091FF1FDC470000DB
:10034000708CFF1FD091FF1F4C97FF1F0082FF1F73
:100350000000000000E400E05FE400E008ED00E0E1
:100360000050064000400640448004400000030165
:1003700004800440C010050014E000E0FF76010096
:10038000000020209BDB965A1CE00340A5C3945A32
:1003900000F00740FFFFFFFFFFFFFFFFFFFFFFFF32
:1003A000FFFFFFFFFFFFFFFFFFFFFFFFFFFFFFFF5D
:1003B000FFFFFFFFFFFFFFFFFFFFFFFFFFFFFFFF4D
:1003C000FFFFFFFFFFFFFFFFFFFFFFFFFFFFFFFF3D
:1003D000FFFFFFFFFFFFFFFFFFFFFFFFFFFFFFFF2D
:1003E000FFFFFFFFFFFFFFFFFFFFFFFFFFFFFFFF1D
:1003F000FFFFFFFFFFFFFFFFFFFFFFFFFFFFFFFF0D
:10040000FFFFFFFFFFFFFFFFFFFFFFFFDEF9FFFF23
:1004100010B5054C237833B9044B13B10448AFF33E
:1004200000800123237010BDD091FF1F0000000049
:10043000DC47000008B5064B1BB106480649AFF380
:1004400000800648036813B1054B03B1984708BD07
:1004500000000000DC470000D491FF1FD091FF1F77
:10046000000000000023044A1370044A13700122A4
:10047000034B1A70704700BFEE91FF1FED91FF1FF5
:10048000EC91FF1F704700BF08B5114B1B78F3B10B
:10049000104B1B780133DBB2052B02D80D4A1370C9
:1004A00006E000220B4B1A700B4B1A7801321A70BF
:1004B000084B1B78022B05D8084BD8787F2100F019
:1004C000C7FE08BD054BD878002100F0C1FE08BD6D
:1004D000EC91FF1FEE91FF1FED91FF1F948CFF1F0A
:1004E0002DE9F8430D461746022812D100240A4E82
:1004F000DFF82890DFF82880A35DAB4206D118F81A
:10050000043019F80300394600F0A2FE0134052C2E
:10051000F2D1BDE8F88300BF788CFF1F948CFF1FD9
:10052000808CFF1F0022054B1A70054BDA78054BB3
:1005300053F83230012283F800217047EC91FF1FFD
:10054000948CFF1FEC4400002DE9F84F314CA3467A
:1005500004F10C050127304E14F8010B38B139466F
:1005600000F036FE14F8010C314600F06DFDAC428F
:10057000F2D1072000F05CFD284D0BF10B0B4FF082
:10058000000A4FF028094FF001081DE0374668784F
:1005900020B94846214600F05BFE02E0214600F00B
:1005A00057FE404600F06EFF0134802CEED17B7880
:1005B0001BB94846514600F04BFE15F8010F514655
:1005C00000F046FE5D4502D054462E46DEE7144C50
:1005D0002046002100F0CAF82046124900F028FB0E
:1005E0002046114900F028FB2046104900F01CFB72
:1005F00020460F4900F024FB20460E4900F024FB62
:1006000020460D4900F028FB20460C4900F020FB55
:10061000BDE8F88F948CFF1F00504348938CFF1F58
:10062000F091FF1F99060000E1040000150700008B
:100630008904000065040000250500008504000011
:1006400008B5024800F0CCFC08BD00BFF091FF1FC8
:1006500008B5022811D10D4BA3FB0123DB0803EBE6
:100660004303A1EB8301C9B2094B5B5C63B1094A47
:10067000D05C002100F0ECFD08BD042804D1054B3E
:100680009878002100F0E4FD08BD00BFABAAAAAA3B
:10069000888CFF1F948CFF1F38B50C46022818D198
:1006A000184BA3FB0413DB0803EB4303A4EB830306
:1006B000DBB21549CB5C32B113B31449C85C1146A7
:1006C00000F0C6FD38BD022021460022FFF7C0FF22
:1006D00038BD042814D17AB10C4D2878114600F0A9
:1006E000B7FD0B4B19782820214400F0B1FDA87804
:1006F0007F2100F0ADFD38BD04200022FFF7A8FFE8
:1007000038BD00BFABAAAAAA888CFF1F948CFF1F1C
:10071000748CFF1F08B5FFF79BFF08BD704700BF33
:100720000022C0F81022C0F81422C0F81822C0F825
:100730001C22C0F82022C0F82422C0F82822C0F8C9
:100740002C22C0F83022C0F83422C0F83822C0F879
:100750003C22C0F84022C0F84422C0F84822C0F829
:100760004C22C0F85022C0F85422704738B50446D5
:100770000D464FF4C05000F0F7FE00232370A57023
:100780006370C4F80831C4F8043184F80F3284F877
:100790000D3184F80C3184F80E3184F80F310123C7
:1007A00084F8593284F8583238BD00BFF8B507468E
:1007B0000D46164613B1002915DC1CE00F480368EE
:1007C0001B68F0219847002D07DD3446354414F8A6
:1007D000010B01F06FF8AC42F9D1084803681B68BF
:1007E000F721984707E01446154414F8010B01F06F
:1007F00061F8AC42F9D100233B70F8BDF895FF1FBA
:1008000038B504460D46F12001F054F8284601F0B1
:1008100051F80023237038BD08B501F0070102F03C
:100820000F0242EA0111FFF7EBFF08BD70B5064663
:100830000D46F22001F03EF8074C23681B68204665
:1008400005F07F01984723681B682046C5F3C61151
:1008500098470023337070BDF895FF1F38B50446E4
:100860000D46F32001F026F804480268126805F0EE
:100870007F0190470023237038BD00BFF895FF1F0C
:1008800038B505460C46A1F1F603092B09D8DFE877
:1008900003F005080508050505080505084601F0EB
:1008A00009F8F62C04BF00232B7038BDF8B50D46AF
:1008B0001E469DF81840013CE4B20F2C03D8C9B283
:1008C00011F0800F02D100230370F8BDE02D17D87E
:1008D00002F07F0704F00F04214303788B4203D01A
:1008E0000170084600F0E6FF384600F0E3FF05F02F
:1008F000EF05C02D09D006F07F0000F0DBFFF8BD4A
:10090000F52D02D92946FFF7BBFFF8BD38B50446DF
:1009100001F0A4F8002840F3688101F0AFF8C3B2F9
:10092000D4F80851002D40F0B380E370627812F0E3
:10093000800F25D002F10C01C9B2012920D902F0A3
:10094000FB01F9291CD0EF2A94BF02F0F0011146F7
:10095000B0290DD006D890290AD0A02908D0802926
:1009600006D00DE0D02903D0E02901D0C02907D15D
:1009700010F0800F04D1E27023710123C4F8083114
:10098000E37813F0800F75D003F10C02D2B2012A84
:1009900070D903F0FB02F92A6CD0EF2B94BF03F05F
:1009A000F0021A46803A7F2A64D8DFE802F05963E1
:1009B0006363636363636363636363636363596311
:1009C0006363636363636363636363636363596301
:1009D00063636363636363636363636363635963F1
:1009E00063636363636363636363636363635563E5
:1009F00063636363636363636363636363635563D5
:100A000063636363636363636363636363635963C0
:100A100063636363636363636363636363635D55BA
:100A20005955636340634063404040634040EF2B4F
:100A300098BF03F0F00384F80D31002384F80C31E3
:100A400084F80E3184F80F31012084F80F02C4F8C5
:100A50000831C4F8043138BD0223C4F8043110E071
:100A60000323C4F804310CE0FF23C4F8043100234D
:100A7000637006E00020C4F80801C4F80401607047
:100A800038BDD4F808310133C4F80831002038BD2E
:100A900010F0800F4FD0C0B2F73808284BD8DFE8ED
:100AA00000F012054A0505054A05050084F80D31D8
:100AB000002384F80E3184F80F3184F80C310120C2
:100AC00084F80F0238BDE37813F0800F2CD003F1C7
:100AD0000C02D2B2012A27D903F0FB02F92A23D053
:100AE000EF2B98BF03F0F003F02B1DD1A21C0023C5
:100AF00012F8011F82F80D110133FF2BF8D1F023FA
:100B000084F80D316B1C84F80E311B0A84F80F3108
:100B1000002384F80C31012084F80F02C4F8083156
:100B2000C4F80431637038BD0020C4F80801C4F86B
:100B30000401607038BD6219D370D4F80421531ECB
:100B40009D424DD3E17811F0800F15D001F10C03D7
:100B5000DBB2012B12D901F0FB03F92B10D0EF29E6
:100B600045D801F0F003F02B0BD10020C4F80801A8
:100B7000C4F80401607038BD002302E0002300E0E7
:100B8000002384F80D3101F00F00013084F80C01CE
:100B9000207984F80E01032A0CBF6279002284F8C0
:100BA0000F210022C4F80821C4F80421012284F88E
:100BB0000F22B02B0DD006D8902B0AD0A02B08D036
:100BC000802B09D105E0D02B03D0E02B01D0C02B26
:100BD00002D16170012038BD00236370012038BD4F
:100BE0000135C4F80851002038BD002038BDF02977
:100BF000BBD00B46C5E700BF90F80D316BB183F059
:100C00008003602B0BD8837890F80C219A4208D08F
:100C1000D3F1010038BF0020704700207047012049
:100C200070470120704700BFC0F81012704700BF26
:100C3000C0F81412704700BFC0F81C12704700BF04
:100C4000C0F84012704700BFC0F84412704700BFA0
:100C5000C0F84812704700BFC0F84C12704700BF80
:100C600010B5034690F80D21803A7F2A00F22B81BF
:100C7000DFE812F080002901290129012901290159
:100C80002901290129012901290129012901290114
:100C9000290129018D0029012901290129012901A1
:100CA00029012901290129012901290129012901F4
:100CB00029012901DA002901290129012901290134
:100CC00029012901290129012901290129012901D4
:100CD00029012901BA002901290129012901290134
:100CE00029012901290129012901290129012901B4
:100CF00029012901F00029012901290129012901DE
:100D00002901290129012901290129012901290193
:100D100029012901E60029012901290129012901C7
:100D20002901290129012901290129012901290173
:100D300029012901C60029012901290129012901C7
:100D40002901290129012901290129012901290153
:100D500029012901FA0003010A01190129012901C8
:100D6000200129019A002901A100A800AE00290153
:100D7000B4002501D0F81042002C00F0A48090F8B7
:100D80000C0193F80E1193F80F21A04710BDD0F875
:100D90001442002C00F0978090F80C0193F80E118B
:100DA00093F80F21A04710BDD0F84032002B00F07F
:100DB0008A80984710BDD0F84432002B00F0838021
:100DC000984710BDD0F84832002B7CD0984710BD12
:100DD000D0F84C32002B76D0984710BDD0F8503266
:100DE000002B70D0984710BDD0F81C42002C6AD060
:100DF00090F80C0193F80E1193F80F21A04710BD45
:100E0000D0F82822002A5ED090F80F0100F07F0071
:100E100093F80E1101F07F0141EAC01193F80C0123
:100E2000A1F50051904710BDD0F81842002C4AD0CF
:100E300090F80C0193F80E1193F80F21A04710BD04
:100E4000D0F82422002A3ED090F80C0193F80E111D
:100E5000904710BDD0F82022002A34D090F80C0121
:100E600093F80E11904710BDD0F82C225AB300F51C
:100E7000887093F80E11904710BDD0F8302212B34D
:100E800090F80E01904710BDD0F83422DAB190F8F6
:100E90000F0100F07F0093F80E3103F07F0343EA67
:100EA000C010904710BDD0F8382262B190F80E0102
:100EB000904710BDD0F83C322BB1984710BDD0F808
:100EC000543203B1984710BD10B582B0044690F873
:100ED0005832002B65D090F85932002B61D090F831
:100EE0000D1181F08002602A2ED890F80C01A278B2
:100EF000904204D0D2F1010238BF002200E001226A
:100F0000022B0CD0032B15D0012B4AD194F80E21C3
:100F100094F80F3100902046FFF7C8FC41E0002A0A
:100F20003FD094F80E2194F80F3100902046FFF73F
:100F3000BDFC36E0AABB94F80E2194F80F31009066
:100F40002046FFF7B3FC2CE0A1F1F0030F2B28D8CB
:100F5000DFE803F00B2118132727082708270808C4
:100F600008270808FFF78CFC1BE094F80E1104F525
:100F700088720123FFF71AFC13E094F80E11FFF7B3
:100F80006DFC0EE090F80F1190F80E3143EAC1119C
:100F9000FFF74CFC05E094F80E1194F80F21FFF7D1
:100FA0003BFC02B010BD00BF38B505460C46102909
:100FB00010D8FFF7ABFC78B128462146FFF71CFE9E
:100FC00060B128462146FFF77FFF2846FFF748FE1D
:100FD000012038BD002038BD002038BD002038BDBC
:100FE00008B58178FFF7E0FF08BD00BF10B5054CDC
:100FF0002046FFF795FB20460349044A03F092F987
:1010000010BD00BFF091FF1F1D070000708CFF1F77
:10101000044B00221A6004490A60044A106010223E
:101020001A60704714D0034004D0034000D003403E
:1010300018B1102828BF102000E00120014B1870C3
:10104000704700BFA08CFF1F2DE9F84380460D4676
:101050000846424903F01EF9002814BF4FF0020968
:101060004FF001093E4B47F61226002808BF1E46E6
:10107000304602F019FF4FF05E5102F06DFF01465D
:10108000284603F01BF990B901244FF05E5726FA69
:1010900004F002F009FF394602F05EFF01462846DF
:1010A00003F00CF920B90134072CF0D100E0002442
:1010B00026FA04F002F0F8FE294603F001F84FF09A
:1010C0007C5102F03FFE03F00DF94FF6FF7398429A
:1010D00038BF0346A8F10302D2B2012A0DD8214A33
:1010E000002111602048016020490B6004F00704D2
:1010F00044EAC9041460BDE8F883A8F10902D2B239
:10110000012A09D9A8F11402D2B2032A04D9A8F1FC
:101110000502D2B2012A0DD8154A002111601548E6
:10112000016015490B6004F0070444EAC904146027
:10113000BDE8F883B8F1200F02D0B8F1190F0BD138
:101140000E4A002111600E4801600E490B6004F048
:10115000070343EAC9031360BDE8F883001BB740E7
:10116000006CDC02009003400490034008900340B0
:1011700000800340048003400880034000800B404F
:1011800004800B4008800B4021281ED80F4B53F8D9
:10119000303093F8802212F0FF0F08D019B10122ED
:1011A00083F880207047012283F800217047074BA5
:1011B00003EBC000436821B11A6842F003021A60D1
:1011C00070471A6822F002021A607047EC4400006F
:1011D00021283AD81D4B03EBC0035B68012919D0C5
:1011E000042925D0194A52F83020002082F88002C4
:1011F00019B94FF480721A607047022903D140F286
:1012000003121A60704703290CBF4FF48172002249
:101210001A6070470D4A52F83020012182F880127E
:101220004FF4A2721A601A6822F020021A60704706
:10123000064A52F83020012182F880124FF4A2723F
:101240001A601A6842F020021A607047EC440000ED
:1012500010B5044628280FD15D4B1B780B2B03D803
:10126000C3F10C03994003E00C2B84BF0C3B1941E4
:10127000084601F0C7FC10BD554B1B78012202FA4D
:1012800003F0002908DC20460021FFF77DFF2046FF
:101290000121FFF79DFF10BD0A46884208D820466D
:1012A0000121FFF771FF20460121FFF791FF10BDDB
:1012B000E01EC0B2012806D84648006800FB0112B3
:1012C00022FA03F310E0202C01D0192C06D1424859
:1012D000006800FB022222FA03F305E03F480068A1
:1012E00000FB011222FA03F3E01E1D2864D8DFE898
:1012F00000F0474E402B63631D24636363636363A5
:1013000063636332390F16635C63636363636355BE
:10131000334A136040F24442324B1A6010BD324AE5
:10132000136040F24442314B1A6010BD304A1360E2
:1013300040F244422F4B1A6010BD2F4A136040F216
:1013400044422E4B1A6010BD2D4A136040F24442B5
:101350002C4B1A6010BD2C4A136040F244422B4BB8
:101360001A6010BD2A4A136040F24442294B1A60A9
:1013700010BD294A136040F24442284B1A6010BD48
:10138000274A13604FF45172264B1A6010BD264A4B
:1013900013604FF45172254B1A6010BD244A13603C
:1013A0004FF45172234B1A6010BD234A13604FF45F
:1013B0005172224B1A6010BD20467F29D4BF0021F4
:1013C0000121FFF7E1FE20460121FFF701FF10BDDB
:1013D000A08CFF1F0890034008800B40088003404A
:1013E0001080034004B004401880034008B004405B
:1013F000208003400CB004402880034010B004401B
:101400003080034010C004403880034014C00440C2
:101410004080034018C00440488003401CC0044082
:1014200010900340309004401890034034900440E2
:1014300010800B4048A0044018800B404CA0044092
:1014400072B60C4B1B680C4A12680C49096862B6EC
:1014500011F0806F02D0322B88BF0132C3F5BB334D
:10146000FF330749A1FB03039B094FF47A7000FB8C
:101470000230704718E000E04C94FF1F04ED00E0DC
:10148000ABAAAAAA38B50546FFF7DAFF044625B984
:1014900038BD013D0AD004F57A74FFF7D1FF001B77
:1014A000B0F57A7FF5D201F001FBF6E738BD00BF59
:1014B00010B5264B4FF400021A604FF080721A608C
:1014C0004FF000721A604FF080621A604FF00062B5
:1014D0001A6000201E4B18604BF6FF710433196030
:1014E00028231C4A13600832136008321360083244
:1014F0001360083213600832136008321360083238
:1015000013600922144C226004F5805404342060D6
:10151000043421600434236008342360143C2260C6
:1015200004F5FE24043420600C4801600C490B6073
:1015300008310B600B4B1A6001F0DAFA4FF4C870F7
:10154000FFF7A0FF01F00AF810BD00BF08E100E0BE
:10155000048003400C8003400080034008800B405F
:101560000C800B4000800B40254B1A6842F48062CF
:101570001A600023234A1370234A1370234A1370FE
:10158000234A1370234A1370234B1B7813B1152B76
:1015900005D008E040F21332204B1A6003E040F21D
:1015A00013321F4B1A601F4B1B78012B02D0052BE7
:1015B00005D008E04FF451721B4B1A6003E04FF462
:1015C00051721A4B1A60C0F34432194B1A70C0F3AF
:1015D00047125A7000F01F00987204229A7002217C
:1015E000D9745A7588221A743C22DA704022114B41
:1015F0001A704FF40052A3F229331A60704700BFEB
:1016000034800440DC94FF1F5594FF1FE494FF1FB7
:10161000DD94FF1F5494FF1F9894FF1F40A00440C7
:1016200018C00440A18CFF1F44A004401CC004400B
:1016300000A006402DE400E0164B9B7803F0EC037D
:1016400000F00302134310F0040F18BF43F010031F
:10165000104A937000F00F03042B04D113469279C3
:1016600042F040029A710B4B5A7902F0EF0210F0EF
:10167000100F18BF42F01002064B5A719B7903F00D
:10168000EF0310F0200F18BF43F01003014A9371CD
:10169000704700BF00A0064010B5144B1B6813F440
:1016A000806F21D0124B1B7813F0FF0F06D0104C27
:1016B00001F0FCF9237813F0FF0FF9D14FF4005239
:1016C0000C4B1A6000230C4AD37040F203120B49F2
:1016D0000A6004310A600A4A13700A4A13700A4BFE
:1016E0001B680BB101221A7010BD00BF348004408A
:1016F0005494FF1F84E100E000A0064040A0044095
:10170000DC94FF1F5594FF1F5094FF1F10B5044633
:10171000094A137813F0FF0FFBD120460121FFF790
:1017200057FD20460021FFF72FFD044B53F83420CE
:10173000034B1A6010BD00BF5494FF1FEC4400001F
:10174000E094FF1F10B40C4609B140F08000184B24
:101750001B78984228D0174A126812F4806F21D063
:1017600003F07F03012B02D0052B04D006E00022FA
:10177000114B1A6002E00022104B1A60002C0CBFC3
:101780004422602200F07F03012B02D0052B05D0FC
:1017900008E042F44072084B1A6003E042F44072E1
:1017A000064B1A60024B18705DF8044B704700BF7F
:1017B000A18CFF1F3480044044A004401CC004409E
:1017C000114B1B7898421ED0104A126812F4806F99
:1017D00017D013B1152B04D006E000220C4B1A6071
:1017E00002E000220B4B1A6010B1152805D008E06A
:1017F00040F21332064B1A6003E040F21332054BFD
:101800001A60014B187070479894FF1F3480044091
:1018100040A0044018C0044010B50D4B1B6813F4E1
:10182000806F12D021280CD80A4C0B4B53F8303063
:1018300023600121FFF7CCFC236800221A700120ED
:1018400010BD0020034B186010BD002010BD00BF6C
:10185000348004405094FF1FEC440000114B1B687F
:1018600013F4806F1BD0122804D140F202320E4BC9
:101870001A600DE0142804D140F202320B4B1A60BA
:1018800006E00B4B5A7B02F0FE025A7300207047B1
:10189000074B5A7B42F001025A7301207047002027
:1018A000704700BF348004400CA0044014C00440C2
:1018B00000A006402DE9F04107461F4B1B6813F4BA
:1018C000806F37D01D4B1B680BB101221A701C4B67
:1018D0001C780134402C28BF00241A4D1A4EDFF822
:1018E0006C8017E001F0DCF940280FDC337913F04D
:1018F000800F0FD02B780133402B28BF002318F81E
:101900000320D2B2F271DBB22B7003E0FF2801DDBD
:1019100001F0CCF82B78DBB29C42E3D0FFB20B4B4A
:101920001F5501220A4B1A70E4B2054B1C70BC22F1
:10193000054BDA70BDE8F08134800440E094FF1F6D
:10194000E494FF1FDD94FF1F00A006405894FF1F82
:101950005494FF1F2DE9F84F0746284B1B6813F4DA
:10196000806F49D0264B1B680BB101221A7007EB20
:10197000010B5F453DD2DFF89890224EDFF88C8056
:10198000DFF890A099F800400134402C28BF0024D3
:101990003578EDB2A54220D1BC2388F8033001F0A0
:1019A0007FF9402811DC98F8043013F0800F10D034
:1019B00033780133402B28BF00231AF80320D2B21A
:1019C00088F80720DBB2337003E0FF2801DD01F067
:1019D0006DF83378DBB29D42E1D017F8013B0AF88D
:1019E00004300122084B1A70E4B289F800405F45C8
:1019F000C8D1BC22054BDA70BDE8F88F34800440B2
:101A0000E094FF1FDD94FF1F5494FF1F00A00640C9
:101A1000E494FF1F5894FF1F10B5064B1B7813F07A
:101A2000FF0F06D0034C01F041F8237813F0FF0FAD
:101A3000F9D110BD5494FF1F064B1B78DBB2064A48
:101A40001278D2B293422CBF3F3202F1FF32D01A49
:101A5000704700BFE494FF1FDD94FF1F054B18780B
:101A6000C0B2054B1B78DBB2984238BF4030C01A79
:101A7000704700BFDC94FF1F5594FF1F10B4184B34
:101A80001A78D2B2174B1B78DBB29A4218D00133C6
:101A90003F2B18D81449C85CC0B2DCB211490C7095
:101AA00012490968C9B19A4203D300E00023D31A4E
:101AB00001E04032D31A1A2B0FDC00230B700CE02C
:101AC0004FF0FF3009E0084B1878C0B20021054BF9
:101AD0001970064B19680029E8D15DF8044B70476E
:101AE000DC94FF1F5594FF1F9C94FF1F5094FF1F11
:101AF000094B1A78D2B2094B1B78DBB29A4207D055
:101B00000133402B28BF0023054AD05CC0B2704788
:101B10004FF0FF30704700BFDC94FF1F5594FF1F4C
:101B20009C94FF1F0D4B1B6813F4806F14D00C4B5B
:101B3000DA7802F0CB02DA7040225A74DA7842F096
:101B40003402DA70074B1A78D2B2074B1A70074B7F
:101B50001B680BB100221A70704700BF348004402C
:101B600000A006405594FF1FDC94FF1F5094FF1FF8
:101B700070B43D4B1B7913F0300F33D072B63A4B33
:101B80009B7D03F0FF022BB9374BDA7940225A7460
:101B900062B627E062B6354B1978C9B2344B1C786F
:101BA000E4B2314D334EEB79D8B24B1C402B28BFF9
:101BB0000023A3421CBFF0541946531E13F0FF022A
:101BC000F1D1CAB2294B1A702B4B1B6853B1A142F9
:101BD0002EBFC4EB0101C4F1400409192729C4BF79
:101BE00001221A70204BDA78D2B212F0800F27D07F
:101BF0001B7913F0800F23D0204B1C78E4B2204BCC
:101C00001B78DBB29C4210D017491E4D01E0A34265
:101C10000BD00133402B28BF00230879E85CC0B209
:101C2000C871087DC0B20728F1D9DBB214490B7026
:101C30000D4B1B7913F0800F02D07C210A4BD97019
:101C400012F0400F0ED0084B1B7913F0400F09D053
:101C500000220D4B1A700D4B1B6803B11A703C2209
:101C6000014BDA7070BC704700A00640DC94FF1F87
:101C70005594FF1F9C94FF1F5094FF1FE494FF1F77
:101C8000DD94FF1F5894FF1F5494FF1FE094FF1F23
:101C900030B40E4B1B7843F002020D4C04EBC2042F
:101CA00060600C48007800280CBF8824C82444EAEF
:101CB0000141074D45F8321080F00100054A1070CF
:101CC00083F00103014A137030BC70475C95FF1F1D
:101CD0000080FF1FDD95FF1F10B4431E042B11D899
:101CE00072B60A4A52F8230050B14268074941F8D7
:101CF0002320074A32F813400188611A22F8131092
:101D000062B600E000205DF8044B70474895FF1F65
:101D10003497FF1F013804280DD872B6074B53F8CB
:101D200020302BB1002001305B68002BFBD100E09C
:101D3000002062B670470020704700BFA095FF1FCB
:101D400038B572B601231B491B4C5A1812F8012CE6
:101D500012F0080F24D09A0054F832506DB9164B87
:101D600003EBC20108304860144943F83210144BA9
:101D70001A78013A1A7062B638BD42F0010254F87E
:101D800032506DB90C4B03EBC201083048600D496D
:101D900043F832100A4B1A78013A1A7062B638BD0D
:101DA0000133062BD1D162B60022054B1A7000F028
:101DB00039FC38BD604600000080FF1F88004000ED
:101DC000D295FF1FC800400010B4431E042B37D823
:101DD000400140F010001C4A104472B61B4AD25C0D
:101DE000032A09D8DFE802F019021B050830022295
:101DF00016E00830042213E0154A52F823201AB9DD
:101E0000134A42F8231003E0124A52F8232051608B
:101E1000104A42F8231062B612E0032200E00522C5
:101E20000A4CE25401F10803436000F00803002B60
:101E30000CBF8823C8230A8843EA0243036062B6C2
:101E40005DF8044B704700BF0080FF1F0095FF1F27
:101E5000A095FF1FB495FF1F2DE9F84FA44CDFF8A4
:101E6000E092DFF8E0A2DFF8E0B22578EDB215F0FD
:101E7000040F1FD09F4B1B7813F0FF0F18D09E4B01
:101E80001B7803F0FF022BB1531EDBB29A4A13708A
:101E900003B900BE994B1B7803F0FF0233B1531E08
:101EA000DBB2964A13700BB900F032FD00F0E4FB90
:101EB0000423237015F0080F00F0E48299F8003035
:101EC000DBB21D0940F01F828D4D9E0805EBC60355
:101ED0005A6855F83630C3F38303013B0C2B00F2EC
:101EE0000E82DFE813F0C901C9010C020C020C02DA
:101EF0000C020C020C02E6010C020C020C020D009A
:101F0000804913680B6052684A607F4A45F8362062
:101F100000227E490A607A490A618A6101217C4A6D
:101F200011709BB240F28162934218D8B3F5D06F22
:101F30002ED2B3F5817F00F01C8106D8802B00F0F3
:101F4000C880822B00F0CB8064E140F202329342E1
:101F500000F02481B3F5A06F00F060815AE142F2F5
:101F60002102934200F0848107D8B3F5086F00F096
:101F7000AA80B3F5106F11D04CE142F221229342B6
:101F800000F03F8142F22132934200F0478141E16B
:101F9000604B5D68002D40F016812EE1594B9A7818
:101FA000544B1A70564D05F1A0062B6A13F0800FA2
:101FB00003D0686A083800F035FB0835B542F4D123
:101FC000DFF8888100263746534AB05828B1456863
:101FD00000F028FB0DB12846F9E700234E49735065
:101FE0004E4AB3504E4BF05828B1456800F01AFBEA
:101FF0000DB12846F9E7002349497350494AB350C7
:1020000028F8023F484BFB5C023B032B0AD8DFE871
:1020100003F0020602060022434BDA5502E00122D9
:10202000414BDA5501370436142ECDD100223F4BF7
:102030001A7001253E4FDFF81881314E05EB080379
:1020400013F8013C07F8043B13F0080F2DD000F003
:10205000C9FA48B1A90006EB451200F10803536024
:10206000344A46F8312007E0AB00002246F833201E
:102070002E4B1A7801321A7000F0B4FA58B1AB0046
:1020800043F0010306EBC30100F108024A601E4A57
:1020900046F8332009E0AB0043F00103002246F884
:1020A0003320224B1A7801321A70AA0042F0020142
:1020B000002346F8313042F0030246F83230013551
:1020C0005F45BBD11FE20B4B1B781B4D2B700127CB
:1020D000A9E0194D00232B706B700227A3E0094B78
:1020E0009B88052B36D90F22144B1A70C0E000BF15
:1020F00080200740DC95FF1F5D95FF1FE495FF1FC3
:102100000080FF1FC895FF1FC8004000E894FF1F14
:10211000DD95FF1F684600004895FF1FEC94FF1FE8
:10212000A095FF1FB495FF1F0095FF1FD295FF1FBD
:10213000C420074088004000D495FF1FC0200740FE
:102140009020074094200740D82007403297FF1F77
:1021500060460000A04A0021117051709F4A12F899
:10216000233013F0020F5CD09B4D01232B7002270C
:1021700059E09B4B9B8803F07F03052B02DC984AB8
:1021800052881AB10F22954B1A7071E0934A12F8D7
:10219000231021F0020102F82310B4E1904B9B8838
:1021A00003F07F03052B02DC8D4A52881AB10F22FF
:1021B0008A4B1A705CE0894A12F8231041F0020140
:1021C00002F823109FE1864B5E889F88854BA3F120
:1021D0000C02114633F80C0CB04209D133F80A0C4A
:1021E000B84205D1360A032E0CBF2F7817891AE0A2
:1021F0000D690C330C32002DEBD10F22774B1A7086
:1022000036E0794B1A68794B1A60754B9A78784B9F
:102210001A7078E10F22714B1A7029E000273D46B1
:1022200001E002276C4D6E4BDB889F4228BF1F46A2
:10223000402F34BF3E46402628463146FFF728FD52
:102240003544BF1B03D13F2E00F2628110E0402FC6
:1022500034BF3E46402628463146FFF719FD354437
:10226000BF1B01D13F2E03D9624B1D60624B1F8003
:1022700001238AF8003042E0594B198842F22103C9
:10228000994212D15D4BD81D12F8011B03F8011FB2
:102290008342F9D15A4B1B68862B02D10F22594B2E
:1022A0001A7000200146FFF7F3FC574B45F8363013
:1022B00025E0504B1E68BEB14F4FB7F80080B8F113
:1022C000400F34BF4546402530462946FFF7E0FC25
:1022D000C5EB08039BB23B800BB9402D01D13544BF
:1022E00000E00025434B1D603D4B1B88B3F5A06FFC
:1022F00005D13B4B00225A709B7844490B70012357
:102300008AF80030BBE0424E9F0806EBC708D8F8B9
:102310000420A2F10800013DEDB213F0080F47D0F0
:1023200000F080F93B4B53F825304BB35A683949DC
:1023300041F8252003F10802C8F80420364A525D0E
:10234000032A12D8DFE802F002060A0E0321324AFD
:1023500051550AE00221304A515506E005212E4A26
:10236000515502E004212C4A515518F0080F0CBFBA
:102370008822C8221B8842EA034346F837307EE0B1
:10238000254B5B5D032B0BD8DFE803F07979020660
:102390000022214B5A5572E001221F4B5A556EE024
:1023A00018F0080F0CBF022203221B4B5A5566E09F
:1023B00056F837301B0C22F8083C002B57D000236E
:1023C00022F8063C42F8043C144B53F825303BBB42
:1023D000124B43F8250027E0D495FF1FC02007408B
:1023E000C895FF1F744600004C94FF1F4897FF1FBD
:1023F000F495FF1FE894FF1FD095FF1F3F97FF1F25
:102400004097FF1F5D95FF1FC800400098200740C0
:102410000080FF1FA095FF1F0095FF1F4895FF1F1D
:102420003F4B53F8253058603D4B43F825003D4B5A
:1024300033F8151032F8082C0A4423F8152000F060
:10244000D1F860B100F10803C8F8043018F0080FA3
:10245000354B364A08BF134646F837300FE00023A5
:1024600046F83730324B1A7801321A7007E018F00C
:10247000080F2D4B2D4A08BF134646F83730082366
:102480002370F2E415F0010F22D02A4902230B70C9
:102490000022294B1A70294B24481860284C5C6094
:1024A00098602848D8601A619A610D20264B1870F0
:1024B000FF23264803700838037018300270244A3E
:1024C00013709F22234B1A7001230B70BDE8F88F05
:1024D00015F0800F05D00D221B4B1A708022403B57
:1024E0001A7015F0020F06D0184B1A78D2B21A7073
:1024F0000222083B1A7015F0100F0ED01022164B56
:102500001A70BDE8F88F00200146FFF7C1FBAFE667
:1025100028460021FFF7BCFBAAE6BDE8F88F00BF04
:10252000EC94FF1F3497FF1FC80040008800400054
:10253000D295FF1F942007405C95FF1F0080FF1F6E
:102540000895FF1F6095FF1FC020074088200740A7
:102550008C200740842007408020074008B501F008
:1025600013FA00231B491A465A50C8184260083310
:10257000A82BF9D1184B1A6842F480221A60154B27
:10258000C3F30721154A1170C3F3074114321170C8
:102590001B0E04321370FF23343A13700832137089
:1025A000783A137001238432137000216C32117059
:1025B0007C3A137070220A4B1A704FF40072A3F227
:1025C00041331A60102203F1C04303F5C8231A7087
:1025D00008BD00BF0080FF1F348004409C200740DE
:1025E00049E400E072B60D4B1A68B2FA82F31D2B73
:1025F00002D962B6002070474FF00041D94022EA6C
:10260000010206490A6062B6054903EBC303DB0019
:10261000C8180022CA504260704700BFA48CFF1F38
:102620000084FF1F08B50F4BC31A0F4AA2FB031308
:102630001B091D2B14D80D4A12783AB10C4A127896
:1026400012F0FF0F02D0FFF77BFB08BD72B6094AFC
:102650004FF0004121FA03F311681943116062B68B
:1026600008BD00BF0084FF1F398EE338D295FF1FDD
:10267000DC95FF1FA48CFF1F08B5094B1B786BB9B5
:10268000084B196851B14B8843B19B000B80042063
:10269000FFF79AFBFFF7A6FF024B186008BD00BFCB
:1026A000DE95FF1FE095FF1F10B5134B1B6853B954
:1026B000124B1B7813F0FF0F18D00220FFF70CFB12
:1026C0000D4B1860A8B10C4B186843885A1C034482
:1026D0001C7A03889A4206D3FFF7A4FF0022064B18
:1026E0001A60204610BD4280204610BD4FF0FF30DA
:1026F00010BD4FF0FF3010BDF095FF1FDC95FF1FA0
:1027000008B50D4B1B6883B90C4B1B7813F0FF0FFA
:1027100008D00220FFF7E0FA074B186028B94FF005
:10272000FF3008BD4FF0FF3008BD034B1B685A88CF
:102730001344187A08BD00BFF095FF1FDC95FF1FFA
:10274000044B5888044B1B681BB11A885B88D31A4A
:10275000184470473497FF1FF095FF1F10B50B4BBF
:102760001B7813F0FF0F0FD0094B186820B1FFF74B
:1027700059FF0022064B1A6002242046FFF7ACFAEC
:1027800010B1FFF74FFFF8E710BD00BFDC95FF1F4A
:10279000F095FF1F2DE9F84F04460122384B1A70BF
:1027A0008B46002965D00E46DFF8E080DFF8E09028
:1027B0009A46344FD8F8003083BB99F8003013F0B4
:1027C000FF0F06D100222E4B1A704FF0FF30BDE8EC
:1027D000F88F4AF2F9250320FFF79CFA07280AD858
:1027E00001238AF80030FFF7FDFEC8F80000A8B901
:1027F00000238AF80030013D01D03B7833B101223B
:10280000204B1A704FF0FF30BDE8F88F00F04EF902
:1028100099F8003013F0FF0FDDD1D3E700233B70B0
:10282000D8F800104A88C2F14005AE4238BF35469C
:1028300002F108030B442A444A80761B3DB125442B
:1028400014F8012B03F8012BAC42F9D100E0254626
:102850004B883F2B07D940230B800320FFF7B4FAA6
:102860000023C8F800300522074B1A700EB12C4621
:10287000A0E70022024B1A705846BDE8F88F00BF4F
:10288000E595FF1FEC95FF1FE495FF1FE895FF1FDF
:10289000DC95FF1F00B583B002AB03F8010D1846AD
:1028A0000121FFF777FF03B05DF804FB10B5144B6F
:1028B0001B7813F0FF0F21D00122124B1A70124B1C
:1028C000196851B10024114B1C704B880B800320F8
:1028D000FFF77AFA0C4B1C600DE0FFF783FE014610
:1028E00030B10022094B1A700320FFF76DFA02E0A5
:1028F0000122064B1A700022024B1A7010BD00BF55
:10290000DC95FF1FE595FF1FE895FF1FE495FF1F6E
:1029100008B50E4B1B7813F0FF0F16D10C4B19683E
:1029200041B14B880B800320FFF74EFA0022084B81
:102930001A6008BDFFF756FE014618B10320FFF7E5
:1029400043FA08BD0122034B1A7008BDE595FF1F2D
:10295000E895FF1FE495FF1F08B503681B68C9B21F
:10296000984708BD08B503681B68C9B2984708BDF9
:1029700008B503681B68C9B2984708BD08B5036865
:102980001B68C9B2984708BD08B54B0803F137600A
:1029900000F5D830B0FBF1F0FEF7E6FD08BD00BF52
:1029A00010B514464B0803F1376000F5D830B0FB82
:1029B000F1F0FEF7D9FD2046FEF73EFE10BD00BF48
:1029C00008B5FEF769FE08BD08B50846FEF79EFE8D
:1029D00008BD00BF08B50846FEF7F2FE08BD00BFFF
:1029E00008B508461146FEF7ADFE08BD08B5084615
:1029F000FEF712FF003018BF012008BD08B50846D9
:102A0000FEF72CFF003018BF012008BD08B5FFF706
:102A100025F808BD08B5FFF76BF808BD08B5FFF746
:102A20002DF808BD08B5FEF7F7FF08BD08B5FFF79C
:102A300079F808BD08B5FEF7FFFF08BD08B50846E0
:102A4000FEF738FF012008BD08B50846FEF732FF43
:102A5000012008BD10B5144608461146FEF77AFF5E
:102A6000204610BD38B50D46084601F093FC0446DB
:102A700028462146FEF76EFF204638BD704700BF4E
:102A8000044B00221A714FF47A7199601A73024A4A
:102A90001A607047F895FF1F0846000008B5FDF75B
:102AA00053FDFDF7CDFD00F001F8FAE708B50F4B37
:102AB0001B78CBB901220D4B1A70FFF741FE08B10C
:102AC00001F00AF9FEF7CAFF08B1FFF7D7FF00F0DF
:102AD0009FFB08B101F02EF800F06CFE08B101F088
:102AE000CBF80022014B1A7008BD00BF0896FF1FEB
:102AF00060223A4B1A70E12201331A70384B1B786E
:102B0000082B10D1012203F1804303F56C331A60C6
:102B1000132334490B6001F5FF2101F2FC710A60B7
:102B2000314A13601FE00A2B0DD139222F4B1A6056
:102B300013232C490B6001F5FF2101F2FC710A609F
:102B4000294A13600FE00C2B0CBF35223D22274B86
:102B50001A60122323490B6001F5FF2101F2FC7179
:102B60000A60214A1360224B1B7833B10123214AAA
:102B7000136002F50022136005E000231D4A136074
:102B800002F5002213601C4B1B78012B06D8802312
:102B90001A4A136002F5002213601AE0042B06D8CB
:102BA0008423164A136002F50022136011E0082BFB
:102BB00006D88523114A136002F50022136008E04D
:102BC000102B94BF862387230C4A136002F5002242
:102BD000136001220A4B1A70704700BF0040074083
:102BE000A88CFF1F0CB003400CB00B4008B0034092
:102BF0000A96FF1F20B00340A98CFF1F24B003409A
:102C00000996FF1F094B1A6842F480521A60084B5C
:102C10001B781BB18022074B1A7002E0C022054BC3
:102C20001A7080F30C00044B188070472C8004400D
:102C30000A96FF1F21C00C4000C00C40024B1A68CE
:102C400001321A60704700BF4C94FF1F08B50D4C4D
:102C5000236813F4802F01D0FFF7FEF8236813F4E4
:102C6000806F01D0FEF784FF236813F4006F01D05A
:102C700000F058FB236813F4805FE9D000F010FEE9
:102C8000E6E700BF3480044008B5FFF7DFFF00BF70
:102C90001022014B1A80704700200540704700BF8A
:102CA000EFF31383ABB9EFF31083ABB9EFF3058305
:102CB00023B10F2B05D9094A985C03E04FF48070CB
:102CC00000E00020EFF311833BB1834238BF184688
:102CD00070474FF0FF30704700207047F0E300E08E
:102CE000254B1A6842F400621A600023234A1370CD
:102CF000234A1370234A1370234A1370234A137014
:102D0000234B1B78092B02D01A2B05D008E040F288
:102D10001332204B1A6003E040F213321E4B1A604C
:102D20001E4B1B780A2B02D01F2B05D008E04FF456
:102D300051721B4B1A6003E04FF45172194B1A6029
:102D4000C0F34432184B1A70C0F347125A7000F0A7
:102D50001F00987204229A700221D9745A75882231
:102D60001A743C22DA704022104B1A704FF4004261
:102D7000A3F22B331A607047348004407C96FF1F07
:102D80001196FF1F8496FF1F7D96FF1F1096FF1F51
:102D9000AA8CFF1F0CB0044004D00440AB8CFF1F72
:102DA00010B0044000D0044000B006402FE400E022
:102DB000164B9B7803F0EC0300F00302134310F072
:102DC000040F18BF43F01003104A937000F00F0374
:102DD000042B04D11346927942F040029A710B4BB6
:102DE0005A7902F0EF0210F0100F18BF42F01002F3
:102DF000064B5A719B7903F0EF0310F0200F18BFB8
:102E000043F01003014A9371704700BF00B00640C1
:102E100010B5224B1B6813F4006F3ED0204B1B787B
:102E200013F0FF0F06D01E4CFFF740FE237813F07F
:102E3000FF0FF9D14FF400421A4B1A6000221A4BCF
:102E4000DA701A4B1B78092B02D01A2B05D008E038
:102E500040F20312164B1A6003E040F20312154BC6
:102E60001A60154B1B7803F07F030A2B02D01F2B2F
:102E700005D008E040F20312104B1A6003E040F264
:102E800003120F4B1A6000230E4A13700E4A137080
:102E90000E4B1B680BB101221A7010BD3480044028
:102EA0001096FF1F84E100E000B00640AA8CFF1FCF
:102EB0000CB0044004D00440AB8CFF1F10B00440A1
:102EC00000D004407C96FF1F1196FF1F0C96FF1F39
:102ED00010B50446094A137813F0FF0FFBD12046C2
:102EE0000121FEF775F920460021FEF74DF9044B4C
:102EF00053F83420034B1A6010BD00BF1096FF1F1B
:102F0000EC4400008096FF1F10B40C4609B140F05D
:102F10008000184B1B78984228D0174A126812F488
:102F2000006F21D003F07F030A2B02D01F2B04D0A7
:102F300006E00022114B1A6002E00022104B1A60DA
:102F4000002C0CBF4422602200F07F030A2B02D029
:102F50001F2B05D008E042F44072084B1A6003E0D2
:102F600042F44072064B1A60024B18705DF8044B35
:102F7000704700BFAB8CFF1F3480044010B004408A
:102F800000D00440124B1B78984220D0114A12689E
:102F900012F4006F19D0092B02D01A2B04D006E0CE
:102FA00000220D4B1A6002E000220C4B1A60092827
:102FB00002D01A2805D008E040F21332064B1A60FE
:102FC00003E040F21332054B1A60014B1870704752
:102FD000AA8CFF1F348004400CB0044004D004408D
:102FE00010B50D4B1B6813F4006F12D021280CD8BC
:102FF0000A4C0B4B53F8303023600121FEF7E8F800
:10300000236800221A70012010BD0020034B1860B5
:1030100010BD002010BD00BF348004400C96FF1F7F
:10302000EC4400000D4B1B6813F4006F13D01728FD
:103030000AD140F202320A4B1A600A4B5A7B42F024
:1030400001025A7301207047064B5A7B02F0FE02C0
:103050005A73002070470020704700BF348004403E
:1030600008B0044000B006402DE9F04107461F4B70
:103070001B6813F4006F37D01D4B1B680BB1012286
:103080001A701C4B1C780134282C28BF00241A4DC0
:103090001A4EDFF86C8017E0FFF702FE40280FDCC5
:1030A000337913F0800F0FD02B780133282B28BFF2
:1030B000002318F80320D2B2F271DBB22B7003E0C8
:1030C000FF2801DDFFF7F2FC2B78DBB29C42E3D056
:1030D000FFB20B4B1F5501220A4B1A70E4B2054B8D
:1030E0001C70BC22054BDA70BDE8F08134800440CE
:1030F0008096FF1F8496FF1F7D96FF1F00B006403D
:103100001496FF1F1096FF1F2DE9F84F0746284B16
:103110001B6813F4006F49D0264B1B680BB10122CA
:103120001A7007EB010B5F453DD2DFF89890224EF5
:10313000DFF88C80DFF890A099F800400134282C4B
:1031400028BF00243578EDB2A54220D1BC2388F8F1
:103150000330FFF7A5FD402811DC98F8043013F088
:10316000800F10D033780133282B28BF00231AF8A2
:103170000320D2B288F80720DBB2337003E0FF28C7
:1031800001DDFFF793FC3378DBB29D42E1D017F805
:10319000013B0AF804300122084B1A70E4B289F8A6
:1031A00000405F45C8D1BC22054BDA70BDE8F88FFE
:1031B000348004408096FF1F7D96FF1F1096FF1FEE
:1031C00000B006408496FF1F1496FF1F10B5064BF3
:1031D0001B7813F0FF0F06D0034CFFF767FC237832
:1031E00013F0FF0FF9D110BD1096FF1F064B1B788F
:1031F000DBB2064A1278D2B293422CBF273202F1D8
:10320000FF32D01A704700BF8496FF1F7D96FF1FC4
:10321000054B1878C0B2054B1B78DBB2984238BF1B
:103220004030C01A704700BF7C96FF1F1196FF1FE9
:1032300010B4184B1A78D2B2174B1B78DBB29A42F3
:1032400018D001333F2B18D81449C85CC0B2DCB287
:1032500011490C7012490968C9B19A4203D300E0C0
:103260000023D31A01E04032D31A1A2B0FDC0023BB
:103270000B700CE04FF0FF3009E0084B1878C0B23B
:103280000021054B1970064B19680029E8D15DF83B
:10329000044B70477C96FF1F1196FF1F3C96FF1F43
:1032A0000C96FF1F094B1A78D2B2094B1B78DBB280
:1032B0009A4207D00133402B28BF0023054AD05C37
:1032C000C0B270474FF0FF30704700BF7C96FF1FC1
:1032D0001196FF1F3C96FF1F0D4B1B6813F4006FE8
:1032E00014D00C4BDA7802F0CB02DA7040225A7418
:1032F000DA7842F03402DA70074B1A78D2B2074B10
:103300001A70074B1B680BB100221A70704700BF80
:103310003480044000B006401196FF1F7C96FF1FCA
:103320000C96FF1F70B43D4B1B7913F0300F33D058
:1033300072B63A4B9B7D03F0FF022BB9374BDA791B
:1033400040225A7462B627E062B6354B1978C9B28A
:10335000344B1C78E4B2314D334EEB79D8B24B1C70
:10336000402B28BF0023A3421CBFF0541946531E14
:1033700013F0FF02F1D1CAB2294B1A702B4B1B6814
:1033800053B1A1422EBFC4EB0101C4F1400409199D
:103390002729C4BF01221A70204BDA78D2B212F06A
:1033A000800F27D01B7913F0800F23D0204B1C787F
:1033B000E4B2204B1B78DBB29C4210D017491E4D63
:1033C00001E0A3420BD00133282B28BF002308794A
:1033D000E85CC0B2C871087DC0B20728F1D9DBB281
:1033E00014490B700D4B1B7913F0800F02D07C2118
:1033F0000A4BD97012F0400F0ED0084B1B7913F016
:10340000400F09D000220D4B1A700D4B1B6803B101
:103410001A703C22014BDA7070BC704700B0064055
:103420007C96FF1F1196FF1F3C96FF1F0C96FF1FF7
:103430008496FF1F7D96FF1F1496FF1F1096FF1F97
:103440008096FF1F174B1A6842F480521A600023BF
:10345000154A1370154A1370154A1370154A1370E4
:10346000154A137040F21331144A11604FF4517130
:1034700004321160C0F34431114A1170C0F3471196
:10348000517000F01F009072937013742C23D3704E
:1034900040220C4B1A704FF40032A3F22D331A6005
:1034A000704700BF34800440F896FF1F8D96FF1FC1
:1034B0000097FF1FF996FF1F8C96FF1F08C004405E
:1034C00000C0064031E400E0164B9B7803F0EC03AB
:1034D00000F00302134310F0040F18BF43F0100371
:1034E000104A937000F00F03042B04D11346927915
:1034F00042F040029A710B4B5A7902F0EF0210F041
:10350000100F18BF42F01002064B5A719B7903F05E
:10351000EF0310F0200F18BF43F01003014A93711E
:10352000704700BF00C0064010B5144B1B6813F471
:10353000805F21D0124B1B7813F0FF0F06D0104C88
:10354000FFF7B4FA237813F0FF0FF9D14FF40032EC
:103550000C4B1A6000230C4AD37040F203120B4943
:103560000A6004310A600A4A13700A4A13700A4B4F
:103570001B680BB101221A7010BD00BF34800440DB
:103580008C96FF1F84E100E000C0064008C00440A4
:10359000F896FF1F8D96FF1F8896FF1F10B50446F3
:1035A000094A137813F0FF0FFBD120460121FDF7E4
:1035B0000FFE20460021FDF7E7FD044B53F83420B1
:1035C000034B1A6010BD00BF8C96FF1FEC44000037
:1035D000FC96FF1F10B40C4609B140F08000104B60
:1035E0001B78984219D00F4A126812F4805F12D0EB
:1035F00003F07F03082B02D100220B4B1A60002C32
:103600000CBF4422602200F07F03082B03D142F458
:103610004072054B1A60024B18705DF8044B7047FE
:10362000AC8CFF1F348004400CC00440704700BFC6
:1036300010B50D4B1B6813F4805F12D021280CD8F5
:103640000A4C0B4B53F8303023600121FDF7C0FDCD
:10365000236800221A70012010BD0020034B18605F
:1036600010BD002010BD00BF348004408896FF1FAD
:10367000EC4400000D4B1B6813F4805F13D00E2840
:103680000AD140F202320A4B1A600A4B5A7B42F0CE
:1036900001025A7301207047064B5A7B02F0FE026A
:1036A0005A73002070470020704700BF34800440E8
:1036B00004C0044000C006402DE9F04107461F4BFE
:1036C0001B6813F4805F37D01D4B1B680BB10122C0
:1036D0001A701C4B1C780134282C28BF00241A4D6A
:1036E0001A4EDFF86C8017E0FFF7DAFA40280FDC9B
:1036F000337913F0800F0FD02B780133282B28BF9C
:10370000002318F80320D2B2F271DBB22B7003E071
:10371000FF2801DDFFF7CAF92B78DBB29C42E3D02A
:10372000FFB20B4B1F5501220A4B1A70E4B2054B36
:103730001C70AC22054BDA70BDE8F0813480044087
:10374000FC96FF1F0097FF1FF996FF1F00C0064061
:103750009096FF1F8C96FF1F38B505460C4629B181
:1037600015F8010BFFF7A8FF013CF9D138BD00BFE8
:1037700010B5064B1B7813F0FF0F06D0034CFFF774
:1037800095F9237813F0FF0FF9D110BD8C96FF1F28
:10379000064B1B78DBB2064A1278D2B293422CBF9A
:1037A000273202F1FF32D01A704700BF0097FF1F87
:1037B000F996FF1F054B1878C0B2054B1B78DBB29A
:1037C000984238BF4030C01A704700BFF896FF1FBC
:1037D0008D96FF1F10B4184B1A78D2B2174B1B7876
:1037E000DBB29A4218D001333F2B18D81449C85C79
:1037F000C0B2DCB211490C7012490968C9B19A42D1
:1038000003D300E00023D31A01E04032D31A1A2B6D
:103810000FDC00230B700CE04FF0FF3009E0084B89
:103820001878C0B20021054B1970064B19680029A1
:10383000E8D15DF8044B7047F896FF1F8D96FF1F87
:10384000B896FF1F8896FF1F094B1A78D2B2094B12
:103850001B78DBB29A4207D00133402B28BF0023EC
:10386000054AD05CC0B270474FF0FF30704700BFD0
:10387000F896FF1F8D96FF1FB896FF1F054B1A780D
:10388000D2B2054B1A70054B1B680BB100221A709F
:10389000704700BF8D96FF1FF896FF1F8896FF1F89
:1038A0002F4B1B7913F0200F23D02D4BDB79D9B28E
:1038B0002C4B1B780133402B28BF00232A4A127857
:1038C000D2B29A4204D0294AD154D9B2254A1170B1
:1038D000274A116869B1274A1278D2B293422EBFA3
:1038E000C2EB0303C2F140029B18272BC4BF012384
:1038F0000B701B4BDB78DBB213F0800F1CD0184A27
:10390000127912F0800F17D01B4A1178C9B2194AE8
:103910001278D2B2914203D16C21114AD1700BE0DE
:103920000132282A28BF00221449885CC0B20C4901
:10393000C871D2B20F490A7013F0400F0ED0084B75
:103940001B7913F0400F09D000220D4B1A700D4B5C
:103950001B6803B11A702C22014BDA70704700BF4C
:1039600000C00640F896FF1F8D96FF1FB896FF1FF8
:103970008896FF1FF996FF1F0097FF1F9096FF1F65
:103980008C96FF1FFC96FF1F00B585B072B61B4BCF
:1039900070221A7041211A4A11700F21013A1170D8
:1039A00080221A701A46137813F0800FFBD0154B43
:1039B000186862B6144B98429CBF00EB8000400030
:1039C00001A90A2200F098F99DF804307BB908E0BB
:1039D00001A9595C31B19180023201330A2BF7D130
:1039E00000E0002301335B00084A137003E0074A3C
:1039F00053800123ECE705B05DF804FB00000240B2
:103A000007000240080002407F969800908DFF1F3B
:103A100008B503681B68C9B2984708BD08B50368B4
:103A20001B68C9B2984708BD08B503681B68C9B2CE
:103A3000984708BD08B503681B68C9B2984708BD18
:103A400008B54B0803F1376000F5D830B0FBF1F052
:103A5000FFF746F908BD00BF10B514464B0803F147
:103A6000376000F5D830B0FBF1F0FFF739F92046A8
:103A7000FFF79EF910BD00BF08B5FFF7C9F908BDF3
:103A800008B50846FFF724FA08BD00BF08B5084688
:103A9000FFF778FA08BD00BF08B508461146FFF7E2
:103AA00033FA08BD08B50846FFF79AFA003018BF88
:103AB000012008BD08B50846FFF7B4FA003018BF6A
:103AC000012008BD08B5FFF7A3FB08BD08B5FFF747
:103AD000E9FB08BD08B5FFF7ABFB08BD08B5FFF76C
:103AE00075FB08BD08B5FFF7F7FB08BD08B5FFF784
:103AF0007DFB08BD08B50846FFF7B6FA012008BDF2
:103B000008B50846FFF7B0FA012008BD10B5144605
:103B100008461146FFF7F8FA204610BD38B50D46A5
:103B2000084600F037FC044628462146FFF7ECFA29
:103B3000204638BD704700BF044B00221A714FF475
:103B40007A7199601A73024A1A6070470497FF1FCE
:103B5000C846000008B503681B68C9B2984708BD8D
:103B600008B503681B68C9B2984708BD08B5036863
:103B70001B68C9B2984708BD08B503681B68C9B27D
:103B8000984708BD08B54B0803F1B76000F55840E9
:103B9000B0FBF1F0FFF756FC08BD00BF10B51446AE
:103BA0004B0803F1B76000F55840B0FBF1F0FFF7A8
:103BB00049FC2046FFF788FC10BD00BF08B5FFF7A1
:103BC000B3FC08BD08B50846FFF7E8FC08BD00BF18
:103BD00008B50846FFF72AFD08BD00BF08B508462E
:103BE0001146FFF7F7FC08BD08B50846FFF720FDB2
:103BF000003018BF012008BD08B50846FFF73AFDA0
:103C0000003018BF012008BD08B5FFF7D3FD08BD7F
:103C100008B5FFF719FE08BD08B5FFF7DBFD08BDC5
:103C200008B5FFF7A5FD08BD08B5FFF727FE08BDDD
:103C300008B5FFF7ADFD08BD08B50846FFF73CFD28
:103C4000012008BD08B50846FFF736FD012008BD74
:103C500010B5144608461146FFF77EFD204610BDFC
:103C600038B50D46084600F095FB04462846214627
:103C7000FFF772FD204638BD704700BF044B00229D
:103C80001A714FF47A7199601A73024A1A60704778
:103C90001497FF1F2847000008B5FEF751FD08BD27
:103CA00008B5FEF701FD08BD08B5FEF729FD08BD02
:103CB00008B5FEF7FBFD08BD08B5FEF74FFD08BDD2
:103CC00008B50846FEF7E6FD08BD00BF08B5084682
:103CD0001146FEF75FFD08BD704700BF044B002290
:103CE0001A714FF47A7199601A73024A1A60704718
:103CF0002497FF1F8847000030B40023B0FBF2F484
:103D000002FB14041D46092C94BF30343734E4B24E
:103D1000CC54B0FBF2F008B10133EFE70D440022C0
:103D20006A70934207DD885CCC5C8C54C8540132C5
:103D3000013B9A42F7DB084630BC704780F00040F8
:103D400002E000BF81F0004142001FBF5FEA410373
:103D500092EA030F7FEA226C7FEA236C6AD04FEA73
:103D60001262D2EB1363C1BFD218414048404140B8
:103D7000B8BF5B42192B88BF704710F0004F40F46A
:103D8000000020F07F4018BF404211F0004F41F486
:103D9000000121F07F4118BF494292EA030F3FD052
:103DA000A2F1010241FA03FC10EB0C00C3F1200365
:103DB00001FA03F100F0004302D5494260EB4000F4
:103DC000B0F5000F13D3B0F1807F06D340084FEA5F
:103DD000310102F10102FE2A51D2B1F1004F40EB54
:103DE000C25008BF20F0010040EA030070474900BC
:103DF00040EB000010F4000FA2F10102EDD1B0FA87
:103E000080FCACF1080CB2EB0C0200FA0CF0AABF7B
:103E100000EBC25052421843BCBFD0401843704719
:103E200092F0000F81F4000106BF80F4000001321F
:103E3000013BB5E74FEA41037FEA226C18BF7FEAF6
:103E4000236C21D092EA030F04D092F0000F08BF38
:103E50000846704790EA010F1CBF0020704712F01F
:103E60007F4F04D1400028BF40F00040704712F15E
:103E700000723CBF00F50000704700F0004343F0C3
:103E8000FE4040F4000070477FEA226216BF0846F9
:103E90007FEA23630146420206BF5FEA412390EABC
:103EA000010F40F4800070474FF0000304E000BFB2
:103EB00010F0004348BF40425FEA000C08BF704763
:103EC00043F0964301464FF000001CE050EA010227
:103ED00008BF70474FF000030AE000BF50EA01023C
:103EE00008BF704711F0004302D5404261EB410129
:103EF0005FEA010C02BF84460146002043F0B6434E
:103F000008BFA3F18053A3F50003BCFA8CF2083A72
:103F1000A3EBC25310DB01FA02FC634400FA02FC7B
:103F2000C2F12002BCF1004F20FA02F243EB020082
:103F300008BF20F00100704702F1200201FA02FCE4
:103F4000C2F1200250EA4C0021FA02F243EB0200D7
:103F500008BF20EADC7070474FF0FF0C1CEAD0521B
:103F60001EBF1CEAD15392EA0C0F93EA0C0F6FD0DC
:103F70001A4480EA010C400218BF5FEA41211ED0BA
:103F80004FF0006343EA501043EA5111A0FB0131A6
:103F90000CF00040B1F5000F3EBF490041EAD3717B
:103FA0005B0040EA010062F17F02FD2A1DD8B3F1F7
:103FB000004F40EBC25008BF20F00100704790F066
:103FC000000F0CF0004C08BF49024CEA502040EAB8
:103FD00051207F3AC2BFD2F1FF0340EAC25070477E
:103FE00040F400004FF00003013A5DDC12F1190FBC
:103FF000DCBF00F000407047C2F10002410021FA2E
:1040000002F1C2F1200200FA02FC5FEA310040F145
:10401000000053EA4C0308BF20EADC70704792F0BE
:10402000000F00F0004C02BF400010F4000F013AF6
:10403000F9D040EA0C0093F0000F01F0004C02BFF1
:10404000490011F4000F013BF9D041EA0C018FE760
:104050000CEAD15392EA0C0F18BF93EA0C0F0AD066
:1040600030F0004C18BF31F0004CD8D180EA01008C
:1040700000F00040704790F0000F17BF90F0004F25
:10408000084691F0000F91F0004F14D092EA0C0F07
:1040900001D142020FD193EA0C0F03D14B0218BF9A
:1040A000084608D180EA010000F0004040F0FE40E0
:1040B00040F40000704740F0FE4040F4400070477C
:1040C0004FF0FF0C1CEAD0521EBF1CEAD15392EAFB
:1040D0000C0F93EA0C0F69D0A2EB030280EA010CEB
:1040E00049024FEA402037D04FF0805343EA111184
:1040F00043EA10130CF000408B4238BF5B0042F1E2
:104100007D024FF4000C8B4224BF5B1A40EA0C0086
:10411000B3EB510F24BFA3EB510340EA5C00B3EBB8
:10412000910F24BFA3EB910340EA9C00B3EBD10FA6
:1041300024BFA3EBD10340EADC001B0118BF5FEAF8
:104140001C1CE0D1FD2A3FF650AF8B4240EBC25021
:1041500008BF20F0010070470CF0004C4CEA5020E2
:104160007F32C2BFD2F1FF0340EAC250704740F431
:1041700000004FF00003013A37E792F0000F00F023
:10418000004C02BF400010F4000F013AF9D040EAA1
:104190000C0093F0000F01F0004C02BF490011F435
:1041A000000F013BF9D041EA0C0195E70CEAD1532D
:1041B00092EA0C0F08D142027FF47DAF93EA0C0F14
:1041C0007FF470AF084676E793EA0C0F04D14B02F8
:1041D0003FF44CAF08466EE730F0004C18BF31F0AA
:1041E000004CCAD130F000427FF45CAF31F00043A4
:1041F0007FF43CAF5FE700BF4FF0FF3C06E000BF3D
:104200004FF0010C02E000BF4FF0010C4DF804CD5F
:104210004FEA40024FEA41037FEA226C18BF7FEA6F
:10422000236C11D001B052EA530C18BF90EA010F71
:1042300058BFB2EB030088BFC81738BF6FEAE17000
:1042400018BF40F0010070477FEA226C02D15FEA9C
:10425000402C05D17FEA236CE4D15FEA412CE1D008
:104260005DF8040B704700BF844608466146FFE7CF
:104270000FB5FFF7C9FF002848BF10F1000F0FBDB1
:104280004DF808EDFFF7F4FF0CBF012000205DF8AA
:1042900008FB00BF4DF808EDFFF7EAFF34BF01202F
:1042A00000205DF808FB00BF4DF808EDFFF7E0FFC8
:1042B00094BF012000205DF808FB00BF4DF808ED19
:1042C000FFF7D2FF94BF012000205DF808FB00BF7C
:1042D0004DF808EDFFF7C8FF34BF012000205DF85E
:1042E00008FB00BF42000ED2B2F1FE4F0BD34FF0DD
:1042F0009E03B3EB126209D44FEA002343F000435C
:1043000023FA02F070474FF00000704712F1610F7E
:1043100001D1420202D14FF0FF3070474FF0000050
:10432000704700BF03460846194600F001B800BFB9
:1043300010B40C4613460146224602205DF8044B99
:1043400000F058B870B50F4E0F4D761BB61007D061
:10435000043D0024013455F8043F9847A642F9D1A2
:104360000A4E0B4D761B00F023FAB61008D0043D20
:104370000024013455F8043F9847A642F9D170BD96
:1043800070BD00BFBC470000BC470000D84700001C
:10439000BC47000020F0030110F00300C0F1000052
:1043A00051F8043B00F1040C4FEACC0C6FF0000212
:1043B0001CBF22FA0CF213434FF0010C4CEA0C2CF8
:1043C0004CEA0C4CA3EB0C0222EA030212EACC12D8
:1043D00004BF51F8043B0430F4D013F0FF0F1FBFAB
:1043E000013013F47F4F013013F47F0F18BF0130F9
:1043F000704700BFF0B5274C2668D6F8484185B015
:104400000746002C41D065681F2D1EDD224818B9D3
:104410004FF0FF3005B0F0BD4FF4C8700391029229
:104420000193AFF300800399029A019B0446002890
:10443000EED0D6F848512560002060600546C6F8E9
:104440004841C4F88801C4F88C013FB9AB1C002076
:104450000135656044F8231005B0F0BD04EB85001C
:104460004FF0010CC0F88820D4F888610CFA05F2EE
:104470001643022FC4F88861C0F80831E6D1D4F899
:104480008C311A43C4F88C21E0E706F5A674C6F80F
:104490004841B8E7AC47000000000000024B13B1F0
:1044A000024800F005B8704700000000BD4400005D
:1044B0000146002002460346FFF79CBF38B5094D70
:1044C000094C641BA41018BF05EB840505D0013C02
:1044D00055F8043D9847002CF9D1BDE8384000F06C
:1044E0007BB900BF00000000000000004008FE4350
:1044F00040A004404408FE4344A004400018FE438A
:1045000000C004403000FE43309004403400FE43BD
:10451000349004401C18FE431CC004401018FE4395
:1045200010C004400818FE4308C004400C18FE43A5
:104530000CC004400C10FE430CB004401010FE43AD
:1045400010B004401810FE4318B004401C10FE4385
:104550001CB004401410FE4314B004400418FE4381
:1045600004C004400010FE4300B004400008FE43B5
:1045700000A004400408FE4304A004400C08FE43CD
:104580000CA004400808FE4308A004401418FE4391
:1045900014C004401818FE4318C004400410FE4321
:1045A00004B004400810FE4308B004401400FE4369
:1045B000149004404C08FE434CA004400420FE43E9
:1045C00004D004402410FE4324B004402010FE43D5
:1045D00020B004402810FE4328B004402C10FE43B5
:1045E0002CB004400020FE4300D004404808FE43A5
:1045F00048A004401000FE4310900440FFFFFFFF5E
:1046000000000000000000003D2A0000552A0000C4
:104610000D2A00001D2A0000152A0000252A00008E
:1046200089290000A1290000C1290000C929000032
:10463000D5290000E1290000ED290000FD29000036
:104640002D2A0000352A00005929000065290000A4
:10465000712900007D290000652A0000492A000018
:10466000151915151900000000010000B08CFF1F7E
:104670001200000000020000DC8CFF1F950000000B
:10468000000300008C8DFF1F0000000001030904DF
:10469000C48CFF1F0000000002030904748DFF1F7B
:1046A0000000000003030904908DFF1F00000000BC
:1046B000000000000000000000000000FFFFFFFFFE
:1046C0000000000000000000F53A00000D3B000073
:1046D000C53A0000D53A0000CD3A0000DD3A0000AE
:1046E000413A0000593A0000793A0000813A00004E
:1046F0008D3A0000993A0000A53A0000B53A000052
:10470000E53A0000ED3A0000113A00001D3A0000C1
:10471000293A0000353A00001D3B0000013B000033
:104720000000000000000000393C0000513C000087
:10473000093C0000193C0000113C0000213C000035
:10474000853B00009D3B0000BD3B0000C53B0000D9
:10475000D13B0000DD3B0000E93B0000F93B0000DD
:10476000293C0000313C0000553B0000613B00004B
:104770006D3B0000793B0000613C0000453C0000BF
:104780000000000000000000C13C0000CD3C000023
:10479000993C0000A13C0000A93C0000B13C000095
:1047A000B93C00000000000043000000A88DFF1F7E
:1047B000F8B500BFF8BC08BC9E4670479D44000099
:1047C00035040000ED0F0000812A0000393B000095
:0847D0007D3C0000DD3C00000F
:0447D800F8B500BF71
:1047DC00000000000100000048494A4B4C0000005A
:1047EC000507090A0B000000040006000800000081
:1047FC0000000000170016191406150509040A0319
:10480C0008010000FFFFFFFF0A04090A080000006E
:10481C001201010100000040C016890400020102CF
:10482C000301000018035400650065006E0073005E
:10483C0079006400750069006E006F000902950034
:10484C00030100C032080B0002020201040904003B
:10485C0000010202010005240010010524010101E0
:10486C0004240206052406000107058103100040FC
:10487C0009040100020A00000007050202400000C2
:10488C000705830240000009040200020103000036
:10489C000724010001410006240201010006240244
:1048AC00020200092403010301020100092403028E
:1048BC000401010100090505024000000000052566
:1048CC0001010109058402400000000005250101D9
:1048DC000300000018035400650065006E007300AF
:1048EC00790020004D0049004400490004030904EC
:1048FC000C0300000000000000000000000000009D
:10490C000000000000000000000000009490FF1F59
:10491C00FC90FF1F6491FF1F0000000000000000CE
:10492C00000000000000000000000000000000007B
:10493C00000000000000000000000000A84700007C
:10494C00000000000000000000000000000000005B
:10495C00000000000000000000000000000000004B
:10496C00000000000000000000000000000000003B
:10497C00000000000000000000000000000000002B
:10498C00000000000000000000000000000000001B
:10499C00000000000000000000000000000000000B
:1049AC0000000000000000000000000000000000FB
:1049BC0001000000000000000E33CDAB34126DE698
:1049CC00ECDE05000B000000000000000000000001
:1049DC0000000000000000000000000000000000CB
:1049EC0000000000000000000000000000000000BB
:1049FC0000000000000000000000000000000000AB
:104A0C00000000000000000000000000000000009A
:00000001FF
