:1000000000800020BD010000052A0000C929000071
:10001000C9290000C9290000C9290000C929000018
:10002000C9290000C9290000C9290000052A0000CB
:10003000052A0000C9290000ED340000DD3500006C
:10004000052A0000052A0000052A0000052A0000F4
:10005000052A0000052A0000052A0000052A0000E4
:10006000052A0000052A0000052A0000052A0000D4
:10007000052A0000052A0000052A0000052A0000C4
:10008000052A0000052A0000052A0000052A0000B4
:10009000052A0000052A0000052A0000052A0000A4
:1000A000052A0000052A0000052A0000052A000094
:1000B000052A0000052A0000052A0000052A000084
:1000C000052A0000052A0000052A0000052A000074
:1000D000052A0000052A0000052A0000052A000064
:1000E000052A0000052A0000052A0000052A000054
:1000F000052A0000B1300000052A0000F53100009B
:10010000052A000039330000052A0000052A0000F6
:10011000052A0000052A0000052A0000052A000023
:10012000052A0000052A0000052A0000052A000013
:10013000052A0000052A0000052A0000052A000003
:10014000052A0000052A0000052A0000052A0000F3
:10015000052A0000052A0000052A0000052A0000E3
:10016000052A000035190000052A0000052A0000B4
:10017000052A0000052A0000052A0000052A0000C3
:10018000052A0000052A0000052A0000052A0000B3
:10019000052A0000052A0000052A0000052A0000A3
:1001A000052A0000052A0000052A0000052A000093
:1001B000052A0000052A0000052A0000564B4CF2D3
:1001C000205210B51A804DF628121A8000BF00BFC9
:1001D00002F01CFC514B4FF010621A60504A9A60BA
:1001E000504ADA60504A136813F4807304D14F49BF
:1001F0000B604FF4A85313604D4B1A78110703D5C9
:100200001A7842F008021A704A4B4B492A221A7097
:100210004A4A4B4B8B4204D252F8040F43F8040B6A
:10022000F8E7484B484900228B4202D243F8042B9E
:10023000FAE74649464A002352F8230041F82300D2
:1002400001336F2BF8D1434B434A802103F8011B44
:100250009342FBD1414B3D4A1A60414B8A221A70AE
:10026000A3F5805324225A70A0221A709A7992071B
:10027000FCD59A79D406FCD43A4A937903F00C035E
:10028000082B384BF9D103221A7140225A719A79FE
:100290009006FCD5334A9179324B4906FBD5324A58
:1002A000324911600221516020221A709A7902F0BD
:1002B0000C020C2AFAD12E4B2E4A1A602E4B2F4AD2
:1002C0001A6000225A60072243F8042C2C4AC3F813
:1002D0000C2D62B601F002FA144B1B68DA0705D543
:1002E000284800F0A1FF284B284A1A60284B1B78A9
:1002F0005B0609D5244C254B22689A4204D121483B
:1003000000F092FF0023236003F0A2FC02F084FBC4
:1003100002F05AFAFEE700BF0E200540308004408C
:10032000823F04000100002B10D0034014D0034092
:1003300002D0074000E00740A091FF1FF0400000FE
:10034000308CFF1FA091FF1F0497FF1F0082FF1F2B
:100350000000000000E400E05FE400E008ED00E0E1
:100360000050064000400640448004400000030165
:1003700004800440C010050014E000E0FF76010096
:1003800000002020E08EB25A1CE00340A5C3945A1E
:1003900000F00740FFFFFFFFFFFFFFFFFFFFFFFF32
:1003A000FFFFFFFFFFFFFFFFFFFFFFFFFFFFFFFF5D
:1003B000FFFFFFFFFFFFFFFFFFFFFFFFFFFFFFFF4D
:1003C000FFFFFFFFFFFFFFFFFFFFFFFFFFFFFFFF3D
:1003D000FFFFFFFFFFFFFFFFFFFFFFFFFFFFFFFF2D
:1003E000FFFFFFFFFFFFFFFFFFFFFFFFFFFFFFFF1D
:1003F000FFFFFFFFFFFFFFFFFFFFFFFFFFFFFFFF0D
:10040000FFFFFFFFFFFFFFFFFFFFFFFFDEF9FFFF23
:1004100010B5054C237833B9044B13B10448AFF33E
:1004200000800123237010BDA091FF1F0000000079
:10043000F4400000084B10B51BB108490848AFF361
:1004400000800848036803B910BD074B002BFBD0A0
:10045000BDE81040184700BF00000000A491FF1F36
:10046000F4400000A091FF1F000000000023044A98
:100470001370044A13700122034B1A70704700BFB7
:10048000AB92FF1FAA92FF1FA892FF1F704700BFE9
:10049000704700BF08B5104B1B78DBB10F4A1378CB
:1004A0000133DBB21370052B07D900220B4B1A70F6
:1004B0000B4A13780133137001E0022B05D87F211A
:1004C000084BD87800F0CEFF08BD0021054BD87846
:1004D00000F0C8FF08BD00BFA892FF1FAB92FF1F2E
:1004E000AA92FF1F548CFF1F022817D12DE9F84351
:1004F00090460E460A4C0B4D671DDFF82C9014F801
:10050000013BB34205D12B78414619F8030000F0B6
:10051000A9FF0135BC42F2D1BDE8F883704700BFA6
:10052000348CFF1F3C8CFF1F548CFF1F0022054B97
:100530001A70054BDA78054B53F83230012283F8F4
:1005400000217047A892FF1F548CFF1F083F000036
:1005500010B50446094B1B78834201D1FFF79AFF7F
:10056000074B1B78A34201D1FFF7E0FF054B1B7837
:10057000A34201D1FFF77AFF10BD00BF3A8CFF1FE5
:10058000508CFF1F398CFF1F2DE9F84F3A4D05F1B4
:100590000C0A2C460127394E14F8010B38B13946A4
:1005A00000F020FF314614F8010C00F05BFEA2457C
:1005B000F2D1072000F048FE4FF028094FF0010863
:1005C0004FF0000B00242F463E46287820B92146E4
:1005D000484600F047FF02E0214600F043FF404656
:1005E00001F066F80134802CEED133781BB95946FE
:1005F000484600F037FF01355946307800F032FFA9
:10060000AA45DFD11E4CA06C0368DB6947F61221B6
:100610009847002384F84C3084F84E3084F84D30ED
:10062000A36563654FF6FF72E265226684F8E930E0
:1006300084F8663084F8653084F8673084F8683070
:10064000032384F864300F4B63600F4A13600F4B31
:10065000E3600F4A13600F4B23600F4A13600F4B88
:1006600023630F4B63630F4BE3630F4BA3630F4A8B
:100670000F4B1A60BDE8F88F548CFF1F00504348A1
:10068000BC91FF1FFD0600000094FF1FE90400005D
:10069000FC93FF1F75070000F893FF1F95040000EF
:1006A0006D0400002D0500008D04000051050000C0
:1006B000B493FF1F08B5022811D10D4BA3FB0123F2
:1006C000DB0803EB4303A1EB8301C9B2094B5B5C7D
:1006D00063B10021084AD05C00F0C4FE08BD0428C4
:1006E00004D10021044B987800F0BCFE08BD00BF87
:1006F000ABAAAAAA448CFF1F548CFF1F38B50C4626
:10070000022817D18AB1174BA3FB0413DB0803EBB4
:100710004303A4EB8303DBB21349CB5C0BB3114659
:10072000124AD05C00F09EFE38BD00220220FFF786
:10073000C1FF38BD042814D17AB10C4D1146287878
:1007400000F090FE0A4B19782144282000F08AFE20
:100750007F21A87800F086FE38BD00220420FFF734
:10076000A9FF38BDABAAAAAA448CFF1F548CFF1F57
:10077000A992FF1F08B5FFF79DFF08BD38B50446D5
:10078000806C03681B699847002800F08681A06C84
:1007900003685B699847C3B203F0FB02F92A00F0D3
:1007A0007E81A26D002A40F0C58084F84F3094F815
:1007B0004D2012F0800F22D002F10C01C9B20129A4
:1007C0001DD902F0FB01F92919D0EF2A94BF02F0DC
:1007D000F001114601F0EF05802D07D0A02D05D0C6
:1007E000D02903D0E02901D0C02908D110F0800F12
:1007F00005D184F84F2084F850300123A36594F884
:100800004F3013F0800F72D003F10C02D2B2012AE4
:100810006DD903F0FB02F92A69D0EF2B00F2418178
:1008200003F0F002A2F180017F2960D8DFE801F037
:10083000535F5F5F5F5F5F5F5F5F5F5F5F5F5F5FD4
:10084000535F5F5F5F5F5F5F5F5F5F5F5F5F5F5FC4
:10085000535F5F5F5F5F5F5F5F5F5F5F5F5F5F5FB4
:10086000535F5F5F5F5F5F5F5F5F5F5F5F5F5F5FA4
:10087000505F5F5F5F5F5F5F5F5F5F5F5F5F5F5F97
:10088000505F5F5F5F5F5F5F5F5F5F5F5F5F5F5F87
:10089000535F5F5F5F5F5F5F5F5F5F5F5F5F5F5F74
:1008A000565053505F5F415F415F4141415F41415D
:1008B0001A4684F86620002384F8653084F867308F
:1008C00084F86830012084F8E900A365636538BDC9
:1008D00002226265F2E103226265EFE18022626535
:1008E000002284F84D20F02284F86920E6E10020FF
:1008F000A065606584F84D0038BDEF2B94BF03F010
:10090000F0021A4684F8662003F00F03013384F8DE
:10091000653094F8503084F86730002384F86830EC
:10092000A3656365012084F8E90038BD0131A16544
:10093000002038BD10F0800F39D0C0B2F738082839
:1009400035D8DFE800F0120534050505340505004B
:1009500084F86630002384F8673084F8683084F8BF
:100960006530012084F8E90038BD94F86930F02B37
:1009700017D1531C2244F72182F86910F02284F821
:10098000662084F867301B0A84F86830002384F8F6
:100990006530012084F8E900A365636584F84D3073
:1009A00038BD0020A065606584F84D0038BD94F81E
:1009B0004F10F02907D1A11881F86930636D013B10
:1009C0009A4266D30AE0A11881F84F30616D4B1E40
:1009D0009A425ED394F84F20F02A05D10020A065FA
:1009E000606584F84D0038BD12F0800F00F0628120
:1009F00002F10C03DBB2012B40F25C8102F0FB033D
:100A0000F92B00F05781EF2A94BF02F0F003134650
:100A100084F8663003F0EF00802807D0A02805D0C6
:100A2000D02B03D0E02B01D0C02B05D102F00F005A
:100A3000013084F8650002E0002084F8650094F835
:100A4000500084F8670003290CBF94F8511000216E
:100A500084F868100021A1656165012184F8E9101E
:100A6000B02B0DD006D8902B0AD0A02B08D0802B0D
:100A70000AD105E0D02B03D0E02B01D0C02B03D14D
:100A800084F84D20012038BD002384F84D3001202A
:100A900038BD0132A265002038BD002038BD0020DD
:100AA00038BDA3F180027F2A3FF621AF01A151F8A2
:100AB00022F000BFD7080000EF080000EF08000098
:100AC000EF080000EF080000EF080000EF0800004A
:100AD000EF080000EF080000EF080000EF0800003A
:100AE000EF080000EF080000EF080000EF0800002A
:100AF000EF080000D7080000EF080000EF08000032
:100B0000EF080000EF080000EF080000EF08000009
:100B1000EF080000EF080000EF080000EF080000F9
:100B2000EF080000EF080000EF080000EF080000E9
:100B3000EF080000D7080000EF080000EF080000F1
:100B4000EF080000EF080000EF080000EF080000C9
:100B5000EF080000EF080000EF080000EF080000B9
:100B6000EF080000EF080000EF080000EF080000A9
:100B7000EF080000D7080000EF080000EF080000B1
:100B8000EF080000EF080000EF080000EF08000089
:100B9000EF080000EF080000EF080000EF08000079
:100BA000EF080000EF080000EF080000EF08000069
:100BB000EF080000D1080000EF080000EF08000077
:100BC000EF080000EF080000EF080000EF08000049
:100BD000EF080000EF080000EF080000EF08000039
:100BE000EF080000EF080000EF080000EF08000029
:100BF000EF080000D1080000EF080000EF08000037
:100C0000EF080000EF080000EF080000EF08000008
:100C1000EF080000EF080000EF080000EF080000F8
:100C2000EF080000EF080000EF080000EF080000E8
:100C3000EF080000D7080000EF080000EF080000F0
:100C4000EF080000EF080000EF080000EF080000C8
:100C5000EF080000EF080000EF080000EF080000B8
:100C6000EF080000EF080000EF080000EF080000A8
:100C7000EF080000DD080000D1080000D7080000E0
:100C8000D1080000EF080000EF080000B1080000E4
:100C9000EF080000B1080000EF080000B1080000F4
:100CA000B1080000B1080000EF080000B108000022
:100CB000B1080000002384F86630BDE6A16D626DC6
:100CC000013A8A423FF632AE17E600BF08B590F807
:100CD0006630803B7F2B00F21D81DFE813F080003F
:100CE0001B011B011B011B011B011B011B011B0124
:100CF0001B011B011B011B011B011B011B018C00A4
:100D00001B011B011B011B011B011B011B011B0103
:100D10001B011B011B011B011B011B011B01CF0040
:100D20001B011B011B011B011B011B011B011B01E3
:100D30001B011B011B011B011B011B011B01B1003E
:100D40001B011B011B011B011B011B011B011B01C3
:100D50001B011B011B011B011B011B011B01E300EC
:100D60001B011B011B011B011B011B011B011B01A3
:100D70001B011B011B011B011B011B011B01DA00D5
:100D80001B011B011B011B011B011B011B011B0183
:100D90001B011B011B011B011B011B011B01BC00D3
:100DA0001B011B011B011B011B011B011B011B0163
:100DB0001B011B011B011B011B011B011B01EC0083
:100DC000FA0000010E011B011B0114011B01980018
:100DD0001B019D00A200A7001B01AC0018010368C5
:100DE000002B00F0978090F8682090F8671090F83A
:100DF0006500984708BD4368002B00F08B8090F891
:100E0000682090F8671090F86500984708BD036B5C
:100E1000002B7FD0984708BD436B002B7AD09847B2
:100E200008BD836B002B75D0984708BDC36B002BA2
:100E300070D0984708BD036C002B6BD0984708BD55
:100E4000C368002B66D090F8682090F8671090F87F
:100E50006500984708BD8269002A5BD090F8681049
:100E6000C90101F47E5190F8673003F07F03194304
:100E7000A1F5005190F86500904708BD8368002BEC
:100E800048D090F8682090F8671090F8650098476F
:100E900008BD4369002B3DD090F8671090F86500BD
:100EA000984708BD0369002B34D090F8671090F87C
:100EB0006500984708BDC26962B390F8681090F861
:100EC000673043EA0121802928BF8021693090479B
:100ED00008BD036AF3B190F86700984708BD426AFD
:100EE000C2B190F86830DB0103F47E5390F86700DC
:100EF00000F07F001843904708BD836A53B190F813
:100F00006700984708BDC36A23B1984708BD436C82
:100F100003B1984708BD00BF2DE9F0419DF8184086
:100F2000013CE4B20F2C37D84FFA81FEBEF1000F1E
:100F300032DA1F4616460D468046E0291CD8806CE2
:100F400004F00F044EEA040103681B68C9B2984715
:100F5000D8F8480003681B6806F07F01984705F041
:100F6000EF01C02918D0D8F8480003681B6807F0C3
:100F70007F019847BDE8F081F7290DD9A1F1F80369
:100F8000072B09D8DFE803F004080404040804046C
:100F9000806C03681B689847BDE8F08190F8643066
:100FA00013F0010300F0C48090F8642012F0FE0FEB
:100FB00000F0BE8070B582B0044690F8665085F0AF
:100FC0008002602A35D890F86500884200F0A2803F
:100FD00094F864305B08022B0ED0032B19D0012B40
:100FE00040F0A48094F8683094F867200090294677
:100FF0002046FFF791FF99E0002940F0978094F890
:10100000683094F86720009029462046FFF784FF57
:101010008CE0B1FA81F35B09002B40F0878094F8F3
:10102000683094F86720009029462046FFF774FF47
:101030007CE0A5F1F0030F2B78D8DFE803F0185619
:101040003E30777708770877080808770808A5F111
:10105000F803072B6AD8DFE803F004690404046985
:101060000404806C03681B68294698475EE090F88A
:10107000686090F8673043EA0623802B28BF8023FE
:1010800000F16906002B51D035461E44A06C036860
:101090001B6815F8011B9847AE42F7D146E090F85F
:1010A0006750806C03681B68F3219847A06C036845
:1010B000DB6C05F07F01984738E090F8685090F8B5
:1010C000673043EAC515806C03681B68F2219847B6
:1010D000A06C03689B6C05F07F019847A06C0368C7
:1010E0009B6CC5F3C611984720E090F867502D011E
:1010F00005F0700590F8683003F00F031D43806C15
:1011000003681B68F1219847A06C03681B68294697
:1011100098470BE094F864205208022A3FF46FAF1E
:10112000032A3FF479AF012A3FF45CAF02B070BDEF
:10113000704700BF10B5164B93F84C40102C22D8C6
:101140001846FFF71BFBF0B1114B93F86630902B5C
:1011500008D10F4B93F8683043B980220C4B83F8C9
:10116000662003E083F08003602B05D8084B93F8DA
:101170006530A34200D014B90548FFF7A7FD21460A
:101180000348FFF70BFF002001F02CF810BD00BF53
:10119000BC91FF1F38B5204C204BA364002584F878
:1011A0004C5084F84D5084F84E506565A5654FF657
:1011B000FF73E365236694F8643043F00103012272
:1011C00062F3470384F8643084F8655084F866500D
:1011D00084F8675084F8685084F8E95080222946E2
:1011E00004F1690002F05CFD25606560A560E560C2
:1011F00025616561A561E56125626562A562E562BB
:1012000025636563A563E56325646564044A054950
:10121000204602F011FD38BDBC91FF1F688CFF1FF6
:10122000308CFF1F91040000044B00221A60044917
:101230000A60044A106010221A60704714D00340FC
:1012400004D0034000D00340034618B1102828BF43
:10125000102300E00123024A10781370704700BF8A
:10126000608CFF1F2DE9F84381460E463F4930460A
:1012700002F09AFC002814BF4FF002084FF001085A
:101280003B4D47F61223002818BF1D46284602F0A2
:1012900095FA4FF05E5102F0E9FA0146304602F04D
:1012A00097FC90B901244FF05E5725FA04F002F044
:1012B00085FA394602F0DAFA0146304602F088FC37
:1012C00020B90134072CF0D100E0002425FA04F005
:1012D00002F074FA314602F07DFB4FF07C5102F0CF
:1012E000BBF902F089FC4FF6FF73984228BF1846FD
:1012F000A9F10303DBB2012B0DD81E4A00231360B2
:101300001D490B601D4B186004F0070343EAC80336
:101310001360BDE8F883B9F1170F13D8184B23FAFF
:1013200009F313F0010F0DD0164A0023136016497C
:101330000B60164B186004F0070343EAC803136000
:10134000BDE8F883B9F1200F02D0B9F1190F0BD124
:101350000F4A002313600F490B600F4B186004F015
:10136000070343EAC8031360BDE8F883001BB740D6
:10137000006CDC020090034004900340089003409E
:101380006006F000008003400480034008800340B2
:1013900000800B4004800B4008800B4021281ED8A1
:1013A0000F4B53F8303093F8802212F0FF0F08D023
:1013B00019B1012283F880207047012283F80021AF
:1013C0007047074B03EBC000436821B11A6842F035
:1013D00003021A6070471A6822F002021A6070470E
:1013E000083F000021283AD81D4B03EBC0035B687F
:1013F000012919D0042925D0194A52F8302000209B
:1014000082F8800219B94FF480721A60704702297D
:1014100003D140F203121A60704703290CBF4FF446
:10142000817200221A6070470D4A52F83020012163
:1014300082F880124FF4A2721A601A6822F0200219
:101440001A607047064A52F83020012182F8801253
:101450004FF4A2721A601A6842F020021A607047B4
:10146000083F000010B528280FD16F4B1B780B2BBD
:1014700003D8C3F10C03994003E00C2B84BF0C3B51
:101480001941084601F082FA10BD0446664B1878EF
:1014900001238340002908DC00212046FFF77EFF5E
:1014A00001212046FFF79EFF10BD0A468B4208D857
:1014B00001212046FFF772FF01212046FFF792FF2E
:1014C00010BDE31EDBB2012B06D8584B1B6803FB93
:1014D000011323FA00F210E0202C01D0192C06D1C0
:1014E000534B1B6803FB022323FA00F205E0514B28
:1014F0001B6803FB011323FA00F2E31E1D2B00F20D
:101500008780DFE803F05F6855378585232D858563
:1015100085858585858585414B0F19857B858585E5
:1015200085858571444B1A6040F2444203F5973338
:1015300003F5FA731A6010BD404B1A6040F2444242
:1015400003F5973303F5F8731A6010BD3C4B1A602E
:1015500040F2444203F5973303F5F6731A6010BD69
:10156000384B1A6040F2444203F5973303F5F473A5
:101570001A6010BD344B1A6040F2444203F59F33A9
:1015800003F5F0731A6010BD304B1A6040F244420C
:1015900003F59F3303F5EE731A6010BD2C4B1A60F0
:1015A00040F2444203F59F3303F5EC731A6010BD1B
:1015B000284B1A6040F2444203F59F3303F5EA7367
:1015C0001A6010BD244B1A604FF4517203F580333A
:1015D00020331A6010BD214B1A604FF4517203F58D
:1015E00080331C331A6010BD1D4B1A604FF45172CA
:1015F000A3F5DB23A3F5F9631A6010BD194B1A603C
:101600004FF45172A3F5DB23A3F2CC731A6010BD23
:101610007F29D4BF002101212046FFF7BFFE012111
:101620002046FFF7DFFE10BD608CFF1F08900340CF
:1016300008800B400880034010800340188003405E
:1016400020800340288003403080034038800340DE
:1016500040800340488003401090034018900340AE
:1016600010800B4018800B4072B60D4B1B680D4A62
:1016700010680D4A126862B612F0806F02D0322BE9
:1016800088BF0130C3F5BB33FF33084AA2FB0323F5
:101690004FF47A7202FB00F000EB9310704700BF2A
:1016A00018E000E0AC92FF1F04ED00E0ABAAAAAA8C
:1016B00038B50546FFF7D8FF044625B938BD013DCA
:1016C0000AD004F57A74FFF7CFFF001BB0F57A7FDC
:1016D000F5D201F081F8F6E738BD00BF10B5274B11
:1016E0004FF400021A604FF080721A604FF00072DF
:1016F0001A604FF080621A604FF000621A6000209A
:101700001F4B18604BF6FF710433196028231D4AE4
:101710001360083213600832136008321360083215
:101720001360083213600832136008321360092214
:10173000154C226004F58054043420600434216088
:101740000434236008342360143C226004F5FE2432
:10175000043420600D4801600D490B6008310B60B6
:101760000C4B1A6001F088F83220FFF7A1FF00F05F
:101770006BFC4FF4AF70FFF79BFF10BD08E100E07A
:10178000048003400C8003400080034008800B402D
:101790000C800B4000800B4010B40E4B1B7843F0C4
:1017A00002040D4A02EBC40250600C4A1278002A6F
:1017B00014BFC820882040EA0141074840F834108F
:1017C00082F0010205490A7083F00103014A137097
:1017D00010BC70472493FF1F0080FF1FA593FF1FBD
:1017E000431E042B11D872B60B4A52F8230080B165
:1017F00010B4416842F82310084931F813200488D6
:10180000121B21F8132062B601E00020704710BCC3
:10181000704762B6704700BF1093FF1FC095FF1F4F
:1018200038B572B61B4901231B4C11F8012B12F07D
:10183000080F24D09A0054F832506DB9164B03EBC0
:10184000C20108304860154943F83210144A137831
:10185000013B137062B638BD42F0010254F83250B9
:101860006DB90D4B03EBC201083048600D4943F8D8
:1018700032100B4A1378013B137062B638BD013346
:10188000062BD2D162B60022054B1A7000F042FC42
:1018900038BD00BF784000000080FF1F8800400076
:1018A0009A93FF1FC8004000431E042B39D810B480
:1018B000400140F010001B4A104472B61A4AD25C34
:1018C000032A0BD8DFE802F01B040207052217E009
:1018D0000830022214E00830042211E0134A52F8C2
:1018E00023201AB9114A42F8231003E0104A52F893
:1018F000232051600E4A42F8231062B610E0032202
:10190000094CE25401F10803436000F00803002B86
:1019100014BFC82388230A8843EA0243036062B6DF
:1019200010BC70470080FF1FC892FF1F6893FF1F05
:101930007C93FF1F2DE9F04F85B0AC4CDFF8FCA283
:10194000DFF8FCB22578EDB215F0040F1FD0A84BDC
:101950001B7813F0FF0F18D0A64B1A7802F0FF0384
:101960002AB1013BDBB2A34A137003B900BEA24BFC
:101970001A7802F0FF0332B1013BDBB29E4A1370CA
:101980000BB900F069FE00F015FC0423237015F07C
:10199000080F00F0EF829AF80030DBB21D0940F02A
:1019A0002A82964E9D0806EBC5035A6856F83530D4
:1019B000C3F38303013B0C2B00F21982DFE813F021
:1019C000D401D401170217021702170217021702D7
:1019D000F1011702170217020D00894913680B6005
:1019E00052684A60874A46F83520002286490A60D4
:1019F00082490A618A610121844A11709BB240F2D6
:101A00008162934218D8B3F5D06F2ED2B3F5817F9F
:101A100000F02D8106D8802B00F0D780822B00F0BB
:101A2000DA806FE140F20232934200F03581B3F583
:101A3000A06F00F06B8165E142F22102934200F059
:101A40008F8107D8B3F5086F00F0B980B3F5106F38
:101A500011D057E142F22122934200F04A8142F232
:101A60002132934200F052814CE1694B5D68002DB8
:101A700040F0278139E1624B9A785D4B1A705F4DD7
:101A800005F1A0062B6A13F0800F03D0686A0838AE
:101A900000F040FB0835B542F4D15E4B0093DFF80F
:101AA000A4815D4B0193DFF8A09100273E46009B87
:101AB0000293186828B1456800F02CFB2846002DD9
:101AC000F9D1029B1E600297544B43F82760CDF872
:101AD0000C80D8F8000028B1456800F01BFB2846B0
:101AE000002DF9D1039B1E60019B43F8046B019309
:101AF0004B4B029A23F8126099F80030023B032BFB
:101B000009D8DFE803F00205020589F8006002E069
:101B1000012389F800300137009B0433009308F15A
:101B2000040809F10109052FC1D100223D4B1A70AB
:101B300001253D4FDFF81491304E904619F8013BD6
:101B400007F8043B13F0080F2BD000F0C3FA03464C
:101B500040B1AA0006EB451108334B60334946F803
:101B6000321006E0AB0046F833802E4A137801337A
:101B7000137000F0AFFA024650B1AB0043F001031E
:101B800006EBC30108324A601E4A46F8332008E0DB
:101B9000AB0043F0010346F83380224A1378013347
:101BA0001370AB0043F0020246F8328043F00303A7
:101BB00046F8338001351E4B9F42BFD119E20C4BD2
:101BC0001B781C4D2B700123A5E01A4D00232B70B0
:101BD0006B7002239FE00A4B9B8803F07F03052B69
:101BE00036DD0F22144B1A70BAE000BF8020074088
:101BF000A493FF1F2593FF1F0494FF1F0080FF1F66
:101C00009093FF1FC8004000B092FF1FA593FF1FD5
:101C1000804000001093FF1F7C93FF1FB492FF1FB2
:101C2000C095FF1F9A93FF1FC42007408800400003
:101C3000D82007409C93FF1FC020074090200740FA
:101C4000942007406893FF1FC892FF1F7840000050
:101C50009D4A0021117051709C4A12F8233013F0F4
:101C6000020F56D0984D01232B70022353E0984B5E
:101C70009B8803F07F03052B02DC954A52881AB13A
:101C80000F22924B1A706BE0904911F8232022F03A
:101C9000020201F82320ACE18D4B9B8803F07F0307
:101CA000052B02DC8A4A52881AB10F22874B1A7020
:101CB00056E0864911F8232042F0020201F8232061
:101CC00097E1834B59889888824B1A888A4208D1B9
:101CD0005A88824205D1090A03290CBF2B781B8937
:101CE00019E00C335D68002DEFD10F22774B1A708D
:101CF00036E0794B1A68794B1A60754B9A78784BB5
:101D00001A7076E10F22714B1A7029E000231D46EC
:101D100001E002236C4D6E4AD6889E4228BF1E46C3
:101D20003746402E28BF402739462846FFF734FD66
:101D30003D44F61B03D13F2F00F2608110E037468F
:101D4000402E28BF402739462846FFF725FD3D4451
:101D5000F61B01D13F2F03D9624B1D60624B1E80E1
:101D600001238BF8003042E0594B198842F22103DD
:101D7000994212D15D4BD01D12F8011B03F8011FCF
:101D80008242F9D15A4B1B68862B02D10F22594B44
:101D90001A7000210846FFF7FFFC574B46F8353014
:101DA00025E0504B1F68BFB1DFF83C81B8F8005008
:101DB0002E46402D28BF402631463846FFF7ECFC22
:101DC000AD1BADB2A8F800500DB9402E01D13E4474
:101DD00000E00026434B1E603D4B1B88B3F5A06F0F
:101DE00005D13B4B00225A709B78444A1370012363
:101DF0008BF80030BBE0424E9F0806EBC708D8F8CE
:101E00000420A2F10800013DEDB213F0080F47D005
:101E100000F080F93B4B53F825304BB35968394AF1
:101E200042F8251003F10802C8F80420364A525D32
:101E3000032A12D8DFE802F002060A0E0321324A12
:101E400051550AE00221304A515506E005212E4A3B
:101E5000515502E004212C4A515518F0080F14BFC7
:101E6000C82288221B8842EA034346F837307EE0C6
:101E7000254B5B5D032B0BD8DFE803F07979020675
:101E80000022214B5A5572E001221F4B5A556EE039
:101E900018F0080F14BF032202221B4B5A5566E0AC
:101EA00056F837301B0C22F8083C002B57D0002383
:101EB00022F8063C42F8043C144B53F825303BBB57
:101EC000124B43F8250027E09C93FF1FC0200740DA
:101ED0009093FF1F80400000AC92FF1F0097FF1FF0
:101EE0001094FF1FB092FF1F9893FF1FF796FF1FDC
:101EF000F896FF1F2593FF1FC80040009820074059
:101F00000080FF1F6893FF1FC892FF1F1093FF1FE1
:101F10003E4B53F8253058603C4B43F825003C4974
:101F200031F8150032F8083C034421F8153000F070
:101F3000D1F8034658B10833C8F8043018F0080F38
:101F4000344A354B08BF134646F837300FE00023BC
:101F500046F83730314A13780133137007E018F030
:101F6000080F2C4A2C4B08BF134646F8373008237D
:101F70002370E7E415F0010F21D0294902230B70EB
:101F80000022284B1A70284B22481860274C5C60AE
:101F900098602748D8601A619A610D20254B187007
:101FA000FF23254803700838037018300270234A55
:101FB00013709F22224B1A7001230B7023E015F03F
:101FC000800F05D00D221B4B1A708022403B1A70E7
:101FD00015F0020F06D0184A1378DBB213700222F4
:101FE000184B1A7015F0100F0DD01022154B1A70E7
:101FF00009E000210846FFF7CFFBB1E600212846A3
:10200000FFF7CAFBACE605B0BDE8F08FB492FF1F46
:10201000C095FF1F88004000C80040009A93FF1F32
:10202000942007402493FF1F0080FF1FD092FF1FC2
:102030002893FF1FC0200740882007408C200740BE
:10204000842007408020074008B501F0E7F91C48CC
:1020500000F1A801034600221A605A6008338B423F
:10206000FAD1184A136843F480231360C0F307229F
:10207000154B1A70C0F3074214331A70000E043364
:102080001870FF23114A137008321370783A1370D6
:1020900001238432137000216C3211707C3A13706A
:1020A00070220B4B1A704FF40072A3F241331A6086
:1020B000102203F1C04303F5C8231A7008BD00BF06
:1020C0000080FF1F348004409C2007408020074090
:1020D00049E400E072B60D4B1A68B2FA82F31D2B88
:1020E00002D962B6002070474FF00041D94022EA81
:1020F000010206490A6062B6054903EBC303DB002F
:10210000C8180022CA504260704700BF648CFF1F8D
:10211000BC83FF1F08B50F4BC31A0F4AA2FB032352
:102120001B091D2B14D80D4A12783AB10C4A1278AB
:1021300012F0FF0F02D0FFF773FB08BD72B609491A
:102140004FF0004222FA03F30A681A430A6062B6AB
:1021500008BD00BFBC83FF1F398EE3389A93FF1F71
:10216000A493FF1F648CFF1F10B504460E4B1B6821
:102170005BB10E4A1188B1F5917F11D300220C4852
:1021800098470022094B1A800AE0084B1B88B3F5D8
:10219000917F08D2591C054A1180054AD45410BDBC
:1021A000024B1B88F6E710BDCC93FF1FCE95FF1F97
:1021B000D495FF1F08B5094B1B786BB9084B1968FC
:1021C00051B14B8843B19B000B800420FFF76CFB9F
:1021D000FFF780FF024B186008BD00BFBC93FF1FD4
:1021E000E893FF1F2DE9F04106469F4B1B68B3B9EA
:1021F0009E4B1B7813F0FF0F00F0DC810520FFF7EA
:10220000EFFA994B1860002800F0D781038833B9A2
:10221000FFF780FF0020944B1860BDE8F081924BDF
:10222000186843889A0800EB820294680433028895
:10223000934201D2438006E0FFF76CFF0520FFF7D1
:10224000CFFA894B186004F00F054FEA142808F004
:102250000F070137C4F30313854A1370A5F1080370
:10226000062B00F29D8016B1B74240F0A981C4F35D
:102270000333082D0FD1082B40F0A58180227D4B20
:102280001A707D4B1B68002B7FD0220EC4F30741D0
:10229000F8B2984779E0092D1DD1092B40F09681BD
:1022A000220E0BD09021734B1970744B1B68002BBE
:1022B0006BD0C4F30741F8B2984766E080226D4BBB
:1022C0001A706D4B1B68002B5FD00022C4F30741CE
:1022D000F8B2984759E00A2D0FD10A2B40F07981C6
:1022E000A022644B1A70664B1B68002B4DD0220E47
:1022F000C4F30741F8B2984747E00B2D0FD10B2BE1
:1023000040F06A81B0225B4B1A705E4B1B68002B59
:102310003BD0220EC4F30741F8B2984735E00C2DAC
:102320000DD10C2B40F05B81C022524B1A70564BE2
:102330001B6853B3C4F30741F8B2984725E00D2D4D
:102340000DD10D2B40F04E81D0224A4B1A704F4BCD
:102350001B68D3B1C4F30741F8B2984715E00E2DBE
:1023600040F043810E2B40F04381E022414B1A7034
:10237000474B1A684AB1C4F30641630C03F47E5319
:102380001943A1F50051F8B29047424B1F70220C3F
:10239000414B1A70240E414B1C700120BDE8F081A6
:1023A0005FFA88F3AA1E012A08D9052D40F0B280F1
:1023B000F02B40F2C280F72B00F0BF80F13B0E2BD8
:1023C00000F21981DFE813F00F0018002500170153
:1023D00017012D001701330017013F004B00820049
:1023E00017018D0098002E4B1B68002B00F08E808B
:1023F000C4F30740984789E02A4B1A68002A00F086
:102400008580C4F30640630C03F47E531843904761
:102410007CE0254B1B68002B78D0C4F3074098471D
:1024200074E0224B1B68002B70D098476EE0204B65
:102430001B680BB1984769E01E4B1B68002B65D0E9
:10244000F820984762E01C4B1B680BB198475DE091
:10245000184B1B68002B59D0FA20984756E0174BB1
:102460001B686BB3984751E0F093FF1FA493FF1FC5
:10247000D295FF1FCC95FF1FF893FF1F0094FF1FFD
:10248000D093FF1FFC93FF1FC093FF1FD493FF1F28
:10249000C493FF1FD395FF1FD095FF1FD195FF1F3A
:1024A000DC93FF1FC893FF1FF493FF1FE093FF1FF0
:1024B000A893FF1FB493FF1FD893FF1FB893FF1F6C
:1024C000534B1B6813B3FB2098471FE0514B1B680D
:1024D0000BB198471AE04E4B1B68BBB1FC209847E4
:1024E00014E04D4B1B680BB198470FE0484B1B683D
:1024F00063B1FE20984709E0484B1B680BB1984731
:1025000004E0434B1B680BB1FF209847444B83F812
:1025100000803AE7042D0DD15FFA88F0FFF724FE22
:10252000C4F30740FFF720FE200EFFF71DFE00203A
:10253000BDE8F0816A1F022A2BD85FFA88F0FFF706
:1025400013FE052D03D9C4F30740FFF70DFE072D39
:1025500002D1200EFFF708FE324B1988324A117063
:10256000080A324A107000221A80F0222C4B1A708E
:102570002F4B1B682BB101222E4898470120BDE844
:10258000F0812D4B1B68CBB32A4898470120BDE84A
:10259000F0810F2D35D1F72B3FF610AFF02B02D085
:1025A000204B1B8883B35FFA88F0FFF7DDFD002026
:1025B000BDE8F0810020BDE8F0810020BDE8F08199
:1025C0000020BDE8F0810020BDE8F0810020BDE8DA
:1025D000F0810020BDE8F0810020BDE8F0810020FE
:1025E000BDE8F0810020BDE8F0810020BDE8F08169
:1025F0000020BDE8F0810020BDE8F0810120BDE8A9
:10260000F0810020BDE8F0810020BDE8F08100BF2E
:10261000B493FF1FEC93FF1FB093FF1FAC93FF1FFA
:10262000CC95FF1FCE95FF1FD095FF1FD195FF1FA3
:10263000CC93FF1FD495FF1FE493FF1F044B5888D2
:10264000044B1B681BB11A885B88D31A1844704767
:10265000C095FF1F0C94FF1F08B50E4B1B7813F09D
:10266000FF0F16D10C4B196841B14B880B8003202A
:10267000FFF71AF90022084B1A6008BDFFF72AFD80
:10268000014618B10320FFF70FF908BD0122034BE3
:102690001A7008BD0594FF1F0894FF1F0494FF1FC4
:1026A00008B503681B68C9B2984708BD08B5036838
:1026B0001B68C9B2984708BD08B503681B68C9B252
:1026C000984708BD08B503681B68C9B2984708BD9C
:1026D00008B5084600F08CFB012008BD08B5084687
:1026E00000F086FB012008BD38B50D46084601F014
:1026F00027FB04460146284600F0CCFB204638BDA7
:1027000010B508461446114600F0C4FB204610BD23
:1027100008B500F0A7FC08BD08B5084600F03CFB72
:10272000003018BF012008BD08B5084600F012FBB4
:10273000003018BF012008BD08B50846114600F05A
:10274000A1FA08BD08B5084600F0D8FA08BD00BFD8
:1027500008B5084600F07AFA08BD00BF08B500F0D9
:1027600015FA08BD08B54B0803F1376000F5D830FD
:10277000B0FBF1F000F072F908BD00BF10B51446CF
:102780004B0803F1376000F5D830B0FBF1F000F0F2
:1027900065F9204600F0CCF910BD00BF08B500F087
:1027A00047FC08BD08B500F009FC08BD08B500F0FD
:1027B000F5FB08BD08B500F0CDFB08BD08B500F07D
:1027C000DBFB08BD704700BF08B5FDF7DDFEFEF777
:1027D000B1FC00F001F8FAE7234B1B78002B42D143
:1027E00010B50122204B1A70FFF728FF08B100F046
:1027F00003FF00F0D3FB08B1FFF7E4FF00F0EAFCB1
:1028000008B100F0F5FE00F087FD08B100F0F2FE1F
:102810000022154B1A70EFF305831BBBEFF31083F7
:1028200072B6124A106810B9E3B962B610BD104A08
:10283000127812B1B3B962B610BD01210C4A117001
:1028400042690A490A6012B10021916102E0002147
:10285000084A116003B962B6002444778368984738
:10286000034B1C7010BD70471194FF1FB495FF1FE0
:10287000B895FF1FB095FF1F60223A4B1A70E122F6
:1028800001331A70384B1B78082B10D1012203F149
:10289000804303F56C331A60132334490B6001F550
:1028A000FF2101F2FC710A60314A13601FE00A2B1C
:1028B0000DD139222F4B1A6013232C490B6001F5DF
:1028C000FF2101F2FC710A60294A13600FE00C2B12
:1028D0000CBF35223D22274B1A60122323490B607F
:1028E00001F5FF2101F2FC710A60214A1360224BBD
:1028F0001B7833B10123214A136002F500221360D3
:1029000005E000231D4A136002F5002213601C4BF2
:102910001B78012B06D880231A4A136002F5002287
:1029200013601AE0042B06D88423164A136002F5BC
:102930000022136011E0082B06D88523114A13608A
:1029400002F50022136008E0102B94BF8623872332
:102950000C4A136002F50022136001220A4B1A7020
:10296000704700BF00400740788CFF1F0CB0034049
:102970000CB00B4008B003401394FF1F20B003407D
:10298000798CFF1F24B003401294FF1F0A4A13687A
:1029900043F480531360094B1B781BB18022084B12
:1029A0001A7002E0C022064B1A7080F30C0000B2CD
:1029B000044B1880704700BF2C8004401394FF1F05
:1029C00021C00C4000C00C4008B50D4C236813F426
:1029D000802F01D0FEF7AEFF236813F4806F01D083
:1029E00000F066FB236813F4006F01D000F002FCD6
:1029F000236813F4805FE9D000F09EFCE6E700BF97
:102A00003480044008B5FFF7DFFF00BF1022014B00
:102A10001A80704700200540704700BFEFF3138312
:102A2000ABB9EFF31083ABB9EFF3058323B10F2BF1
:102A300005D9094A985C03E04FF4807000E000205B
:102A4000EFF311833BB1984228BF184670474FF00F
:102A5000FF30704700207047F0E300E0264A13681B
:102A600043F4806313600023244A1370244A1370D4
:102A7000244A1370244A1370244A1370244B1B7881
:102A800013B1152B05D008E040F21332214B1A6028
:102A900003E040F21332204B1A60204B1B78012BCD
:102AA00002D0052B05D008E04FF451721C4B1A6080
:102AB00003E04FF451721B4B1A601F2898BF20206F
:102AC000C0F34432184B1A70C0F347125A7000F02A
:102AD0001F00987204229A700221D9745A758822B4
:102AE0001A743C22DA704022104B1A704FF40052D4
:102AF000A3F229331A60704734800440A094FF1F6A
:102B00001994FF1FA894FF1FA194FF1F1894FF1F83
:102B10005C94FF1F40A0044018C004407A8CFF1F43
:102B200044A004401CC0044000A006402DE400E086
:102B3000154B9B7803F0EC0200F00303134310F0F5
:102B4000040F18BF43F010030F4A937000F00F03F7
:102B5000042B03D1937943F0400393710A4B5B79C3
:102B600003F0EF0310F0100F18BF43F01003064AF4
:102B70005371937903F0EF0310F0200F18BF43F067
:102B80001003014A9371704700A00640224B1B6856
:102B900013F4806F3FD010B5204B1B7813F0FF0F5C
:102BA00006D01E4CFFF718FE237813F0FF0FF9D163
:102BB0004FF400521A4B1A6000221A4BDA701A4B6B
:102BC0001B7813B1152B05D008E040F20312174B08
:102BD0001A6003E040F20312154B1A60154B1B7884
:102BE00003F07F03012B02D0052B05D008E040F253
:102BF0000312114B1A6003E040F203120F4B1A60EC
:102C000000230F4A13700F4A13700F4B1B680BB150
:102C100001221A7010BD7047348004401894FF1FC1
:102C200084E100E000A006405C94FF1F40A0044047
:102C300018C004407A8CFF1F44A004401CC004400C
:102C4000A094FF1F1994FF1F1494FF1F10B5044692
:102C5000094A137813F0FF0FFBD101212046FEF73C
:102C6000C1FB00212046FEF799FB044B53F83420AA
:102C7000034B1A6010BD00BF1894FF1F083F0000EF
:102C8000A494FF1F10B40C4609B140F08000174B0C
:102C90001B78984228D0164A126812F4806F21D00F
:102CA00003F07F03012B02D0052B04D006E00022A5
:102CB000104B1A6002E000220F4B1A60002C14BF68
:102CC0006023442300F07F02012A02D0052A05D0A8
:102CD00008E043F44073074A136003E043F4407391
:102CE000054A1360014B187010BC70477A8CFF1FA7
:102CF0003480044044A004401CC00440114B1B78A5
:102D000083421ED0104A126812F4806F17D013B19C
:102D1000152B04D006E000220C4B1A6002E00022C2
:102D20000B4B1A6010B1152805D008E040F21332A1
:102D3000064B1A6003E040F21332054B1A60014B58
:102D4000187070475C94FF1F3480044040A004401A
:102D500018C004400D4B1B6813F4806F13D021285A
:102D60000DD810B50A4C0B4B53F8303023600121BD
:102D7000FEF738FB236800221A70012010BD0020E6
:102D8000034B186070470020704700BF3480044038
:102D90001494FF1F083F0000114B1B6813F4806F51
:102DA0001BD0122804D140F202320E4B1A600DE003
:102DB000142804D140F202320B4B1A6006E00B4A91
:102DC000537B03F0FE03537300207047074A537B85
:102DD00043F001035373012070470020704700BF88
:102DE000348004400CA0044014C0044000A00640FD
:102DF000214B1B6813F4806F3CD02DE9F0411F4B31
:102E00001B680BB101221A7007461D4B1C78013458
:102E1000402C28BF00241B4D1B4EDFF8708017E0AC
:102E2000FFF7FCFD40280FDC337913F0800F0FD043
:102E30002B780133402B28BF002318F80320D2B28F
:102E4000F271DBB22B7003E0FF2801DDFFF7C4FC59
:102E50002B78DBB29C42E3D0FFB20C4B1F55012212
:102E60000B4B1A70E4B2064B1C70BC22064BDA7096
:102E7000BDE8F081704700BF34800440A494FF1F78
:102E8000A894FF1FA194FF1F00A006401C94FF1FE1
:102E90001894FF1F284B1B6813F4806F4AD02DE94C
:102EA000F0470646254B1B680BB101221A7006EB52
:102EB000010A564539D2DFF89480214D214FDFF8C1
:102EC000909098F800400134402C28BF00242B78C3
:102ED000DBB29C421DD1BC23FB70FFF79FFD402855
:102EE0000FDC3B7913F0800F0FD02B780133402B90
:102EF00028BF002319F80320D2B2FA71DBB22B707D
:102F000003E0FF2801DDFFF767FC2B78DBB29C4272
:102F1000E3D016F8013B09F8043001220A4B1A707D
:102F2000E4B288F80040B245CBD1BC22054BDA7040
:102F3000BDE8F087704700BF34800440A494FF1FB1
:102F4000A194FF1F00A006401894FF1FA894FF1F24
:102F50001C94FF1F074B1B7813F0FF0F08D010B510
:102F6000044CFFF739FC237813F0FF0FF9D110BDA3
:102F7000704700BF1894FF1F064B1B78DBB2064A50
:102F80001078C0B283422CBF3F3000F1FF30C01A2E
:102F9000704700BFA894FF1FA194FF1F054B18782E
:102FA000C0B2054B1B78DBB2984238BF4030C01A24
:102FB000704700BFA094FF1F1994FF1F10B4184B57
:102FC0001B78DAB2174B1B78DBB29A4217D0013369
:102FD0003F2B17D81449C85CC0B2D9B2114C21702C
:102FE00012490968C9B19A4202D3FFE7D31A01E036
:102FF0004032D31A1A2B10DC00230B700DE04FF077
:10300000FF300AE0084B1878C0B20021054B197058
:10301000064B196800230029E8D110BC704700BF97
:10302000A094FF1F1994FF1F6094FF1F1494FF1FAB
:10303000094B1A78D2B2094B1B78DBB29A4207D0FF
:103040000133402B28BF0023054AD05CC0B2704733
:103050004FF0FF30704700BFA094FF1F1994FF1F6F
:103060006094FF1F0D4B1B6813F4806F14D00C4B42
:10307000DA7802F0CB02DA7040225A74DA7842F041
:103080003402DA70074B1B78DBB2074A1370074B28
:103090001B680BB100221A70704700BF34800440D7
:1030A00000A006401994FF1FA094FF1F1494FF1F57
:1030B00070B43E4B1B7913F0300F32D072B63B4BDD
:1030C0009B7D03F0FF022BB9384BDA7940225A740A
:1030D00062B626E062B6364B1878C0B2354B1C7823
:1030E000E4B2324D344EEB79D9B2431C402B28BFA9
:1030F0000023A3421CBFF1541846531E13F0FF02D5
:10310000F1D1C3B22A4A13702C4B1B684BB1A042B9
:103110002EBF001BC4F1400400192728C4BF0122A0
:103120001A70224BDA78D2B212F0800F29D01B79B4
:1031300013F0800F25D0224B1C78E4B2214B1B7872
:10314000DBB29C4212D019481F4D01E0A3420CD0C3
:103150000133402B28BF00230179E95CC9B2C1715A
:10316000017DC9B20729F1D900E02346DBB2154938
:103170000B700E4B1B7913F0800F02D07C210B4B90
:10318000D97012F0400F0ED0084B1B7913F0400F8E
:1031900009D000220D4B1A700D4B1B6803B11A7039
:1031A0003C22024BDA7070BC704700BF00A00640A2
:1031B000A094FF1F1994FF1F6094FF1F1494FF1F1A
:1031C000A894FF1FA194FF1F1C94FF1F1894FF1FBA
:1031D000A494FF1F054B1878C0B2054B1B78DBB2D7
:1031E000984238BF4030C01A704700BF1C95FF1F7F
:1031F000B194FF1F70B43E4B1B7913F0300F32D0E7
:1032000072B63B4B9B7D03F0FF022BB9384BDA794A
:1032100040225A7462B626E062B6364B1878C0B2C5
:10322000354B1C78E4B2324D344EEB79D9B2431CA5
:10323000402B28BF0023A3421CBFF1541846531E45
:1032400013F0FF02F1D1C3B22A4A13702C4B1B6852
:103250004BB1A0422EBF001BC4F140040019272827
:10326000C4BF01221A70224BDA78D2B212F0800F5A
:1032700029D01B7913F0800F25D0224B1C78E4B2A3
:10328000214B1B78DBB29C4212D019481F4D01E044
:10329000A3420CD00133282B28BF00230179E95C1D
:1032A000C9B2C171017DC9B20729F1D900E0234635
:1032B000DBB215490B700E4B1B7913F0800F02D057
:1032C0007C210B4BD97012F0400F0ED0084B1B79AC
:1032D00013F0400F09D000220D4B1A700D4B1B68E4
:1032E00003B11A703C22024BDA7070BC704700BF09
:1032F00000B006401C95FF1FB194FF1FDC94FF1F18
:10330000AC94FF1F2495FF1F1D95FF1FB494FF1F52
:10331000B094FF1F2095FF1F054B1878C0B2054BD6
:103320001B78DBB2984238BF4030C01A704700BFEC
:103330009895FF1F2D95FF1F2E4B1B7913F0200F23
:1033400022D02C4BDB79D9B22B4B1B780133402B8D
:1033500028BF0023294A1278D2B2934204D0284AC7
:10336000D154DAB224490A70264A116861B1264A5A
:103370001278D2B293422EBF9B1AC2F140029B1820
:10338000272BC4BF01230B701A4BDB78DBB213F081
:10339000800F1CD0174A127912F0800F17D01B4AE9
:1033A0001178C9B2184A1278D2B2914203D16C2175
:1033B000104AD1700BE00132282A28BF002214499C
:1033C000895CC9B20B48C171D2B20F490A7013F0BF
:1033D000400F0ED0074B1B7913F0400F09D000228D
:1033E0000C4B1A700C4B1B6803B11A702C22014B4A
:1033F000DA70704700C006409895FF1F2D95FF1F9B
:103400005895FF1F2895FF1F9995FF1FA095FF1F37
:103410003095FF1F2C95FF1F9C95FF1F72B61D4B0B
:1034200070221A7041211C4A11700F21013A11704B
:1034300080221A701A46137813F0800FFBD000B563
:1034400085B0164B186862B6154B98429CBF00EBCE
:10345000800040000A2201A900F0D0F89DF8043055
:103460007BB908E010F8012F32B121F8022F0133A7
:103470000A2BF7D100E0002301335B00094A1370E7
:1034800005E0084921F8023F01A80123EAE705B059
:103490005DF804FB00000240070002400800024003
:1034A0007F9698005C8DFF1F70B5EFF3108272B6A7
:1034B0000C4B186898B11C4600250B4E43692360DD
:1034C0000BB19D6100E0356002B962B64577836853
:1034D0009847EFF3108272B620680028EED102B947
:1034E00062B670BDA495FF1FA895FF1F08B5FFF732
:1034F000DBFF08BD1C4B1B6823B98360C3601A4BFC
:1035000018602DE001681A6891420AD28360002297
:10351000C260D8601A680168521A1A60124B1860AB
:103520001EE09A68A2B102681968521A02609B688C
:1035300019688A42F5D28360DA68C260D860C268CE
:1035400090601A680168521A1A6002230375704766
:1035500002681968521A026000228260C360986093
:1035600002230375704700BFAC95FF1F70B5194B60
:103570001C68ECB1236823B90025164E04E02368CB
:1035800013B1013B236013E0A36803B1DD60336036
:103590002575206903681B68224629469847636899
:1035A0001BB123602046FFF7A5FF3468002CE6D14D
:1035B000EFF3108372B6084A10680021116003B956
:1035C00062B628B18468FFF795FF2046002CF9D138
:1035D00070BD00BFAC95FF1FBC95FF1F08B5034A27
:1035E000136801331360FFF7C1FF08BDAC92FF1FE2
:1035F000704700BF704700BF704700BFF0B44D1E5A
:103600002E460024B0FBF2F302FB13032746092BDE
:1036100094BF30333733DBB206F8013FB0FBF2F032
:1036200008B10134EEE70B1900225A7094420BDD09
:103630001A46002315F8010F14782C7002F80109BE
:103640000133F81A8342F5DB0846F0BC704700BF2F
:1036500080F0004002E000BF81F0004142001FBF47
:103660005FEA410392EA030F7FEA226C7FEA236C50
:103670006AD04FEA1262D2EB1363C1BFD218414045
:1036800048404140B8BF5B42192B88BF704710F0DB
:10369000004F40F4000020F07F4018BF404211F07E
:1036A000004F41F4000121F07F4118BF494292EAE6
:1036B000030F3FD0A2F1010241FA03FC10EB0C0012
:1036C000C3F1200301FA03F100F0004302D549429F
:1036D00060EB4000B0F5000F13D3B0F1807F06D34C
:1036E00040084FEA310102F10102FE2A51D2B1F144
:1036F000004F40EBC25008BF20F0010040EA030039
:103700007047490040EB000010F4000FA2F10102E5
:10371000EDD1B0FA80FCACF1080CB2EB0C0200FA6F
:103720000CF0AABF00EBC25052421843BCBFD040BD
:103730001843704792F0000F81F4000106BF80F437
:1037400000000132013BB5E74FEA41037FEA226CFA
:1037500018BF7FEA236C21D092EA030F04D092F0C5
:10376000000F08BF0846704790EA010F1CBF0020F9
:10377000704712F07F4F04D1400028BF40F0004056
:10378000704712F100723CBF00F50000704700F076
:10379000004343F0FE4040F4000070477FEA22629D
:1037A00016BF08467FEA23630146420206BF5FEA6E
:1037B000412390EA010F40F4800070474FF000036E
:1037C00004E000BF10F0004348BF40425FEA000C35
:1037D00008BF704743F0964301464FF000001CE0DD
:1037E00050EA010208BF70474FF000030AE000BF33
:1037F00050EA010208BF704711F0004302D5404271
:1038000061EB41015FEA010C02BF844601460020E2
:1038100043F0B64308BFA3F18053A3F50003BCFAFD
:103820008CF2083AA3EBC25310DB01FA02FC6344AA
:1038300000FA02FCC2F12002BCF1004F20FA02F2B1
:1038400043EB020008BF20F00100704702F12002A4
:1038500001FA02FCC2F1200250EA4C0021FA02F205
:1038600043EB020008BF20EADC7070474FF0FF0C0A
:103870001CEAD0521EBF1CEAD15392EA0C0F93EA05
:103880000C0F6FD01A4480EA010C400218BF5FEAA7
:1038900041211ED04FF0006343EA501043EA51111A
:1038A000A0FB01310CF00040B1F5000F3EBF490014
:1038B00041EAD3715B0040EA010062F17F02FD2A18
:1038C0001DD8B3F1004F40EBC25008BF20F00100FB
:1038D000704790F0000F0CF0004C08BF49024CEA12
:1038E000502040EA51207F3AC2BFD2F1FF0340EAA4
:1038F000C250704740F400004FF00003013A5DDC15
:1039000012F1190FDCBF00F000407047C2F1000255
:10391000410021FA02F1C2F1200200FA02FC5FEA42
:10392000310040F1000053EA4C0308BF20EADC708C
:10393000704792F0000F00F0004C02BF400010F4FE
:10394000000F013AF9D040EA0C0093F0000F01F0AB
:10395000004C02BF490011F4000F013BF9D041EACD
:103960000C018FE70CEAD15392EA0C0F18BF93EACF
:103970000C0F0AD030F0004C18BF31F0004CD8D1F9
:1039800080EA010000F00040704790F0000F17BF80
:1039900090F0004F084691F0000F91F0004F14D0C6
:1039A00092EA0C0F01D142020FD193EA0C0F03D11E
:1039B0004B0218BF084608D180EA010000F0004021
:1039C00040F0FE4040F40000704740F0FE4040F4FC
:1039D000400070474FF0FF0C1CEAD0521EBF1CEA9B
:1039E000D15392EA0C0F93EA0C0F69D0A2EB0302B9
:1039F00080EA010C49024FEA402037D04FF0805353
:103A000043EA111143EA10130CF000408B4238BF17
:103A10005B0042F17D024FF4000C8B4224BF5B1A25
:103A200040EA0C00B3EB510F24BFA3EB510340EA73
:103A30005C00B3EB910F24BFA3EB910340EA9C0021
:103A4000B3EBD10F24BFA3EBD10340EADC001B0191
:103A500018BF5FEA1C1CE0D1FD2A3FF650AF8B4235
:103A600040EBC25008BF20F0010070470CF0004C42
:103A70004CEA50207F32C2BFD2F1FF0340EAC2506D
:103A8000704740F400004FF00003013A37E792F02E
:103A9000000F00F0004C02BF400010F4000F013A8C
:103AA000F9D040EA0C0093F0000F01F0004C02BF87
:103AB000490011F4000F013BF9D041EA0C0195E7F0
:103AC0000CEAD15392EA0C0F08D142027FF47DAF89
:103AD00093EA0C0F7FF470AF084676E793EA0C0F79
:103AE00004D14B023FF44CAF08466EE730F0004C77
:103AF00018BF31F0004CCAD130F000427FF45CAF07
:103B000031F000437FF43CAF5FE700BF4FF0FF3C74
:103B100006E000BF4FF0010C02E000BF4FF0010CC7
:103B20004DF804CD4FEA40024FEA41037FEA226C90
:103B300018BF7FEA236C11D001B052EA530C18BFB2
:103B400090EA010F58BFB2EB030088BFC81738BF17
:103B50006FEAE17018BF40F0010070477FEA226C05
:103B600002D15FEA402C05D17FEA236CE4D15FEA01
:103B7000412CE1D05DF8040B704700BF8446084635
:103B80006146FFE70FB5FFF7C9FF002848BF10F1F6
:103B9000000F0FBD4DF808EDFFF7F4FF0CBF01203B
:103BA00000205DF808FB00BF4DF808EDFFF7EAFFC5
:103BB00034BF012000205DF808FB00BF4DF808ED80
:103BC000FFF7E0FF94BF012000205DF808FB00BF75
:103BD0004DF808EDFFF7D2FF94BF012000205DF8FB
:103BE00008FB00BF4DF808EDFFF7C8FF34BF012008
:103BF00000205DF808FB00BF42000ED2B2F1FE4F7C
:103C00000BD34FF09E03B3EB126209D44FEA0023AB
:103C100043F0004323FA02F070474FF00000704772
:103C200012F1610F01D1420202D14FF0FF30704713
:103C30004FF00000704700BF0B460146184600F0E9
:103C400001B800BF13460A460146022000F0E6B85C
:103C500070B50F4E0F4D761BB61018BF002405D05F
:103C6000013455F8043B9847A642F9D10A4E0B4D52
:103C7000761B00F031FAB61018BF002406D00134CC
:103C800055F8043B9847A642F9D170BD70BD00BFFE
:103C9000E4400000E4400000F0400000E440000088
:103CA00070B4840746D0541E002A41D0CDB20346DA
:103CB00002E0621EE4B3144603F8015B9A07F8D1F0
:103CC000032C2ED9CDB245EA05250F2C45EA054532
:103CD00019D903F110022646103E0F2E42F8105C4F
:103CE00042F80C5C42F8085C42F8045C02F11002F5
:103CF000F2D8A4F1100222F00F0204F00F041032E7
:103D0000032C13440DD91E462246043A032A46F8D2
:103D1000045BFAD8221F22F003020432134404F099
:103D200003042CB1C9B21C4403F8011BA342FBD10C
:103D300070BC704714460346C2E700BFFFFFFFFF99
:103D400090F800F06DE9024520F007016FF0000CDB
:103D500010F0070491F820F040F049804FF0000483
:103D60006FF00700D1E9002391F840F000F108005E
:103D700082FA4CF2A4FA8CF283FA4CF3A2FA8CF396
:103D80004BBBD1E9022382FA4CF200F10800A4FAFD
:103D90008CF283FA4CF3A2FA8CF3E3B9D1E9042351
:103DA00082FA4CF200F10800A4FA8CF283FA4CF388
:103DB000A2FA8CF37BB9D1E9062301F1200182FA42
:103DC0004CF200F10800A4FA8CF283FA4CF3A2FA48
:103DD0008CF3002BC6D0002A04BF04301A4612BA56
:103DE000B2FA82F2FDE8024500EBD2007047D1E959
:103DF000002304F00305C4F100004FEAC50514F0E8
:103E0000040F91F840F00CFA05F562EA05021CBFB8
:103E100063EA050362464FF00004A9E72DE9F04785
:103E2000254C2568D5F8484106468846924699466D
:103E3000C4B360681F2817DC431C76B104EB80050F
:103E40000122C5F888A0D4F8881182401143022EBF
:103E5000C4F88811C5F808911ED00230636044F898
:103E600020800020BDE8F087144B03B34FF4C870E6
:103E7000AFF300800446D0B1D5F84831002780E880
:103E80008800C5F8484138460123C4F88871C4F851
:103E90008C71002EE1D0D1E7D4F88C110A43C4F81C
:103EA0008C21DAE705F5A674C5F84841C1E74FF063
:103EB000FF30BDE8F08700BFD440000000000000E4
:103EC000024B13B1024800F005B870470000000033
:103ED000E13E0000002301461A461846FFF79EBF48
:103EE00038B5074D074C2C1BA41005D0013C55F8E4
:103EF000043D9847002CF9D1BDE8384000F0F8B8EF
:103F000000000000000000004008FE4340A0044004
:103F10004408FE4344A004400018FE4300C004408F
:103F20003000FE43309004403400FE43349004409F
:103F30001C18FE431CC004401018FE4310C004406F
:103F40000818FE4308C004400C18FE430CC004408F
:103F50000C10FE430CB004401010FE4310B004409F
:103F60001810FE4318B004401C10FE431CB004405F
:103F70001410FE4314B004400418FE4304C004406F
:103F80000010FE4300B004400008FE4300A00440BF
:103F90000408FE4304A004400C08FE430CA00440A7
:103FA0000808FE4308A004401418FE4314C004404F
:103FB0001818FE4318C004400410FE4304B0044027
:103FC0000810FE4308B004401400FE43149004405F
:103FD0004C08FE434CA004400420FE4304D004409F
:103FE0002410FE4324B004402010FE4320B00440BF
:103FF0002810FE4328B004402C10FE432CB004408F
:104000000020FE4300D004404808FE4348A004407E
:104010001000FE431090044000000000000000006B
:10402000DD26000001270000BD270000B5270000A5
:10403000AD270000A52700009D2700006527000090
:104040007D2700005D270000512700004527000064
:104050003927000029270000192700001127000038
:10406000A1260000AD260000B9260000C5260000EC
:10407000E9260000D12600001519151519FFFFFFCC
:10408000000100007C8CFF1F1200000000020000F5
:10409000A88CFF1F9500000000030000588DFF1F33
:1040A0000000000001030904908CFF1F00000000C5
:1040B00002030904408DFF1F0000000003030904F0
:1040C0005C8DFF1F000000000000000000000000E9
:1040D00000000000788DFF1FF8B500BFF8BC08BCD9
:1040E0009E467047C13E0000350400009511000057
:0440F000F8B500BF60
:1040F4000000000048494A4B4CFAF8000507090A39
:104104000B0000000400060008000000000000008E
:10411400FC000000170016191406150509040A030B
:1041240008000000FFFFFFFF204000000000000027
:10413400E8030000000000000A040100120101016C
:1041440000000040C01689040002010203010000BF
:1041540018035400650065006E0073007900640064
:10416400750069006E006F0009029500030100C02C
:1041740032080B00020202010409040000010202D9
:104184000100052400100105240101010424020694
:1041940005240600010705810310004009040100FD
:1041A400020A00000007050202400000070583021E
:1041B400400000090402000201030000072401007A
:1041C400012500062402010100062402020200095E
:1041D4002403010301020100092403020401010173
:1041E4000009050502400000000005250101010940
:1041F40005840240000000000525010103000000C1
:1042040018035400650065006E00730079002000F7
:104214004D00490044004900040309040C03000054
:10422400000000000000000000000000000000008A
:104234000000000000000000000000006490FF1F68
:10424400CC90FF1F3491FF1F00000000000000000D
:10425400000000000000000000000000000000005A
:10426400000000000000000000000000000000004A
:10427400000000000000000000000000000000003A
:10428400000000000000000000000000000000002A
:10429400000000000000000000000000000000001A
:1042A400000000000000000000000000000000000A
:1042B40000000000000000000000000000000000FA
:1042C40000000000000000000000000000000000EA
:1042D40000000000000000000000000000000000DA
:1042E40001000000000000000E33CDAB34126DE677
:1042F400ECDE05000B0000000000000000000000E0
:1043040000000000000000000000000000000000A9
:104314000000000000000000000000000000000099
:104324000000000000000000000000000000000089
:104334000000000000000000000000000000000079
:00000001FF
