:1000000000800020BD0100008D2800004528000070
:10001000452800004528000045280000452800002C
:100020004528000045280000452800008D280000D4
:100030008D28000045280000C5330000C9340000A9
:100040008D2800008D2800008D2800008D280000DC
:100050008D2800008D2800008D2800008D280000CC
:100060008D2800008D2800008D2800008D280000BC
:100070008D2800008D2800008D2800008D280000AC
:100080008D2800008D2800008D2800008D2800009C
:100090008D2800008D2800008D2800008D2800008C
:1000A0008D2800008D2800008D2800008D2800007C
:1000B0008D2800008D2800008D2800008D2800006C
:1000C0008D2800008D2800008D2800008D2800005C
:1000D0008D2800008D2800008D2800008D2800004C
:1000E0008D2800008D2800008D2800008D2800003C
:1000F0008D280000352F00008D28000061300000A1
:100100008D2800008D3100008D2800008D28000012
:100110008D2800008D2800008D2800008D2800000B
:100120008D2800008D2800008D2800008D280000FB
:100130008D2800008D2800008D2800008D280000EB
:100140008D2800008D2800008D2800008D280000DB
:100150008D2800008D2800008D2800008D280000CB
:100160008D280000E51600008D2800008D28000075
:100170008D2800008D2800008D2800008D280000AB
:100180008D2800008D2800008D2800008D2800009B
:100190008D2800008D2800008D2800008D2800008B
:1001A0008D2800008D2800008D2800008D2800007B
:1001B0008D2800008D2800008D280000564B4CF241
:1001C000205210B51A804DF628121A8000BF00BFC9
:1001D00002F060FB514B4FF010621A60504A9A6077
:1001E000504ADA60504A136813F4807304D14F49BF
:1001F0000B604FF4A85313604D4B1A78110703D5C9
:100200001A7842F008021A704A4B4B492A221A7097
:100210004A4A4B4B8B4204D252F8040F43F8040B6A
:10022000F8E7484B484900228B4202D243F8042B9E
:10023000FAE74649464A002352F8230041F82300D2
:1002400001336F2BF8D1434B434A802103F8011B44
:100250009342FBD1414B3D4A1A60414B8A221A70AE
:10026000A3F5805324225A70A0221A709A7992071B
:10027000FCD59A79D406FCD43A4A937903F00C035E
:10028000082B384BF9D103221A7140225A719A79FE
:100290009006FCD5334A9179324B4906FBD5324A58
:1002A000324911600221516020221A709A7902F0BD
:1002B0000C020C2AFAD12E4B2E4A1A602E4B2F4AD2
:1002C0001A6000225A60072243F8042C2C4AC3F813
:1002D0000C2D62B601F0F4F8144B1B68DA0705D553
:1002E000284800F0F1FE284B284A1A60284B1B785A
:1002F0005B0609D5244C254B22689A4204D121483B
:1003000000F0E2FE0023236005F056F902F0C8FA7F
:1003100002F0B4F9FEE700BF0E2005403080044033
:10032000823F04000100002B10D0034014D0034092
:1003300002D0074000E007409C91FF1F8C5A00004C
:10034000308CFF1F9C91FF1F1C97FF1F0082FF1F17
:100350000000000000E400E05FE400E008ED00E0E1
:100360000050064000400640448004400000030165
:1003700004800440C010050014E000E0FF76010096
:1003800000002020665C4B5B1CE00340A5C3945A30
:1003900000F00740FFFFFFFFFFFFFFFFFFFFFFFF32
:1003A000FFFFFFFFFFFFFFFFFFFFFFFFFFFFFFFF5D
:1003B000FFFFFFFFFFFFFFFFFFFFFFFFFFFFFFFF4D
:1003C000FFFFFFFFFFFFFFFFFFFFFFFFFFFFFFFF3D
:1003D000FFFFFFFFFFFFFFFFFFFFFFFFFFFFFFFF2D
:1003E000FFFFFFFFFFFFFFFFFFFFFFFFFFFFFFFF1D
:1003F000FFFFFFFFFFFFFFFFFFFFFFFFFFFFFFFF0D
:10040000FFFFFFFFFFFFFFFFFFFFFFFFDEF9FFFF23
:1004100010B5054C237833B9044B13B10448AFF33E
:1004200000800123237010BD9C91FF1F000000007D
:10043000905A0000084B10B51BB108490848AFF3AB
:1004400000800848036803B910BD074B002BFBD0A0
:10045000BDE81040184700BF00000000A091FF1F3A
:10046000905A00009C91FF1F000000000548064ABA
:1004700010B40023054C037001212370117010BCCF
:10048000704700BFB492FF1FA492FF1FB992FF1FD5
:10049000704700BF704700BF054B064AD978064B2E
:1004A00052F831100120002281F800011A707047C3
:1004B000508CFF1F88580000A492FF1F154B1B781B
:1004C00033B330B4144B15481A780378144D121115
:1004D000032191400133DBB24C1EA3422A7003700A
:1004E0000BDA104A137800210133137001700E4BA0
:1004F0000021D87830BC00F0F9BDB3EB610FF6DD18
:100500000A4A094B1188D878013930BC00F0EEBD99
:10051000704700BFA492FF1FAC92FF1FB992FF1F4C
:10052000BC92FF1FB492FF1F508CFF1FB692FF1F9B
:1005300010B50E4B1B788342044613D00C4B1B782E
:10054000A3420CD00B4B1B78A34207D10A4C0B489B
:100550000B4A0023012123700370117010BDFFF7B7
:100560009BFFEFE7FFF7AAFFE8E700BF3B8CFF1F09
:100570004D8CFF1F3A8CFF1FB992FF1FB492FF1FD3
:10058000A492FF1F022800D070472DE9F047124BBC
:10059000114C5B79114DDFF84CA0DFF84C908B4289
:1005A00008BF0F4B904608BF1A700E46671D14F81F
:1005B000013B9E4205D0BC4205F10105F7D1BDE8E3
:1005C000F087DAF800102B7801FB08F119F8030026
:1005D00000F08CFDEFE700BF348CFF1F488CFF1F3D
:1005E000AC92FF1FB092FF1F508CFF1FF8B5474C15
:1005F00004F10C06254601E0B5420DD015F8010BBB
:100600000028F9D0012100F007FF414915F8010C3D
:1006100000F07AFEB542F1D10C233E4F3E4D3B70C7
:10062000184600F061FE387804F07AF902460B466D
:1006300000204FF0804102F07BFF04F097FC3B78F4
:100640002880D81F04F07CF90B4602464FF0804109
:10065000002002F06DFF04F089FC304B186004E0CC
:10066000002100F043FDB44215D02078298800F025
:100670003DFD642000F0D6FE14F8010B2028EFD1D8
:100680000021282000F032FD14F8010C002100F0B8
:100690002DFDB442E9D1224C224FA06C224E0368BA
:1006A000224DDB6947F612219847214A214B224906
:1006B000DFF89CE02263032284F8642063631F4A0E
:1006C000E16300231E49A2634FF6FF701D4A84F8C0
:1006D0004C3084F84E3084F84D30A365636584F85F
:1006E000E93084F8663084F8653084F8673084F83F
:1006F00068306160144BCEF800101449E065206644
:10070000E2603A60236033602960F8BD508CFF1FBF
:1007100000504348B892FF1FB692FF1FB092FF1FD0
:10072000B891FF1F1494FF1F1094FF1FCC93FF1F5D
:10073000BD0400006D040000990400009104000055
:10074000B507000085050000B10700003105000075
:100750001894FF1F022802D0042812D07047114BB2
:10076000114AA3FB0103DB0803EB4303A1EB830165
:10077000C9B2535C002BF1D00C4A0021D05C00F0D0
:10078000B5BC10B5094C0021A07800F0AFFC607832
:10079000002100F0ABFC00212820BDE8104000F053
:1007A000A5BC00BFABAAAAAA3C8CFF1F508CFF1FA0
:1007B000FFF7D0BFF8B52E4B2E4D1F682B882E4C5F
:1007C000DB1B07FB01F67E2B26601ADC03FB011303
:1007D000002BB8BF7F3307EBE31312FB07F6DFF8FC
:1007E000ACC0DFF8ACE0B6B20228ACF80060AEF8FE
:1007F000003012D004280FD132BBBDE8F840FFF71B
:10080000A9BF1E4E03FB01F386FB03E61E44DB1764
:10081000C3EBA6133B44E0E7F8BD002AEDD0184B2C
:100820001848A3FB0143DB0803EB4303A1EB83015F
:10083000C9B2435C002BEFD0134807FB02F1C05C48
:10084000BDE8F84000F052BC0F4F3146387800F058
:100850004DFC2168282000F049FC2168787800F0E0
:1008600045FCB8782988BDE8F84000F03FBC00BFDF
:10087000B092FF1FB692FF1FA892FF1F09040281CA
:10088000ABAAAAAA3C8CFF1F508CFF1FBA92FF1F75
:10089000AE92FF1FF8B50446806C03681B69984749
:1008A00008B90020F8BDA06C03685B699847C3B223
:1008B00003F0FB02F92AF4D0A26D82B994F84D201E
:1008C00084F84F30150600F19E8040B20028C0F237
:1008D0006481002084F84D00A0656065F8BD0106C4
:1008E00069D494F84F10F02904EB020140D081F84C
:1008F0004F30616D4B1E9A4240D394F84F20F02A3E
:10090000E7D013063DD4002384F86630B02B4CD0DA
:10091000A02B4AD0D02B48D0E02B46D0C02B44D0BF
:10092000002084F86500032994F8500008BF94F86B
:10093000515084F8670018BF002500210120B02B1A
:1009400084F86850A165616584F8E90000F0B7801B
:1009500000F2AE80902B00F0B280A02B00F0AF80B0
:10096000802B00F0AC80002384F84D300120F8BDCE
:1009700081F86930636D013B9A42AAD20132A265C7
:100980008FE702F10C03DBB2012BBCD902F0FB03B1
:10099000F92BB8D0EF2A00F2FE8002F0F003802B92
:1009A00084F8663001D0902BB0D102F00F000130F6
:1009B00084F86500B7E7A3F1F701082991D801256C
:1009C00005FA01F010F4DD7F40F09680002988D10F
:1009D00094F86930F02B7FF47CAF561C2244F7204A
:1009E000370A82F8690084F8676084F8687084F8D0
:1009F000651084F84D10284684F8663084F8E95074
:100A0000A1656165F8BD02F10C01CDB2012D7FF643
:100A10005CAF02F0FB05F92D3FF457AFEF2A2ED85B
:100A200002F0F006802E2BD140B20028FFF64EAF28
:100A3000012084F84F2084F85030A065C9B2012904
:100A40007FF647AF02F0FB03F92B3FF442AFEF2AEA
:100A50005FD802F0F003B02B26D01ED9D02B04D0E3
:100A6000E02B21D0C02B7FF434AF0223636501213A
:100A7000A36D994227D90133A3650020F8BD16461E
:100A800006F0DF05902DCFD006F0BF05A02DCBD00E
:100A900006F0EF06C02EC7D017E7902B04D0A02B8E
:100AA00002D0802B7FF415AF032363650221DFE7BB
:100AB000D02B04D0E02B02D0C02B7FF454AF84F8AD
:100AC0004D200120F8BDEF2A94BF02F0F005154635
:100AD00002F00F020023013294F8501084F86520D0
:100AE000012084F8671084F8683084F86650A365A4
:100AF000636584F8E900F8BD002284F8672084F873
:100B0000682084F8652084F8663084F8E950284627
:100B1000F8BDA2F1F0030F2B3FF6DBAE01A151F8B7
:100B200023F000BF650B00006B0A0000A90A00005B
:100B30006B0A0000D3080000D3080000790B000006
:100B4000D3080000790B0000D3080000790B0000E7
:100B5000790B0000790B0000D3080000790B00002E
:100B6000790B000000218020F02384F84D1060658F
:100B700084F869307F217BE70023012084F8653009
:100B800084F8673084F8683084F86620A36563656C
:100B900084F8E900F8BD1346B6E61A4603F10C01E5
:100BA0004CE700BF90F86630803B7F2B43D8DFE8EE
:100BB00003F04742424242424242424242424242A1
:100BC00042425142424242424242424242424242F6
:100BD0004242AE4242424242424242424242424289
:100BE0004242A64242424242424242424242424281
:100BF0004242AA424242424242424242424242426D
:100C00004242814242424242424242424242424285
:100C1000424289424242424242424242424242426D
:100C200042429B405563424269426D42717579422E
:100C30007D43036A1BBB7047436C002BFBD01847F6
:100C40000368002BF7D090F8682090F8671090F8B0
:100C5000650018474368002BF5D1ECE7426A002A8B
:100C6000E9D090F8683090F86700DB0103F47E5318
:100C700000F07F0018431047836A002BDBD090F808
:100C800067001847C36A002BD9D1D4E7036B002B48
:100C9000D5D1D0E7436B002BD1D1CCE7836B002BB0
:100CA000CDD1C8E7C36B002BC9D1C4E7036C002BBF
:100CB000C5D1C0E74369002BBDD090F8671090F80C
:100CC000650018478269002AB5D090F8681090F83E
:100CD000673090F86500C90101F47E5103F07F038D
:100CE0001943A1F500511047C369002BA3D0B0F8F8
:100CF0006710802900F1690028BF80211847C36868
:100D0000002BA0D197E70369002BD6D193E7836826
:100D1000002B98D18FE700BF2DE9F0479DF82040C8
:100D2000013CE4B20F2C03D84EB2002E0D4601DB7D
:100D3000BDE8F087E0290FD9F729F9D90835EDB2D8
:100D4000012303FA05F515F0DD0FF1D0806C03687F
:100D5000BDE8F0471B6818478146806C1F46036852
:100D600046EA0401C9B21B6890469847D9F8480082
:100D7000036808F07F011B6805F0EF059847C02D58
:100D8000D6D0D9F84800036807F07F011B68BDE89A
:100D9000F047184790F86430DA0718D513F0FE0FC3
:100DA00015D070B590F8665085F08002602A82B048
:100DB00004460DD890F865608E4231D081B35B084F
:100DC000012B32D0032B00F0988002B070BD704729
:100DD000A5F1F0030F2BF8D801A252F823F000BFC1
:100DE000D30E0000B30E0000850E0000650E00005B
:100DF000CB0D0000CB0D00003F0E0000CB0D00001E
:100E00003F0E0000CB0D00003F0E00003F0E000023
:100E10003F0E0000CB0D00003F0E00003F0E000013
:100E20005B08012B01D0022BCFD194F8683094F8E5
:100E30006720009629462046FFF76EFFC5E705F1BB
:100E40000803DBB2072BC0D8012202FA03F313F028
:100E5000DD0FBAD0A06C03681B68294602B0BDE85C
:100E600070401847806C94F867500368F3211B6842
:100E70009847A06C0368DB6C05F07F0102B0BDE809
:100E800070401847806C94F86730026894F8685096
:100E90001268F22143EAC5159047A06C036805F07B
:100EA0007F019B6C9847A06C0368C5F3C6119B6CCF
:100EB000E4E7806C94F8675094F8683002682D017C
:100EC00003F00F0305F070051268F1211D439047F0
:100ED000C0E7B0F86760802E28BF802600F1690562
:100EE000002E3FF472AF2E44A06C15F8011B03686E
:100EF0001B689847B542F7D167E794F8683094F8D3
:100F0000672000962946FFF707FF5EE738B5184CC3
:100F100094F84C50102D04D90020BDE8384001F061
:100F2000E7B82046FFF7B6FC0028F5D094F8663005
:100F3000902B0FD083F08003602B0ED90C48FFF765
:100F400031FE29460A48FFF725FF0020BDE838405A
:100F500001F0CEB894F8683033B194F865309D4212
:100F6000ECD0002DEAD0ECE7802384F86630F4E77B
:100F7000B891FF1F70B5214C214A94F86430A264E7
:100F80000025012243F0010362F3470329464FF68F
:100F9000FF7604F16900802284F8643084F84C50B4
:100FA00084F84D5084F84E506565A56584F8655009
:100FB00084F8665084F8675084F8685084F8E950E3
:100FC000E665266604F020FB204625606560A56086
:100FD000E56025616561A561E56125626562A562DF
:100FE000E56225636563A563E56325646564054A79
:100FF0000549BDE8704004F0CDBA00BFB891FF1FAD
:10100000648CFF1F308CFF1F9504000010B40F4B41
:1010100053F8302092F880422CB1012369B182F854
:10102000803010BC704703EBC0035B681A6841B99D
:1010300022F002021A6010BC704782F8003110BC26
:10104000704742F003021A6010BC704788580000D5
:101050001C4A02EBC00301295B6811D004291BD094
:1010600052F83000002280F8802229B1022920D0D5
:10107000032922D01A6070474FF480721A607047BB
:1010800052F830004FF4A27280F880121A601A6889
:1010900022F020021A60704752F830104FF4A2720A
:1010A000012081F880021A601A6842F020021A605A
:1010B000704740F203121A6070474FF481721A6051
:1010C000704700BF8858000030B4054B054D064CF2
:1010D000002210211A602A602060196030BC70471D
:1010E00014D0034004D0034000D00340282838B572
:1010F0002ED0002904464FDD5F4B1B78012505FAF1
:1011000003F28A4202D8212837D938BD0338C2B247
:10111000012A3AD9202C4AD0192C48D0574A1268B3
:1011200002FB011222FA03F31D2800F29B80DFE884
:1011300000F0928B847D9999766F999999999999F4
:1011400099999968615A53994C999999999999459E
:10115000494B1B780B2B08D90C2B1CBF0C3B19419E
:101160000846BDE8384001F04FBBC3F10C0399407D
:101170000846BDE8384001F047BB2946FFF746FF67
:101180002946BDE83840FFF763BF3D4A126802FBBD
:10119000011222FA03F3C7E72128B6D80021FFF78E
:1011A00035FF20460121BDE83840FFF751BF354AE1
:1011B000126802FB011222FA03F3B5E73249334AFF
:1011C0000B604FF45173136038BD3149314A0B60E5
:1011D0004FF45173136038BD2F49304A0B6040F211
:1011E0004443136038BD2E492E4A0B6040F24443FD
:1011F000136038BD2C492D4A0B6040F24443136004
:1012000038BD2B492B4A0B6040F24443136038BD74
:1012100029492A4A0B6040F24443136038BD2849EB
:10122000284A0B6040F24443136038BD2649274AE0
:101230000B6040F24443136038BD2549254A0B60DA
:1012400040F24443136038BD2349244A0B604FF4F5
:101250005173136038BD2249224A0B604FF4517319
:10126000136038BD212C3FF650AF7F29D4BF002139
:101270000121204693E700BF5C8CFF1F08800340DC
:101280000890034008800B4010800B4048A00440A9
:1012900018800B404CA004401880034008B0044064
:1012A0001080034004B004404080034018C0044054
:1012B0003880034014C004402880034010B004402C
:1012C000208003400CB004403080034010C0044034
:1012D000488003401CC004401890034034900440F0
:1012E000109003403090044038B1102828BF1020DF
:1012F000044AC3B2107813707047024A0123107871
:10130000137070475C8CFF1F2DE9F8430E46804632
:101310003249334D304604F0F5F847F612230028E1
:101320001ABF1D464FF002094FF00109002425FAAB
:1013300004F003F0F1FE4FF05E51074603F044FF66
:101340000146304604F0F2F830B90134072CEED1F2
:10135000E80903F0E1FE07463146384603F0E8FFAE
:101360004FF07C5103F026FE04F0F4F84FF6FF72C4
:101370009042A8F1030328BF1046012B29D9B8F1E8
:10138000170F17D8174B23FA08F303F0010383F064
:10139000010223B9B8F1190F0FD0BDE8F883124B41
:1013A000124D13491A6044EAC9042A6008601C609F
:1013B000BDE8F883B8F1200FECD10E4B0E4D0F496C
:1013C000002244EAC9041A602A6008601C60BDE873
:1013D000F8830B4B0B4D0C49F2E700BF001BB740E5
:1013E000006CDC026006F0000080034004800340D3
:1013F0000880034000800B4004800B4008800B40B5
:10140000009003400490034008900340212801D835
:10141000FFF7FCBD704700BF212801D8FFF718BEB9
:10142000704700BF2DE9F843054672B6204F214BA7
:10143000214A1B683C68126862B6520102D5322B01
:1014400088BF013495B3C3F5BB331C4EDFF86490FD
:10145000DFF86480FF334FF47A72A6FB031302FBBC
:1014600004F404EB931472B6D9F800103A68D8F873
:1014700000E062B6C1F5BB33FF33A6FB03031EF0E9
:10148000806FC4EB93134FF47A7002D0322988BF77
:10149000013200FB0233B3F57A7F04D3013D05D05E
:1014A00004F57A74DFE701F0F1F8DCE7BDE8F883D2
:1014B000C092FF1F18E000E004ED00E0ABAAAAAA6A
:1014C000F8B52D4B2D49DFF8D0E0DFF8D0C02C4E19
:1014D0002C4D2D4C2D4A2E4F4FF4000018604FF02C
:1014E000807018604FF0007018604FF080601860D6
:1014F0004FF0006018600020086028234BF6FF7151
:10150000CCF80010CEF80030336013602B602360FD
:101510003B60B3629362092245F8242CC4F8D80FCB
:1015200005F57F65C7F8D41F07F5FF2707F5FA67AC
:10153000C6F8F83F2B6006F5FF26C4F8D42F05F552
:10154000FD2504F5FF24386006F2F4761148316079
:1015500005F5FF6504F5FD642B602360026001F072
:10156000E3F83220FFF75EFF00F0E4FC4FF4AF70C9
:10157000BDE8F840FFF756BF08E100E004800340F3
:1015800014800340248003402C8003401C800340CF
:101590003480034000800B400C80034008800340EF
:1015A000431E042B14D872B60A4951F8230068B1BF
:1015B00070B4094C058834F81320466841F823605C
:1015C000521B24F8132062B670BC704762B6704795
:1015D000002070472093FF1FD895FF1FF0B472B60C
:1015E0001A491B4E012311F8014B194F9A00240789
:1015F00042F0010505D556F8324064B156F8352061
:10160000BAB10133062BEED162B6124B00221A702A
:10161000F0BC00F00BBD0F4C0F4D217847F8325055
:1016200007EB431308304A1E5860227062B6F0BCC4
:1016300070470849094B0A7847F8353007EBC5036E
:101640000830013A58600A7062B6F0E7F8590000B5
:101650000080FF1FA993FF1F88004000C8004000C2
:10166000431E042B1DD81B4A400140F0100030B42B
:10167000104472B6184CE25C032A1BD8DFE802F073
:101680000212151703220D88E25410F0080F14BF40
:10169000C823882343EA054308310360416062B6EA
:1016A00030BC704708300222EDE70522EBE7083036
:1016B0000422E8E7094A52F8230038B1084A52F8F0
:1016C0002300416042F8231062B6E9E742F8231094
:1016D000034AF7E70080FF1FB893FF1F7893FF1FAF
:1016E0008C93FF1F2DE9F04FDFF80CA3DFF80CB34C
:1016F00087B044E0AB4F4FEA930807EBC809013EBF
:10170000D9F8042003F00803F6B2A2F1080003F0B0
:10171000FF04002B40F0028157F838301B0C99B2BF
:1017200022F8081C002B00F0F0809F4B22F8064C9A
:1017300042F8044C53F82620002A00F02B829B4DDF
:1017400055F8263058609A4C45F8260034F8163083
:10175000194424F8161000F049FC002800F0138208
:10176000944A954B19F0080F00F1080018BF134672
:10177000C9F8040047F8383008238AF800309AF88E
:101780000040E4B261071CD58C4B1B78B3B18C4987
:101790000A7802F0FF0322B1013BDBB20B7003B900
:1017A00000BE88490A7802F0FF032AB1013BDBB290
:1017B0000B70002B00F0BD8100F082FC04238AF83E
:1017C000003004F0080303F0FF02002B00F0CA8091
:1017D0009BF80030DBB21E098CD19C08DFF8C49165
:1017E00059F8342009EBC401C2F38302013A496875
:1017F0000C2A00F28680DFE802F07A7A84848484FE
:10180000848444848484070008686F4D694F4A6863
:101810006E4B49F8347081B26D4E6A6040F281645B
:1018200000222860A1424FF0010001931A60C9F81C
:101830001020C9F81820307000F2E280B1F5D06FA6
:1018400080F0FD82B1F5817F00F0DB8100F2BE8186
:10185000802900F00D83822940F0D981A98801F008
:101860007F01052900F2D3815A4F5B4C89000F4458
:10187000227062703A78970740F119832070022035
:1018800006E2524B01931A6832B3544B504E5449FE
:10189000188834780D784028074645F0020C28BF98
:1018A0004027002C84F001043470A0EB07000CBF2B
:1018B0008824C82409EBCC0680B285F0010544EAEF
:1018C00007447260188049F83C403A440D70002883
:1018D00000F0B780019B1A603B4B1A88B2F5A06FED
:1018E0000FD100219A7859703E4B1A7009E0364AA0
:1018F000108842F22102904200F0A7802D4A49F858
:101900003420394A0123137036E72A4A2A4B19F04A
:10191000080F18BF134647F838302DE700F086FB54
:10192000324A334952F82630002B00F0378158688C
:101930008C5D42F8260003F10802C9F80420032C4C
:1019400005D8DFE804F02C02292602228A551A88DD
:1019500019F0080F0CBF8823C82343EA024347F855
:10196000383009E7E00700F1E780210600F1248123
:10197000A20706D51F4A204913780220DBB2137054
:101980000870E30602D51C4B10221A7007B0BDE8A0
:10199000F08F04228A55DAE705228A55D7E7032219
:1019A0008A55D4E70080FF1F2093FF1FC892FF1FB6
:1019B000D895FF1FC800400088004000B493FF1F67
:1019C0003593FF1F1C94FF1FA093FF1FC492FF1F9E
:1019D0003493FF1FC0200740AC93FF1FDC92FF1F12
:1019E000A893FF1F98200740942007407893FF1F7B
:1019F000B893FF1F882007408020074090200740B1
:101A000042F22104A14200F0908042D8B1F5086F63
:101A100000F03A81B1F5106F40F0F980AA4AAB4C62
:101A2000A978117004F1A00503E00834AC4200F07D
:101A30007B81236A1A06F8D5606A083800F0F6FA46
:101A4000F3E7402F18BF002244E7A14ACD1D11F84B
:101A5000013B02F8013FA942F9D19E4A1268862A49
:101A600000F00E819C499D4E0A78307882F0010585
:101A7000002842F002020D700CBF8821C82149F8ED
:101A8000321009EBC20280F0010000213070516079
:101A900034E742F22124A14240F0F781904B914F6C
:101AA0009149AC781D683D6080460C700020029022
:101AB00084468646044688490D7845F0020709EBBE
:101AC000C703B8F1000F5C600CBF8824C82444EA47
:101AD0000C0385F0010449F8373032700C707B4FED
:101AE0007E4BDFF8F4C1002840F09880BEF1400F33
:101AF0001BD144F0020409EBC403029FDFF8CCE1E0
:101B00005F60002A40F09F80020442F08802074490
:101B10004EF8342086F800800D703B46402804D1F2
:101B20000020724A019910800B60714A01231370E2
:101B3000E7E600F009FD3FE6644B6D4866491A612F
:101B40004FF0020E80F800E06A4F0A706A4919608F
:101B500099606A4E6A4D6B4C9A610D213970FF2174
:101B60003170DFF8C0E129702270674D674A8EF846
:101B700000109F27012406F8047C5D600470DA6081
:101B800007B0BDE8F08F624A47F838001378013398
:101B90001370F1E543F826005E4DD4E58B5D032B11
:101BA00067D801A252F823F07917000079170000D6
:101BB000FD1B0000F71B00004E49514B80220D20F9
:101BC00008701A70A2077FF5DCAED3E640F202324D
:101BD000914240F05281A98801F07F01052916D871
:101BE0006A88A2B9434C89000C448046217841F0B0
:101BF000020121705AE701238B55BDE500238B5567
:101C0000BAE5A98801F07F01052940F24381394BEB
:101C10000F221A70364A0123137072E640287FF6AD
:101C200068AF44F0020407EBC401029E4E60AAB103
:101C3000394A83F80080334640388CF800504033EE
:101C400047F834206DE70204029B86F8008042F0DA
:101C5000C8020D7003444EF834205FE783F800801B
:101C6000029B254A8CF800504038403347F8342016
:101C700057E719F0080F0CBF022303238B557BE5B0
:101C8000264A0F211170EDE60F4A254C127822707A
:101C9000EA88824280F020810F490D78402A45F081
:101CA0000207964609EBC70028BF4FF0400E04EB31
:101CB0000E0344600293CEEB02004FEA0E4C4FF04D
:101CC00001080022C82402E7B493FF1F0080FF1F11
:101CD0000F97FF1F1097FF1FA893FF1F3493FF1F3D
:101CE000C092FF1F1897FF1F2894FF1FDC92FF1F51
:101CF00094200740C020074088004000882007400B
:101D00008020074098200740E092FF1F3893FF1F74
:101D1000A993FF1FC892FF1FC80040003593FF1F03
:101D2000AC93FF1F8C2007407349744B744A029197
:101D30007449754D754C0394059604954FF0000851
:101D40001C460E461546206828B1476800F06EF91B
:101D50003846002FF9D100232360049B28681A46D7
:101D6000002342F8283028B1476800F05FF9384670
:101D7000002FF9D100222A60029A337811460022FE
:101D800041F8042B039A0291023B4FF0000122F824
:101D90001810032B06D8DFE803F0320232024FF0AE
:101DA0000103337008F10108B8F1050F04F10404D0
:101DB00005F1040506F10106C5D1554B059EDFF876
:101DC0007081544F00221A70012517F8013B08F862
:101DD000043B1B0717D4AC0044F0020244F0030498
:101DE000002349F8323049F834304B4B984505F11F
:101DF0000105EAD196F8008088F0010256E64FF01E
:101E000000033370CEE700F0F1F8AC0009EB4513A6
:101E100000F10802002856D05A60404B49F834308F
:101E200000F0E4F844F0010309EBC30200F10801FB
:101E300000283ED051603A4A49F83320CCE7394A6D
:101E40005468002C3FF4E3AE6888AF8804E00C329D
:101E50005468002C3FF4DBAE13888342F7D15388DB
:101E6000BB42F4D1000A03280CBF207810890FE789
:101E70002D4C0220227062700AE7B1F5A06F7FF44A
:101E8000C6AE00224FF0010810E642F22132914224
:101E9000F7D0BCE66A88002A7FF4B9AE234C8900EB
:101EA0000C448046217821F002012170FEE50220D9
:101EB000EEE6174B44F001021B7849F83200144A51
:101EC0000133137088E7124B114A1B78AC000133C1
:101ED00049F834001370A3E74028864628BF4FF026
:101EE000400E04EB0E03CEEB00004FEA0E4C0293C3
:101EF00000224FF00108DEE58C93FF1F2093FF1FA7
:101F00007893FF1FB893FF1FC892FF1FD895FF1F3C
:101F1000A993FF1FF8590000D8200740880040000F
:101F2000C8004000005A0000AC93FF1FC0200740CB
:101F3000C42007402DE9F843204C01F093F900221A
:101F400004F1A80023461A605A60083383424FF018
:101F50000001F8D11A4A1B4F13681B4D1B481C4E39
:101F6000DFF87880DFF878C0DFF87890DFF878E085
:101F700043F480231360C4F307233B70C4F3074387
:101F80002B70240EFF2302F528320470114D88F8BF
:101F9000003011488CF80030D4323370012389F8B6
:101FA000003070268EF800104FF40074102107F8EE
:101FB000183C2E7004601170BDE8F8830080FF1F8C
:101FC000348004409C200740B0200740B4200740E4
:101FD0001020074049E400E008E100E080200740CD
:101FE00088200740942007400021074072B60D4822
:101FF0000268B2FA82F31D2B10DC4FF00041D94089
:1020000022EA0102026062B6074803EBC303DB0069
:10201000C2180021C15010465160704762B60020BE
:10202000704700BF608CFF1FBC83FF1F0D4B0E4A23
:10203000C31AA2FB03231B091D2B0CD80B4A1278D1
:1020400052B972B60A484FF00041026821FA03F310
:102050001A43026062B67047064A1278002AF0D02E
:10206000FFF7BCBABC83FF1F398EE338A993FF1F6B
:10207000608CFF1FB493FF1F38B50E4B0E4C1B68CE
:10208000218805468BB1B1F5917F05D20B4A4B1CD7
:1020900055549BB2238038BD002208489847002140
:1020A000064A55540123238038BDB1F5917FEDD305
:1020B00038BD00BFE493FF1FE695FF1FEC95FF1F9F
:1020C000094B1B787BB910B5084C216809B14B88C6
:1020D00003B910BD9B000B800420FFF7C1FAFFF786
:1020E00085FF206010BD7047D493FF1F0094FF1F31
:1020F0002DE9F041AD4E33680746002B00F0928089
:102100001D885A88910803EB81010432AA428C6829
:1021100042D25A8004F00F064FEA1428A449A6F1CF
:10212000080208F00F00C4F30313062A00F10105AA
:102130000B701AD9B31E012B5FFA88F04ED9052E09
:1021400048D0042E00F0A481731F022B7FD90F2EDC
:102150000ED1F72842D8F02802D0964B1B883BB10D
:10216000FFF78AFF0020BDE8F08127B1BD4202D011
:102170000020BDE8F081082EC4F3033300F087800F
:10218000092E11D00A2E40F094800A2BF0D18A4BF0
:102190008A4A1B68A02181E01846FFF747FF052007
:1021A000FFF7FEF93060B5E7092BE1D1270E00F00B
:1021B0007B81834B814A1B689021C4F307461170D1
:1021C000EDB2FCB2002B00F09D802246314628463D
:1021D000984797E0F02843D9F72841D0F1380E28E6
:1021E000C6D801A353F820F09F23000083230000EA
:1021F00071230000712100007121000063230000A1
:102200007121000043240000712100000D24000012
:10221000272400004B23000071210000332300001D
:1022200017230000674B1B78002BA1D00520FFF778
:10223000B7F90346306000289AD00588002D7FF456
:1022400060AFFFF7F3FE35602846BDE8F081FFF789
:1022500013FFC4F30740FFF70FFF072E02D1200E34
:10226000FFF70AFF534B584A198858481468584DCD
:10227000524A017000270E0AF0201F802E70107045
:102280000CB301225348A0470120BDE8F081082B80
:102290007FF46EAF504B494A1B688021C4F3074658
:1022A0001170EDB2240E6BB3284622463146984792
:1022B00028E00B2E11D10B2B7FF45AAF474B3F4A2E
:1022C0001B68B021EAE7464B1B68002B00F0FB803F
:1022D000404898470120BDE8F0810C2E40F0008175
:1022E0000C2B7FF445AF3F4B344A1B68C021117063
:1022F000EDB2C4F30746002B00F0C88028463146F3
:10230000240E98473849314A314B0D7016701C70B5
:102310000120BDE8F081354B1B68002B00F0D68012
:102320009847C4F30746254BEDB2240E83F800808E
:10233000E8E72F4B1B68002BF2D12E4B1B68A3B193
:10234000FE209847C4F30746EDE72B4B1B68002B94
:10235000E6D1284B1B6843B1FC209847C4F30746DD
:10236000E1E7264B1B68002BDAD1C4F30746DAE716
:10237000234B1B68C4F30746002BD4D03046984744
:10238000D1E7204B1A68002AEFD0260C630C06F028
:102390007F0003F47E531843F6B29047C3E71A4B0D
:1023A0001B68C4F30746002BE8D1BCE70894FF1F65
:1023B000EA95FF1FE695FF1FE893FF1FE495FF1FB7
:1023C0001894FF1FB493FF1FE493FF1FE895FF1FAE
:1023D000E995FF1FEC95FF1F1094FF1F1494FF1F3A
:1023E000FC93FF1FD893FF1FEB95FF1FC493FF1FA4
:1023F000C893FF1FCC93FF1F0494FF1FF893FF1F88
:102400000C94FF1FE093FF1FF493FF1F3F4B1B68CB
:10241000002B85D13E4B1B68002BA6D0FA20984795
:10242000C4F307467FE73B4B1B68002B7FF478AF74
:10243000374B1B68002B98D0FB209847C4F3074606
:1024400071E7354B1B68002B7FF46AAF304B1B687C
:10245000002B8AD0F8209847C4F3074663E70E2B79
:102460007FF486AE2D4A2E4B1268E0211970002AA7
:1024700047D0260C610C06F07F0301F47E5119430E
:10248000EDB2A1F5005128469047F6B2240E39E787
:10249000FFF7F2FDC4F30740FFF7EEFD200EFFF754
:1024A000EBFD0020BDE8F0811E4B1D4A1B6880211A
:1024B0001170EDB2C4F3074683B1314628463A465F
:1024C00098473C461EE70120BDE8F081104B1B6891
:1024D000002B3FF44AAFFF20984746E71C4611E720
:1024E0000D2EBCD10D2B7FF443AE0F4B0C4A1B6855
:1024F000D0211170EDB2C4F30746002B7FF4FEAE7D
:10250000C4E7C4F30746EDB2240EFBE6F093FF1FC9
:10251000CC93FF1FD093FF1FC093FF1FDC93FF1FBF
:10252000E495FF1F1094FF1FEC93FF1F044B054A17
:102530001B6850881BB11A885B88D31A18447047EF
:102540002494FF1FD895FF1F38B50E4B1B7873B925
:102550000D4C216861B103F0FF054B880B8003200F
:10256000FFF77EF8256038BD084B01221A7038BD90
:10257000FFF73CFD0028F7D00146BDE838400320B6
:10258000FFF76EB81D94FF1F2094FF1F1C94FF1FC0
:102590000368C9B21B6818470368C9B21B681847AB
:1025A0000368C9B21B6818470368C9B21B6818479B
:1025B00008B5084600F0B0FB012008BD08B5084684
:1025C00000F0AAFB012008BD38B508460D4603F00F
:1025D00077F804460146284600F0A8FB204638BD9F
:1025E00010B508461446114600F0A0FB204610BD69
:1025F00000F07ABC08B5084600F066FB003018BF52
:10260000012008BD08B5084600F03CFB003018BFAB
:10261000012008BD0846114600F0D0BA084600F077
:1026200007BB00BF084600F0ADBA00BF00F04CBACF
:102630004B0803F1376000F5D830B0FBF1F000F043
:10264000A1B900BF10B54B0803F13760144600F57F
:10265000D830B0FBF1F000F095F92046BDE810400D
:1026600000F006BA00F028BC00F0F2BB00F0E0BBBE
:1026700000F0C0BB00F0CABB704700BF08B5FDF753
:10268000B5FFFEF743FC00F001F8FAE738B5224C3D
:10269000237803B138BD01232370FFF747FF70BBD8
:1026A00000F0C6FB40BB00F0CBFC10BB00F05EFDB1
:1026B000E0B900232370EFF30583002BEAD1EFF399
:1026C000108172B6154B1868E0B1154C2278CAB962
:1026D00045691D6001232370C5B1AA6101B962B6C5
:1026E00000254577836898472570D3E700F0F6FE0C
:1026F000DFE700F0F1FED9E7FFF7BEFFD3E700F018
:10270000EFFECDE70029C5D162B638BD054B1D608F
:102710000029E5D1E3E700BF2994FF1FCC95FF1FF7
:10272000D095FF1FC895FF1F30B42948294A2A4B6E
:102730002A4D6024E121047011701B78284C082B6D
:1027400030D00A2B2748284937D00C2B0CBF352214
:102750003D2212232A60236002600B60234B244930
:102760001B78244ABBB101230B601360224B234921
:102770001B78234A012B26D9042B0FD9082B1ED9ED
:10278000102B94BF862387230B6013601D4B0122FF
:102790001A7030BC70470B601360E7E784230B604E
:1027A0001360F3E700F58E200F4908300122132350
:1027B0002A60236002600B60D0E73922F7E78523A7
:1027C0000B601360E2E780230B601360DEE700BF5D
:1027D0000040074001400740748CFF1F08B00340D1
:1027E0000CB0034008B00B400CB00B402B94FF1F03
:1027F00020B0034020B00B40758CFF1F24B0034075
:1028000024B00B402A94FF1F0A4A0B49136843F473
:10281000805313600B7843B1084B80221A7080F309
:102820000C00074B00B218807047044BC0221A708E
:10283000F5E700BF2C8004402B94FF1F21C00C4003
:1028400000C00C4008B5104C08E0236859050DD4B1
:1028500023681A050FD42368DB0411D423685803B6
:10286000F3D5FEF73FFF23685905F1D500F062FB71
:1028700023681A05EFD500F0F3FB2368DB04EDD5E0
:1028800000F084FCEAE700BF3480044008B5FFF79D
:10289000D9FF00BF014B10221A807047002005406D
:1028A000704700BFEFF3138070B9EFF310836BB97B
:1028B000EFF305825AB94FF48070EFF311832BB117
:1028C000984228BF184670474FF0FF3070470F2AD4
:1028D00001D81846F1E7014BD05CEEE7F0E300E0E9
:1028E0002DE9F84F214B1B6807460BB101221A70E6
:1028F000DFF888901E4D99F80040DFF884801D4E67
:1029000001343F2C8ABF4FF0000A5FFA84FA544624
:10291000AB462B78A34216D1FFF7C4FF40281FDC3B
:1029200033791B06F5D59BF8003001333F2B86BF6A
:1029300000221346DAB218F80330DBB2F3712A70C2
:102940002B78A342E8D00C490A4BFFB208F8047078
:102950000120BC22087089F800A0DA70BDE8F88F69
:10296000FF28D6DDFFF792FED3E700BFBC94FF1F20
:10297000B994FF1F00A00640B894FF1FC094FF1F2A
:102980003494FF1F2B4A2C491368F0B543F480633D
:1029900013600A78294F2A4E2A4D2B4C2B490023CD
:1029A0003B7033702B7023700B70002A3DD0152ABA
:1029B00021D0274B1B78012B25D0052B30D01F2889
:1029C00027D8002002460125224B234C1A702349A8
:1029D0005D7004224FF0020E88273C264025987235
:1029E0009A704FF4005083F813E05A751F74DE702C
:1029F00025700860F0BD1A4B40F213321A60144B78
:102A00001B78012BD9D1174B4FF451721F281A6034
:102A1000D7D9C0F34432C0F3471500F01F00D3E705
:102A2000114B4FF451721A60C9E7104B40F2133248
:102A30001A60BEE7348004407494FF1F3094FF1F77
:102A40003194FF1FC094FF1FB994FF1FB894FF1F5C
:102A5000768CFF1F00A006402DE400E004E100E0BA
:102A600018C0044044A004401CC0044040A00440DE
:102A7000144B14499B7803F0EC0200F0030313435A
:102A8000420700F00F0248BF43F01003042A8B7086
:102A900013D00C4B0B4A5B79C10603F0EF0348BF20
:102AA00043F0100353719379820603F0EF03054A54
:102AB00048BF43F01003937170478B7943F0400394
:102AC0008B71E6E700A00640214B1B685B053ED5F5
:102AD00010B5204C237823B1FFF7D8FD2378002BC5
:102AE000FAD11D481D4A1E4B4FF4005400210460CA
:102AF000D1701B78E3B1152B03D11A4B40F20312AE
:102B00001A60194B1B7803F07F03012B1AD0052B99
:102B100003D1164B40F203121A60154B15481649A3
:102B20001A68002303700B700AB10123137010BDE3
:102B3000124B40F203121A600B4B1B7803F07F0319
:102B4000012BE4D10E4B40F203121A60E5E7704707
:102B500034800440B894FF1F84E100E000A00640E8
:102B60007494FF1F18C00440768CFF1F1CC00440E3
:102B70002C94FF1F3094FF1F3194FF1F40A004408E
:102B800044A004400A4A38B50546137803F0FF0410
:102B9000002BFAD101212846FEF73EFC21462846AB
:102BA000FEF734FC034A044B52F835201A6038BD56
:102BB000B894FF1F88580000BC94FF1F09B140F073
:102BC0008000174A1378984216D010B4154C246828
:102BD00064050FD503F07F03012B1CD0052B11D00A
:102BE000002900F07F0114BF6023442301290DD088
:102BF000052902D0107010BC70470B4943F4407394
:102C00000B60F7E7084B00241C60E9E7074943F431
:102C100040730B60EEE7054B00241C60E0E700BF4B
:102C2000768CFF1F348004401CC0044044A0044044
:102C3000104B1A7882420AD00F490968490505D518
:102C4000AAB1152A09D068B1152801D018707047AB
:102C50000A4A40F213311160F8E7084A0021116076
:102C60000028F1D1064A40F213311160EEE7044921
:102C70000A60E8E77494FF1F3480044018C00440E1
:102C800040A004400D4B1B6813F4806305D021283D
:102C900005D90B4B00201860704718467047094B48
:102CA00010B5074C53F8303023600121FEF7B4FB18
:102CB000236800221A70012010BD00BF3480044038
:102CC0002C94FF1F885800000F4B1B6813F480637F
:102CD00008D0122808D0142811D00C4A537B03F0D6
:102CE000FE03537300207047094B40F202321A6012
:102CF000064A537B43F00103537301207047054B91
:102D000040F202321A60F3E73480044000A006402B
:102D10000CA0044014C00440034B1B685B0501D5A4
:102D2000FFF7DEBD704700BF348004402DE9F84F47
:102D3000294B1B685A0548D5284B1B6805460BB123
:102D400001221A7005EB010A554540D2DFF89C803C
:102D5000234CDFF89C90234F0AE015F8012B09F86B
:102D60000B20214A0123AA45137088F800602ED059
:102D700098F80030227803F1010BBBF13F0F86BFBA
:102D80000026B3465FFA8BF69345E6D1BC22FA7073
:102D900005E03A7913060BD422789345DDD1FFF78D
:102DA00081FD4028F5DDFF28F6DDFFF76FFCF3E736
:102DB000227801323F2A86BF00210A46D1B219F893
:102DC0000220D2B2FA712170E6E7BDE8F88F054B18
:102DD000BC22DA70BDE8F88F34800440BC94FF1F39
:102DE000B994FF1F00A00640B894FF1FC094FF1FB6
:102DF0003494FF1F10B5044C237823B1FFF746FC31
:102E00002378002BFAD110BDB894FF1F064A074B58
:102E10001B781078DBB2C0B283422CBF3F3000F188
:102E2000FF30C01A704700BFB994FF1FC094FF1F46
:102E3000054A064B10781B78C0B2DBB2984238BF07
:102E40004030C01A704700BF3094FF1F3194FF1FFD
:102E500030B4154B154C1A782378D2B2DBB29A42B3
:102E60001ED001333F2B0ED91149124B0878196837
:102E70000023C0B2237021B1D31A1A2B01DC002326
:102E80000B7030BC70470A480A49C05C0968DDB263
:102E9000C0B225700029F4D09A4238BF4032EBE727
:102EA0004FF0FF30EDE700BF3094FF1F3194FF1F5C
:102EB0007894FF1F2C94FF1F084A094B12781B7847
:102EC000DBB29A4207D00133402B28BF0023054ACA
:102ED000D05CC0B270474FF0FF3070473094FF1F96
:102EE0003194FF1F7894FF1F0D4B1B685B0516D5AF
:102EF00030B40C4B0C4CDA780C480D4902F0CB0284
:102F00004025DA705D74DA7842F03402DA702378A2
:102F10000268DBB20B700AB10023137030BC70473B
:102F20003480044000A006403194FF1F2C94FF1F02
:102F30003094FF1FF0B4384B1A7912F0300F2CD0B8
:102F400072B6997D01F0FF0200293DD062B6334F81
:102F5000334938780D78334E1C46C0B2EDB2431C6D
:102F6000402BE17928BF0023AB4202F1FF32C9B206
:102F70001CBFF154184612F0FF02F0D12A4B1B6817
:102F8000C2B23A704BB1A84236BFC5F14005401BF2
:102F900040192728C4BF01221A701F49CA78D2B22B
:102FA000150616D452060DD51B4B1B795B0609D5A9
:102FB0001E4B1F491B6800220A7003B11A70164B82
:102FC0003C22DA70F0BC70474022D9795A7462B65C
:102FD000E3E70B791C06E5D5164B174E1C783378C2
:102FE000E4B2DBB29C420ED0144D01E0A3420AD001
:102FF0000133402B28BF00230879E85CC0B2C871B8
:10300000087D0728F2D9DBB2034933700B79180623
:1030100044BF7C23CB70C5E700A006403094FF1F5F
:103020003194FF1F7894FF1F2C94FF1FBC94FF1F47
:10303000B894FF1FC094FF1FB994FF1F3494FF1F63
:10304000054A064B10781B78C0B2DBB2984238BFF5
:103050004030C01A704700BF3495FF1FC994FF1F4E
:10306000F0B4384B1A7912F0300F2CD072B6997D2B
:1030700001F0FF0200293DD062B6334F3349387862
:103080000D78334E1C46C0B2EDB2431C402BE179A3
:1030900028BF0023AB4202F1FF32C9B21CBFF1547A
:1030A000184612F0FF02F0D12A4B1B68C2B23A70E8
:1030B0004BB1A84236BFC5F14005401B4019272837
:1030C000C4BF01221A701F49CA78D2B2150616D49D
:1030D00052060DD51B4B1B795B0609D51E4B1F49AC
:1030E0001B6800220A7003B11A70164B3C22DA707A
:1030F000F0BC70474022D9795A7462B6E3E70B7985
:103100001C06E5D5164B174E1C783378E4B2DBB2BB
:103110009C420ED0144D01E0A3420AD00133282B6B
:1031200028BF00230879E85CC0B2C871087D072871
:10313000F2D9DBB2034933700B79180644BF7C2304
:10314000CB70C5E700B006403495FF1FC994FF1F40
:10315000F494FF1FC494FF1F3895FF1FC894FF1FEE
:103160003C95FF1F3595FF1FCC94FF1F054A064B6A
:1031700010781B78C0B2DBB2984238BF4030C01A1A
:10318000704700BF4495FF1F4595FF1F30B42B4B80
:103190001A7994061FD52A48DA7903782949013328
:1031A0003F2B0978C8BF00238B42D2B203D0264CF4
:1031B000D9B2E2540170254A116861B1244A1278EB
:1031C000D2B2934236BFC2F140029B1A9B18272B02
:1031D000C4BF01230B70194AD378DBB2180611D48F
:1031E0005A060DD5154B1B795B0609D5194B1A49A3
:1031F0001B6800220A7003B11A70104B2C22DA707F
:1032000030BC704711790906EAD5144910480C788A
:103210000178C9B28C420DD04A1C272A84BF0021F4
:103220000A460F4D054C98BFD1B2AA5CD2B2E271EA
:103230000170D5E76C21D170D2E700BF00C0064015
:103240004495FF1F4595FF1F7095FF1F4095FF1F79
:10325000B195FF1FB495FF1FB095FF1FB895FF1FD5
:103260004895FF1F70B584B072B6194B194D1A48B6
:10327000702241260F2480211A702E701A46047085
:10328000197013781B06FCD5144B186862B6144BE2
:10329000144C984298BF00EB800001A998BF4000F1
:1032A0000A2200F01FF901A92046002311F8012B82
:1032B00001333AB10A2B20F8022FF7D116232370DD
:1032C00004B070BD5B00DBB2237004B070BD00BF02
:1032D00000000240070002400600024008000240D1
:1032E0007F969800588DFF1F10B4EFF3108272B6CE
:1032F000437F33B9017F012907D003290FD0012370
:10330000437702B962B610BC7047124C2168A1B174
:10331000114943610B68836108605861EFE70F4C06
:10332000216881B10E4943610B688361086058616F
:103330000C4B4FF080511960E1E7074B416181610F
:1033400020601860DBE7064B4161816120601860F6
:10335000EEE700BFCC95FF1FC895FF1FBC95FF1F70
:10336000C095FF1F04ED00E010B4047F4160022C03
:10337000C26002D010BCFFF7B7BF836810BC18470B
:1033800070B5EFF3108272B60C4C206880B10C4E11
:1033900000254369236073B19D6102B962B6457728
:1033A00083689847EFF3108272B620680028F0D146
:1033B00002B962B670BD3360EFE700BFBC95FF1F76
:1033C000C095FF1FFFF7DCBF184A30B41468002C0B
:1033D00027D0036821688B420ED2CB1A002184606B
:1033E000C1602360E06010600223037530BC704749
:1033F00011688B42144608D3A2685B1A0360002A46
:10340000F6D18260C460A060EEE7D268C2608460DA
:10341000E060C568CB1A0222A8602360027530BC48
:1034200070478460C4601060DEE700BFC495FF1F72
:10343000F8B5224E34682CB32368002B3AD1204FC4
:103440001D4604E03468ECB12368002B32D1A36838
:1034500003B1DD6020693360036825751B68BB42DA
:1034600021D1037F4560022BC46020D0FFF73CFFD1
:103470006368002BE6D023602046FFF7A5FF346881
:10348000002CE1D1EFF3108372B60E4A00211068D0
:10349000116003B962B628B18468FFF795FF204632
:1034A0000028F9D1F8BD224600219847E0E783685B
:1034B0009847DDE7013B2360E4E700BFC495FF1FA9
:1034C00069330000D495FF1F024A1368013313606B
:1034D000FFF7AEBFC092FF1F704700BF704700BF2D
:1034E000704700BFF0B44D1E2E46002400E00134AA
:1034F000B0FBF2F302FB1300092800F130078ABF8A
:103500003730F8B2C0B206F8010F1846002BEED1E2
:103510000A1953704CB1107815F8016F28700133F7
:10352000E01A834202F80169F5DB0846F0BC7047F7
:103530002DE9F04FDFF8E4928DB006460F461446B1
:103540001D4600F06DF999F90080B8F1FF3FCDE913
:10355000000146D022462B462046294601F0F0FCC9
:10356000834600283DD132463B463046394601F07D
:10357000E7FC002282460023002840F08480304689
:10358000394601F0ABFC002830D000220023204651
:10359000294601F0A3FC8346A8B10122984B029270
:1035A00000210022CDF828A0CDE90467CDE9064529
:1035B000CDE908120393B8F1000F53D091490020D0
:1035C0000DB0BDE8F08F2046294600F047FF40B11E
:1035D000002200232046294601F08AFC002840F002
:1035E000B780DDE900010DB0BDE8F08FDDE9000135
:1035F00000F034FF804600285DD04FF0000A4FF005
:10360000000B52465B46DDE9000101F067FC002833
:10361000E7D03046394600F021FF0028E1D02046AF
:10362000294600F01BFF0028DBD099F90030744ACE
:10363000039204210022022BCDE90467CDE906455F
:10364000CDE908AB02910A9203D002A800F00CFF6A
:1036500070B901F0ABFF2223036009E000230024CE
:10366000CDE9083402A800F0FFFE002800F08680B3
:103670000A9B1BB101F09AFF0A9B0360DDE9080178
:103680000DB0BDE8F08F2046294601F027FC002848
:10369000A7D05C495A4BCDF828B001220020B8F1E0
:1036A000020FCDE90467CDE9064502920393CDE907
:1036B0000801D7D197E73046394600F0CFFE002801
:1036C0009BD02046294600F0C9FE002895D0DDE9B0
:1036D00000231046194601F033FC002873D1032360
:1036E00099F900800293464B0A900393CDE9046751
:1036F000CDE906450022002330463946B8F1000FD7
:1037000041D1414F4FF06046CDE9086701F0F0FB31
:1037100000289AD000223D4B2046294601F076F938
:1037200004460D4600F0A8FE02460B4620462946F8
:1037300001F0D4FB002843D1354B99F900804FF0BC
:103740006042CDE90823B8F1020F7FF47EAF80E735
:1037500099F900302A4ACDF828B00121CDE9046753
:10376000CDE9064502910392002B3FF477AF29493A
:103770000020022BCDE908017FF474AF01F016FFA1
:103780002123036074E7244F0026CDE9086701F088
:10379000AFFB0028D7D000221C4B2046294601F061
:1037A00035F904460D4600F067FE02460B462046FA
:1037B000294601F093FB18B9164B0022CDE90823E6
:1037C00099F90080BFE799F900900D4BCDF828805A
:1037D0000122CDE90467CDE9064502920393B9F1D0
:1037E000000F3FF43BAF002200231046194601F0C2
:1037F00037FAB9F1020FCDE90801BFD032E700BFB7
:10380000545A00000000F03FFFFFEF470000E03F88
:10381000FFFFEFC70000F0FF0000F07F6E8DFF1F7D
:103820002DE9F04F23F0004858EA020993B03CD04C
:10383000714C21F00046A64283460D460CDD06F190
:10384000404606F5801656EA0B0038D16B49834690
:10385000584613B0BDE8F08F9A4696462BD0A04547
:10386000EDDC654CA04578D0002D0F468146CDE9B2
:10387000002376DB0024BEF1000F27D15E4B984574
:1038800000F08B805D4B984552D0BAF1804F00F02C
:10389000C2835B4B9A4519D1002D17DB4846394648
:1038A00013B0BDE8F04F00F015BDCB465349584664
:1038B00013B0BDE8F08F0028C1D1B045D1DD51482B
:1038C00013B0BDE8F04F00F0D1BD002448463946A2
:1038D00000F0C0FDBBF1000F1CD0ED0F013D54EA1C
:1038E000050370D0484B984540F3948003F104736E
:1038F000984540F30584454B9E4270DDBAF1000FB8
:1039000070DD3BA3D3E900231046194601F07EF891
:1039100083469DE726B1394B25F040429A42DCD1DF
:10392000BAF1000FC0F2B083002D08DB83468FE7A9
:10393000BAF1000FC0F25684CB46394688E706F14B
:10394000404606F5801656EA040300F07B84012CFD
:10395000ECD1834601F100417AE7BEF1000F83D03C
:103960006DE72B4B98452CDCA3F15473984581DD12
:103970004FEA2853A3F2FF33142B40F34B84C3F1D7
:1039800034032EFA03F202FA03F39E457FF472AF7A
:1039900002F00102C2F102046DE706F1404303F5B3
:1039A000801353EA0B0300F03383184B9E4240F31D
:1039B0006083BAF1000F15DBDDE900349B46214638
:1039C00046E7022457E74A4648463B46394600F058
:1039D00069FE02460B4601F043F9834638E7BAF127
:1039E000000F8EDB4FF0000B594631E7AFF300803C
:1039F0009C7500883CE4377E0000F07F0000F03FBB
:103A00000000E03F585A00000000E041FFFFEF3F98
:103A1000FFFF3F43B6F5801F4FF0000205DAD44B9D
:103A200000F0F4FF6FF034020E463315D14FC6F3A9
:103A30001306A3F2FF33134446F07F5ABE421A46E0
:103A40000D934AF4401A40F3C183CB4B9E4240F39E
:103A5000FD83134601330D93C84B0022CDE90623A5
:103A600000270026CDE90867CDE90E67AAF5801A80
:103A70000027024653465146CDE90A23DDE90623D5
:103A800000F010FEDDE9062380468946DDE90A01E3
:103A900000F00AFE02460B460020B84901F0E0F8AB
:103AA0000A460146CDE910121346494602464046F1
:103AB00000F0ACFF4FEA6A0343F000538C468346A4
:103AC00003F50023CDE904BCDA468B46D91900235F
:103AD000CDE902AB0293DDE902AB002006460F46BA
:103AE00002460B465046594600F090FF02460B46F0
:103AF0004046494600F0D6FDDDE90623804689466A
:103B00003046394600F0CEFD02460B46DDE90A019B
:103B100000F0C8FD52465B4600F078FF02460B46B7
:103B20004046494600F0BEFDDDE9102300F06EFF7F
:103B3000DDE90467CDE9060132463B4630463946A9
:103B400000F064FF78A3D3E9002306460F4600F097
:103B50005DFF77A3D3E9002300F0A6FD32463B4684
:103B600000F054FF74A3D3E9002300F09DFD32461A
:103B70003B4600F04BFF72A3D3E9002300F094FD15
:103B800032463B4600F042FF6FA3D3E9002300F02A
:103B90008BFD32463B4600F039FF6DA3D3E900238D
:103BA00000F082FD3246804689463B463046394623
:103BB00000F02CFF02460B464046494600F026FF27
:103BC000524606460F465B46DDE9040100F06CFDF7
:103BD000DDE9062300F01AFF32463B4600F064FDA3
:103BE0005246804689465B465046594600F00EFFD5
:103BF0000022634BCDE90A0100F056FD42464B46D8
:103C000000F052FD02980F46064632463B465046AB
:103C1000594600F0FBFE002282468B46584B304648
:103C2000394600F03FFDDDE90A2300F03BFD024686
:103C30000B464046494600F035FDDDE9042300F01F
:103C4000E5FE3246804689463B46DDE9060100F046
:103C5000DDFE02460B464046494600F025FD804603
:103C6000894602460B4650465946CDE904AB00F062
:103C70001BFDDDE902AB38A3D3E9002350460F4614
:103C800000F0C4FEDDE90423CDE9020139465046C7
:103C900000F008FD02460B464046494600F002FD92
:103CA0002FA3D3E9002300F0B1FE2FA3D3E9002313
:103CB000804689465046394600F0A8FE02460B462B
:103CC0004046494600F0F0FCDDE90E2300F0ECFC34
:103CD00080460D98894600F033FE424606460F4660
:103CE0004B46DDE9020100F0DFFCDDE9082300F0CE
:103CF000DBFC32463B4600F0D7FC32463B465046A2
:103D00008B4600F0CFFCDDE9082300F0CBFCDDE9B9
:103D1000022300F0C7FC02460B464046494600F02D
:103D2000C1FC80462EE000BFEF4E454A287ECA3FC8
:103D300065DBC9934A86CD3F01411DA96074D13F1F
:103D40004D268F515555D53FFFAB6FDBB66DDB3F31
:103D5000033333333333E33F000000E009C7EE3F62
:103D6000FD033ADC09C7EE3FF5015B14E02F3EBED0
:103D7000000040438E98030079B60B000000F03F2E
:103D8000000008408946013C54EA0503DDE90001D2
:103D900014BFD54CD54C0023CDE9043403460C4662
:103DA000CDE9023400230293DDE9024522462B4689
:103DB00000F078FC52465B4600F028FEDDE9002367
:103DC00006460F464046494600F020FE02460B4696
:103DD0003046394600F068FC224606460F462B4620
:103DE00050465946CDE9006700F010FE0B460246EA
:103DF000804689463046394600F056FCBC4B994215
:103E000006460D460C4640F30E8101F13F4303F593
:103E1000E003034340F0EF819FA3D3E90023DDE9F2
:103E2000000100F041FC424682468B464B4630463C
:103E3000294600F037FC02460B465046594601F031
:103E400075F8002840F0D7812F463B154FF48012BB
:103E5000A3F2FE3342FA03F32344C3F30A52A54EFE
:103E6000A2F2FF321641C3F3130B0020C2F1140576
:103E700023EA06014BF4801B02460B46002C4BFA4A
:103E800005FB40464946B8BFCBF1000B00F00AFCE9
:103E900002460B4680468946DDE9000100F004FC3D
:103EA0004FEA0B5A00247EA3D3E9002320460D4697
:103EB00000F0ACFD424606460F464B4620462946DA
:103EC00000F0F0FB02460B46DDE9000100F0EAFBE2
:103ED00075A3D3E9002300F099FD75A3D3E900236E
:103EE000804689462046294600F090FD02460B4652
:103EF0004046494600F0D8FB8046894602460B46BC
:103F00003046394600F0D0FB32463B4604460D466B
:103F100000F0C8FB02460B464046494600F0C2FB93
:103F20002246804689462B462046294600F06EFDF3
:103F300061A3D3E9002306460F4600F067FD60A3A6
:103F4000D3E9002300F0AEFB32463B4600F05EFDB5
:103F50005DA3D3E9002300F0A7FB32463B4600F007
:103F600055FD5BA3D3E9002300F09CFB32463B46A2
:103F700000F04CFD58A3D3E9002300F095FB324636
:103F80003B4600F043FD02460B462046294600F022
:103F900089FB06460F4602460B462046294600F09E
:103FA00035FD0022CDE900014FF08043304639460F
:103FB00000F078FB02460B46DDE9000100F050FE00
:103FC000424606460F464B462046294600F01EFD57
:103FD00042464B4600F068FB02460B4630463946E7
:103FE00000F060FB22462B4600F05CFB02460B46CD
:103FF00000203D4900F056FB8A44BAF5801FC0F20C
:1040000036815146DDE9042300F000FD83461FE4BC
:10401000F34635491CE44A4648463B46394600F0DB
:10402000F5FC834614E4344B21F000479F4240F3F3
:104030000081324B0B4403430CD142464B4600F007
:1040400031FB02460B46DDE9000100F05BFF002872
:104050003FF4FBAE22A3D3E90023DDE9040100F025
:10406000D5FC1FA3D3E9002300F0D0FC8346FFF763
:10407000EFBBBAF1000FBFF6B5ACDDE900349B46EB
:1040800004F10041FFF7E4BB02460B46002016494D
:1040900000F0E6FD48E400BFFE822B654715973C23
:1040A00000000000432EE63FEF39FAFE422EE63FC5
:1040B000396CA80C615C20BED0A4BE726937663E24
:1040C000F16BD2C541BDBB3E2CDE25AF6A56113F18
:1040D00093BDBE166CC1663F3E5555555555C53FFF
:1040E00059F3F8C21F6EA5010000F03F0000F0BFB9
:1040F000FFFF8F40FFFF0F00FFCB904000346F3F6A
:104100006F4B9E427FF76BAC6E4B9E423FF7F6AB18
:1041100000226C4B00F0C6FA5BA3D3E900230646ED
:104120000F4600F073FC5AA3D3E90023804689466A
:104130003046394600F06AFC002282468B46624BCC
:104140003046394600F062FC02460B4652A1D1E9E6
:10415000000100F0A7FA32463B4600F057FC024649
:104160000B460020594900F09DFA3246CDE9020184
:104170003B463046394600F049FC02460B46DDE935
:10418000020100F043FC46A3D3E9002300F03EFC0B
:1041900002460B465046594600F084FA02460B464A
:1041A00006460F464046494600F07EFA42464B46D8
:1041B000002082468B4600F075FA02460B463046D8
:1041C000394600F06FFA80468946DCE5002200237C
:1041D000CDE90823CDE90E233A4B00220027CDE993
:1041E000062346E44A463B460020364900F038FDA7
:1041F0008346FFF72DBB2CA3D3E90023DDE904019F
:1042000000F004FC28A3D3E9002300F0FFFB834661
:10421000FFF71EBBBEF1000F7FF457ABC3F11403D1
:1042200048FA03F202FA03F3984524D07446FFF7E4
:1042300029BB264B9F423FF708AEDDE902349A4680
:104240009B462FE602460B46FFF7C1BB18A3D3E9F6
:104250000023CDE9082318A3D3E90023CDE90E23D9
:104260001B4B00224FF48027CDE9062301E45A4678
:1042700000F08EF9C6E602F00102C2F10204FFF777
:1042800001BB00BFAFF30080000000604715F73F9F
:1042900044DF5DF80BAE543E555555555555D53F49
:1042A000FE822B654715F73F9C7500883CE4377EFE
:1042B0000000004003B8E23F06D0CF43EBFD4C3E88
:1042C000FEFFEF3F0000F03F0000D03F0000E03F66
:1042D0000000F83F2DE9F8435D4EB6460E407645A6
:1042E0000C46054600F0958000290B46024673DD1A
:1042F0000F157ED0A7F2FF37C3F31303F80743F47B
:10430000801364D403EBD27100260B447F1052005B
:10431000B64616204FF400110EEB01049C424FEA02
:10432000D2754FEA420203DC1B1B04EB010E0E4464
:10433000013805EB43034FEA5101EDD184462024B7
:104340004FF0004109E020D003EBD275013C4FEA69
:1043500051012B444FEA420220D09E4501EB0C054F
:10436000F1DA002D05EB010C09DBF0469542CEEBAE
:10437000030300D9013B521B0844C646E4E7BCF1E5
:10438000000FF2DB0EF10108F0E7954217D8002D7F
:1043900005EB010C47DB98460023ECE7134310D1F3
:1043A0004008731003F17F5303F50013F20703EB8A
:1043B000075948BF40F000404946BDE8F8837346BE
:1043C000C2E7411C33D000F001031844E8E75B006A
:1043D00003EBD273520095E721F000460643ECD080
:1043E00069BB0F46D30A153F5205002BFAD0DD02F8
:1043F00020D4002100E001465B00DC0201F1010055
:10440000F9D5C0F1200422FA04F423437F1A824034
:1044100070E702460B4600F0F9FA2A46234600F000
:1044200043F9BDE8F883BCF1000FABDAB3E701361E
:104430002046B6E720244FF0FF310020E3E7024694
:104440000B4600F02FF902460B4600F009FCB4E7DA
:104450000000F07F21F00041704700BF41F00041B3
:1044600001F58010C00F70470020704700200149FF
:10447000704700BF0000F87FF0B5C1F30A5EAEF2EE
:10448000FF36132E83B002460B460C464FEAD17519
:1044900007462EDC002E49DB3B49314103EA01008F
:1044A00010432BD049080B4053EA02070CD04FF4BD
:1044B0008023132E24EA010143FA06F444EA01049E
:1044C0000CBF4FF000470027304B03EBC5052146DA
:1044D000D5E90045384622462B4600F0E5F8CDE9FF
:1044E000000122462B46DDE9000100F0DBF803B0B5
:1044F000F0BD332E06DDB6F5806F42D0104619466A
:1045000003B0F0BDAEF2134E4FF0FF3121FA0EF1C1
:104510000842F3D049080842D6D04FF0804320EA41
:10452000010143FA0EFE4EEA0107CDE721F00041FA
:104530000143E3D0C3F31301144E41EA000CCCF164
:10454000000106EBC506D6E9006741EA0C0C5C0CDD
:104550004FEA1C3C0CF4002C64044CEA0401324683
:104560003B4600F0A1F8CDE900013B463246DDE9CB
:10457000000100F097F821F0004444EAC5731946A1
:10458000BEE700F091F8BBE7FFFF0F00605A0000A4
:10459000F8B5C1F30A5604460D460B46174606BB4E
:1045A00021F00043034325D00022354B00F02EFAC2
:1045B000344A974204460D460B462ADBC1F30A569D
:1045C000363E3E4440F2FE72964228DC002E12DD5A
:1045D00023F0FF4323F4E00343EA0655204629462F
:1045E000F8BD40F2FF729642EBD102460B4600F056
:1045F0005BF8F8BDF8BD16F1350F1DDA4CF25033FB
:104600009F4222462B4625DC19A1D1E9000100F08A
:104610003DF817A3D3E9002300F0F8F9F8BD2246CE
:104620002B4615A1D1E9000100F030F812A3D3E91F
:10463000002300F0EBF9F8BD23F0FF4323F4E0037F
:10464000363643EA06552046294600220E4B00F036
:10465000DDF9F8BD08A1D1E9000100F017F806A3C3
:10466000D3E9002300F0D2F9F8BD00BFAFF300801A
:1046700059F3F8C21F6EA5019C7500883CE4377E93
:1046800000005043B03CFFFF0000903C03F00043AB
:1046900021F0004242EA0301704700BF81F000416F
:1046A00002E000BF83F0004330B54FEA41044FEA17
:1046B000430594EA050F08BF90EA020F1FBF54EAB2
:1046C000000C55EA020C7FEA645C7FEA655C00F04E
:1046D000E2804FEA5454D4EB5555B8BF6D420CDD1F
:1046E0002C4480EA020281EA030382EA000083EAA2
:1046F000010180EA020281EA0303362D88BF30BD42
:1047000011F0004F4FEA01314FF4801C4CEA113197
:1047100002D0404261EB410113F0004F4FEA0333F6
:104720004CEA133302D0524263EB430394EA050F81
:1047300000F0A780A4F10104D5F1200E0DDB02FAF0
:104740000EFC22FA05F2801841F1000103FA0EF284
:10475000801843FA05F359410EE0A5F120050EF14A
:10476000200E012A03FA0EFC28BF4CF0020C43FA7B
:1047700005F3C01851EBE37101F0004507D54FF088
:10478000000EDCF1000C7EEB00006EEB0101B1F5D8
:10479000801F1BD3B1F5001F0CD349085FEA30001E
:1047A0004FEA3C0C04F101044FEA445212F5800F29
:1047B00080F09A80BCF1004F08BF5FEA500C50F1C6
:1047C000000041EB045141EA050130BD5FEA4C0CA9
:1047D000404141EB010111F4801FA4F10104E9D132
:1047E00091F0000F04BF01460020B1FA81F308BF29
:1047F0002033A3F10B03B3F120020CDA0C3208DDF5
:1048000002F1140CC2F10C0201FA0CF021FA02F1CF
:104810000CE002F11402D8BFC2F1200C01FA02F13F
:1048200020FA0CFCDCBF41EA0C019040E41AA2BF64
:1048300001EB0451294330BD6FEA04041F3C1CDA2C
:104840000C340EDC04F11404C4F1200220FA04F04C
:1048500001FA02F340EA030021FA04F345EA0301F6
:1048600030BDC4F10C04C4F1200220FA02F001FAB8
:1048700004F340EA0300294630BD21FA04F029463A
:1048800030BD94F0000F83F4801306BF81F48011D3
:104890000134013D4EE77FEA645C18BF7FEA655C46
:1048A00029D094EA050F08BF90EA020F05D054EA18
:1048B000000C04BF1946104630BD91EA030F1EBF1D
:1048C0000021002030BD5FEA545C05D14000494121
:1048D00028BF41F0004130BD14F580043CBF01F514
:1048E000801130BD01F0004545F0FE4141F47001FA
:1048F0004FF0000030BD7FEA645C1ABF19461046D5
:104900007FEA655C1CBF0B46024650EA013406BFD5
:1049100052EA033591EA030F41F4002130BD00BF94
:1049200090F0000F04BF0021704730B54FF4806451
:1049300004F132044FF000054FF0000150E700BFD2
:1049400090F0000F04BF0021704730B54FF4806431
:1049500004F1320410F0004548BF40424FF000011E
:104960003EE700BF42004FEAE2014FEA31014FEA61
:1049700002701FBF12F07F4393F07F4F81F06051B0
:10498000704792F0000F14BF93F07F4F704730B51F
:104990004FF4607401F0004521F0004120E700BFB2
:1049A00050EA010208BF704730B54FF000050AE039
:1049B00050EA010208BF704730B511F0004502D53A
:1049C000404261EB41014FF4806404F132045FEA3C
:1049D000915C3FF4DCAE4FF003025FEADC0C18BFE1
:1049E00003325FEADC0C18BF033202EBDC02C2F1D7
:1049F000200300FA03FC20FA02F001FA03FE40EA69
:104A00000E0021FA02F11444C1E600BF70B54FF068
:104A1000FF0C4CF4E06C1CEA11541DBF1CEA13554A
:104A200094EA0C0F95EA0C0F00F0DEF82C4481EAB2
:104A3000030621EA4C5123EA4C5350EA013518BFD2
:104A400052EA033541F4801143F4801338D0A0FBBF
:104A500002CE4FF00005E1FB02E506F00042E0FB6C
:104A600003E54FF00006E1FB03569CF0000F18BF72
:104A70004EF0010EA4F1FF04B6F5007F64F540741A
:104A800004D25FEA4E0E6D4146EB060642EAC621AD
:104A900041EA55514FEAC52040EA5E504FEACE2E1A
:104AA000B4F1FD0C88BFBCF5E06F1ED8BEF1004F1D
:104AB00008BF5FEA500E50F1000041EB045170BD99
:104AC00006F0004646EA010140EA020081EA0301DD
:104AD000B4EB5C04C2BFD4EB0C0541EA045170BDD9
:104AE00041F480114FF0000E013C00F3AB8014F153
:104AF000360FDEBF002001F0004170BDC4F100049C
:104B0000203C35DA0C341BDC04F11404C4F120051C
:104B100000FA05F320FA04F001FA05F240EA020077
:104B200001F0004221F0004110EBD37021FA04F6AD
:104B300042EB06015EEA430E08BF20EAD37070BD67
:104B4000C4F10C04C4F1200500FA04F320FA05F0C6
:104B500001FA04F240EA020001F0004110EBD370C8
:104B600041F100015EEA430E08BF20EAD37070BD38
:104B7000C4F1200500FA05F24EEA020E20FA04F311
:104B800001FA05F243EA020321FA04F001F00041C0
:104B900021FA04F220EA020000EBD3705EEA430E31
:104BA00008BF20EAD37070BD94F0000F0FD101F060
:104BB0000046400041EB010111F4801F08BF013C99
:104BC000F7D041EA060195F0000F18BF704703F0D7
:104BD0000046520043EB030313F4801F08BF013D5E
:104BE000F7D043EA0603704794EA0C0F0CEA13551A
:104BF00018BF95EA0C0F0CD050EA410618BF52EAD4
:104C00004306D1D181EA030101F000414FF00000D9
:104C100070BD50EA410606BF1046194652EA4306E7
:104C200019D094EA0C0F02D150EA013613D195EA5B
:104C30000C0F05D152EA03361CBF104619460AD1A3
:104C400081EA030101F0004141F0FE4141F47001AD
:104C50004FF0000070BD41F0FE4141F4780170BD9D
:104C600070B54FF0FF0C4CF4E06C1CEA11541DBF02
:104C70001CEA135594EA0C0F95EA0C0F00F0A7F804
:104C8000A4EB050481EA030E52EA03354FEA013131
:104C900000F088804FEA03334FF0805545EA131344
:104CA00043EA12634FEA022245EA111545EA10650C
:104CB0004FEA00260EF000419D4208BF964244F1A3
:104CC000FD0404F5407402D25B084FEA3202B61AC2
:104CD00065EB03055B084FEA32024FF480104FF496
:104CE000002CB6EB020E75EB030E22BFB61A75460A
:104CF00040EA0C005B084FEA3202B6EB020E75EB9D
:104D0000030E22BFB61A754640EA5C005B084FEA04
:104D10003202B6EB020E75EB030E22BFB61A7546D1
:104D200040EA9C005B084FEA3202B6EB020E75EBDC
:104D3000030E22BFB61A754640EADC0055EA060E9D
:104D400018D04FEA051545EA16754FEA06164FEAE0
:104D5000C30343EA52734FEAC2025FEA1C1CC0D18C
:104D600011F4801F0BD141EA00014FF000004FF019
:104D7000004CB6E711F4801F04BF01430020B4F1DA
:104D8000FD0C88BFBCF5E06F3FF6AFAEB5EB030C92
:104D900004BFB6EB020C5FEA500C50F1000041EB8F
:104DA000045170BD0EF0004E4EEA113114EB5C045C
:104DB000C2BFD4EB0C0541EA045170BD41F480112F
:104DC0004FF0000E013C90E645EA060E8DE60CEA37
:104DD000135594EA0C0F08BF95EA0C0F3FF43BAF54
:104DE00094EA0C0F0AD150EA01347FF434AF95EA0B
:104DF0000C0F7FF425AF104619462CE795EA0C0FEF
:104E000006D152EA03353FF4FDAE1046194622E7BB
:104E100050EA410618BF52EA43067FF4C5AE50EA95
:104E200041047FF40DAF52EA43057FF4EBAE12E785
:104E30004FF0FF3C06E000BF4FF0010C02E000BF66
:104E40004FF0010C4DF804CD4FEA410C7FEA6C5C49
:104E50004FEA430C18BF7FEA6C5C1BD001B050EAEC
:104E6000410C0CBF52EA430C91EA030F02BF90EAD7
:104E7000020F0020704710F1000F91EA030F58BF96
:104E8000994208BF90422CBFD8176FEAE37040F0F8
:104E9000010070474FEA410C7FEA6C5C02D150EA96
:104EA000013C07D14FEA430C7FEA6C5CD6D152EA51
:104EB000033CD3D05DF8040B704700BF8446104616
:104EC00062468C461946634600E000BF01B5FFF715
:104ED000B7FF002848BF10F1000F01BD4DF808EDE5
:104EE000FFF7F4FF0CBF012000205DF808FB00BFB6
:104EF0004DF808EDFFF7EAFF34BF012000205DF810
:104F000008FB00BF4DF808EDFFF7E0FF94BF01205C
:104F100000205DF808FB00BF4DF808EDFFF7CEFF5D
:104F200094BF012000205DF808FB00BF4DF808ED9C
:104F3000FFF7C4FF34BF012000205DF808FB00BF6D
:104F40004FEA410C7FEA6C5C02D150EA013C0AD185
:104F50004FEA430C7FEA6C5C02D152EA033C02D177
:104F60004FF0000070474FF0010070474A0011D227
:104F700012F5001211D20DD56FF47873B3EB6252B3
:104F80000ED44FEAC12343F0004343EA505323FABF
:104F900002F070474FF00000704750EA013002D134
:104FA0004FF0FF3070474FF00000704780F0004036
:104FB00002E000BF81F0004142001FBF5FEA4103F1
:104FC00092EA030F7FEA226C7FEA236C6AD04FEAF1
:104FD0001262D2EB1363C1BFD21841404840414036
:104FE000B8BF5B42192B88BF704710F0004F40F4E8
:104FF000000020F07F4018BF404211F0004F41F404
:10500000000121F07F4118BF494292EA030F3FD0CF
:10501000A2F1010241FA03FC10EB0C00C3F12003E2
:1050200001FA03F100F0004302D5494260EB400071
:10503000B0F5000F13D3B0F1807F06D340084FEADC
:10504000310102F10102FE2A51D2B1F1004F40EBD1
:10505000C25008BF20F0010040EA03007047490039
:1050600040EB000010F4000FA2F10102EDD1B0FA04
:1050700080FCACF1080CB2EB0C0200FA0CF0AABFF9
:1050800000EBC25052421843BCBFD0401843704797
:1050900092F0000F81F4000106BF80F4000001329D
:1050A000013BB5E74FEA41037FEA226C18BF7FEA74
:1050B000236C21D092EA030F04D092F0000F08BFB6
:1050C0000846704790EA010F1CBF0020704712F09D
:1050D0007F4F04D1400028BF40F00040704712F1DC
:1050E00000723CBF00F50000704700F0004343F041
:1050F000FE4040F4000070477FEA226216BF084677
:105100007FEA23630146420206BF5FEA412390EA39
:10511000010F40F4800070474FF0000304E000BF2F
:1051200010F0004348BF40425FEA000C08BF7047E0
:1051300043F0964301464FF000001CE050EA0102A4
:1051400008BF70474FF000030AE000BF50EA0102B9
:1051500008BF704711F0004302D5404261EB4101A6
:105160005FEA010C02BF84460146002043F0B643CB
:1051700008BFA3F18053A3F50003BCFA8CF2083AF0
:10518000A3EBC25310DB01FA02FC634400FA02FCF9
:10519000C2F12002BCF1004F20FA02F243EB020000
:1051A00008BF20F00100704702F1200201FA02FC62
:1051B000C2F1200250EA4C0021FA02F243EB020055
:1051C00008BF20EADC7070474FF0FF0C1CEAD05299
:1051D0001EBF1CEAD15392EA0C0F93EA0C0F6FD05A
:1051E0001A4480EA010C400218BF5FEA41211ED038
:1051F0004FF0006343EA501043EA5111A0FB013124
:105200000CF00040B1F5000F3EBF490041EAD371F8
:105210005B0040EA010062F17F02FD2A1DD8B3F174
:10522000004F40EBC25008BF20F00100704790F0E3
:10523000000F0CF0004C08BF49024CEA502040EA35
:1052400051207F3AC2BFD2F1FF0340EAC2507047FB
:1052500040F400004FF00003013A5DDC12F1190F39
:10526000DCBF00F000407047C2F10002410021FAAB
:1052700002F1C2F1200200FA02FC5FEA310040F1C3
:10528000000053EA4C0308BF20EADC70704792F03C
:10529000000F00F0004C02BF400010F4000F013A74
:1052A000F9D040EA0C0093F0000F01F0004C02BF6F
:1052B000490011F4000F013BF9D041EA0C018FE7DE
:1052C0000CEAD15392EA0C0F18BF93EA0C0F0AD0E4
:1052D00030F0004C18BF31F0004CD8D180EA01000A
:1052E00000F00040704790F0000F17BF90F0004FA3
:1052F000084691F0000F91F0004F14D092EA0C0F85
:1053000001D142020FD193EA0C0F03D14B0218BF17
:10531000084608D180EA010000F0004040F0FE405D
:1053200040F40000704740F0FE4040F440007047F9
:105330004FF0FF0C1CEAD0521EBF1CEAD15392EA78
:105340000C0F93EA0C0F69D0A2EB030280EA010C68
:1053500049024FEA402037D04FF0805343EA111101
:1053600043EA10130CF000408B4238BF5B0042F15F
:105370007D024FF4000C8B4224BF5B1A40EA0C0004
:10538000B3EB510F24BFA3EB510340EA5C00B3EB36
:10539000910F24BFA3EB910340EA9C00B3EBD10F24
:1053A00024BFA3EBD10340EADC001B0118BF5FEA76
:1053B0001C1CE0D1FD2A3FF650AF8B4240EBC2509F
:1053C00008BF20F0010070470CF0004C4CEA502060
:1053D0007F32C2BFD2F1FF0340EAC250704740F4AF
:1053E00000004FF00003013A37E792F0000F00F0A1
:1053F000004C02BF400010F4000F013AF9D040EA1F
:105400000C0093F0000F01F0004C02BF490011F4B2
:10541000000F013BF9D041EA0C0195E70CEAD153AA
:1054200092EA0C0F08D142027FF47DAF93EA0C0F91
:105430007FF470AF084676E793EA0C0F04D14B0275
:105440003FF44CAF08466EE730F0004C18BF31F027
:10545000004CCAD130F000427FF45CAF31F0004321
:105460007FF43CAF5FE700BF4FF0FF3C06E000BFBA
:105470004FF0010C02E000BF4FF0010C4DF804CDDD
:105480004FEA40024FEA41037FEA226C18BF7FEAED
:10549000236C11D001B052EA530C18BF90EA010FEF
:1054A00058BFB2EB030088BFC81738BF6FEAE1707E
:1054B00018BF40F0010070477FEA226C02D15FEA1A
:1054C000402C05D17FEA236CE4D15FEA412CE1D086
:1054D0005DF8040B704700BF844608466146FFE74D
:1054E0000FB5FFF7C9FF002848BF10F1000F0FBD2F
:1054F0004DF808EDFFF7F4FF0CBF012000205DF828
:1055000008FB00BF4DF808EDFFF7EAFF34BF0120AC
:1055100000205DF808FB00BF4DF808EDFFF7E0FF45
:1055200094BF012000205DF808FB00BF4DF808ED96
:10553000FFF7D2FF94BF012000205DF808FB00BFF9
:105540004DF808EDFFF7C8FF34BF012000205DF8DB
:1055500008FB00BF42000ED2B2F1FE4F0BD34FF05A
:105560009E03B3EB126209D44FEA002343F00043D9
:1055700023FA02F070474FF00000704712F1610FFC
:1055800001D1420202D14FF0FF3070474FF00000CE
:10559000704700BF0B460146184600F001B800BF37
:1055A00013460A460146022000F0F8B8014B18687D
:1055B000704700BF9891FF1F70B50F4E0F4D761BBF
:1055C000B61018BF002405D0013455F8043B9847A5
:1055D000A642F9D10A4E0B4D761B00F04BFAB610DD
:1055E00018BF002406D0013455F8043B9847A64262
:1055F000F9D170BD70BD00BF805A0000805A000014
:105600008C5A0000805A000070B4840746D0541EA3
:10561000002A41D0CDB2034602E0621EE4B3144634
:1056200003F8015B9A07F8D1032C2ED9CDB245EAD5
:1056300005250F2C45EA054519D903F11002264628
:10564000103E0F2E42F8105C42F80C5C42F8085CE9
:1056500042F8045C02F11002F2D8A4F1100222F028
:105660000F0204F00F041032032C13440DD91E4610
:105670002246043A032A46F8045BFAD8221F22F095
:1056800003020432134404F003042CB1C9B21C44D5
:1056900003F8011BA342FBD170BC704714460346BC
:1056A000C2E700BFFFFFFFFFFFFFFFFFFFFFFFFF9E
:1056B000FFFFFFFFFFFFFFFFFFFFFFFFFFFFFFFFFA
:1056C00090F800F06DE9024520F007016FF0000C42
:1056D00010F0070491F820F040F049804FF00004EA
:1056E0006FF00700D1E9002391F840F000F10800C5
:1056F00082FA4CF2A4FA8CF283FA4CF3A2FA8CF3FD
:105700004BBBD1E9022382FA4CF200F10800A4FA63
:105710008CF283FA4CF3A2FA8CF3E3B9D1E90423B7
:1057200082FA4CF200F10800A4FA8CF283FA4CF3EE
:10573000A2FA8CF37BB9D1E9062301F1200182FAA8
:105740004CF200F10800A4FA8CF283FA4CF3A2FAAE
:105750008CF3002BC6D0002A04BF04301A4612BABC
:10576000B2FA82F2FDE8024500EBD2007047D1E9BF
:10577000002304F00305C4F100004FEAC50514F04E
:10578000040F91F840F00CFA05F562EA05021CBF1F
:1057900063EA050362464FF00004A9E72DE9F047EC
:1057A000254C2568D5F848410646884692469946D4
:1057B000C4B360681F2817DC431C76B104EB800576
:1057C0000122C5F888A0D4F8881182401143022E26
:1057D000C4F88811C5F808911ED00230636044F8FF
:1057E00020800020BDE8F087144B03B34FF4C8704D
:1057F000AFF300800446D0B1D5F84831002780E8E7
:105800008800C5F8484138460123C4F88871C4F8B7
:105810008C71002EE1D0D1E7D4F88C110A43C4F882
:105820008C21DAE705F5A674C5F84841C1E74FF0C9
:10583000FF30BDE8F08700BF705A00000000000094
:10584000024B13B1024800F005B870470000000099
:1058500061580000002301461A461846FFF79EBF14
:1058600038B5074D074C2C1BA41005D0013C55F84A
:10587000043D9847002CF9D1BDE8384000F006B946
:1058800000000000000000004008FE4340A004406B
:105890004408FE4344A004400018FE4300C00440F6
:1058A0003000FE43309004403400FE433490044006
:1058B0001C18FE431CC004401018FE4310C00440D6
:1058C0000818FE4308C004400C18FE430CC00440F6
:1058D0000C10FE430CB004401010FE4310B0044006
:1058E0001810FE4318B004401C10FE431CB00440C6
:1058F0001410FE4314B004400418FE4304C00440D6
:105900000010FE4300B004400008FE4300A0044025
:105910000408FE4304A004400C08FE430CA004400D
:105920000808FE4308A004401418FE4314C00440B5
:105930001818FE4318C004400410FE4304B004408D
:105940000810FE4308B004401400FE4314900440C5
:105950004C08FE434CA004400420FE4304D0044005
:105960002410FE4324B004402010FE4320B0044025
:105970002810FE4328B004402C10FE432CB00440F5
:105980000020FE4300D004404808FE4348A00440E5
:105990001000FE43109004400000000000000000D2
:1059A000BD250000E12500007526000071260000DD
:1059B0006D260000692600006526000031260000E3
:1059C000452600002D260000252600001D2600008B
:1059D0001526000005260000F5250000F125000031
:1059E0009125000099250000A1250000A9250000AF
:1059F000C9250000B12500001519151519FFFFFF75
:105A000000010000788CFF1F12000000000200005F
:105A1000A48CFF1F9500000000030000548DFF1FA1
:105A200000000000010309048C8CFF1F000000002F
:105A3000020309043C8DFF1F00000000030309045A
:105A4000588DFF1F00000000000000000000000053
:105A500000000000706F770000000000FFFFFFFFF4
:105A6000000000000000304300000000000030C3D0
:105A7000708DFF1FF8B500BFF8BC08BC9E4670478C
:0C5A80004158000035040000750F0000C4
:045A8C00F8B500BFAA
:105A90000000000048494A4B4C4DFAF8040006004B
:105AA00008000000000000000507090A0BFC0000C8
:105AB000172016191406150509040A03080000002A
:105AC000FFFFFFFFA059000000000000E8030000F6
:105AD000000000000A040100120101010000004062
