:1000000000000320D1010000552B00000D2B000043
:100010000D2B00000D2B00000D2B00000D2B000000
:100020000D2B00000D2B00000D2B0000552B0000A8
:10003000552B00000D2B0000893A00008D3B00007D
:10004000552B0000552B0000552B0000552B0000B0
:10005000552B0000552B0000552B0000552B0000A0
:10006000552B0000552B0000552B0000552B000090
:10007000552B0000552B0000552B0000552B000080
:10008000552B0000552B0000552B0000552B000070
:10009000552B0000552B0000552B0000552B000060
:1000A000552B0000552B0000552B0000552B000050
:1000B000552B0000552B0000552B0000013300008C
:1000C000552B00002D340000552B00005935000041
:1000D000552B000051360000552B0000552B000019
:1000E000552B0000552B0000552B0000552B000010
:1000F000552B0000552B0000552B0000552B000000
:10010000552B0000552B0000552B0000552B0000EF
:10011000552B000029190000552B0000552B00001D
:10012000552B0000552B0000552B0000552B0000CF
:10013000552B0000552B0000552B0000552B0000BF
:10014000552B0000552B000049370000552B0000AF
:10015000552B0000552B0000552B0000552B00009F
:10016000552B0000552B0000552B0000552B00008F
:10017000552B0000552B0000552B0000552B00007F
:10018000552B0000552B0000552B0000552B00006F
:10019000552B0000552B000041380000552B000066
:1001A000552B0000552B0000552B0000552B00004F
:1001B000552B0000552B0000552B0000552B00003F
:1001C000552B0000552B0000552B0000552B00002F
:1001D0005C4B4CF2205210B51A804DF628121A8052
:1001E00000BF00BF02F0BAFC574B4FF030621A60FC
:1001F000564A9A60564ADA60564B4FF470021A60BB
:10020000554B564A1A60564A136813F4807304D14A
:1002100054490B604FF4A8531360534B1A781107DD
:1002200003D51A7842F008021A70504B5049AA229E
:100230001A70504A504B8B4204D252F8040F43F8C4
:10024000040BF8E74D4B4E4900228B4202D243F893
:10025000042BFAE74B494C4A002352F8230041F89B
:1002600023000133742BF8D1484B494A802103F80D
:10027000011B9342FBD1474B424A1A60464B8A22EC
:100280001A70A3F5805324225A70A0221A709A790A
:100290009207FCD59A79D406FCD4404A937903F0AE
:1002A0000C03082BFAD13E4B60221A7002331A78E5
:1002B000802AFCD1394B01221A715D225A719A7938
:1002C0009006FCD59979354A4906FBD5354B364918
:1002D00019600021596020231370937903F00C03F7
:1002E0000C2BFAD1314B324A1A60324B324A1A6027
:1002F00000225A60072243F8042C304AC3F80C2D20
:1003000062B601F0B9F9174B1B68DA0705D52C481E
:1003100000F0ECFE2B4B2C4A1A602C4B1B785B0632
:1003200009D5284C284B22689A4204D1244800F071
:10033000DDFE0023236005F035FA02F015FC02F023
:10034000CFFAFEE70E20054030800440823F0400D3
:100350000100002B88ED00E0002008E0030000858C
:1003600010D0034014D0034002D0074000E0074003
:10037000C40DFF1F8C5D00005008FF1FC40DFF1F40
:100380009414FF1F0002FF1F0000000000E400E0C3
:1003900064E400E008ED00E0005006400040064044
:1003A00001E007404480044000000602048004404D
:1003B000C010070014E000E01FBF02000000202072
:1003C00047714B5B1CE00340A5C3945A00F0074003
:1003D000FFFFFFFFFFFFFFFFFFFFFFFFFFFFFFFF2D
:1003E000FFFFFFFFFFFFFFFFFFFFFFFFFFFFFFFF1D
:1003F000FFFFFFFFFFFFFFFFFFFFFFFFFFFFFFFF0D
:10040000FFFFFFFFFFFFFFFFFFFFFFFFDEF9FFFF23
:1004100010B5054C237833B9044B13B10448AFF33E
:1004200000800123237010BDC40DFF1F00000000D9
:10043000905D0000084B10B51BB108490848AFF3A8
:1004400000800848036803B910BD074B002BFBD0A0
:10045000BDE81040184700BF00000000C80DFF1F96
:10046000905D0000C40DFF1F000000000548064A13
:1004700010B40023054C03700121237011705DF846
:10048000044B7047DC0EFF1FCC0EFF1FE10EFF1F59
:10049000704700BF704700BF054B064AD978064B2E
:1004A00052F831100120002281F800011A707047C3
:1004B0007408FF1F885A0000CC0EFF1F154B1B78D5
:1004C0003BB310B41448154A03781278144C121137
:1004D00001330321DBB291409942037022700EDC9C
:1004E000104A137800210133137001700E4A0F4B2C
:1004F0001188D8785DF8044B013900F009BEB3EBE0
:10050000610FF3DB094B5DF8044BD878002100F054
:10051000FFBD7047CC0EFF1FE10EFF1F5B08FF1FE2
:10052000E40EFF1FDC0EFF1FDE0EFF1F7408FF1F0F
:1005300010B50E4B1B788342044613D00C4B1B782E
:10054000A3420CD00B4B1B78A34207D10A4C0B489B
:100550000B4A0023012123700370117010BDFFF7B7
:100560009BFFEFE7FFF7AAFFE8E700BF5C08FF1F6C
:100570007108FF1F5A08FF1FE10EFF1FDC0EFF1F4F
:10058000CC0EFF1F022800D070472DE9F047124B18
:10059000114C5B79114DDFF84CA0DFF84C908B4289
:1005A00008BF0F4B904608BF1A700E46671D14F81F
:1005B000013B9E4205D0BC4205F10105F7D1BDE8E3
:1005C000F087DAF800102B7801FB08F119F8030026
:1005D00000F09EFDEFE700BF5408FF1F6C08FF1FEF
:1005E0005B08FF1FD80EFF1F7408FF1FFFFFFFFFF0
:1005F0002DE9F0414C4C04F10C06254601E0B542D2
:100600000ED015F8010B0028F9D0012100F0DCFF15
:100610009FED460A15F8010C00F02AFFB542F0D113
:100620000C23434F434D3B70184600F011FF3878C0
:10063000DFF8348104F05EFD9FED390B41EC110BC6
:1006400003F0DEFA51EC100B05F07AF83B782880C5
:10065000D81F04F05FFD9FED320B41EC110B03F04E
:10066000CFFA51EC100B05F06BF8C8F8000004E06D
:10067000002100F04DFDB44215D02078298800F00B
:1006800047FD642000F0A6FF14F8010B2028EFD1ED
:100690000021212000F03CFD14F8010C002100F0A5
:1006A00037FDB442E9D1244C244FA06C244E03689A
:1006B000244DDB6947F612219847234A234B2449EE
:1006C000DFF8A8E02263032284F864206363214AF0
:1006D000E16300232049A2634FF6FF701F4A84F8AC
:1006E0004C3084F84E3084F84D30A365636584F84F
:1006F000E93084F8663084F8653084F8673084F82F
:1007000068306160164BCEF800101649E06520662F
:10071000E2603A60236033602960BDE8F08100BF89
:1007200000000000000000407408FF1F0050434814
:10073000E00EFF1FDE0EFF1FE00DFF1F2810FF1F42
:100740002410FF1FE00FFF1FBD0400006D04000018
:100750009904000091040000D10700008505000005
:10076000CD07000031050000D80EFF1F2C10FF1F21
:10077000022802D0042812D07047114B114AA3FB63
:100780000103DB0803EB4303A1EB8301C9B2535C14
:10079000002BF1D00C4A0021D05C00F0B9BC10B5A0
:1007A000094C0021A07800F0B3FC6078002100F033
:1007B000AFFC00212120BDE8104000F0A9BC00BF23
:1007C000ABAAAAAA6008FF1F7408FF1FFFF7D0BFDB
:1007D000F8B52E4B2E4D1F682B882E4CDB1B07FBCC
:1007E00001F67E2B26601ADC03FB0113002BB8BF39
:1007F0007F3307EBE31312FB07F6DFF8ACC0DFF83B
:10080000ACE0B6B20228ACF80060AEF8003012D00E
:1008100004280FD132BBBDE8F840FFF7A9BF1E4E38
:1008200003FB01F386FB03E61E44DB17C3EBA613B1
:100830003B44E0E7F8BD002AEDD0184B1848A3FB75
:100840000143DB0803EB4303A1EB8301C9B2435C23
:10085000002BEFD0134807FB02F1C05CBDE8F84065
:1008600000F056BC0F4F3146387800F051FC21683B
:10087000212000F04DFC2168787800F049FCB87820
:100880002988BDE8F84000F043BC00BFD80EFF1F28
:10089000DE0EFF1FD00EFF1F09040281ABAAAAAA19
:1008A0006008FF1F7408FF1FE20EFF1FD40EFF1F1A
:1008B000F8B50446806C03681B69984708B90020A6
:1008C000F8BDA06C03685B699847C3B203F0FB02F4
:1008D000F92AF4D0A26D82B994F84D2084F84F30F3
:1008E000150600F19E8040B20028C0F2648100200D
:1008F00084F84D00A0656065F8BD010669D494F8E0
:100900004F10F02904EB020140D081F84F30616DA7
:100910004B1E9A4240D394F84F20F02AE7D013069A
:100920003DD4002384F86630B02B4CD0A02B4AD0A5
:10093000D02B48D0E02B46D0C02B44D0002084F8E8
:100940006500032994F8500008BF94F8515084F8CA
:10095000670018BF002500210120B02B84F86850E3
:10096000A165616584F8E90000F0B78000F2AE800F
:10097000902B00F0B280A02B00F0AF80802B00F015
:10098000AC80002384F84D300120F8BD81F8693037
:10099000636D013B9A42AAD20132A2658FE702F150
:1009A0000C03DBB2012BBCD902F0FB03F92BB8D04E
:1009B000EF2A00F2FE8002F0F003802B84F866300C
:1009C00001D0902BB0D102F00F00013084F8650007
:1009D000B7E7A3F1F701082991D8012505FA01F03D
:1009E00010F4DD7F40F09680002988D194F86930BA
:1009F000F02B7FF47CAF561C2244F720370A82F894
:100A0000690084F8676084F8687084F8651084F879
:100A10004D10284684F8663084F8E950A165616578
:100A2000F8BD02F10C01CDB2012D7FF65CAF02F0F2
:100A3000FB05F92D3FF457AFEF2A2ED802F0F00650
:100A4000802E2BD140B20028FFF64EAF012084F853
:100A50004F2084F85030A065C9B201297FF647AF16
:100A600002F0FB03F92B3FF442AFEF2A5FD802F00C
:100A7000F003B02B26D01ED9D02B04D0E02B21D0F0
:100A8000C02B7FF434AF022363650121A36D99422B
:100A900027D90133A3650020F8BD164606F0DF050F
:100AA000902DCFD006F0BF05A02DCBD006F0EF06DD
:100AB000C02EC7D017E7902B04D0A02B02D0802BDC
:100AC0007FF415AF032363650221DFE7D02B04D049
:100AD000E02B02D0C02B7FF454AF84F84D200120CE
:100AE000F8BDEF2A94BF02F0F005154602F00F02A0
:100AF0000023013294F8501084F86520012084F816
:100B0000671084F8683084F86650A365636584F8DC
:100B1000E900F8BD002284F8672084F8682084F892
:100B2000652084F8663084F8E9502846F8BDA2F1C3
:100B3000F0030F2B3FF6DBAE01A151F823F000BF0D
:100B4000810B0000870A0000C50A0000870A000028
:100B5000EF080000EF080000950B0000EF08000010
:100B6000950B0000EF080000950B0000950B0000AE
:100B7000950B0000EF080000950B0000950B00009E
:100B800000218020F02384F84D10606584F86930DE
:100B90007F217BE70023012084F8653084F86730EB
:100BA00084F8683084F86620A365636584F8E900FA
:100BB000F8BD1346B6E61A4603F10C014CE700BF38
:100BC00090F86630803B7F2B43D8DFE803F0474244
:100BD00042424242424242424242424242425142E6
:100BE0004242424242424242424242424242AE4279
:100BF0004242424242424242424242424242A64271
:100C00004242424242424242424242424242AA425C
:100C10004242424242424242424242424242814275
:100C2000424242424242424242424242424289425D
:100C300042424242424242424242424242429B403D
:100C40005563424269426D42717579427D43036A40
:100C50001BBB7047436C002BFBD018470368002B6D
:100C6000F7D090F8682090F8671090F86500184762
:100C70004368002BF5D1ECE7426A002AE9D090F8EE
:100C8000683090F86700DB0103F47E5300F07F00CA
:100C900018431047836A002BDBD090F86700184791
:100CA000C36A002BD9D1D4E7036B002BD5D1D0E791
:100CB000436B002BD1D1CCE7836B002BCDD1C8E7A0
:100CC000C36B002BC9D1C4E7036C002BC5D1C0E7AF
:100CD0004369002BBDD090F8671090F86500184765
:100CE0008269002AB5D090F8681090F8673090F8C3
:100CF0006500C90101F47E5103F07F031943A1F59A
:100D000000511047C369002BA3D0B0F867108029A9
:100D100000F1690028BF80211847C368002BA0D1CB
:100D200097E70369002BD6D193E78368002B98D10E
:100D30008FE700BF2DE9F0479DF82040013CE4B269
:100D40000F2C03D84EB2002E0D4601DBBDE8F08714
:100D5000E0290FD9F729F9D90835EDB2012303FAB3
:100D600005F515F0DD0FF1D0806C0368BDE8F047A4
:100D70001B6818478146806C1F46036846EA0401D9
:100D8000C9B21B6890469847D9F84800036808F034
:100D90007F011B6805F0EF059847C02DD6D0D9F824
:100DA0004800036807F07F011B68BDE8F04718475B
:100DB00090F86430DA0718D513F0FE0F15D070B52F
:100DC00090F8665085F08002602A82B004460DD803
:100DD00090F865608E4231D081B35B08012B32D030
:100DE000032B00F0988002B070BD7047A5F1F003AE
:100DF0000F2BF8D801A252F823F000BFEF0E00002D
:100E0000CF0E0000A10E0000810E0000E70D0000D3
:100E1000E70D00005B0E0000E70D00005B0E000018
:100E2000E70D00005B0E00005B0E00005B0E000093
:100E3000E70D00005B0E00005B0E00005B08012B5D
:100E400001D0022BCFD194F8683094F86720009637
:100E500029462046FFF76EFFC5E705F10803DBB220
:100E6000072BC0D8012202FA03F313F0DD0FBAD02A
:100E7000A06C03681B68294602B0BDE870401847A3
:100E8000806C94F867500368F3211B689847A06C46
:100E90000368DB6C05F07F0102B0BDE870401847C5
:100EA000806C94F86730026894F868501268F221F8
:100EB00043EAC5159047A06C036805F07F019B6C61
:100EC0009847A06C0368C5F3C6119B6CE4E7806C7F
:100ED00094F8675094F8683002682D0103F00F030E
:100EE00005F070051268F1211D439047C0E7B0F886
:100EF0006760802E28BF802600F16905002E3FF430
:100F000072AF2E44A06C15F8011B03681B6898474C
:100F1000B542F7D167E794F8683094F867200096F7
:100F20002946FFF707FF5EE738B5184C94F84C5098
:100F3000102D04D90020BDE8384001F0EBB920465F
:100F4000FFF7B6FC0028F5D094F86630902B0FD050
:100F500083F08003602B0ED90C48FFF731FE294641
:100F60000A48FFF725FF0020BDE8384001F0D2B95C
:100F700094F8683033B194F865309D42ECD0002D80
:100F8000EAD0ECE7802384F86630F4E7E00DFF1F39
:100F900070B5214C214A94F86430A26400250122E6
:100FA00043F0010362F3470329464FF6FF7604F14D
:100FB0006900802284F8643084F84C5084F84D50E5
:100FC00084F84E506565A56584F8655084F86650D0
:100FD00084F8675084F8685084F8E950E66526661E
:100FE00004F008FC204625606560A560E560256189
:100FF0006561A561E56125626562A562E5622563BB
:101000006563A563E56325646564054A0549BDE834
:10101000704004F0B5BB00BFE00DFF1F8808FF1F44
:101020005008FF1F9504000010B4114B53F83020F6
:1010300092F8804234B1012379B182F880305DF8B2
:10104000044B704703EBC0035B681A6851B922F088
:1010500002021A605DF8044B704782F800315DF8B7
:10106000044B704742F003021A605DF8044B70476E
:10107000885A00001C4A02EBC00301295B6811D0AA
:1010800004291BD052F83000002280F8802229B1B8
:10109000022920D0032922D01A6070474FF48072B1
:1010A0001A60704752F830004FF4A27280F8801234
:1010B0001A601A6822F020021A60704752F8301045
:1010C0004FF4A272012081F880021A601A6842F07F
:1010D00020021A60704740F203121A6070474FF402
:1010E00081721A60704700BF885A000030B4054B07
:1010F000054D064C002210211A602A6020601960FC
:1011000030BC704714D0034004D0034000D00340EB
:1011100038B5A0F14203012B044624D900297ADD19
:10112000994B1B78012505FA03F28A4202D83F2821
:101130002CD938BDC21E012A30D9A0F11D02012AC6
:1011400078D90E285BD9A4F12302032A5CD9A4F133
:101150001002012A94BF8D4A8D4A126802FB0112C7
:1011600022FA03F320E0884B1B780B2B0AD90C2BB7
:101170001CBF0C3B1941422C084657D0BDE83840F3
:1011800001F0A6BCC3F10C039940F4E72946FFF730
:101190004BFF2946BDE83840FFF76CBF7D4A126817
:1011A00002FB011222FA03F3A21E242A00F2E380BA
:1011B000DFE812F0DA00D300CC00C500BE00B700B3
:1011C000B000A900A200E100E100E1009B00E10005
:1011D00094008D00E100E10086007F00780071003E
:1011E000E100E100E100E100E1006A006300E100EC
:1011F000E100E100E1005C0055004E00470044F2D0
:101200008412C240D2079ED5634A126802FB0112C3
:1012100022FA03F3C8E73F288BD80021FFF704FF29
:1012200020460121BDE83840FFF724BFBDE8384023
:1012300001F030BC594A126802FB011222FA03F392
:10124000B2E75749574A0B604FF45173136038BDEA
:101250005549564A0B604FF45173136038BD5449D9
:10126000544A0B604FF45173136038BD5249534ACE
:101270000B604FF45173136038BD5149514A0B60F4
:101280004FF45173136038BD4F49504A0B604FF40F
:101290005173136038BD4E494E4A0B6040F24443CF
:1012A000136038BD4C494D4A0B6040F24443136013
:1012B00038BD4B494B4A0B6040F24443136038BD84
:1012C00049494A4A0B6040F24443136038BD4849DB
:1012D000484A0B6040F24463136038BD4649474AB0
:1012E0000B6040F24463136038BD4549454A0B60CA
:1012F00040F24443136038BD4349444A0B6040F216
:101300004443136038BD4249424A0B6040F24443B3
:10131000136038BD4049414A0B6040F244431360BA
:1013200038BD3F493F4A0B6040F24443136038BD2B
:101330003D493E4A0B6040F24443136038BD3C498E
:101340003C4A0B6040F24443136038BD3A493B4A83
:101350000B604FF45173136038BD3949394A0B6043
:101360004FF45173136038BD3749384A0B6040F26F
:101370004443136038BD3F2C3FF6DBAE7F29D4BF1A
:1013800000210121204649E78008FF1F08900C40FA
:10139000088003400890034008900B4008800B40F1
:1013A00048900B402CB0044040900B4028B00440C3
:1013B00038900B4024B0044030900B4020B00440E3
:1013C00018800B404CA0044010800B4048A0044003
:1013D0001880034008B004401080034004B004406B
:1013E0004080034018C004403880034014C00440CB
:1013F00018900C4004A0044010900C4000A0044041
:1014000018900B4004C004402880034010B00440F2
:10141000208003400CB0044028900B400CC00440D6
:1014200020900B4008C004403080034010C00440AE
:10143000488003401CC0044018900340349004408E
:10144000109003403090044010900B4000C00440C6
:1014500038B1102828BF1020044AC3B21078137086
:101460007047024A01231078137070478008FF1FED
:10147000A0F11001C9B2012970B45BD9DFED3B7A4C
:101480003B4AB4EEE70AF1EE10FA47F6122346BFE4
:101490001A4602250125DFED376A002322FA03F4FC
:1014A00007EE904AF8EEE77A27EEA67AB4EEC70A7E
:1014B000F1EE10FA07DA0133072BEFD1D20907EE6C
:1014C000902AF8EEE77A87EE807A4FF6FF74C21E14
:1014D000F6EE007A77EE677AFCEEE77A17EE906A1E
:1014E000A64228BF2646012A344637D917280ED9E6
:1014F000A0F11D02012A35D90E281ED92338032850
:1015000020D9012914D81C4A1C4E1D481DE01D4A33
:10151000C24002F0010282F00106002AE8D01A4A15
:101520001A481B49166043EAC50306600C60136045
:1015300070BC7047174A0125ADE744F28412C240DF
:10154000D207DBD5144A154E154843EAC5030021DE
:10155000116031600460136070BC7047114A124E14
:101560001248F2E7124A134E1348EEE7C0E1E44096
:10157000008793030000803700900C4004900C40DB
:1015800008900C406006F000008003400480034097
:10159000088003400024F40000900B4004900B40AE
:1015A00008900B40009003400490034008900340D3
:1015B00000800B4004800B4008800B403F2801D87E
:1015C000FFF732BD704700BF3F2801D8FFF752BD7B
:1015D000704700BF2DE9F843054672B6224F234BF2
:1015E000234A1B683C68126862B6520102D5322B4E
:1015F00088BF0134B5B3C3F52F3303F21F331D4E3B
:10160000DFF86890DFF868809B084FF47A72A6FBD9
:10161000031302FB04F404EB930472B6D9F8001030
:101620003A68D8F800E062B6C1F52F3303F21F33F1
:101630009B08A6FB03031EF0806FC4EB93034FF4DB
:101640007A7002D0322988BF013200FB0233B3F531
:101650007A7F04D3013D05D004F57A74DDE701F00B
:1016600047F9DAE7BDE8F883E80EFF1F18E000E06D
:1016700004ED00E0176CC116F8B54E4B4E48DFF88C
:101680005CC14E4C4E49DFF858E14E4E4E4D4F4F27
:101690004FF000621A604FF080521A604FF0005213
:1016A0001A604FF080421A604FF000421A60002228
:1016B000026028234EF6FF70CCF80000CEF8003010
:1016C00023600EF5012E0B6033602B6006F50026BB
:1016D0003B6005F50025A36207F500278B6204F542
:1016E000012401F5012106F6E87605F6E87507F50F
:1016F0007F6710310EF1100E203433602B60CEF86E
:1017000000303B600B602360314CBB618B61092171
:101710002160A7F5002704F58054203F08343A6083
:101720002060BB60E36047F8041C04F5FD2407F566
:10173000FE27043704F2FC7422603860A360FB606B
:1017400044F8041C083404F6FC74C7F8FC2F20602D
:10175000A4F5E124A4F2DC7433602B60C7F8F81F11
:1017600021681C4841F40071216001681A4C0EF593
:101770007F4E0EF1E80E07F5883706F5803605F541
:10178000803541F000710160CEF8002047F6FF710E
:101790000822396033602B60226001F00BF932209F
:1017A000FFF718FF00F0CCFC4FF4AF70BDE8F84035
:1017B000FFF710BF04E100E0048003401480034001
:1017C0001C800340248003402C800340348003406D
:1017D000008003400480044000900C4008800340D7
:1017E0000C800340431E032B14D872B60A4951F8EB
:1017F000230068B170B4094C058834F8132046689A
:1018000041F82360521B24F8132062B670BC704765
:1018100062B6704700207047440FFF1F6013FF1F20
:10182000F0B472B61A491B4E012311F8014B194F3F
:101830009A00240742F0010505D556F8324064B1FC
:1018400056F83520BAB10133052BEED162B6124BF2
:1018500000221A70F0BC00F0FBBC0F4C0F4D217839
:1018600047F8325007EB431308304A1E5860227085
:1018700062B6F0BC70470849094B0A7847F8353022
:1018800007EBC5030830013A58600A7062B6F0E70A
:10189000E85C00000000FF1FC10FFF1F8800400030
:1018A000C8004000431E032B1DD81B4A400140F0D6
:1018B000100030B4104472B6184CE25C032A1BD8F6
:1018C000DFE802F00212151703220D88E25410F02F
:1018D000080F14BFC823882343EA05430831036077
:1018E000416062B630BC704708300222EDE7052245
:1018F000EBE708300422E8E7094A52F8230038B140
:10190000084A52F82300416042F8231062B6E9E722
:1019100042F82310034AF7E70000FF1FD00FFF1F14
:10192000980FFF1FA80FFF1F2DE9F04FDFF814A33A
:10193000DFF814B387B044E0AC4F4FEA930807EBED
:10194000C809013ED9F8042003F00803F6B2A2F159
:10195000080003F0FF04002B40F0FE8057F83830F9
:101960001B0C99B222F8081C002B00F0EC80A04B55
:1019700022F8064C42F8044C53F82620002A00F0C6
:10198000CD819C4D55F8263058609B4C45F826007B
:1019900034F81630194424F8161000F039FC0028E9
:1019A00000F0C081954A964B19F0080F00F108002D
:1019B00018BF1346C9F8040047F8383008238AF8DE
:1019C00000309AF80040E4B261071CD58D4B1B78BB
:1019D000B3B18D490A7802F0FF0322B1013BDBB2BB
:1019E0000B7003B900BE89490A7802F0FF032AB1DF
:1019F000013BDBB20B70002B00F0668100F072FC43
:101A000004238AF8003004F0080303F0FF02002BDF
:101A100000F0C6809BF80030DBB21E098CD19A081A
:101A2000724F57F8321007EBC200C1F3830101393E
:101A300040680C2900F28380DFE801F0787881812A
:101A4000818181814281818107000168704D714BE4
:101A500040680193694B47F832306F4E686040F23E
:101A6000816288B26B4B29600024012190421C6086
:101A70003C61BC61317000F2E980B0F5D06F80F05C
:101A80000F82B0F5817F00F0DA8100F26B8180284F
:101A900000F00182822840F0D881A8885F4B00F0D6
:101AA0007F00042800F2D2815D4A80000344147054
:101AB00054701878840740F102831170022174E198
:101AC000544B01931A6832B3564B534E56481988FB
:101AD0003478057840298E4645F0020828BF4FF03B
:101AE000400E002C84F001043470CEEB01010CBFD9
:101AF0008824C82407EBC80689B285F0010544EAAA
:101B00000E447260198047F838407244057000290D
:101B100066D0019B1A603E4B1A88B2F5A06F0ED1B9
:101B200000219A785970414B1A7008E03849404CAE
:101B30000D68A54200F09980304947F832103D4ABF
:101B4000012313703AE72D4A2D4B19F0080F18BFE7
:101B5000134647F8383031E700F07AFB364A374908
:101B600052F82630002B00F0E48058688C5D42F873
:101B7000260003F10802C9F80420032C05D8DFE889
:101B800004F02C02292602228A551A8819F0080F1F
:101B90000CBF8823C82343EA024347F838300DE7D7
:101BA000E00700F19480210600F1D280A20706D55B
:101BB000234A244913780220DBB213700870E3062D
:101BC00002D5204B10221A7007B0BDE8F08F042216
:101BD0008A55DAE705228A55D7E703228A55D4E7E2
:101BE000BEF1400F18BF002293E700BF0000FF1FA7
:101BF000440FFF1FF00EFF1F6013FF1FC8004000BF
:101C000088004000CC0FFF1F550FFF1F3C10FF1F27
:101C1000B80FFF1FEC0EFF1F540FFF1FC02007401F
:101C2000C40FFF1F000FFF1FC00FFF1F98200740AA
:101C30002109000394200740980FFF1FD00FFF1FBA
:101C4000882007408020074090200740B0F5106FA3
:101C500000F03E8140F2A28040F62112904240F016
:101C60001C82A44A0123137069E74C68A2498C4284
:101C70007FF462AF0178A9297FF45EAF41784529EE
:101C80007FF45AAF8178C2297FF456AFC1786B29AF
:101C90007FF452AF99489A4E0178347881F001056B
:101CA000002C41F0020105700CBF8820C82084F090
:101CB000010447F8310007EBC10192483470002558
:101CC00005244D60047037E700F074FD96E68E4BF6
:101CD00088488A491A614FF0020E80F800E08B4F65
:101CE0000A708B49196099608A4E8B4D8B4C9A61B2
:101CF0000D213970FF213170DFF848E22970227020
:101D0000874D884A8EF800109F27012406F8047C2E
:101D10005D600470DA6007B0BDE8F08F43F826001C
:101D2000814D32E6814A47F8380013780133137049
:101D300044E68B5D032B00F2A78001A252F823F04A
:101D4000BD190000BD190000971D0000911D000085
:101D50006E49714B80220D2008701A70A2077FF522
:101D60002EAF25E740F20232904240F08E81AA88E1
:101D700002F07F02042A68D86D88002D65D163487F
:101D8000029192001044027842F00202027048E18F
:101D900001238B5512E600238B550FE6B0F5086F33
:101DA00053D16348634A00781070ED888D4280F00B
:101DB0009B815248047844F0020C07EBCC01402D83
:101DC000AE464FF0010328BF4FF0400E4A6002EBD1
:101DD0000E09CEEB05014FEA0E4802930025C822FA
:101DE00042EA080384F0010247F83C303570027083
:101DF000DFF814C1424BDFF8048151BBBEF1400F44
:101E00007FF42FAF42F0020207EBC203DFF8F8E0E5
:101E1000C3F8049095BB0D0445F088059DF8083083
:101E200033704029047009EB01034EF832507FF4FF
:101E300018AF0021404A01981180036011E7AA8879
:101E400002F07F02042A40F22D81304B0F221A70DB
:101E500007E74029D6D942F002020CEBC200C0F8D5
:101E600004907DB135489DF808501D70403988F8C0
:101E7000004009F140034CF83200DBE70D0445F067
:101E8000C805CBE72248EEE719F0080F0CBF022384
:101E900003238B5592E5274A02211470547084E77E
:101EA00027494A68002AD0D06C88B5F804E003E0DE
:101EB0000C314A68002AC8D00B88A342F8D14B885D
:101EC0007345F5D1240A032C0CBF117809896CE7FE
:101ED000174A0D4CA978117004F1800502E008340E
:101EE000AC4231D0236A1A06F9D5606A083800F08E
:101EF000AFF9F4E79420074001000400C00FFF1F72
:101F0000540FFF1F550FFF1F0000FF1FC020074089
:101F10008800400088200740802007409820074024
:101F2000040FFF1F580FFF1FF00EFF1FC10FFF1FF1
:101F3000CC0FFF1FC40FFF1F000FFF1FC800400082
:101F4000EC5C00008C2007406F49704B704A029196
:101F50007049714D714C059603954FF00009884604
:101F600016461D460494286828B1446800F070F9AC
:101F70002046002CF9D100232B60039B30681A46C1
:101F8000002342F8293028B1446800F061F9204666
:101F9000002CF9D100223260029A98F800301146E4
:101FA000002241F8042B049A0291023B4FF00001F9
:101FB00022F81910032B07D8DFE803F04702470285
:101FC0004FF0010388F8003009F10109B9F1040F5D
:101FD00005F1040506F1040608F10108C3D1504BD0
:101FE000059EDFF85491DFF8548100211970012516
:101FF00018F8013B09F8043B1B072BD4AC0044F054
:10200000020244F00304002347F8323047F834302A
:10201000444B994505F10105EAD13378029383F0E9
:1020200001050021894688468E460A463E480478C6
:1020300044F0020C07EBCC030393029B002B039BA1
:102040005A600CBF8822C822CAE64FF0000388F805
:102050000030B9E700F0DCF8AC0007EB451300F105
:102060000802002837D05A60304B47F8343000F06F
:10207000CFF844F0010307EBC30200F1080100B3FD
:1020800051602B4A47F83320B9E7B0F5A06F7FF4D1
:10209000DCAE012300250293C3E740F621229042E3
:1020A000F7D0D2E66D88002D7FF4CFAE21480291A3
:1020B00092001044027822F002020270B1E702217D
:1020C00073E6174B44F001021B7847F83200144ABC
:1020D0000133137093E7124B114A1B78AC000133A4
:1020E00047F834001370C2E740298E464FF00103D1
:1020F00028BF4FF0400ECEEB01014FEA0E4802EB35
:102100000E090025029391E7A80FFF1F440FFF1F40
:10211000980FFF1FD00FFF1FF00EFF1F6013FF1F50
:10212000C10FFF1FD4200740C00FFF1F88004000D1
:10213000C8004000C0200740C4200740E85C000001
:102140002DE9F041274C01F0EDFB002204F188005D
:1021500023461A605A60083383424FF00001F8D1D9
:102160002148224A0368DFF89CE0214E214D224F8E
:10217000DFF894C0DFF8948043F480230360136891
:1021800043F04073136003238EF80030A0233370B4
:1021900002F5C922C4F3072300F528302B708030E4
:1021A000C4F3074310323B70240EFF230470134D19
:1021B0008CF80030124888F800301370012306F8BC
:1021C000AC3C4FF400140EF8441C7026102107F8A4
:1021D0002C3C2E70046082F8F810AEF1440EBDE87D
:1021E000F08100BF0000FF1F3480044000D8004091
:1021F000402107409C200740B020074035E400E024
:1022000004E100E044210740802007408820074087
:1022100072B60D480268B2FA82F30F2B10DC4FF051
:102220000041D94022EA0102026062B6074803EB8E
:10223000C303DB00C2180021C15010465160704733
:1022400062B60020704700BF8408FF1FD003FF1F45
:102250000D4B0E4AC31AA2FB03231B090F2B0CD8EC
:102260000B4A127852B972B60A484FF00041026820
:1022700021FA03F31A43026062B67047064A1278E5
:10228000002AF0D0FFF7CCBAD003FF1F398EE33815
:10229000C10FFF1F8408FF1FCC0FFF1F38B50E4B67
:1022A0000E4C1B68218805468BB1B1F5917F05D294
:1022B0000B4A4B1C55549BB2238038BD0022084862
:1022C00098470021064A55540123238038BDB1F5B3
:1022D000917FEDD338BD00BFF80FFF1F6A13FF1FBA
:1022E0007013FF1F094B1B787BB910B5084C216890
:1022F00009B14B8803B910BD9B000B800320FFF789
:10230000D1FAFFF785FF206010BD7047E80FFF1F6F
:102310001410FF1F2DE9F041AD4E33680746002B26
:1023200000F092801D885A88910803EB81010432E5
:10233000AA428C6842D25A8004F00F064FEA142851
:10234000A449A6F1080208F00F00C4F30313062AFB
:1023500000F101050B701AD9B31E012B5FFA88F04A
:102360004ED9052E48D0042E00F0A481731F022BF5
:102370007FD90F2E0ED1F72842D8F02802D0964BE5
:102380001B883BB1FFF78AFF0020BDE8F08127B131
:10239000BD4202D00020BDE8F081082EC4F3033313
:1023A00000F08780092E11D00A2E40F094800A2B6D
:1023B000F0D18A4B8A4A1B68A02181E01846FFF7BA
:1023C00047FF0420FFF70EFA3060B5E7092BE1D193
:1023D000270E00F07B81834B814A1B689021C4F358
:1023E00007461170EDB2FCB2002B00F09D80224632
:1023F00031462846984797E0F02843D9F72841D03E
:10240000F1380E28C6D801A353F820F0C3250000E8
:10241000A7250000952500009523000095230000C6
:102420008725000095230000672600009523000003
:10243000312600004B2600006F2500009523000088
:10244000572500003B250000674B1B78002BA1D0CF
:102450000420FFF7C7F90346306000289AD00588AA
:10246000002D7FF460AFFFF7F3FE35602846BDE82E
:10247000F081FFF713FFC4F30740FFF70FFF072EAC
:1024800002D1200EFFF70AFF534B584A19885848CB
:102490001468584D524A017000270E0AF0201F8020
:1024A0002E7010700CB301225348A0470120BDE8E4
:1024B000F081082B7FF46EAF504B494A1B68802196
:1024C000C4F307461170EDB2240E6BB328462246C2
:1024D0003146984728E00B2E11D10B2B7FF45AAFD1
:1024E000474B3F4A1B68B021EAE7464B1B68002B6D
:1024F00000F0FB80404898470120BDE8F0810C2E99
:1025000040F000810C2B7FF445AF3F4B344A1B68F1
:10251000C0211170EDB2C4F30746002B00F0C88053
:1025200028463146240E98473849314A314B0D70C0
:1025300016701C700120BDE8F081354B1B68002B24
:1025400000F0D6809847C4F30746254BEDB2240E21
:1025500083F80080E8E72F4B1B68002BF2D12E4B4D
:102560001B68A3B1FE209847C4F30746EDE72B4B49
:102570001B68002BE6D1284B1B6843B1FC20984711
:10258000C4F30746E1E7264B1B68002BDAD1C4F3FE
:102590000746DAE7234B1B68C4F30746002BD4D069
:1025A00030469847D1E7204B1A68002AEFD0260C16
:1025B000630C06F07F0003F47E531843F6B2904795
:1025C000C3E71A4B1B68C4F30746002BE8D1BCE7EE
:1025D0001C10FF1F6E13FF1F6A13FF1FFC0FFF1F4E
:1025E0006813FF1F2C10FF1FCC0FFF1FF80FFF1FDA
:1025F0006C13FF1F6D13FF1F7013FF1F2410FF1FAD
:102600002810FF1F1010FF1FEC0FFF1F6F13FF1F7D
:10261000D80FFF1FDC0FFF1FE00FFF1F1810FF1F59
:102620000C10FF1F2010FF1FF40FFF1F0810FF1FCB
:102630003F4B1B68002B85D13E4B1B68002BA6D05F
:10264000FA209847C4F307467FE73B4B1B68002BF3
:102650007FF478AF374B1B68002B98D0FB2098474E
:10266000C4F3074671E7354B1B68002B7FF46AAF54
:10267000304B1B68002B8AD0F8209847C4F30746DC
:1026800063E70E2B7FF486AE2D4A2E4B1268E021B5
:102690001970002A47D0260C610C06F07F0301F464
:1026A0007E511943EDB2A1F5005128469047F6B28C
:1026B000240E39E7FFF7F2FDC4F30740FFF7EEFD04
:1026C000200EFFF7EBFD0020BDE8F0811E4B1D4AF8
:1026D0001B6880211170EDB2C4F3074683B1314607
:1026E00028463A4698473C461EE70120BDE8F0815F
:1026F000104B1B68002B3FF44AAFFF20984746E77A
:102700001C4611E70D2EBCD10D2B7FF443AE0F4BB1
:102710000C4A1B68D0211170EDB2C4F30746002BA0
:102720007FF4FEAEC4E7C4F30746EDB2240EFBE629
:102730000410FF1FE00FFF1FE40FFF1FD40FFF1F48
:10274000F00FFF1F6813FF1F2410FF1F0010FF1F53
:1027500038B5164D2868E0B101884488A14213DDE0
:1027600003191B7A83B104F10803C2180C1B002360
:1027700002E012F8011F21B10133A342F9D1204632
:1027800038BD1C46204638BDFFF762FD002028609A
:1027900038BD074B1B780BB9002038BD0220FFF76E
:1027A00021F828600028D7D1F6E700BF3810FF1FB6
:1027B000CC0FFF1F0D4B1B78BBB910B50C4C21681B
:1027C00003F0FF024B883F2B07DC07330B4401F17A
:1027D000470003F8012F8342FBD140230B800120E7
:1027E000FFF760F80023236010BD70473010FF1F13
:1027F0003410FF1F0368C9B21B6818470368C9B2C9
:102800001B6818470368C9B21B6818470368C9B238
:102810001B68184708B5084600F064FC012008BD95
:1028200008B5084600F05EFC012008BD38B5084632
:102830000D4603F045F804460146284600F05CFCCE
:10284000204638BD10B508461446114600F054FC29
:10285000204610BD00F02EBD08B5084600F01AFC59
:10286000003018BF012008BD08B5084600F0F0FB95
:10287000003018BF012008BD0846114600F064BBB7
:10288000084600F0ABBB00BF084600F041BB00BFEC
:1028900000F0CEBA034B03EB5100B0FBF1F000F0B7
:1028A00009BA00BF002A751510B5064B144603EB94
:1028B0005100B0FBF1F000F0FDF92046BDE81040FA
:1028C00000F080BA002A751500F0DCBC00F0A6BC50
:1028D00000F094BC00F074BC00F07EBC704700BFF8
:1028E00008B5FDF785FEFEF71FFB00F001F8FAE7DB
:1028F00038B52C4C237803B138BD01232370FFF782
:1029000027FF002842D100F079FC00283BD100F0DD
:102910007DFD002834D100F00FFE70BB00F088FE72
:1029200040BB00F001FF10BB00F07AFFE0B90023CC
:102930002370EFF30583002BDED1EFF3108172B625
:10294000194B186828B3194C227812BB45691D60D1
:10295000012323700DB3AA6101B962B60025457742
:10296000836898472570C7E701F020F9DFE701F099
:102970001BF9D9E701F016F9D3E701F011F9CDE71A
:1029800001F00CF9C7E7FFF7A9FFC0E701F010F964
:10299000B9E70029B0D162B638BD054B1D600029EA
:1029A000DCD1DAE73D10FF1F5413FF1F5813FF1F40
:1029B0005013FF1F30B42948294A2A4B2A4D60245E
:1029C000E121047011701B78284C082B30D00A2BA1
:1029D0002748284937D00C2B0CBF35225D22122303
:1029E0002A60236002600B60234B24491B78244A31
:1029F000BBB101230B601360224B23491B78234A90
:102A0000012B26D9042B0FD9082B1ED9102B94BFCC
:102A1000862387230B6013601D4B01221A7030BC84
:102A200070470B601360E7E784230B601360F3E7E4
:102A300000F58E200F490830212213232A602360DD
:102A400002600B60D0E73922F7E785230B60136043
:102A5000E2E780230B601360DEE700BF0040074021
:102A6000014007409808FF1F08B003400CB0034026
:102A700008B00B400CB00B403F10FF1F20B00340CC
:102A800020B00B409908FF1F24B0034024B00B4036
:102A90003E10FF1F0A4A0B49136843F4805313602A
:102AA0000B7843B1084B80221A7080F30C00074B5F
:102AB00000B218807047044BC0221A70F5E700BFBF
:102AC0002C8004403F10FF1F21C00C4000C00C4070
:102AD0000A4A0B49136843F4005313600B7843B15F
:102AE000084B80221A7080F30C00074B00B218804C
:102AF0007047044BC0221A70F5E700BF2C800440D9
:102B00003F10FF1F21D00C4000D00C4008B5104CE6
:102B100008E0236859050DD423681A050FD42368EB
:102B2000DB0411D423685803F3D5FEF7FDFE2368B8
:102B30005905F1D500F0E4FB23681A05EFD500F044
:102B400075FC2368DB04EDD500F006FDEAE700BF65
:102B50003480044008B5FFF7D9FF00BF014B1022B5
:102B60001A80704700200540704700BFEFF31380C4
:102B700070B9EFF310836BB9EFF305825AB94FF4D4
:102B80008070EFF311832BB1984228BF184670472D
:102B90004FF0FF3070470F2A01D81846F1E7014B7C
:102BA000D05CEEE7F0E300E0084A1378802B01D018
:102BB000002070470649074B07480860002119703C
:102BC0001378802BFCD00120704700BF03E0074042
:102BD0004480044001E0074000002822094A13789D
:102BE000012B01D00020704703F1804303F5FC2343
:102BF000602119701378802BFCD1034B034A1A60B3
:102C00000120704703E007404480044000000602B2
:102C10002DE9F84F214B1B6807460BB101221A70B2
:102C2000DFF888901E4D99F80040DFF884801D4E33
:102C300001343F2C8ABF4FF0000A5FFA84FA5446F1
:102C4000AB462B78A34216D1FFF790FF40281FDC3C
:102C500033791B06F5D59BF8003001333F2B86BF37
:102C600000221346DAB218F80330DBB2F3712A708F
:102C70002B78A342E8D00C490A4BFFB208F8047045
:102C80000120BC22087089F800A0DA70BDE8F88F36
:102C9000FF28D6DDFFF72CFED3E700BFD010FF1FC3
:102CA000CD10FF1F00A00640CC10FF1FD410FF1F47
:102CB0004810FF1F324A33491368F0B543F480636C
:102CC00013600A78304F314E314D324C3249002377
:102CD000152A3B7033702B7023700B7045D01B2A64
:102CE0003ED082B32D4B1B78052B34D01A2B41D00C
:102CF000012B1BD01F281FD8002002460125284B7E
:102D0000284C1A7028495D7004224FF0020E882763
:102D10003C26402598729A704FF0004083F813E0EB
:102D20005A751F74DE7025700860F0BD1F4B4FF49C
:102D300051721F281A60DFD9C0F34432C0F347151F
:102D400000F01F00DBE71A4B40F213321A60134BFE
:102D50001B78052BCAD1174B4FF451721A60C9E783
:102D6000154B40F213321A60BCE7144B40F2133299
:102D70001A60B7E7124B4FF451721A60BAE700BFFE
:102D8000348004408810FF1F4410FF1F4510FF1FB0
:102D9000D410FF1FCD10FF1FCC10FF1F9A08FF1F7C
:102DA00000A006401FE400E000E100E044A0044071
:102DB00040A004401CC004403C90044018C00440A3
:102DC00038900440194B19499B7803F0EC0200F04D
:102DD00003031343420700F00F0248BF43F0100300
:102DE000042A8B701CD0114B104A5B79C10603F08A
:102DF000EF0348BF43F0100353719379820603F049
:102E0000EF030A4A48BF43F010039371C30506D588
:102E100053781178DBB241F0200111705370704784
:102E20008B7943F040038B71DDE700BF00A00640C3
:102E3000284B1B685B0533D510B5274C237823B18D
:102E4000FFF756FD2378002BFAD12448244A254B5E
:102E50004FF0004400210460D1701B78152B20D066
:102E60001B2B32D01BB9204B40F203121A601F4BB0
:102E70001B7803F07F03052B1DD01A2B20D0012BCC
:102E800003D11B4B40F203121A601A4B1A481B491C
:102E90001A68002303700B700AB10123137010BD70
:102EA0007047174B40F203121A60104B1B7803F067
:102EB0007F03052BE1D1134B40F203121A60E4E7C4
:102EC000114B40F203121A60DFE7104B40F203127D
:102ED0001A60CCE734800440CC10FF1F80E100E092
:102EE00000A006408810FF1F40A004409A08FF1F62
:102EF00044A004404010FF1F4410FF1F4510FF1F57
:102F000018C004401CC00440389004403C90044069
:102F10000A4A38B50546137803F0FF04002BFAD1AE
:102F200001212846FEF750FB21462846FEF746FBC6
:102F3000034A044B52F835201A6038BDCC10FF1FED
:102F4000885A0000D010FF1F09B140F080001E4ACF
:102F5000137898421BD010B41C4C2468640513D518
:102F600003F07F03052B2AD01A2B24D0012B14D079
:102F7000002900F07F0114BF60234423052915D0E8
:102F80001A290ED0012903D010705DF8044B704748
:102F90000F4943F440730B60F6E70D4B00241C60AF
:102FA000E6E70C4943F440730B60EDE70A4943F44C
:102FB00040730B60E8E7074B00241C60D8E7064B22
:102FC00000241C60D4E700BF9A08FF1F348004402F
:102FD00044A00440389004401CC00440174A1378B1
:102FE00083420ED016490968490509D5152B20D012
:102FF0001B2B1AD05BB115280DD01B2810D008B19F
:10300000107070470F4B40F213311960F8E70D490B
:1030100015280B60F1D10C4B40F213311960EFE72A
:103020000A4B40F213311960EAE7084B002119609E
:10303000E1E7054B00211960DDE700BF8810FF1FA5
:103040003480044040A0044018C004403C90044038
:103050000D4B1B6813F4806305D03F2805D90B4B3B
:1030600000201860704718467047094B10B5074C90
:1030700053F8303023600121FEF7A6FA23680022BE
:103080001A70012010BD00BF348004404010FF1FA3
:10309000885A00000F4B1B6813F4806308D0122875
:1030A00008D0142811D00C4A537B03F0FE0353734D
:1030B00000207047094B40F202321A60064A537BE7
:1030C00043F00103537301207047054B40F2023275
:1030D0001A60F3E73480044000A006400CA00440CE
:1030E00014C00440034B1B685B0501D5FFF790BD7E
:1030F000704700BF348004402DE9F84F294B1B680E
:103100005A0548D5284B1B6805460BB101221A7099
:1031100005EB010A554540D2DFF89C80234CDFF8CF
:103120009C90234F0AE015F8012B09F80B20214A47
:103130000123AA45137088F800602ED098F800305B
:10314000227803F1010BBBF13F0F86BF0026B34687
:103150005FFA8BF69345E6D1BC22FA7005E03A7926
:1031600013060BD422789345DDD1FFF7FFFC4028EE
:10317000F5DDFF28F6DDFFF7BBFBF3E72278013230
:103180003F2A86BF00210A46D1B219F80220D2B2E6
:10319000FA712170E6E7BDE8F88F054BBC22DA70C2
:1031A000BDE8F88F34800440D010FF1FCD10FF1F02
:1031B00000A00640CC10FF1FD410FF1F4810FF1FB7
:1031C00010B5044C237823B1FFF792FB2378002B32
:1031D000FAD110BDCC10FF1F064A074B1B781078A0
:1031E000DBB2C0B283422CBF3F3000F1FF30C01AC7
:1031F000704700BFCD10FF1FD410FF1F054A064BBC
:1032000010781B78C0B2DBB2984238BF4030C01A89
:10321000704700BF4410FF1F4510FF1F30B4154B0F
:10322000154C1A782378D2B2DBB29A421ED0013301
:103230003F2B0ED91149124B087819680023C0B2F0
:10324000237021B1D31A1A2B01DC00230B7030BC80
:1032500070470A480A49C05C0968DDB2C0B22570EF
:103260000029F4D09A4238BF4032EBE74FF0FF30EC
:10327000EDE700BF4410FF1F4510FF1F8C10FF1F1C
:103280004010FF1F084A094B12781B78DBB29A42A4
:1032900007D00133402B28BF0023054AD05CC0B2C1
:1032A00070474FF0FF3070474410FF1F4510FF1F5D
:1032B0008C10FF1F0D4B1B685B0516D530B40C4BF3
:1032C0000C4CDA780C480D4902F0CB024025DA703C
:1032D0005D74DA7842F03402DA7023780268DBB287
:1032E0000B700AB10023137030BC70473480044067
:1032F00000A006404510FF1F4010FF1F4410FF1F95
:10330000F0B4384B1A7912F0300F2CD072B6997D88
:1033100001F0FF0200293DD062B6334F33493878BF
:103320000D78334E1C46C0B2EDB2431C402BE17900
:1033300028BF0023AB4202F1FF32C9B21CBFF154D7
:10334000184612F0FF02F0D12A4B1B68C2B23A7045
:103350004BB1A84236BFC5F14005401B4019272894
:10336000C4BF01221A701F49CA78D2B2150616D4FA
:1033700052060DD51B4B1B795B0609D51E4B1F4909
:103380001B6800220A7003B11A70164B3C22DA70D7
:10339000F0BC70474022D9795A7462B6E3E70B79E2
:1033A0001C06E5D5164B174E1C783378E4B2DBB219
:1033B0009C420ED0144D01E0A3420AD00133402BB1
:1033C00028BF00230879E85CC0B2C871087D0728CF
:1033D000F2D9DBB2034933700B79180644BF7C2362
:1033E000CB70C5E700A006404410FF1F4510FF1F2B
:1033F0008C10FF1F4010FF1FD010FF1FCC10FF1FAD
:10340000D410FF1FCD10FF1F4810FF1F054A064BA9
:1034100010781B78C0B2DBB2984238BF4030C01A77
:10342000704700BF4811FF1FDD10FF1FF0B4384B7D
:103430001A7912F0300F2CD072B6997D01F0FF028C
:1034400000293DD062B6334F334938780D78334E7A
:103450001C46C0B2EDB2431C402BE17928BF0023CB
:10346000AB4202F1FF32C9B21CBFF154184612F050
:10347000FF02F0D12A4B1B68C2B23A704BB1A8428E
:1034800036BFC5F14005401B40192728C4BF0122A3
:103490001A701F49CA78D2B2150616D452060DD535
:1034A0001B4B1B795B0609D51E4B1F491B6800226D
:1034B0000A7003B11A70164B3C22DA70F0BC7047E8
:1034C0004022D9795A7462B6E3E70B791C06E5D538
:1034D000164B174E1C783378E4B2DBB29C420ED008
:1034E000144D01E0A3420AD00133282B28BF00234A
:1034F0000879E85CC0B2C871087D0728F2D9DBB250
:10350000034933700B79180644BF7C23CB70C5E7A1
:1035100000B006404811FF1FDD10FF1F0811FF1FFC
:10352000D810FF1F4C11FF1FDC10FF1F5011FF1F91
:103530004911FF1FE010FF1F054A064B10781B784A
:10354000C0B2DBB2984238BF4030C01A704700BFEB
:103550005811FF1F5911FF1F30B42B4B1A799406D5
:103560001FD52A48DA790378294901333F2B097896
:10357000C8BF00238B42D2B203D0264CD9B2E2544A
:103580000170254A116861B1244A1278D2B293427F
:1035900036BFC2F140029B1A9B18272BC4BF0123E0
:1035A0000B70194AD378DBB2180611D45A060DD520
:1035B000154B1B795B0609D5194B1A491B6800226C
:1035C0000A7003B11A70104B2C22DA7030BC7047AD
:1035D00011790906EAD5144910480C780178C9B266
:1035E0008C420DD04A1C272A84BF00210A460F4D69
:1035F000054C98BFD1B2AA5CD2B2E2710170D5E796
:103600006C21D170D2E700BF00C006405811FF1FE7
:103610005911FF1F8411FF1F5411FF1FC511FF1FF8
:10362000C811FF1FC411FF1FCC11FF1F5C11FF1F2A
:10363000054A064B10781B78C0B2DBB2984238BFFF
:103640004030C01A704700BFD411FF1FD511FF1FB3
:1036500030B42B4B1A7994061FD52A48DA790378AF
:10366000294901333F2B0978C8BF00238B42D2B2CE
:1036700003D0264CD9B2E2540170254A116861B1D9
:10368000244A1278D2B2934236BFC2F140029B1A4A
:103690009B18272BC4BF01230B70194AD378DBB2C8
:1036A000180611D45A060DD5154B1B795B0609D5A2
:1036B000194B1A491B6800220A7003B11A70104B8B
:1036C0002C22DA7030BC704711790906EAD514490A
:1036D00010480C780178C9B28C420DD04A1C272AB8
:1036E00084BF00210A460F4D054C98BFD1B2AA5C99
:1036F000D2B2E2710170D5E76C21D170D2E700BF80
:1037000000D00640D411FF1FD511FF1F0012FF1F6C
:10371000D011FF1F4112FF1F4412FF1F4012FF1F55
:103720004812FF1FD811FF1F054A064B10781B785F
:10373000C0B2DBB2984238BF4030C01A704700BFF9
:103740005012FF1F5112FF1F30B42B4B1A799406F1
:103750001FD52A48DA790378294901333F2B0978A4
:10376000C8BF00238B42D2B203D0264CD9B2E25458
:103770000170254A116861B1244A1278D2B293428D
:1037800036BFC2F140029B1A9B18272BC4BF0123EE
:103790000B70194AD378DBB2180611D45A060DD52E
:1037A000154B1B795B0609D5194B1A491B6800227A
:1037B0000A7003B11A70104B2C22DA7030BC7047BB
:1037C00011790906EAD5144910480C780178C9B274
:1037D0008C420DD04A1C272A84BF00210A460F4D77
:1037E000054C98BFD1B2AA5CD2B2E2710170D5E7A4
:1037F0006C21D170D2E700BF00A00E405012FF1F15
:103800005112FF1F7C12FF1F4C12FF1FBD12FF1F22
:10381000C012FF1FBC12FF1FC412FF1F5412FF1F54
:10382000054A064B10781B78C0B2DBB2984238BF0D
:103830004030C01A704700BFCC12FF1FCD12FF1FCF
:1038400030B42C4B5A6894021FD52B48DA680378A1
:103850002A4901333F2B0978C8BF00238B4204D08B
:10386000274CD2B2D9B2E2540170264A116861B134
:10387000254A1278D2B2934236BFC2F140029B1A57
:103880009B18272BC4BF01230B701A4A9368180298
:1038900002D55268110211D45A020DD5154B5B683E
:1038A0005B0209D5194B1A491B6800220A7003B143
:1038B0001A70184B00221A6030BC7047164A124921
:1038C00010780A78D2B290420DD00132272A84BFF4
:1038D00000200246114D074C98BFD0B2AA5CD2B26C
:1038E000E2600870D8E70E480A4A0024012104600B
:1038F0001160D1E700400C40CC12FF1FCD12FF1F1A
:10390000F812FF1FC812FF1F3913FF1F3C13FF1FC0
:103910003813FF1F580188434013FF1FD012FF1FA9
:103920005C01884310B584B072B6FFF73DF9184AC0
:10393000184B19491160702280211A701A461970AB
:1039400013781B06FCD5154B1C68FFF747F962B6C8
:10395000134B9C429CBF04EB840464002046114C32
:1039600001A90A2200F026F901A92046002311F836
:10397000012B01333AB10A2B20F8022FF7D116237D
:10398000237004B010BD5B00DBB2237004B010BD27
:103990000400024000000240000007410C00024009
:1039A0007F9698007C09FF1F10B4EFF3108272B667
:1039B000437F33B9017F012908D0032910D00123A7
:1039C000437702B962B65DF8044B7047114C216829
:1039D000A1B1114943610B68836108605861EEE74A
:1039E0000E4C216881B10E4943610B688361086008
:1039F00058610C4B4FF080511960E0E7064B416174
:103A0000816120601860DAE7054B416181612060C7
:103A10001860EEE75413FF1F5013FF1F4413FF1FDE
:103A20004813FF1F04ED00E010B4047F4160022C36
:103A3000C26003D05DF8044BFFF7B6BF83685DF842
:103A4000044B184770B5EFF3108272B60C4C206827
:103A500080B10C4E00254369236073B19D6102B9AA
:103A600062B6457783689847EFF3108272B6206894
:103A70000028F0D102B962B670BD3360EFE700BF35
:103A80004413FF1F4813FF1FFFF7DCBF184A30B471
:103A90001468002C27D0036821688B420ED2CB1A01
:103AA00000218460C1602360E06010600223037520
:103AB00030BC704711688B42144608D3A2685B1A69
:103AC0000360002AF6D18260C460A060EEE7D2688D
:103AD000C2608460E060C568CB1A0222A8602360DF
:103AE000027530BC70478460C4601060DEE700BFC0
:103AF0004C13FF1FF8B5224E34682CB32368002BFB
:103B00003AD1204F1D4604E03468ECB12368002B05
:103B100032D1A36803B1DD60206933600368257585
:103B20001B68BB4221D1037F4560022BC46020D0BB
:103B3000FFF73AFF6368002BE6D023602046FFF7CB
:103B4000A5FF3468002CE1D1EFF3108372B60E4A62
:103B500000211068116003B962B628B18468FFF7CC
:103B600095FF20460028F9D1F8BD2246002198474C
:103B7000E0E783689847DDE7013B2360E4E700BFA7
:103B80004C13FF1F293A00005C13FF1F024A136801
:103B900001331360FFF7AEBFE80EFF1F704700BF91
:103BA000704700BF704700BF704700BF704700BF3D
:103BB000704700BFF0B44D1E2E46002400E00134D3
:103BC000B0FBF2F302FB1300092800F130078ABFB3
:103BD0003730F8B2C0B206F8010F1846002BEED10C
:103BE0000A1953704CB1107815F8016F2870013321
:103BF000E01A834202F80169F5DB0846F0BC704721
:103C00002DE9F04F2DED028BDFF824A38BB057EC9C
:103C1000106B55EC114B00F08FF99AF90080B0EE63
:103C2000408AF0EE608AB8F1FF3F48D022462B462A
:103C30002046294601F06EFD834600283FD13246DA
:103C40003B463046394601F065FD8146002840F08C
:103C50009080304639460022002301F029FD0028DB
:103C600036D0002200232046294601F021FD83465C
:103C7000B8B19FEDA57B0122A94BCDF82090009211
:103C8000CDE90267CDE904458DED067B0193B8F1DE
:103C9000000F5BD09FED9E0B0BB0BDEC028BBDE81F
:103CA000F08F45EC104B00F0A7FF40B1002200233D
:103CB0002046294601F006FD002840F0C580B0EE00
:103CC000480AF0EE680A0BB0BDEC028BBDE8F08F3D
:103CD000B0EE480AF0EE680A00F08EFF8046002839
:103CE00061D04FF000084FF0000951EC180B42462C
:103CF0004B4601F0DDFC0028E1D047EC106B00F0F2
:103D00007BFF0028DBD045EC104B00F075FF00284E
:103D1000D5D09AF90030824A019204210022022B68
:103D2000CDE90267CDE90445CDE906890091089205
:103D300003D0684600F068FF70B901F02DFD222322
:103D4000036009E09FED707B8DED067B684600F017
:103D50005BFF002800F08E80089B1BB101F01CFD6A
:103D6000089B03609DED060B0BB0BDEC028BBDE81C
:103D7000F08F002200232046294601F099FC0028FC
:103D80009DD09FED630B664BCDF820B00122B8F1BA
:103D9000020FCDE90267CDE904458DED060B8DE8F4
:103DA0000C00D3D18FE747EC106B00F025FF002803
:103DB00097D045EC104B00F01FFF002891D053EC3A
:103DC000182B18EE100A194601F0A4FC00287CD12B
:103DD00003239AF900800093514B0890CDE90267C4
:103DE000CDE904450193B8F1000F48D1DFF84491C3
:103DF0004FF060480022002330463946CDE906895D
:103E000001F060FC002894D00022464B2046294651
:103E100001F0E6F904460D4645EC104B00F000FFBA
:103E2000204653EC102B294601F042FC002849D1D2
:103E30003D4B9AF900804FF06042CDE90623B8F17E
:103E4000020F7FF476AF78E7354A9AF90030CDF863
:103E500020B00121CDE90267CDE904458DE80600D7
:103E6000002B3FF46FAF31490020022BCDE9060152
:103E70007FF46CAF01F090FC212303606CE79FEDB1
:103E8000267B00220023304639468DED067B01F06B
:103E900019FC0028D3D00022224B2046294601F0ED
:103EA0009FF904460D4645EC104B00F0B9FE204644
:103EB00053EC102B294601F0FBFB18B91B4B0022D9
:103EC000CDE906239AF90080B9E7154B9AF90090DD
:103ED000CDF820800122CDE90267CDE904458DE8C7
:103EE0000C00B9F1000F3FF42DAF00220023104663
:103EF000194601F09FFAB9F1020FCDE90601B9D0D8
:103F000024E700BFAFF300800000000000000000C5
:103F1000000000000000F03F000000000000F07F03
:103F2000585D00000000E03FFFFFEFC70000F0FF1A
:103F30009209FF1FFFFFEF472DE9F04F51EC110BE6
:103F400021F0004858EA000493B03CD053EC102B09
:103F50006D4E23F00044B44210EE10AA1D462BDC37
:103F6000894611EE10EA26D0B04525DC664EB045F4
:103F700077D0002D16461F46CDE9000175DB4FF0C6
:103F8000000BBEF1000F2DD15F4B984500F08980EA
:103F90005E4B98455ED0B9F1804F00F0DE835C4BFC
:103FA00099451FD1002D1DDB47EC106B13B0BDE808
:103FB000F04F00F049BD5AB104F1404404F58014BB
:103FC00054EA0A0306D19FED4A0B13B0BDE8F08F07
:103FD000A045CBDD4F4813B0BDE8F04F00F018BE50
:103FE0004FF0000B47EC106B00F0FEFD51EC100B96
:103FF000BAF1000F1ED0ED0F05F1FF3A5BEA0A039C
:1040000063D0454B984540F38D8003F10473984588
:1040100040F33884414B9C4262DDB9F1000F62DD10
:1040200035A3D3E900231046194601F0D9F841EC35
:10403000100BCAE724B1354B25F040429A42DAD141
:10404000B9F1000FC0F2CB83002DC0F2748341ECB4
:10405000100BBAE7B9F1000FC0F27A8447EC106B8D
:10406000B3E7BEF1000F84D0A6E72D4B984529DCBD
:10407000A3F15473984582DD4FEA2853A3F2FF332E
:10408000142B40F37F84C3F134032EFA03F202FAB7
:1040900003F39E457FF473AF02F00102C2F1020BFD
:1040A0006FE704F1404303F5801353EA0A038AD013
:1040B0001A4B9C4240F38583B9F1000F13DB9DED51
:1040C000000B82E74FF0020B5BE732463B4610469F
:1040D000194600F0D1FE02460B4601F0ABF9B6E7F7
:1040E000B9F1000F9CDB9FED060B6EE7AFF300808C
:1040F000000000000000F03F9C7500883CE4377E23
:1041000000000000000000000000F07F0000F03F11
:104110000000E03F5C5D00000000E041FFFFEF3F7A
:10412000FFFF3F43B4F5801F4FF0000205DAD64B86
:1041300001F056F86FF034020C462315D34EC4F349
:104140001304A3F2FF33134444F07F55B4421A46DC
:104150000D9345F4401540F34983CD4B9C4240F309
:104160002D849FEDB37B8DED087B8DED0E7B9FED58
:10417000B27B13468DED067B01330D93A5F58015BB
:104180004FF00008DDE906232946CDE90A0100F0D9
:1041900073FEDDE9062306460F46DDE90A0100F05D
:1041A0006DFE02460B460020BA4901F043F9034672
:1041B0000C46CDE9103402460B463046394601F034
:1041C0000FF86B1043F0005303F5002303EB0805D1
:1041D0000A4600230146CDE902120293DDE9028975
:1041E0000024CDE904122B4622464046494600F001
:1041F000F7FF02460B463046394600F03DFEDDE94A
:10420000062306460F462046294600F035FE0246A4
:104210000B46DDE90A0100F02FFE42464B4600F056
:10422000DFFF02460B463046394600F025FEDDE949
:10423000102300F0D5FFDDE90445CDE90601224653
:104240002B462046294600F0CBFF7DA3D3E900236F
:1042500004460D4600F0C4FF7BA3D3E9002300F021
:104260000DFE22462B4600F0BBFF79A3D3E90023C5
:1042700000F004FE22462B4600F0B2FF76A3D3E9FD
:10428000002300F0FBFD22462B4600F0A9FF74A39B
:10429000D3E9002300F0F2FD22462B4600F0A0FFF8
:1042A00071A3D3E9002300F0E9FD224606460F463C
:1042B0002B462046294600F093FF02460B46304627
:1042C000394600F08DFF424604460D464B46DDE977
:1042D000040100F0D3FDDDE9062300F081FF224652
:1042E0002B4600F0CBFD424606460F464B46404665
:1042F000494600F075FF0022674BCDE90A0100F046
:10430000BDFD32463B4600F0B9FD02980D4604461D
:1043100022462B464046494600F062FF0022804676
:1043200089465D4B2046294600F0A6FDDDE90A23BB
:1043300000F0A2FD02460B463046394600F09CFDD7
:10434000DDE9042300F04CFF224606460F462B46CB
:10435000DDE9060100F044FF02460B4630463946CF
:1043600000F08CFD06460F4602460B464046494685
:10437000CDE9048900F082FD02983DA3D3E9002332
:1043800004460D4600F02CFFDDE9042380468946F3
:104390002046294600F070FD02460B46304639465D
:1043A00000F06AFD34A3D3E9002300F019FF34A321
:1043B000D3E9002306460F462046294600F010FFA9
:1043C00002460B463046394600F058FDDDE90E2323
:1043D00000F054FD06460D980F4600F09BFE324655
:1043E00004460D463B464046494600F047FDDDE9A0
:1043F000082300F043FD22462B4600F03FFD0298C3
:1044000022462B46CDE9020100F036FDDDE9082306
:1044100000F032FD42464B4600F02EFD02460B46B0
:104420003046394600F028FD8046894636E000BF18
:104430000000000000000000000000000000F03F4D
:10444000EF4E454A287ECA3F65DBC9934A86CD3F79
:1044500001411DA96074D13F4D268F515555D53F5F
:10446000FFAB6FDBB66DDB3F033333333333E33FF7
:10447000000000E009C7EE3FFD033ADC09C7EE3F4C
:10448000F5015B14E02F3EBE000040438E98030010
:1044900079B60B000000F03F000008400BF1FF333D
:1044A00053EA0A0300F088819FEDD77B8DED067BF0
:1044B000DDE900AB53465C46CDE9003400230093B0
:1044C000DDE90045504622462B46594600F0D4FC13
:1044D000DDE9022300F084FE524606460F465B46A5
:1044E0004046494600F07CFE02460B4630463946BF
:1044F00000F0C4FC2246804689462B46DDE90201D5
:10450000CDE9048900F06CFE0B46024606460F46D4
:104510004046494600F0B2FCD54B994204460D4650
:104520008A4640F3238101F13F4303F5E00303434F
:1045300040F01882B6A3D3E90023DDE9040100F0BE
:104540009DFC3246804689463B462046294600F07F
:1045500093FC02460B464046494601F0D1F800283C
:1045600040F00082A8464FEA28534FF48012A3F28D
:10457000FE3342FA03F35344C3F30A52BD4DA2F291
:10458000FF321541C3F3130B0020C2F1140423EAD8
:1045900005014BF4801BBAF1000F02460B464BFAA3
:1045A00004FB30463946B8BFCBF1000B00F064FC89
:1045B00002460B4606460F46DDE9040100F05EFCAC
:1045C0004FEA0B5A002494A3D3E9002320460D465A
:1045D00000F006FE3246804689463B462046294684
:1045E00000F04AFC02460B46DDE9040100F044FC01
:1045F0008BA3D3E9002300F0F3FD8BA3D3E90023C1
:1046000006460F462046294600F0EAFD02460B46C4
:104610003046394600F032FC06460F4602460B464D
:104620004046494600F02AFC42464B4604460D46A9
:1046300000F022FC02460B463046394600F01CFCD6
:104640002246804689462B462046294600F0C8FD72
:1046500077A3D3E9002306460F4600F0C1FD76A3F9
:10466000D3E9002300F008FC32463B4600F0B8FDD9
:1046700073A3D3E9002300F001FC32463B4600F06F
:10468000AFFD71A3D3E9002300F0F6FB32463B46B1
:1046900000F0A6FD6EA3D3E9002300F0EFFB324645
:1046A0003B4600F09DFD02460B462046294600F0A1
:1046B000E3FB06460F4602460B462046294600F01D
:1046C0008FFD0022CDE900014FF08043304639468E
:1046D00000F0D2FB02460B46DDE9000100F0AAFE25
:1046E000424606460F464B462046294600F078FDD6
:1046F00042464B4600F0C2FB02460B463046394666
:1047000000F0BAFB22462B4600F0B6FB02460B46F1
:104710000020594900F0B0FB8A44BAF5801F0246D8
:104720000B46C0F25B815146DDE9062300F058FDDF
:1047300041EC100B49E404F1404404F5801454EAC0
:104740000B0300F03781BBF1010F7FF480AC024610
:1047500001F1004343EC102B37E432463B46304630
:10476000394600F03DFD41EC100B2EE4434B21F0A7
:104770000048984540F31581414B0B4403430CD14D
:1047800032463B4600F078FB02460B46DDE9040169
:1047900000F0A2FF00283FF4E6AE2FA3D3E90023E8
:1047A000DDE9060100F01CFD2BA3D3E9002300F096
:1047B00017FD41EC100B08E49FED297B8DED067B86
:1047C00076E6B9F1000FBFF68EACDDE9003400EEFD
:1047D000103A04F1004300EE903AFFF7F6BB0246B0
:1047E0000B460020244900F025FE2DE49FED1E7BA2
:1047F0008DED087B8DED0E7B9FED037B4FF0000868
:104800008DED067BBEE400BF000000000000F03F1D
:10481000FE822B654715973C00000000432EE63FC3
:10482000EF39FAFE422EE63F396CA80C615C20BEDF
:10483000D0A4BE726937663EF16BD2C541BDBB3EA6
:104840002CDE25AF6A56113F93BDBE166CC1663F84
:104850003E5555555555C53F59F3F8C21F6EA50134
:10486000000000000000F0BF000000000000000099
:10487000FFFF8F40FFFF0F000000F03FFFCB904095
:1048800000346F3F6C4B9C427FF72AAC6B4B9C42D1
:104890003FF7C3AB0022694B00F0EEFA56A3D3E911
:1048A000002304460D4600F09BFC55A3D3E90023EA
:1048B000804689462046294600F092FC0022CDE938
:1048C00002015F4B2046294600F08AFC02460B4657
:1048D0004DA1D1E9000100F0CFFA22462B4600F0AD
:1048E0007FFC02460B460020564900F0C5FA2246DE
:1048F0002B4606460F462046294600F071FC02462C
:104900000B463046394600F06BFC41A3D3E9002347
:1049100000F066FC02460B46DDE9020100F0ACFA4D
:1049200002460B4604460D464046494600F0A6FAAC
:1049300042464B460020CDE9020100F09DFA0246B6
:104940000B462046294600F097FA80468946A5E5A1
:1049500032463B460020394900F06CFD41EC100B1B
:10496000FFF733BB2CA3D3E90023DDE9060100F0F8
:1049700037FC29A3D3E9002300F032FC41EC100BF3
:10498000FFF723BBBEF1000F7FF42AABC3F1140382
:1049900048FA03F202FA03F3984527D0F346FFF7EB
:1049A000F7BA284B98453FF7DEADDDE900349A466B
:1049B0009B4607E602460B46FFF789BB9FED187B37
:1049C0008DED087B9FED187B8DED0E7B9FED187BA9
:1049D0004FF480288DED067BFFF7D4BB584643EC9F
:1049E000102B00F0B1F951EC100B9DE602F0010222
:1049F000C2F1020BFFF7CCBA000000604715F73F89
:104A000044DF5DF80BAE543E555555555555D53FD1
:104A1000FE822B654715F73F9C7500883CE4377E86
:104A20000000004003B8E23F06D0CF43EBFD4C3E10
:104A3000000000000000F83FFEFFEF3F0000F03FE5
:104A40000000D03F0000E03F2DE9F041654955EC02
:104A5000104B0E462940B14200F09780002D2B46A6
:104A600010EE102A74DD2F157FD0A7F2FF37C3F3A5
:104A70001303F90743F4801365D403EBD2710026C6
:104A80000B447F105200B64616204FF400110EEB77
:104A900001049C424FEAD2754FEA420203DC1B1B21
:104AA00004EB010E0E44013805EB43034FEA5101BC
:104AB000EDD1844620244FF0004109E020D003EBE3
:104AC000D275013C4FEA51012B444FEA420220D0FB
:104AD0009E4501EB0C05F1DA002D05EB010C09DB1D
:104AE000F0469542CEEB030300D9013B521B08442C
:104AF000C646E4E7BCF1000FF2DB0EF10108F0E777
:104B000095421ED8002D05EB010C50DB9846002382
:104B1000ECE7134304D0421C4DD000F001031844CD
:104B200040087110F30701F17F5101F5001148BFF2
:104B300040F0004001EB0753024643EC102BBDE868
:104B4000F0817346BBE75B0003EBD273520094E73E
:104B500025F00041214328D0ADBB2F46D30A153F95
:104B60005205002BFAD0DD0228D4002100E00146D6
:104B70005B00DC0201F10100F9D5C0F1200422FA4A
:104B800004F423437F1A82406FE710EE102A2B466D
:104B900010EE100A294600F023FB22462B4600F0B7
:104BA0006DF941EC100BBDE8F081BDE8F081BCF17E
:104BB000000FA2DAAAE701362046B2E720244FF020
:104BC000FF310020DBE710EE102A2B462046294655
:104BD00000F052F902460B4600F02CFC41EC100BA1
:104BE000BDE8F0810000F07F53EC102B23F0004370
:104BF00043EC102B704700BF10EE903A43F000409A
:104C000000F58010C00F704700207047FFFFFFFFC6
:104C10009FED010B704700BF000000000000F87F0F
:104C2000F0B553EC102BC3F30A56A6F2FF3013284D
:104C300083B019464FEAD37410EE105A2FDC0028C7
:104C400049DB3F4E064103EA060717432CD076089E
:104C500033401D430CD04FF48023132821EA06066D
:104C600043FA00F141EA06010CBF4FF00045002570
:104C7000344800EBC4042A46D4E9004510462B46CC
:104C8000224600F0FBF8CDE9000122462B46DDE983
:104C9000000100F0F1F841EC100B03B0F0BD332837
:104CA00006DDB0F5806F42D043EC102B03B0F0BDB1
:104CB000A6F213464FF0FF30F0400242F4D0400815
:104CC0000242D5D04FF0804325EA000043FA06F6B1
:104CD00046EA0005CCE723F00040104310EE107ABE
:104CE000E2D0C3F313000743784207431548590C39
:104CF0003F0B490407F4002700EBC40047EA010317
:104D0000D0E90067194610463B46324600F0B6F837
:104D1000CDE900013B463246DDE9000100F0ACF888
:104D200021F0004343EAC47141EC100BBEE710EEE2
:104D3000100A194600F0A2F841EC100BB6E700BFCC
:104D4000FFFF0F00605D000053EC102B70B5C3F344
:104D50000A541946054614BB23F0004111432AD0DA
:104D600019460022384B394E10EE100A00F038FA7E
:104D7000B54202460B461FDBC1F30A54363C2C44B5
:104D800040F2FE7084421FDC002C2DDD21F0FF413B
:104D900021F4E00141EA045343EC102B70BD40F2D2
:104DA000FF708442EBD110EE100A194600F066F84D
:104DB00041EC100B70BD70BD1FA3D3E9002300F0C0
:104DC0000FFA41EC100B70BD43EC112B9FED1C0B47
:104DD00000F040F81AA3D3E9002351EC100B00F0C7
:104DE000FFF941EC100B70BD14F1350F13DA4CF2E2
:104DF00050318D4243EC112BE8DC9FED0F0B00F09E
:104E000029F80DA3D3E9002351EC100B00F0E8F9C9
:104E100041EC100B70BD21F0FF4121F4E00136346C
:104E200041EA0453104619460022094B00F0D8F914
:104E300041EC100B70BD00BF59F3F8C21F6EA50105
:104E40009C7500883CE4377E00005043B03CFFFF77
:104E50000000903C53EC102B11EE900A23F000411F
:104E600000F0004041EA000343EC102B704700BF04
:104E700081F0004102E000BF83F0004330B54FEA0B
:104E800041044FEA430594EA050F08BF90EA020F78
:104E90001FBF54EA000C55EA020C7FEA645C7FEA0B
:104EA000655C00F0E2804FEA5454D4EB5555B8BF2E
:104EB0006D420CDD2C4480EA020281EA030382EA9F
:104EC000000083EA010180EA020281EA0303362D31
:104ED00088BF30BD11F0004F4FEA01314FF4801C04
:104EE0004CEA113102D0404261EB410113F0004F16
:104EF0004FEA03334CEA133302D0524263EB4303CD
:104F000094EA050F00F0A780A4F10104D5F1200E6A
:104F10000DDB02FA0EFC22FA05F2801841F10001C5
:104F200003FA0EF2801843FA05F359410EE0A5F199
:104F300020050EF1200E012A03FA0EFC28BF4CF0CA
:104F4000020C43FA05F3C01851EBE37101F0004580
:104F500007D54FF0000EDCF1000C7EEB00006EEB8D
:104F60000101B1F5801F1BD3B1F5001F0CD3490817
:104F70005FEA30004FEA3C0C04F101044FEA44526E
:104F800012F5800F80F09A80BCF1004F08BF5FEAF5
:104F9000500C50F1000041EB045141EA050130BDD5
:104FA0005FEA4C0C404141EB010111F4801FA4F178
:104FB0000104E9D191F0000F04BF01460020B1FACD
:104FC00081F308BF2033A3F10B03B3F120020CDA05
:104FD0000C3208DD02F1140CC2F10C0201FA0CF0E3
:104FE00021FA02F10CE002F11402D8BFC2F1200C48
:104FF00001FA02F120FA0CFCDCBF41EA0C019040FE
:10500000E41AA2BF01EB0451294330BD6FEA040446
:105010001F3C1CDA0C340EDC04F11404C4F1200231
:1050200020FA04F001FA02F340EA030021FA04F343
:1050300045EA030130BDC4F10C04C4F1200220FA9A
:1050400002F001FA04F340EA0300294630BD21FAD8
:1050500004F0294630BD94F0000F83F4801306BF9E
:1050600081F480110134013D4EE77FEA645C18BF92
:105070007FEA655C29D094EA050F08BF90EA020F29
:1050800005D054EA000C04BF1946104630BD91EA21
:10509000030F1EBF0021002030BD5FEA545C05D124
:1050A0004000494128BF41F0004130BD14F5800463
:1050B0003CBF01F5801130BD01F0004545F0FE41D7
:1050C00041F470014FF0000030BD7FEA645C1ABF0C
:1050D000194610467FEA655C1CBF0B46024650EA43
:1050E000013406BF52EA033591EA030F41F400216F
:1050F00030BD00BF90F0000F04BF0021704730B5F5
:105100004FF4806404F132044FF000054FF00001C9
:1051100050E700BF90F0000F04BF0021704730B58A
:105120004FF4806404F1320410F0004548BF40425F
:105130004FF000013EE700BF42004FEAE2014FEAB4
:1051400031014FEA02701FBF12F07F4393F07F4F8F
:1051500081F06051704792F0000F14BF93F07F4FC1
:10516000704730B54FF4607401F0004521F0004104
:1051700020E700BF50EA010208BF704730B54FF08A
:1051800000050AE050EA010208BF704730B511F08F
:10519000004502D5404261EB41014FF4806404F1C7
:1051A00032045FEA915C3FF4DCAE4FF003025FEA49
:1051B000DC0C18BF03325FEADC0C18BF033202EBD1
:1051C000DC02C2F1200300FA03FC20FA02F001FA2B
:1051D00003FE40EA0E0021FA02F11444C1E600BFCA
:1051E00070B54FF0FF0C4CF4E06C1CEA11541DBF7D
:1051F0001CEA135594EA0C0F95EA0C0F00F0DEF848
:105200002C4481EA030621EA4C5123EA4C5350EA2C
:10521000013518BF52EA033541F4801143F480137D
:1052200038D0A0FB02CE4FF00005E1FB02E506F00E
:105230000042E0FB03E54FF00006E1FB03569CF063
:10524000000F18BF4EF0010EA4F1FF04B6F5007F69
:1052500064F5407404D25FEA4E0E6D4146EB0606DB
:1052600042EAC62141EA55514FEAC52040EA5E5064
:105270004FEACE2EB4F1FD0C88BFBCF5E06F1ED80E
:10528000BEF1004F08BF5FEA500E50F1000041EB45
:10529000045170BD06F0004646EA010140EA0200F2
:1052A00081EA0301B4EB5C04C2BFD4EB0C0541EA14
:1052B000045170BD41F480114FF0000E013C00F329
:1052C000AB8014F1360FDEBF002001F0004170BD4D
:1052D000C4F10004203C35DA0C341BDC04F1140466
:1052E000C4F1200500FA05F320FA04F001FA05F2F2
:1052F00040EA020001F0004221F0004110EBD370BF
:1053000021FA04F642EB06015EEA430E08BF20EAEA
:10531000D37070BDC4F10C04C4F1200500FA04F38D
:1053200020FA05F001FA04F240EA020001F000411F
:1053300010EBD37041F100015EEA430E08BF20EA92
:10534000D37070BDC4F1200500FA05F24EEA020EDA
:1053500020FA04F301FA05F243EA020321FA04F009
:1053600001F0004121FA04F220EA020000EBD370C0
:105370005EEA430E08BF20EAD37070BD94F0000FC0
:105380000FD101F00046400041EB010111F4801FF4
:1053900008BF013CF7D041EA060195F0000F18BFA5
:1053A000704703F00046520043EB030313F4801FE1
:1053B00008BF013DF7D043EA0603704794EA0C0F9B
:1053C0000CEA135518BF95EA0C0F0CD050EA4106B1
:1053D00018BF52EA4306D1D181EA030101F000412E
:1053E0004FF0000070BD50EA410606BF1046194656
:1053F00052EA430619D094EA0C0F02D150EA013662
:1054000013D195EA0C0F05D152EA03361CBF1046A2
:1054100019460AD181EA030101F0004141F0FE4141
:1054200041F470014FF0000070BD41F0FE4141F4C5
:10543000780170BD70B54FF0FF0C4CF4E06C1CEAC5
:1054400011541DBF1CEA135594EA0C0F95EA0C0F7A
:1054500000F0A7F8A4EB050481EA030E52EA033535
:105460004FEA013100F088804FEA03334FF0805556
:1054700045EA131343EA12634FEA022245EA111583
:1054800045EA10654FEA00260EF000419D4208BF34
:10549000964244F1FD0404F5407402D25B084FEAE1
:1054A0003202B61A65EB03055B084FEA32024FF48D
:1054B00080104FF4002CB6EB020E75EB030E22BFEA
:1054C000B61A754640EA0C005B084FEA3202B6EBAA
:1054D000020E75EB030E22BFB61A754640EA5C0059
:1054E0005B084FEA3202B6EB020E75EB030E22BFE9
:1054F000B61A754640EA9C005B084FEA3202B6EBEA
:10550000020E75EB030E22BFB61A754640EADC00A8
:1055100055EA060E18D04FEA051545EA16754FEA0A
:1055200006164FEAC30343EA52734FEAC2025FEA28
:105530001C1CC0D111F4801F0BD141EA00014FF0B7
:1055400000004FF0004CB6E711F4801F04BF014388
:105550000020B4F1FD0C88BFBCF5E06F3FF6AFAEA4
:10556000B5EB030C04BFB6EB020C5FEA500C50F134
:10557000000041EB045170BD0EF0004E4EEA1131B7
:1055800014EB5C04C2BFD4EB0C0541EA045170BDBE
:1055900041F480114FF0000E013C90E645EA060E02
:1055A0008DE60CEA135594EA0C0F08BF95EA0C0F30
:1055B0003FF43BAF94EA0C0F0AD150EA01347FF478
:1055C00034AF95EA0C0F7FF425AF104619462CE74F
:1055D00095EA0C0F06D152EA03353FF4FDAE1046B2
:1055E000194622E750EA410618BF52EA43067FF403
:1055F000C5AE50EA41047FF40DAF52EA43057FF493
:10560000EBAE12E74FF0FF3C06E000BF4FF0010C9D
:1056100002E000BF4FF0010C4DF804CD4FEA410C01
:105620007FEA6C5C4FEA430C18BF7FEA6C5C1BD0CE
:1056300001B050EA410C0CBF52EA430C91EA030F4F
:1056400002BF90EA020F0020704710F1000F91EAAC
:10565000030F58BF994208BF90422CBFD8176FEA7A
:10566000E37040F0010070474FEA410C7FEA6C5C48
:1056700002D150EA013C07D14FEA430C7FEA6C5C4F
:10568000D6D152EA033CD3D05DF8040B704700BF7B
:105690008446104662468C461946634600E000BFC9
:1056A00001B5FFF7B7FF002848BF10F1000F01BD9B
:1056B0004DF808EDFFF7F4FF0CBF012000205DF866
:1056C00008FB00BF4DF808EDFFF7EAFF34BF0120EB
:1056D00000205DF808FB00BF4DF808EDFFF7E0FF84
:1056E00094BF012000205DF808FB00BF4DF808EDD5
:1056F000FFF7CEFF94BF012000205DF808FB00BF3C
:105700004DF808EDFFF7C4FF34BF012000205DF81D
:1057100008FB00BF4FEA410C7FEA6C5C02D150EA03
:10572000013C0AD14FEA430C7FEA6C5C02D152EA99
:10573000033C02D14FF0000070474FF0010070476A
:105740004A0011D212F5001211D20DD56FF4787300
:10575000B3EB62520ED44FEAC12343F0004343EA55
:10576000505323FA02F070474FF00000704750EAA0
:10577000013002D14FF0FF3070474FF0000070470A
:105780000B460146184600F001B800BF13460A4612
:105790000146022000F002B9014B1868704700BFB3
:1057A000C00DFF1F70B50F4E0F4D761BB61018BF02
:1057B000002405D0013455F8043B9847A642F9D19E
:1057C0000A4E0B4D761B00F0D5FAB61018BF002418
:1057D00006D0013455F8043B9847A642F9D170BD74
:1057E00070BD00BF805D0000805D00008C5D00002A
:1057F000805D000070B4840746D0541E002A41D05A
:10580000CDB2034602E0621EE4B3144603F8015B26
:105810009A07F8D1032C2ED9CDB245EA05250F2CD5
:1058200045EA054519D903F110022646103E0F2E10
:1058300042F8105C42F80C5C42F8085C42F8045CE8
:1058400002F11002F2D8A4F1100222F00F0204F0CB
:105850000F041032032C13440DD91E462246043A7D
:10586000032A46F8045BFAD8221F22F0030204320E
:10587000134404F003042CB1C9B21C4403F8011B07
:10588000A342FBD170BC704714460346C2E700BF79
:10589000FFFFFFFFFFFFFFFFFFFFFFFFFFFFFFFF18
:1058A000FFFFFFFFFFFFFFFFFFFFFFFFFFFFFFFF08
:1058B000FFFFFFFFFFFFFFFFFFFFFFFFFFFFFFFFF8
:1058C00090F800F06DE9024520F007016FF0000C40
:1058D00010F0070491F820F040F049804FF00004E8
:1058E0006FF00700D1E9002391F840F000F10800C3
:1058F00082FA4CF2A4FA8CF283FA4CF3A2FA8CF3FB
:105900004BBBD1E9022382FA4CF200F10800A4FA61
:105910008CF283FA4CF3A2FA8CF3E3B9D1E90423B5
:1059200082FA4CF200F10800A4FA8CF283FA4CF3EC
:10593000A2FA8CF37BB9D1E9062301F1200182FAA6
:105940004CF200F10800A4FA8CF283FA4CF3A2FAAC
:105950008CF3002BC6D0002A04BF04301A4612BABA
:10596000B2FA82F2FDE8024500EBD2007047D1E9BD
:10597000002304F00305C4F100004FEAC50514F04C
:10598000040F91F840F00CFA05F562EA05021CBF1D
:1059900063EA050362464FF00004A9E72DE9F047EA
:1059A000254C2568D5F848410646884692469946D2
:1059B000C4B360681F2817DC431C76B104EB800574
:1059C0000122C5F888A0D4F8881182401143022E24
:1059D000C4F88811C5F808911ED00230636044F8FD
:1059E00020800020BDE8F087144B03B34FF4C8704B
:1059F000AFF300800446D0B1D5F84831002780E8E5
:105A00008800C5F8484138460123C4F88871C4F8B5
:105A10008C71002EE1D0D1E7D4F88C110A43C4F880
:105A20008C21DAE705F5A674C5F84841C1E74FF0C7
:105A3000FF30BDE8F08700BF705D0000000000008F
:105A4000024B13B1024800F005B870470000000097
:105A5000615A0000002301461A461846FFF79EBF10
:105A600038B5074D074C2C1BA41005D0013C55F848
:105A7000043D9847002CF9D1BDE8384000F086B9C4
:105A800000000000000000004008FE4340A0044069
:105A90004408FE4344A004400018FE4300C00440F4
:105AA0003000FE43309004403400FE433490044004
:105AB0001C18FE431CC004401018FE4310C00440D4
:105AC0000818FE4308C004400C18FE430CC00440F4
:105AD0000C10FE430CB004401010FE4310B0044004
