:1000000000800020BD010000C92A0000812A0000F4
:10001000812A0000812A0000812A0000812A000034
:10002000812A0000812A0000812A0000C92A0000DC
:10003000C92A0000812A0000093600000D3700009F
:10004000C92A0000C92A0000C92A0000C92A0000E4
:10005000C92A0000C92A0000C92A0000C92A0000D4
:10006000C92A0000C92A0000C92A0000C92A0000C4
:10007000C92A0000C92A0000C92A0000C92A0000B4
:10008000C92A0000C92A0000C92A0000C92A0000A4
:10009000C92A0000C92A0000C92A0000C92A000094
:1000A000C92A0000C92A0000C92A0000C92A000084
:1000B000C92A0000C92A0000C92A0000C92A000074
:1000C000C92A0000C92A0000C92A0000C92A000064
:1000D000C92A0000C92A0000C92A0000C92A000054
:1000E000C92A0000C92A0000C92A0000C92A000044
:1000F000C92A000079310000C92A0000A532000099
:10010000C92A0000D1330000C92A0000C92A000012
:10011000C92A0000C92A0000C92A0000C92A000013
:10012000C92A0000C92A0000C92A0000C92A000003
:10013000C92A0000C92A0000C92A0000C92A0000F3
:10014000C92A0000C92A0000C92A0000C92A0000E3
:10015000C92A0000C92A0000C92A0000C92A0000D3
:10016000C92A000089160000C92A0000C92A000017
:10017000C92A0000C92A0000C92A0000C92A0000B3
:10018000C92A0000C92A0000C92A0000C92A0000A3
:10019000C92A0000C92A0000C92A0000C92A000093
:1001A000C92A0000C92A0000C92A0000C92A000083
:1001B000C92A0000C92A0000C92A0000564B4CF287
:1001C000205210B51A804DF628121A8000BF00BFC9
:1001D00002F07EFC514B4FF010621A60504A9A6058
:1001E000504ADA60504A136813F4807304D14F49BF
:1001F0000B604FF4A85313604D4B1A78110703D5C9
:100200001A7842F008021A704A4B4B492A221A7097
:100210004A4A4B4B8B4204D252F8040F43F8040B6A
:10022000F8E7484B484900228B4202D243F8042B9E
:10023000FAE74649464A002352F8230041F82300D2
:1002400001336F2BF8D1434B434A802103F8011B44
:100250009342FBD1414B3D4A1A60414B8A221A70AE
:10026000A3F5805324225A70A0221A709A7992071B
:10027000FCD59A79D406FCD43A4A937903F00C035E
:10028000082B384BF9D103221A7146225A719A79F8
:100290009006FCD5334A9179324B4906FBD5324A58
:1002A0004FF0827111600921516020221A709A79F1
:1002B00002F00C020C2AFAD12C4B2D4A1A602D4B5D
:1002C0002D4A1A6000225A60072243F8042C2B4A58
:1002D000C3F80C2D62B601F0A3F8144B1B68DA07C3
:1002E00005D5274800F0A0FE264B274A1A60274B69
:1002F0001B785B0609D5234C234B22689A4204D114
:100300001F4800F091FE0023236003F033FD02F04C
:10031000E5FB02F0D1FAFEE70E20054030800440F4
:10032000823F04000100002B10D0034014D0034092
:1003300002D0074000E00740A88DFF1F44420000A4
:100340004088FF1FA88DFF1FEC92FF1F0082FF1F38
:100350000000000000E400E05FE400E008ED00E0E1
:1003600000500640004006404480044004800440A1
:10037000C010050014E000E0BFD401000000202000
:10038000392DD55D1CE00340A5C3945A00F0074009
:10039000FFFFFFFFFFFFFFFFFFFFFFFFFFFFFFFF6D
:1003A000FFFFFFFFFFFFFFFFFFFFFFFFFFFFFFFF5D
:1003B000FFFFFFFFFFFFFFFFFFFFFFFFFFFFFFFF4D
:1003C000FFFFFFFFFFFFFFFFFFFFFFFFFFFFFFFF3D
:1003D000FFFFFFFFFFFFFFFFFFFFFFFFFFFFFFFF2D
:1003E000FFFFFFFFFFFFFFFFFFFFFFFFFFFFFFFF1D
:1003F000FFFFFFFFFFFFFFFFFFFFFFFFFFFFFFFF0D
:10040000FFFFFFFFFFFFFFFFFFFFFFFFDEF9FFFF23
:1004100010B5054C237833B9044B13B10448AFF33E
:1004200000800123237010BDA88DFF1F0000000075
:1004300048420000084B10B51BB108490848AFF30B
:1004400000800848036803B910BD074B002BFBD0A0
:10045000BDE81040184700BF00000000AC8DFF1F32
:1004600048420000A88DFF1F00000000704700BF39
:1004700030B4084A084BD278084853F8325008493B
:10048000084C0122002385F8802003700B70227035
:1004900030BC70476088FF1F48400000B38EFF1FCC
:1004A000B18EFF1FB08EFF1F054B064AD978064B51
:1004B00052F831100120002281F800011A707047B3
:1004C0006088FF1F48400000B08EFF1F30B4084A0C
:1004D000084BD278084853F832500849084C01229A
:1004E000002385F8802003700B70227030BC7047A9
:1004F0006088FF1F48400000B38EFF1FB18EFF1FB2
:10050000B08EFF1F074A13780133DBB2052B01D8E9
:100510001370704704490B78002001330B70107082
:10052000704700BFB38EFF1FB28EFF1F024B1B78B8
:100530000BB1FFF7E7BF7047B08EFF1F10B5134B2D
:100540001B78834204460CD0114B1B78A34213D076
:10055000104B1B78A34215D00F4B1B78A34207D03A
:1005600010BD0E4B1B78002BEED0FFF7CBFFEBE757
:10057000BDE81040FFF7AABFFFF796FF054B1B78B9
:10058000A342E9D1FFF774FFE6E700BF4988FF1FE8
:100590005C88FF1F4788FF1F4888FF1FB08EFF1F22
:1005A0000A2800D070472DE9F8430C4EDFF8309050
:1005B000DFF8308017460D46002416F8013B9D42B7
:1005C00004D00134032CF8D1BDE8F88314F80830C6
:1005D000394619F8030000F039FDF2E74488FF1F9F
:1005E0006088FF1F4C88FF1FF8B5374D05F10C06DA
:1005F0002C4601E0B4420DD014F8010B0028F9D0CC
:10060000012100F0B9FE314914F8010C00F02CFE74
:10061000B442F1D1072000F017FE00242B782146C8
:10062000282003B1184600F011FD0134012000F02C
:10063000A9FE802CF2D115F8010B00283DD0002135
:1006400000F004FDB542E8D1214C224FA06C224EAF
:100650000368224DDB6947F612219847204A214B57
:1006600022630321204A84F86410204920486363F0
:10067000E26300234FF6FF72A1631E4984F84C30F9
:1006800084F84E3084F84D30A365636584F8E93012
:1006900084F8663084F8653084F8673084F8683010
:1006A000E265154B22666160144A39601449E360C3
:1006B000226032602B600160F8BD0146282000F006
:1006C000C5FC15F8010CBAE76088FF1F00504348CD
:1006D000C48DFF1FF88FFF1FF08FFF1FF48FFF1FC8
:1006E0002D05000071040000A9040000CD040000E5
:1006F000AC8FFF1F61070000A1050000F10700009B
:100700003D0500000A2802D009281BD07047104B75
:10071000104AA3FB0103DB0803EB4303A1EB8301B6
:10072000C9B2535C002BF1D00B490C4ACB5C497920
:1007300052F83300012380F8003152F8312082F85A
:1007400000317047044B0021987800F07FBC00BF57
:10075000ABAAAAAA5088FF1F6088FF1F484000006C
:100760000A2838B50C46154606D009281ED1F2B91C
:10077000BDE83840FFF7C6BF002AF9D0174B184A2A
:10078000A3FB0413DB0803EB4303A4EB8304E4B2F1
:10079000135D5BB11349144AC85C144B52F83040E6
:1007A00018780123A84284F8803010D338BD0D4D4D
:1007B0001146287800F04AFCA4F11801282000F026
:1007C00045FCA8787F21BDE8384000F03FBC49795E
:1007D00052F8312082F8803038BD00BFABAAAAAAF7
:1007E0005088FF1F6088FF1F484000004F88FF1F90
:1007F000FFF788BFF8B50446806C03681B6998470B
:1008000008B90020F8BDA06C03685B699847C3B2C3
:1008100003F0FB02F92AF4D0A26D82B994F84D20BE
:1008200084F84F30150600F19E8040B20028C0F2D7
:100830006481002084F84D00A0656065F8BD010664
:1008400069D494F84F10F02904EB020140D081F8EC
:100850004F30616D4B1E9A4240D394F84F20F02ADE
:10086000E7D013063DD4002384F86630B02B4CD07B
:10087000A02B4AD0D02B48D0E02B46D0C02B44D060
:10088000002084F86500032994F8500008BF94F80C
:10089000515084F8670018BF002500210120B02BBB
:1008A00084F86850A165616584F8E90000F0B780BC
:1008B00000F2AE80902B00F0B280A02B00F0AF8051
:1008C000802B00F0AC80002384F84D300120F8BD6F
:1008D00081F86930636D013B9A42AAD20132A26568
:1008E0008FE702F10C03DBB2012BBCD902F0FB0352
:1008F000F92BB8D0EF2A00F2FE8002F0F003802B33
:1009000084F8663001D0902BB0D102F00F00013096
:1009100084F86500B7E7A3F1F701082991D801250C
:1009200005FA01F010F4DD7F40F09680002988D1AF
:1009300094F86930F02B7FF47CAF561C2244F720EA
:10094000370A82F8690084F8676084F8687084F870
:10095000651084F84D10284684F8663084F8E95014
:10096000A1656165F8BD02F10C01CDB2012D7FF6E4
:100970005CAF02F0FB05F92D3FF457AFEF2A2ED8FC
:1009800002F0F006802E2BD140B20028FFF64EAFC9
:10099000012084F84F2084F85030A065C9B20129A5
:1009A0007FF647AF02F0FB03F92B3FF442AFEF2A8B
:1009B0005FD802F0F003B02B26D01ED9D02B04D084
:1009C000E02B21D0C02B7FF434AF022363650121DB
:1009D000A36D994227D90133A3650020F8BD1646BF
:1009E00006F0DF05902DCFD006F0BF05A02DCBD0AF
:1009F00006F0EF06C02EC7D017E7902B04D0A02B2F
:100A000002D0802B7FF415AF032363650221DFE75B
:100A1000D02B04D0E02B02D0C02B7FF454AF84F84D
:100A20004D200120F8BDEF2A94BF02F0F0051546D5
:100A300002F00F020023013294F8501084F8652070
:100A4000012084F8671084F8683084F86650A36544
:100A5000636584F8E900F8BD002284F8672084F813
:100A6000682084F8652084F8663084F8E9502846C8
:100A7000F8BDA2F1F0030F2B3FF6DBAE01A151F858
:100A800023F000BFC50A0000CB090000090A0000DE
:100A9000CB0900003308000033080000D90A000029
:100AA00033080000D90A000033080000D90A00000A
:100AB000D90A0000D90A000033080000D90A000052
:100AC000D90A000000218020F02384F84D106065D1
:100AD00084F869307F217BE70023012084F86530AA
:100AE00084F8673084F8683084F86620A36563650D
:100AF00084F8E900F8BD1346B6E61A4603F10C0186
:100B00004CE700BF90F86630803B7F2B43D8DFE88E
:100B100003F0474242424242424242424242424241
:100B20004242514242424242424242424242424296
:100B30004242AE4242424242424242424242424229
:100B40004242A64242424242424242424242424221
:100B50004242AA424242424242424242424242420D
:100B60004242814242424242424242424242424226
:100B7000424289424242424242424242424242420E
:100B800042429B405563424269426D4271757942CF
:100B90007D43036A1BBB7047436C002BFBD0184797
:100BA0000368002BF7D090F8682090F8671090F851
:100BB000650018474368002BF5D1ECE7426A002A2C
:100BC000E9D090F8683090F86700DB0103F47E53B9
:100BD00000F07F0018431047836A002BDBD090F8A9
:100BE00067001847C36A002BD9D1D4E7036B002BE9
:100BF000D5D1D0E7436B002BD1D1CCE7836B002B51
:100C0000CDD1C8E7C36B002BC9D1C4E7036C002B5F
:100C1000C5D1C0E74369002BBDD090F8671090F8AC
:100C2000650018478269002AB5D090F8681090F8DE
:100C3000673090F86500C90101F47E5103F07F032D
:100C40001943A1F500511047C369002BA3D0B0F898
:100C50006710802900F1690028BF80211847C36808
:100C6000002BA0D197E70369002BD6D193E78368C7
:100C7000002B98D18FE700BF2DE9F0479DF8204069
:100C8000013CE4B20F2C03D84EB2002E0D4601DB1E
:100C9000BDE8F087E0290FD9F729F9D90835EDB279
:100CA000012303FA05F515F0DD0FF1D0806C036820
:100CB000BDE8F0471B6818478146806C1F460368F3
:100CC00046EA0401C9B21B6890469847D9F8480023
:100CD000036808F07F011B6805F0EF059847C02DF9
:100CE000D6D0D9F84800036807F07F011B68BDE83B
:100CF000F047184790F86430DA0718D513F0FE0F64
:100D000015D070B590F8665085F08002602A82B0E8
:100D100004460DD890F865608E4231D081B35B08EF
:100D2000012B32D0032B00F0988002B070BD7047C9
:100D3000A5F1F0030F2BF8D801A252F823F000BF61
:100D4000330E0000130E0000E50D0000C50D00007D
:100D50002B0D00002B0D00009F0D00002B0D00003F
:100D60009F0D00002B0D00009F0D00009F0D000047
:100D70009F0D00002B0D00009F0D00009F0D000037
:100D80005B08012B01D0022BCFD194F8683094F886
:100D90006720009629462046FFF76EFFC5E705F15C
:100DA0000803DBB2072BC0D8012202FA03F313F0C9
:100DB000DD0FBAD0A06C03681B68294602B0BDE8FD
:100DC00070401847806C94F867500368F3211B68E3
:100DD0009847A06C0368DB6C05F07F0102B0BDE8AA
:100DE00070401847806C94F86730026894F8685037
:100DF0001268F22143EAC5159047A06C036805F01C
:100E00007F019B6C9847A06C0368C5F3C6119B6C6F
:100E1000E4E7806C94F8675094F8683002682D011C
:100E200003F00F0305F070051268F1211D43904790
:100E3000C0E7B0F86760802E28BF802600F1690502
:100E4000002E3FF472AF2E44A06C15F8011B03680E
:100E50001B689847B542F7D167E794F8683094F873
:100E6000672000962946FFF707FF5EE738B5184C64
:100E700094F84C50102D04D90020BDE8384001F002
:100E800035BA2046FFF7B6FC0028F5D094F8663056
:100E9000902B0FD083F08003602B0ED90C48FFF706
:100EA00031FE29460A48FFF725FF0020BDE83840FB
:100EB00001F01CBA94F8683033B194F865309D4263
:100EC000ECD0002DEAD0ECE7802384F86630F4E71C
:100ED000C48DFF1F70B5214C214A94F86430A26480
:100EE0000025012243F0010362F3470329464FF630
:100EF000FF7604F16900802284F8643084F84C5055
:100F000084F84D5084F84E506565A56584F86550A9
:100F100084F8665084F8675084F8685084F8E95083
:100F2000E665266602F04EFF204625606560A560F6
:100F3000E56025616561A561E56125626562A5627F
:100F4000E56225636563A563E56325646564054A19
:100F50000549BDE8704002F001BF00BFC48DFF1F0E
:100F60007488FF1F4088FF1F6D04000010B40F4BF2
:100F700053F8302092F880422CB1012369B182F8F5
:100F8000803010BC704703EBC0035B681A6841B93E
:100F900022F002021A6010BC704782F8003110BCC7
:100FA000704742F003021A6010BC704748400000CE
:100FB0001C4A02EBC00301295B6811D004291BD035
:100FC00052F83000002280F8802229B1022920D076
:100FD000032922D01A6070474FF480721A6070475C
:100FE00052F830004FF4A27280F880121A601A682A
:100FF00022F020021A60704752F830104FF4A272AB
:10100000012081F880021A601A6842F020021A60FA
:10101000704740F203121A6070474FF481721A60F1
:10102000704700BF4840000030B4054B054D064CEA
:10103000002210211A602A602060196030BC7047BD
:1010400014D0034004D0034000D00340282838B512
:101050002ED0002904464FDD5F4B1B78012505FA91
:1010600003F28A4202D8212837D938BD0338C2B2E8
:10107000012A3AD9202C4AD0192C48D0574A126854
:1010800002FB011222FA03F31D2800F29B80DFE825
:1010900000F0928B847D9999766F99999999999995
:1010A00099999968615A53994C999999999999453F
:1010B000494B1B780B2B08D90C2B1CBF0C3B19413F
:1010C0000846BDE8384001F0BDBCC3F10C039940AF
:1010D0000846BDE8384001F0B5BC2946FFF746FF99
:1010E0002946BDE83840FFF763BF3D4A126802FB5E
:1010F000011222FA03F3C7E72128B6D80021FFF72F
:1011000035FF20460121BDE83840FFF751BF354A81
:10111000126802FB011222FA03F3B5E73249334A9F
:101120000B604FF45173136038BD3149314A0B6085
:101130004FF45173136038BD2F49304A0B6040F2B1
:101140004443136038BD2E492E4A0B6040F244439D
:10115000136038BD2C492D4A0B6040F244431360A4
:1011600038BD2B492B4A0B6040F24443136038BD15
:1011700029492A4A0B6040F24443136038BD28498C
:10118000284A0B6040F24443136038BD2649274A81
:101190000B6040F24443136038BD2549254A0B607B
:1011A00040F24443136038BD2349244A0B604FF496
:1011B0005173136038BD2249224A0B604FF45173BA
:1011C000136038BD212C3FF650AF7F29D4BF0021DA
:1011D0000121204693E700BF6C88FF1F0880034071
:1011E0000890034008800B4010800B4048A004404A
:1011F00018800B404CA004401880034008B0044005
:101200001080034004B004404080034018C00440F4
:101210003880034014C004402880034010B00440CC
:10122000208003400CB004403080034010C00440D4
:10123000488003401CC00440189003403490044090
:10124000109003403090044038B1102828BF10207F
:10125000044AC3B2107813707047024A0123107811
:10126000137070476C88FF1F2DE9F8430E468046C7
:101270003249334D304602F029FD47F6122300284B
:101280001ABF1D464FF002094FF00109002425FA4C
:1012900004F002F025FB4FF05E51074602F078FBA8
:1012A0000146304602F026FD30B90134072CEED15C
:1012B000E80902F015FB07463146384602F01CFCEF
:1012C0004FF07C5102F05AFA02F028FD4FF6FF72FF
:1012D0009042A8F1030328BF1046012B29D9B8F189
:1012E000170F17D8174B23FA08F303F0010383F005
:1012F000010223B9B8F1190F0FD0BDE8F883124BE2
:10130000124D13491A6044EAC9042A6008601C603F
:10131000BDE8F883B8F1200FECD10E4B0E4D0F490C
:10132000002244EAC9041A602A6008601C60BDE813
:10133000F8830B4B0B4D0C49F2E700BFC0E1E440D2
:10134000008793036006F0000080034004800340A0
:101350000880034000800B4004800B4008800B4055
:10136000009003400490034008900340212801D8D6
:10137000FFF7FCBD704700BF212801D8FFF718BE5A
:10138000704700BF2DE9F843054672B6204F214B48
:10139000214A1B683C68126862B6520102D5322BA2
:1013A00088BF013495B3C3F5EA331C4EDFF864906F
:1013B000DFF86480BF334FF47A72A6FB031302FB9D
:1013C00004F404EB931472B6D9F800103A68D8F814
:1013D00000E062B6C1F5EA33BF33A6FB03031EF09B
:1013E000806FC4EB93134FF47A7002D0322988BF18
:1013F000013200FB0233B3F57A7F04D3013D05D0FF
:1014000004F57A74DFE701F05FFADCE7BDE8F88302
:10141000B48EFF1F18E000E004ED00E089888888A2
:10142000F8B52D4B2D49DFF8D0E0DFF8D0C02C4EB9
:101430002C4D2D4C2D4A2E4F4FF4000018604FF0CC
:10144000807018604FF0007018604FF08060186076
:101450004FF0006018600020086028234EF6FF71EE
:10146000CCF80010CEF80030336013602B6023609E
:101470003B60B3629362092245F8242CC4F8D80F6C
:1014800005F57F65C7F8D41F07F5FF2707F5FA674D
:10149000C6F8F83F2B6006F5FF26C4F8D42F05F5F3
:1014A000FD2504F5FF24386006F2F476114831601A
:1014B00005F5FF6504F5FD642B602360026001F013
:1014C00051FA1920FFF75EFF00F024FE40F21310DE
:1014D000BDE8F840FFF756BF08E100E00480034094
:1014E00014800340248003402C8003401C80034070
:1014F0003480034000800B400C8003400880034090
:10150000431E032B14D872B60A4951F8230068B160
:1015100070B4094C058834F81320466841F82360FC
:10152000521B24F8132062B670BC704762B6704735
:1015300000207047108FFF1FB891FF1F30B472B6A4
:101540002B4A13781D0706D52A4B196A002936D075
:10155000996A002941D053781C0706D5254B196C90
:1015600000293ED0996C002939D09378190705D508
:10157000204B196E002936D0996E89B1D3781B079C
:1015800007D51C4BD3F880207AB3D3F888201121DB
:101590003AB162B6184B00221A7030BC00F046BE59
:1015A0000D21154C154D227843F8315003EBC10342
:1015B0000830013A5860227062B630BC704704228D
:1015C0000D4C0F4D217843F8325003EBC203083025
:1015D0004A1E5860227062B6EFE70521E1E7092153
:1015E000DFE70822ECE70C22EAE71022E8E700BF79
:1015F000B84100000080FF1F8D8FFF1FC800400012
:1016000088004000431E032B1DD81B4A400140F0B8
:10161000100030B4104472B6184CE25C032A1BD898
:10162000DFE802F00212151703220D88E25410F0D1
:10163000080F14BFC823882343EA05430831036019
:10164000416062B630BC704708300222EDE70522E7
:10165000EBE708300422E8E7094A52F8230038B1E2
:10166000084A52F82300416042F8231062B6E9E7C5
:1016700042F82310034AF7E70080FF1F9C8FFF1FEB
:10168000648FFF1F748FFF1F2DE9F04FDFF818B331
:10169000DFF818A387B044E0AD4F4FEA930807EB9B
:1016A000C809013ED9F8042003F00803F6B2A2F1FC
:1016B000080003F0FF04002B40F0018157F8383098
:1016C0001B0C99B222F8081C002B00F0EF80A14BF4
:1016D00022F8064C42F8044C53F82620002A00F069
:1016E000CF819D4D55F8263058609C4C45F826001A
:1016F00034F81630194424F8161000F077FD00284D
:1017000000F0C281964A974B19F0080F00F10800CB
:1017100018BF1346C9F8040047F8383008238BF87F
:1017200000309BF80040E4B265071CD58E4B1B7857
:10173000B3B18E490A7802F0FF0322B1013BDBB25C
:101740000B7003B900BE8A490A7802F0FF032AB180
:10175000013BDBB20B70002B00F0688100F0B0FDA4
:1017600004238BF8003004F0080303F0FF02002B81
:1017700000F0C9809AF80030DBB21E098CD19A08BB
:10178000DFF8CC9159F8321009EBC200C1F38301A4
:10179000013940680C2900F28580DFE801F07A7A8F
:1017A0008383838383834683838307000168714D2A
:1017B0004068714F714E6860296088B240F2816163
:1017C0000024674B49F832304FF0010E88423C60EC
:1017D000C9F81040C9F8184086F800E05C4A00F2E9
:1017E000E780B0F5D06F80F01B82B0F5817F00F00C
:1017F000D98100F26981802800F02A82822840F095
:10180000D781A98801F07F01042900F2D1815C48C9
:101810005C4A890008441470547001788C0740F1C8
:10182000608382F800E0022173E1534F3A682AB3E3
:10183000554B524E554819883478057840298E46C4
:1018400045F0020828BF4FF0400E002C84F0010440
:101850003470CEEB01010CBF8824C82409EBC80604
:1018600089B285F0010544EA0E447260198049F896
:10187000384072440570002965D03A603D4B1A88A3
:10188000B2F5A06F0ED100219A785970404B1A70B2
:1018900008E038493F4C0D68A54200F09880304977
:1018A00049F832103C4A0123137037E72C4A2D4B7C
:1018B00019F0080F18BF134647F838302EE700F02C
:1018C000B5FC364A364952F82630002B00F0E3804A
:1018D00058688C5D42F8260003F10802C9F804201C
:1018E000032C05D8DFE804F02C02292602228A55B1
:1018F0001A8819F0080F0CBF8823C82343EA024353
:1019000047F838300AE7E00700F19380210600F13C
:10191000D180A20706D5234A234913780220DBB2DF
:1019200013700870E30602D51F4B10221A7007B01F
:10193000BDE8F08F04228A55DAE705228A55D7E7F9
:1019400003228A55D4E7BEF1400F18BF002294E766
:101950000080FF1F108FFF1FBC8EFF1FB891FF1F5D
:10196000C800400088004000988FFF1F218FFF1F94
:101970000890FF1F848FFF1FB88EFF1F208FFF1F4F
:10198000C0200740908FFF1FCC8EFF1F8C8FFF1F42
:10199000982007402109000394200740648FFF1F0F
:1019A0009C8FFF1F88200740802007409020074021
:1019B000B0F5106F00F07C8140F2A38040F6211258
:1019C000904240F07B82A54A012313706AE74C687D
:1019D000A3498C427FF463AF0178A9297FF45FAFFC
:1019E000417845297FF45BAF8178C2297FF457AFF6
:1019F000C1786B297FF453AF9A489B4E01783478B5
:101A000081F00105002C41F0020105700CBF882017
:101A1000C82084F0010449F8310009EBC101934862
:101A20003470002505244D60047038E700F0AEFEE8
:101A300094E68F4B89488B491A614FF0020E80F86B
:101A400000E08C4F0A708C49196099608B4E8C4D68
:101A50008C4C9A610D213970FF213170DFF84CE216
:101A600029702270884D894A8EF800109F27012422
:101A700006F8047C5D600470DA6007B0BDE8F08FA2
:101A800043F82600824D30E6824A47F83800137842
:101A90000133137042E68B5D032B00F2BA8001A282
:101AA00052F823F01D1700001D170000FD1A00005A
:101AB000F71A00006F49724B80220D2008701A70CF
:101AC000A2077FF52FAF26E740F20232904240F0A6
:101AD000ED81AA8802F07F02042A69D86D88002D62
:101AE00066D16449CDF804E0920011440A7842F0CE
:101AF00002020A70C1E101238B550FE600238B55CA
:101B00000CE6B0F5086F53D16349644A0978117047
:101B10007146ED888D4280F0E88252480478402D6D
:101B2000AE4644F0020C28BF4FF0400E02EB0E030D
:101B300009EBCC01029301234A604FEA0E48CEEB39
:101B4000050101930025C82242EA080384F001023E
:101B500049F83C3035700270DFF814C1424BDFF8B1
:101B6000048149BBBEF1400F7FF42DAF42F0020C5F
:101B700009EBCC03029ADFF8F8E05A608DBB0D0444
:101B800045F088059DF804304EF83C500A44337007
:101B90000470134640297FF416AF0021404A3B6091
:101BA000118010E7AA8802F07F02042A40F28B819C
:101BB000304A0F23137006E74029D7D942F00202BA
:101BC0000CEBC200029E4660BDB19DF80450354842
:101BD0001D703346403988F8004040334CF83200DD
:101BE000DCE79DF8043033700D04029B047045F06F
:101BF000C8050B444EF83C50CCE79DF804501D70CE
:101C0000029B1D4888F80040403940334CF83200B0
:101C1000C4E719F0080F0CBF022303238B557DE5A1
:101C200021494A68002AC3D06C88B5F804E003E073
:101C30000C314A68002ABBD00B88A342F8D14B88EC
:101C40007345F5D1240A032C0CBF1178098960E78C
:101C5000124A0221147054705BE700BF94200740C1
:101C6000010004008C8FFF1F208FFF1F218FFF1F9B
:101C70000080FF1FC02007408800400088200740E8
:101C80008020074098200740D08EFF1F248FFF1F21
:101C9000BC8EFF1F8D8FFF1F988FFF1F908FFF1F20
:101CA000CC8EFF1FC8004000BC4100008C200740C4
:101CB000B248116AAC7804700C0600F19881D9F82A
:101CC0002820AF49100600F1DB81D9F83020AC495B
:101CD000120600F1D081D9F83820A949130600F185
:101CE000C581D9F84020A649150600F1BA81D9F876
:101CF0004820A349140600F1AF81D9F85020A0492B
:101D0000100600F1A481D9F858209D49120600F16F
:101D10009981D9F860209A49130600F18E81D9F88B
:101D200068209749150600F18381D9F870209449FD
:101D3000140600F17881D9F878209149100600F155
:101D40006D81D9F880208E49120600F16181D9F8A1
:101D500088208B49130600F15581D9F890208849D5
:101D6000150600F14981D9F898208549140600F13B
:101D7000FF808448844A854901908548854D864C7A
:101D8000049700230596029580460F4616461D4689
:101D90000394306828B1446800F048FA2046002CCB
:101DA000F9D100233360029B38681A46002342F8B9
:101DB000253028B1446800F039FA2046002CF9D1CA
:101DC00000223A60019A98F800301146002241F84A
:101DD000042B039A0191023B4FF0000122F81510E9
:101DE000032B07D8DFE803F05D025D024FF001032B
:101DF00088F800300135042D06F1040607F10407C8
:101E000008F10108C5D1654C654D2278654B049FEA
:101E1000059E0021100729701A7000F19280624916
:101E200062780A700021C9F83010C9F8381011071B
:101E3000DFF84C816ED4A2785C49DFF844810A70E7
:101E400000211207C9F85010C9F858104BD4E27895
:101E500057494B4C0A7013074FF00001C9F8701036
:101E6000C9F8781000F1AE8033780193002283F036
:101E70000105C9F89020C9F89820002102918846F0
:101E80008E460A464B48047844F0020C09EBCC031A
:101E90000393019B002B039B5A600CBF8822C8222E
:101EA00052E64FF0000388F80030A3E7B0F5A06FCA
:101EB0007FF47EAE012300250193DEE740F6212268
:101EC0009042F7D074E66D88002D7FF471AE3A49E8
:101ED000CDF804E0920011440A7822F002020A7060
:101EE000CBE7022115E600F081F9002800F0EB8035
:101EF0000830324AC8F86400C8F8602000F076F96B
:101F0000002800F0DA8008302D4AC9F86C00C9F8C2
:101F100068209CE700F06AF9002800F0E0800830B3
:101F2000264AC8F84400C8F8402000F05FF90028AD
:101F300000F0CF800830224AC9F84C00C9F8482088
:101F400079E700F053F9002800F0A58008301B4A1B
:101F5000C9F82400C9F8202000F048F9002800F052
:101F600094800830164AC9F82C00C9F8282056E792
:101F7000D1F89C00083800F059F9FAE6988FFF1F55
:101F80000080FF1F748FFF1F108FFF1F648FFF1FC4
:101F90009C8FFF1FBC8EFF1FB891FF1FB841000030
:101FA0008D8FFF1FC4200740C8200740CC2007406A
:101FB000D02007408C8FFF1FC020074088004000C2
:101FC000C800400000F012F9002870D008304F4AD5
:101FD000C4F88400C4F8802000F008F9002860D01C
:101FE00008304B4AC9F88C00C9F888203CE7506A91
:101FF000083800F01BF962E6D1F89400083800F0C8
:1020000015F9B0E6D1F88C00083800F00FF9A4E615
:10201000D1F88400083800F009F998E6C86F08384C
:1020200000F004F98DE6486F083800F0FFF882E60A
:10203000C86E083800F0FAF877E6486E083800F005
:10204000F5F86CE6C86D083800F0F0F861E6486D08
:10205000083800F0EBF856E6C86C083800F0E6F8EF
:102060004BE6486C083800F0E1F840E6C86B0838E9
:1020700000F0DCF835E6486B083800F0D7F82AE6BF
:10208000C86A083800F0D2F81FE62A78C9F8280094
:1020900001322A70C3E62A78C9F8200001322A707A
:1020A0005AE72A78C9F8880001322A70DCE62A78D3
:1020B000C4F8800001322A708EE72A78C9F86800D7
:1020C00001322A70C3E62A78C8F8600001322A700B
:1020D00014E72A78C9F8480001322A70ABE62A785A
:1020E000C8F8400001322A701FE740298E4628BFF9
:1020F0004FF0400E02EB0E0302930123CEEB0101E1
:102100004FEA0E4800250193BCE600BF880040005E
:10211000C8004000F8B501F0C7F9294B29482A4CFE
:102120002A4F2B4DDFF8BCC0DFF8BCE0294E00225F
:102130001A605A609A60DA601A615A619A61DA61CB
:102140001A625A629A62DA621A635A639A63DA63AB
:102150001A645A649A64DA641A655A659A65DA658B
:102160001A665A669A66DA661A675A679A67DA676B
:10217000C3F880200168C3F8842041F48021016005
:10218000C3F307212170C3F30740134938701B0EB6
:102190002B70FF238CF80030104D8EF80030104863
:1021A0000B700123337084F8642070264FF40074A0
:1021B000102207F82C3C2E70046081F8F820F8BD3E
:1021C0000080FF1F348004409C200740B02007405F
:1021D000B4200740942007401020074049E400E065
:1021E00008E100E0802007408820074072B60D48D3
:1021F0000268B2FA82F30F2B10DC4FF00041D94095
:1022000022EA0102026062B6074803EBC303DB0067
:10221000C2180021C15010465160704762B60020BC
:10222000704700BF7088FF1FBC83FF1F0D4B0E4A15
:10223000C31AA2FB03231B090F2B0CD80B4A1278DD
:1022400052B972B60A484FF00041026821FA03F30E
:102250001A43026062B67047064A1278002AF0D02C
:10226000FFF76CB9BC83FF1F398EE3388D8FFF1FDA
:102270007088FF1F988FFF1F38B50E4B0E4C1B68E0
:10228000218805468BB1B1F5917F05D20B4A4B1CD5
:1022900055549BB2238038BD00220848984700213E
:1022A000064A55540123238038BDB1F5917FEDD303
:1022B00038BD00BFC48FFF1FC291FF1FC891FF1F11
:1022C00038B5084B1C7824B9074D296809B14B88EB
:1022D00003B938BD9B000B800320FFF793F92C60F6
:1022E00038BD00BFB48FFF1FE08FFF1F2DE9F04105
:1022F000AD4E33680746002B00F092801D885A8847
:10230000910803EB81010432AA428C6842D25A80C0
:1023100004F00F064FEA1428A449A6F1080208F0B9
:102320000F00C4F30313062A00F101050B701AD93C
:10233000B31E012B5FFA88F04ED9052E48D0042E2B
:1023400000F0A481731F022B7FD90F2E0ED1F72826
:1023500042D8F02802D0964B1B883BB1FFF78CFF88
:102360000020BDE8F08127B1BD4202D00020BDE8C9
:10237000F081082EC4F3033300F08780092E11D0BA
:102380000A2E40F094800A2BF0D18A4B8A4A1B68AF
:10239000A02181E01846FFF749FF0420FFF7B0F8BD
:1023A0003060B5E7092BE1D1270E00F07B81834B2C
:1023B000814A1B689021C4F307461170EDB2FCB24C
:1023C000002B00F09D80224631462846984797E032
:1023D000F02843D9F72841D0F1380E28C6D801A3F8
:1023E00053F820F09B2500007F2500006D2500009C
:1023F0006D2300006D2300005F2500006D230000A9
:102400003F2600006D23000009260000232600005F
:10241000472500006D2300002F2500001325000034
:10242000674B1B78002BA1D00420FFF769F8034607
:10243000306000289AD00588002D7FF460AFFFF748
:10244000F5FE35602846BDE8F081FFF715FFC4F3BF
:102450000740FFF711FF072E02D1200EFFF70CFFF8
:10246000534B584A198858481468584D524A0170BD
:1024700000270E0AF0201F802E7010700CB301226E
:102480005348A0470120BDE8F081082B7FF46EAFD0
:10249000504B494A1B688021C4F307461170EDB2C6
:1024A000240E6BB3284622463146984728E00B2E6F
:1024B00011D10B2B7FF45AAF474B3F4A1B68B02119
:1024C000EAE7464B1B68002B00F0FB80404898472A
:1024D0000120BDE8F0810C2E40F000810C2B7FF430
:1024E00045AF3F4B344A1B68C0211170EDB2C4F3B5
:1024F0000746002B00F0C88028463146240E984736
:102500003849314A314B0D7016701C700120BDE8FE
:10251000F081354B1B68002B00F0D6809847C4F340
:102520000746254BEDB2240E83F80080E8E72F4BD9
:102530001B68002BF2D12E4B1B68A3B1FE209847DD
:10254000C4F30746EDE72B4B1B68002BE6D1284B65
:102550001B6843B1FC209847C4F30746E1E7264BCC
:102560001B68002BDAD1C4F30746DAE7234B1B685C
:10257000C4F30746002BD4D030469847D1E7204B10
:102580001A68002AEFD0260C630C06F07F0003F4D3
:102590007E531843F6B29047C3E71A4B1B68C4F347
:1025A0000746002BE8D1BCE7E88FFF1FC691FF1F4D
:1025B000C291FF1FC88FFF1FC091FF1FF88FFF1F21
:1025C000988FFF1FC48FFF1FC491FF1FC591FF1F6E
:1025D000C891FF1FF08FFF1FF48FFF1FDC8FFF1FBD
:1025E000B88FFF1FC791FF1FA48FFF1FA88FFF1F6A
:1025F000AC8FFF1FE48FFF1FD88FFF1FEC8FFF1FD3
:10260000C08FFF1FD48FFF1F3F4B1B68002B85D14E
:102610003E4B1B68002BA6D0FA209847C4F3074610
:102620007FE73B4B1B68002B7FF478AF374B1B6871
:10263000002B98D0FB209847C4F3074671E7354B31
:102640001B68002B7FF46AAF304B1B68002B8AD0CD
:10265000F8209847C4F3074663E70E2B7FF486AE55
:102660002D4A2E4B1268E0211970002A47D0260C03
:10267000610C06F07F0301F47E511943EDB2A1F520
:10268000005128469047F6B2240E39E7FFF7F4FDD3
:10269000C4F30740FFF7F0FD200EFFF7EDFD00202B
:1026A000BDE8F0811E4B1D4A1B6880211170EDB200
:1026B000C4F3074683B1314628463A4698473C461C
:1026C0001EE70120BDE8F081104B1B68002B3FF492
:1026D0004AAFFF20984746E71C4611E70D2EBCD1B4
:1026E0000D2B7FF443AE0F4B0C4A1B68D0211170A9
:1026F000EDB2C4F30746002B7FF4FEAEC4E7C4F38B
:102700000746EDB2240EFBE6D08FFF1FAC8FFF1FF4
:10271000B08FFF1FA08FFF1FBC8FFF1FC091FF1F37
:10272000F08FFF1FCC8FFF1F38B5164D2868E0B122
:1027300001884488A14213DD03191B7A83B104F197
:102740000803C2180C1B002302E012F8011F21B17C
:102750000133A342F9D1204638BD1C46204638BD7E
:10276000FFF764FD0020286038BD074B1B780BB9CC
:10277000002038BD0220FEF7C3FE28600028D7D114
:10278000F6E700BF0490FF1F988FFF1F0D4B1B78CB
:10279000BBB910B50C4C216803F0FF024B883F2BEE
:1027A00007DC07330B4401F1470003F8012F834294
:1027B000FBD140230B800120FEF724FF0023236080
:1027C00010BD7047FC8FFF1F0090FF1F0368C9B248
:1027D0001B6818470368C9B21B6818470368C9B269
:1027E0001B6818470368C9B21B68184708B5084634
:1027F00000F0B4FB012008BD08B5084600F0AEFBB0
:10280000012008BD38B508460D4601F039FB0446E5
:102810000146284600F0ACFB204638BD10B50846FE
:102820001446114600F0A4FB204610BD00F07EBC0B
:1028300008B5084600F06AFB003018BF012008BD4B
:1028400008B5084600F040FB003018BF012008BD65
:102850000846114600F0D4BA084600F00BBB00BF92
:10286000084600F0B1BA00BF00F04CBA034B03EBCE
:102870005100B0FBF1F000F0A3B900BF001C4E0EF8
:1028800010B5064B144603EB5100B0FBF1F000F01D
:1028900097F92046BDE8104000F008BA001C4E0E23
:1028A00000F02CBC00F0F6BB00F0E4BB00F0C4BBB1
:1028B00000F0CEBB704700BF08B5FDF795FEFEF7F0
:1028C000D5FA00F001F8FAE738B5224C237803B1C5
:1028D00038BD01232370FFF727FF70BB00F0CAFB50
:1028E00040BB00F0CFFC10BB00F062FDE0B900235C
:1028F0002370EFF30583002BEAD1EFF3108172B65A
:10290000154B1868E0B1154C2278CAB945691D60AD
:1029100001232370C5B1AA6101B962B600254577CC
:10292000836898472570D3E700F0FAFEDFE700F0F0
:10293000F5FED9E7FFF7BEFFD3E700F0F3FECDE7E2
:102940000029C5D162B638BD054B1D600029E5D10F
:10295000E3E700BF0990FF1FAC91FF1FB091FF1F7D
:10296000A891FF1F30B42948294A2A4B2A4D6024D8
:10297000E121047011701B78284C082B30D00A2BF1
:102980002748284937D00C2B0CBF35225D22122353
:102990002A60236002600B60234B24491B78244A81
:1029A000BBB101230B601360224B23491B78234AE0
:1029B000012B26D9042B0FD9082B1ED9102B94BF1D
:1029C000862387230B6013601D4B01221A7030BCD5
:1029D00070470B601360E7E784230B601360F3E735
:1029E00000F58E200F490830212213232A6023602E
:1029F00002600B60D0E73922F7E785230B60136094
:102A0000E2E780230B601360DEE700BF0040074071
:102A1000014007408488FF1F08B003400CB003400A
:102A200008B00B400CB00B400B90FF1F20B00340D0
:102A300020B00B408588FF1F24B0034024B00B401A
:102A40000A90FF1F0A4A0B49136843F4805313602E
:102A50000B7843B9084BC0221A70084B80F30C0066
:102A600000B218807047044B80221A70F5E700BF4F
:102A70002C8004400B90FF1F21C00C4000C00C4074
:102A800008B5104C08E0236859050DD423681A05D1
:102A90000FD42368DB0411D423685803F3D5FEF761
:102AA000F3FD23685905F1D500F066FB23681A058C
:102AB000EFD500F0F7FB2368DB04EDD500F088FCD0
:102AC000EAE700BF3480044008B5FFF7D9FF00BF34
:102AD000014B10221A80704700200540704700BF4C
:102AE000EFF3138070B9EFF310836BB9EFF3058246
:102AF0005AB94FF48070EFF311832BB1984228BF7D
:102B0000184670474FF0FF3070470F2A01D818461B
:102B1000F1E7014BD05CEEE7F0E300E02DE9F84F80
:102B2000214B1B6807460BB101221A70DFF8889011
:102B30001E4D99F80040DFF884801D4E01343F2C73
:102B40008ABF4FF0000A5FFA84FA5446AB462B78EE
:102B5000A34216D1FFF7C4FF40281FDC33791B06C0
:102B6000F5D59BF8003001333F2B86BF002213467A
:102B7000DAB218F80330DBB2F3712A702B78A34273
:102B8000E8D00C490A4BFFB208F804700120BC22BF
:102B9000087089F800A0DA70BDE8F88FFF28D6DD4C
:102BA000FFF792FED3E700BF9C90FF1F9990FF1F95
:102BB00000A006409890FF1FA090FF1F1490FF1FD9
:102BC0002B4A2C491368F0B543F4806313600A78EC
:102BD000294F2A4E2A4D2B4C2B4900233B70337032
:102BE0002B7023700B70002A3DD0152A21D0274B63
:102BF0001B78012B25D0052B30D01F2827D800208B
:102C000002460125224B234C1A7023495D70042291
:102C10004FF0020E88273C26402598729A704FF498
:102C2000005083F813E05A751F74DE702570086039
:102C3000F0BD1A4B40F213321A60144B1B78012B73
:102C4000D9D1174B4FF451721F281A60D7D9C0F34E
:102C50004432C0F3471500F01F00D3E7114B4FF487
:102C600051721A60C9E7104B40F213321A60BEE786
:102C7000348004405490FF1F1090FF1F1190FF1FDD
:102C8000A090FF1F9990FF1F9890FF1F8688FF1F3D
:102C900000A006402DE400E004E100E018C004407C
:102CA00044A004401CC0044040A00440144B1449FC
:102CB0009B7803F0EC0200F003031343420700F09B
:102CC0000F0248BF43F01003042A8B7013D00C4B43
:102CD0000B4A5B79C10603F0EF0348BF43F01003D2
:102CE00053719379820603F0EF03054A48BF43F01E
:102CF0001003937170478B7943F040038B71E6E7C3
:102D000000A00640234B1B685B0541D510B5224C43
:102D1000237823B1FFF7D8FD2378002BFAD11F4881
:102D20001F4A204B4FF4005400210460D1701B78DF
:102D3000FBB1152B03D11C4B40F203121A601B4B45
:102D40001B7803F07F03012B1DD0052B03D1184BFB
:102D500040F203121A60174A114B174817491268BC
:102D60001C79DB79002303700B700AB10123137007
:102D700010BD134B40F203121A600C4B1B7803F08A
:102D80007F03012BE1D10F4B40F203121A60E2E7FF
:102D9000704700BF348004409890FF1F84E100E03A
:102DA00000A006405490FF1F18C004408688FF1FF3
:102DB0001CC004400C90FF1F1090FF1F1190FF1FBC
:102DC00040A0044044A004400A4A38B505461378A0
:102DD00003F0FF04002BFAD101212846FEF7CCFABC
:102DE00021462846FEF7C2FA034A044B52F8352022
:102DF0001A6038BD9890FF1F484000009C90FF1F4C
:102E000009B140F08000174A1378984216D010B4E8
:102E1000154C246864050FD503F07F03012B1CD0EB
:102E2000052B11D0002900F07F0114BF602344233B
:102E300001290DD0052902D0107010BC70470B4934
:102E400043F440730B60F7E7084B00241C60E9E78C
:102E5000074943F440730B60EEE7054B00241C6008
:102E6000E0E700BF8688FF1F348004401CC0044098
:102E700044A00440104B1A7882420AD00F490968D6
:102E8000490505D5AAB1152A09D068B1152801D080
:102E9000187070470A4A40F213311160F8E7084A87
:102EA000002111600028F1D1064A40F2133111606F
:102EB000EEE704490A60E8E75490FF1F34800440BD
:102EC00018C0044040A004400D4B1B6813F48063FD
:102ED00005D0212805D90B4B0020186070471846F3
:102EE0007047094B10B5074C53F83030236001216F
:102EF000FEF742FA236800221A70012010BD00BFBD
:102F0000348004400C90FF1F484000000F4B1B68AA
:102F100013F4806308D0122808D0142811D00C4A6A
:102F2000537B03F0FE03537300207047094B40F2BC
:102F300002321A60064A537B43F0010353730120A7
:102F40007047054B40F202321A60F3E734800440C8
:102F500000A006400CA0044014C00440034B1B68B2
:102F60005B0501D5FFF7DABD704700BF3480044030
:102F70002DE9F84F294B1B685A0548D5284B1B688B
:102F800005460BB101221A7005EB010A554540D2E6
:102F9000DFF89C80234CDFF89C90234F0AE015F863
:102FA000012B09F80B20214A0123AA45137088F848
:102FB00000602ED098F80030227803F1010BBBF1AD
:102FC0003F0F86BF0026B3465FFA8BF69345E6D1E6
:102FD000BC22FA7005E03A7913060BD422789345A7
:102FE000DDD1FFF77DFD4028F5DDFF28F6DDFFF799
:102FF0006BFCF3E7227801323F2A86BF00210A46A4
:10300000D1B219F80220D2B2FA712170E6E7BDE818
:10301000F88F054BBC22DA70BDE8F88F348004408D
:103020009C90FF1F9990FF1F00A006409890FF1FE3
:10303000A090FF1F1490FF1F10B5044C237823B1FC
:10304000FFF742FC2378002BFAD110BD9890FF1FA8
:10305000064A074B1B781078DBB2C0B283422CBF04
:103060003F3000F1FF30C01A704700BF9990FF1F3A
:10307000A090FF1F054A064B10781B78C0B2DBB248
:10308000984238BF4030C01A704700BF1090FF1FF1
:103090001190FF1F30B4154B154C1A782378D2B21B
:1030A000DBB29A421ED001333F2B0ED91149124B8D
:1030B000087819680023C0B2237021B1D31A1A2BE3
:1030C00001DC00230B7030BC70470A480A49C05C21
:1030D0000968DDB2C0B225700029F4D09A4238BF29
:1030E0004032EBE74FF0FF30EDE700BF1090FF1FDD
:1030F0001190FF1F5890FF1F0C90FF1F084A094BAB
:1031000012781B78DBB29A4207D00133402B28BFDC
:103110000023054AD05CC0B270474FF0FF307047C3
:103120001090FF1F1190FF1F5890FF1F0D4B1B6841
:103130005B0516D530B40C4B0C4CDA780C480D49B5
:1031400002F0CB024025DA705D74DA7842F0340286
:10315000DA7023780268DBB20B700AB100231370B7
:1031600030BC70473480044000A006401190FF1F1F
:103170000C90FF1F1090FF1FF0B4384B1A7912F01B
:10318000300F2CD072B6997D01F0FF0200293DD09E
:1031900062B6334F334938780D78334E1C46C0B28F
:1031A000EDB2431C402BE17928BF0023AB4202F172
:1031B000FF32C9B21CBFF154184612F0FF02F0D121
:1031C0002A4B1B68C2B23A704BB1A84236BFC5F158
:1031D0004005401B40192728C4BF01221A701F490F
:1031E000CA78D2B2150616D452060DD51B4B1B79E0
:1031F0005B0609D51E4B1F491B6800220A7003B1EC
:103200001A70164B3C22DA70F0BC70474022D97914
:103210005A7462B6E3E70B791C06E5D5164B174ED8
:103220001C783378E4B2DBB29C420ED0144D01E03E
:10323000A3420AD00133402B28BF00230879E85C61
:10324000C0B2C871087D0728F2D9DBB203493370D8
:103250000B79180644BF7C23CB70C5E700A006405D
:103260001090FF1F1190FF1F5890FF1F0C90FF1F21
:103270009C90FF1F9890FF1FA090FF1F9990FF1F29
:103280001490FF1F054A064B10781B78C0B2DBB2C2
:10329000984238BF4030C01A704700BF1491FF1FDA
:1032A000A990FF1FF0B4384B1A7912F0300F2CD0D0
:1032B00072B6997D01F0FF0200293DD062B6334F0E
:1032C000334938780D78334E1C46C0B2EDB2431CFA
:1032D000402BE17928BF0023AB4202F1FF32C9B293
:1032E0001CBFF154184612F0FF02F0D12A4B1B68A4
:1032F000C2B23A704BB1A84236BFC5F14005401B7F
:1033000040192728C4BF01221A701F49CA78D2B2B7
:10331000150616D452060DD51B4B1B795B0609D535
:103320001E4B1F491B6800220A7003B11A70164B0E
:103330003C22DA70F0BC70474022D9795A7462B6E8
:10334000E3E70B791C06E5D5164B174E1C7833784E
:10335000E4B2DBB29C420ED0144D01E0A3420AD08D
:103360000133282B28BF00230879E85CC0B2C8715C
:10337000087D0728F2D9DBB2034933700B791806B0
:1033800044BF7C23CB70C5E700B006401491FF1FFB
:10339000A990FF1FD490FF1FA490FF1F1891FF1F3B
:1033A000A890FF1F1C91FF1F1591FF1FAC90FF1FDE
:1033B000054A064B10781B78C0B2DBB2984238BF82
:1033C0004030C01A704700BF2491FF1F2591FF1F96
:1033D00030B42B4B1A7994061FD52A48DA79037832
:1033E000294901333F2B0978C8BF00238B42D2B251
:1033F00003D0264CD9B2E2540170254A116861B15C
:10340000244A1278D2B2934236BFC2F140029B1ACC
:103410009B18272BC4BF01230B70194AD378DBB24A
:10342000180611D45A060DD5154B1B795B0609D524
:10343000194B1A491B6800220A7003B11A70104B0D
:103440002C22DA7030BC704711790906EAD514498C
:1034500010480C780178C9B28C420DD04A1C272A3A
:1034600084BF00210A460F4D054C98BFD1B2AA5C1B
:10347000D2B2E2710170D5E76C21D170D2E700BF02
:1034800000C006402491FF1F2591FF1F5091FF1F90
:103490002091FF1F9191FF1F9491FF1F9091FF1F9B
:1034A0009891FF1F2891FF1F70B584B072B6194B19
:1034B000194D1A48702241260F2480211A702E704F
:1034C0001A460470197013781B06FCD5144B186843
:1034D00062B6144B144C984298BF00EB800001A9CF
:1034E00098BF40000A2200F01FF901A920460023DE
:1034F00011F8012B01333AB10A2B20F8022FF7D132
:103500001623237004B070BD5B00DBB2237004B0DF
:1035100070BD00BF000002400700024006000240EC
:10352000080002407F9698006889FF1F10B4EFF3EF
:10353000108272B6437F33B9017F012907D0032976
:103540000FD00123437702B962B610BC7047124C0A
:103550002168A1B1114943610B688361086058611A
:10356000EFE70F4C216881B10E4943610B6883611D
:10357000086058610C4B4FF080511960E1E7074B30
:103580004161816120601860DBE7064B4161816128
:1035900020601860EEE700BFAC91FF1FA891FF1FED
:1035A0009C91FF1FA091FF1F04ED00E010B4047F69
:1035B0004160022CC26002D010BCFFF7B7BF836825
:1035C00010BC184770B5EFF3108272B60C4C20682F
:1035D00080B10C4E00254369236073B19D6102B92F
:1035E00062B6457783689847EFF3108272B6206819
:1035F0000028F0D102B962B670BD3360EFE700BFBA
:103600009C91FF1FA091FF1FFFF7DCBF184A30B449
:103610001468002C27D0036821688B420ED2CB1A85
:1036200000218460C1602360E060106002230375A4
:1036300030BC704711688B42144608D3A2685B1AED
:103640000360002AF6D18260C460A060EEE7D26811
:10365000C2608460E060C568CB1A0222A860236063
:10366000027530BC70478460C4601060DEE700BF44
:10367000A491FF1FF8B5224E34682CB32368002BA9
:103680003AD1204F1D4604E03468ECB12368002B8A
:1036900032D1A36803B1DD6020693360036825750A
:1036A0001B68BB4221D1037F4560022BC46020D040
:1036B000FFF73CFF6368002BE6D023602046FFF74E
:1036C000A5FF3468002CE1D1EFF3108372B60E4AE7
:1036D00000211068116003B962B628B18468FFF751
:1036E00095FF20460028F9D1F8BD224600219847D1
:1036F000E0E783689847DDE7013B2360E4E700BF2C
:10370000A491FF1FAD350000B491FF1F024A13685A
:1037100001331360FFF7AEBFB48EFF1F704700BFC9
:10372000704700BF704700BFF0B44D1E2E46002406
:1037300000E00134B0FBF2F302FB1300092800F1B2
:1037400030078ABF3730F8B2C0B206F8010F18460A
:10375000002BEED10A1953704CB1107815F8016F97
:1037600028700133E01A834202F80169F5DB08464C
:10377000F0BC704780F0004002E000BF81F00041E3
:1037800042001FBF5FEA410392EA030F7FEA226C07
:103790007FEA236C6AD04FEA1262D2EB1363C1BF97
:1037A000D218414048404140B8BF5B42192B88BF06
:1037B000704710F0004F40F4000020F07F4018BF29
:1037C000404211F0004F41F4000121F07F4118BF49
:1037D000494292EA030F3FD0A2F1010241FA03FCF1
:1037E00010EB0C00C3F1200301FA03F100F00043D9
:1037F00002D5494260EB4000B0F5000F13D3B0F1A1
:10380000807F06D340084FEA310102F10102FE2A0F
:1038100051D2B1F1004F40EBC25008BF20F001007F
:1038200040EA03007047490040EB000010F4000F2D
:10383000A2F10102EDD1B0FA80FCACF1080CB2EBC0
:103840000C0200FA0CF0AABF00EBC250524218431F
:10385000BCBFD0401843704792F0000F81F40001C4
:1038600006BF80F400000132013BB5E74FEA410397
:103870007FEA226C18BF7FEA236C21D092EA030F03
:1038800004D092F0000F08BF0846704790EA010F7D
:103890001CBF0020704712F07F4F04D1400028BFAA
:1038A00040F00040704712F100723CBF00F500008C
:1038B000704700F0004343F0FE4040F400007047C2
:1038C0007FEA226216BF08467FEA2363014642026E
:1038D00006BF5FEA412390EA010F40F48000704781
:1038E0004FF0000304E000BF10F0004348BF404227
:1038F0005FEA000C08BF704743F0964301464FF063
:1039000000001CE050EA010208BF70474FF00003BE
:103910000AE000BF50EA010208BF704711F00043FF
:1039200002D5404261EB41015FEA010C02BF8446CF
:103930000146002043F0B64308BFA3F18053A3F52E
:103940000003BCFA8CF2083AA3EBC25310DB01FA75
:1039500002FC634400FA02FCC2F12002BCF1004FF9
:1039600020FA02F243EB020008BF20F0010070478A
:1039700002F1200201FA02FCC2F1200250EA4C00DE
:1039800021FA02F243EB020008BF20EADC70704724
:103990004FF0FF0C1CEAD0521EBF1CEAD15392EA32
:1039A0000C0F93EA0C0F6FD01A4480EA010C40020E
:1039B00018BF5FEA41211ED04FF0006343EA501068
:1039C00043EA5111A0FB01310CF00040B1F5000FAA
:1039D0003EBF490041EAD3715B0040EA010062F159
:1039E0007F02FD2A1DD8B3F1004F40EBC25008BF43
:1039F00020F00100704790F0000F0CF0004C08BF61
:103A000049024CEA502040EA51207F3AC2BFD2F12D
:103A1000FF0340EAC250704740F400004FF000033B
:103A2000013A5DDC12F1190FDCBF00F00040704775
:103A3000C2F10002410021FA02F1C2F1200200FAB3
:103A400002FC5FEA310040F1000053EA4C0308BF7A
:103A500020EADC70704792F0000F00F0004C02BFCB
:103A6000400010F4000F013AF9D040EA0C0093F046
:103A7000000F01F0004C02BF490011F4000F013BA0
:103A8000F9D041EA0C018FE70CEAD15392EA0C0F0E
:103A900018BF93EA0C0F0AD030F0004C18BF31F079
:103AA000004CD8D180EA010000F00040704790F04F
:103AB000000F17BF90F0004F084691F0000F91F0F3
:103AC000004F14D092EA0C0F01D142020FD193EAB9
:103AD0000C0F03D14B0218BF084608D180EA010041
:103AE00000F0004040F0FE4040F40000704740F01D
:103AF000FE4040F4400070474FF0FF0C1CEAD052EB
:103B00001EBF1CEAD15392EA0C0F93EA0C0F69D046
:103B1000A2EB030280EA010C49024FEA402037D0B1
:103B20004FF0805343EA111143EA10130CF00040A8
:103B30008B4238BF5B0042F17D024FF4000C8B4298
:103B400024BF5B1A40EA0C00B3EB510F24BFA3EB78
:103B5000510340EA5C00B3EB910F24BFA3EB910348
:103B600040EA9C00B3EBD10F24BFA3EBD10340EAA2
:103B7000DC001B0118BF5FEA1C1CE0D1FD2A3FF6E8
:103B800050AF8B4240EBC25008BF20F0010070479D
:103B90000CF0004C4CEA50207F32C2BFD2F1FF0340
:103BA00040EAC250704740F400004FF00003013A71
:103BB00037E792F0000F00F0004C02BF400010F415
:103BC000000F013AF9D040EA0C0093F0000F01F029
:103BD000004C02BF490011F4000F013BF9D041EA4B
:103BE0000C0195E70CEAD15392EA0C0F08D142027E
:103BF0007FF47DAF93EA0C0F7FF470AF084676E751
:103C000093EA0C0F04D14B023FF44CAF08466EE729
:103C100030F0004C18BF31F0004CCAD130F00042F7
:103C20007FF45CAF31F000437FF43CAF5FE700BF4F
:103C30004FF0FF3C06E000BF4FF0010C02E000BF78
:103C40004FF0010C4DF804CD4FEA40024FEA41031A
:103C50007FEA226C18BF7FEA236C11D001B052EAD0
:103C6000530C18BF90EA010F58BFB2EB030088BF96
:103C7000C81738BF6FEAE17018BF40F00100704705
:103C80007FEA226C02D15FEA402C05D17FEA236CE7
:103C9000E4D15FEA412CE1D05DF8040B704700BF2E
:103CA000844608466146FFE70FB5FFF7C9FF0028C5
:103CB00048BF10F1000F0FBD4DF808EDFFF7F4FFFE
:103CC0000CBF012000205DF808FB00BF4DF808ED97
:103CD000FFF7EAFF34BF012000205DF808FB00BFBA
:103CE0004DF808EDFFF7E0FF94BF012000205DF8DC
:103CF00008FB00BF4DF808EDFFF7D2FF94BF01208D
:103D000000205DF808FB00BF4DF808EDFFF7C8FF85
:103D100034BF012000205DF808FB00BF42000ED236
:103D2000B2F1FE4F0BD34FF09E03B3EB126209D4F6
:103D30004FEA002343F0004323FA02F070474FF0AC
:103D40000000704712F1610F01D1420202D14FF021
:103D5000FF3070474FF00000704700BF0B46014630
:103D6000184600F001B800BF13460A46014602207B
:103D700000F0F4B870B50F4E0F4D761BB61018BF9B
:103D8000002405D0013455F8043B9847A642F9D1E8
:103D90000A4E0B4D761B00F049FAB61018BF0024EE
:103DA00006D0013455F8043B9847A642F9D170BDBE
:103DB00070BD00BF3842000038420000444200009D
:103DC0003842000070B4840746D0541E002A41D007
:103DD000CDB2034602E0621EE4B3144603F8015B71
:103DE0009A07F8D1032C2ED9CDB245EA05250F2C20
:103DF00045EA054519D903F110022646103E0F2E5B
:103E000042F8105C42F80C5C42F8085C42F8045C32
:103E100002F11002F2D8A4F1100222F00F0204F015
:103E20000F041032032C13440DD91E462246043AC7
:103E3000032A46F8045BFAD8221F22F00302043258
:103E4000134404F003042CB1C9B21C4403F8011B51
:103E5000A342FBD170BC704714460346C2E700BFC3
:103E6000FFFFFFFFFFFFFFFFFFFFFFFFFFFFFFFF62
:103E7000FFFFFFFFFFFFFFFFFFFFFFFFFFFFFFFF52
:103E800090F800F06DE9024520F007016FF0000C9A
:103E900010F0070491F820F040F049804FF0000442
:103EA0006FF00700D1E9002391F840F000F108001D
:103EB00082FA4CF2A4FA8CF283FA4CF3A2FA8CF355
:103EC0004BBBD1E9022382FA4CF200F10800A4FABC
:103ED0008CF283FA4CF3A2FA8CF3E3B9D1E9042310
:103EE00082FA4CF200F10800A4FA8CF283FA4CF347
:103EF000A2FA8CF37BB9D1E9062301F1200182FA01
:103F00004CF200F10800A4FA8CF283FA4CF3A2FA06
:103F10008CF3002BC6D0002A04BF04301A4612BA14
:103F2000B2FA82F2FDE8024500EBD2007047D1E917
:103F3000002304F00305C4F100004FEAC50514F0A6
:103F4000040F91F840F00CFA05F562EA05021CBF77
:103F500063EA050362464FF00004A9E72DE9F04744
:103F6000254C2568D5F8484106468846924699462C
:103F7000C4B360681F2817DC431C76B104EB8005CE
:103F80000122C5F888A0D4F8881182401143022E7E
:103F9000C4F88811C5F808911ED00230636044F857
:103FA00020800020BDE8F087144B03B34FF4C870A5
:103FB000AFF300800446D0B1D5F84831002780E83F
:103FC0008800C5F8484138460123C4F88871C4F810
:103FD0008C71002EE1D0D1E7D4F88C110A43C4F8DB
:103FE0008C21DAE705F5A674C5F84841C1E74FF022
:103FF000FF30BDE8F08700BF28420000000000004D
:10400000024B13B1024800F005B8704700000000F1
:1040100021400000002301461A461846FFF79EBFC4
:1040200038B5074D074C2C1BA41005D0013C55F8A2
:10403000043D9847002CF9D1BDE8384000F002B9A2
:1040400000000000000000004008FE4340A00440C3
:104050004408FE4344A004400018FE4300C004404E
:104060003000FE43309004403400FE43349004405E
:104070001C18FE431CC004401018FE4310C004402E
:104080000818FE4308C004400C18FE430CC004404E
:104090000C10FE430CB004401010FE4310B004405E
:1040A0001810FE4318B004401C10FE431CB004401E
:1040B0001410FE4314B004400418FE4304C004402E
:1040C0000010FE4300B004400008FE4300A004407E
:1040D0000408FE4304A004400C08FE430CA0044066
:1040E0000808FE4308A004401418FE4314C004400E
:1040F0001818FE4318C004400410FE4304B00440E6
:104100000810FE4308B004401400FE43149004401D
:104110004C08FE434CA004400420FE4304D004405D
:104120002410FE4324B004402010FE4320B004407D
:104130002810FE4328B004402C10FE432CB004404D
:104140000020FE4300D004404808FE4348A004403D
:104150001000FE431090044000000000000000002A
:10416000F92700001D280000B1280000AD2800003C
:10417000A9280000A5280000A12800006D28000043
:1041800081280000692800006128000059280000EB
:104190005128000041280000312800002D2800008F
:1041A000CD270000D5270000DD270000E52700000F
:1041B00005280000ED270000151915190001000061
:1041C0008888FF1F1200000000020000B488FF1F53
:1041D00073000000002201002889FF1F2100000059
:1041E000002101001089FF1F0900000000030000EA
:1041F0006489FF1F00000000010309049C88FF1F61
:1042000000000000020309044C89FF1F00000000A9
:10421000030309046889FF1F00000000000000007C
:1042200000000000000000008089FF1FF8B500BFFB
:10423000F8BC08BC9E4670470140000035040000F1
:04424000D50E000097
:04424400F8B500BF0A
:1042480000000000494A4BFAFBF8000007090B730D
:10425800040000000608000A00000000FC0000003E
:10426800170016191406150509040A0308000000AA
:10427800FFFFFFFF6041000000000000E8030000AE
:10428800000000000A0401001201100100000040B3
:10429800C0168504750201020301000018035400CA
:1042A800650065006E0073007900640075006900A0
:1042B8006E006F0009027300020100C03209040099
:1042C8000002010300000724010001250006240262
:1042D800010100062402020200092403010301026D
:1042E8000100092403020401010100090504024038
:1042F80000000000052501010109058302400000B6
:104308000000052501010309040100020300000063
:104318000921110100012221000705810340000144
:10432800070502032000020006C9FF0904A15C7505
:1043380008150026FF009540097581029520097629
:10434800910295040976B102C000000018035400D8
:10435800650065006E007300790020004D0049007B
:1043680044004900040309040C0300000000000095
:104378000000000000000000000000000000000035
:10438800000000006C8CFF1FD48CFF1F3C8DFF1FAA
:104398000000000000000000000000000000000015
:1043A8000000000000000000000000000000000005
:1043B80000000000000000000000000000000000F5
:1043C80000000000000000000000000000000000E5
:1043D80000000000000000000000000000000000D5
:1043E80000000000000000000000000000000000C5
:1043F80000000000000000000000000000000000B5
:1044080000000000000000000000000000000000A4
:104418000000000000000000000000000000000094
:104428000000000000000000010000000000000083
:104438000E33CDAB34126DE6ECDE05000B00000048
:104448000000000000000000000000000000000064
:104458000000000000000000000000000000000054
:104468000000000000000000000000000000000044
:104478000000000000000000000000000000000034
:00000001FF
